{
  "contractName": "DebtLidquidator",
  "abi": [
    {
      "inputs": [
        {
          "internalType": "address",
          "name": "_currency",
          "type": "address"
        },
        {
          "internalType": "address",
          "name": "_nft",
          "type": "address"
        },
        {
          "internalType": "address",
          "name": "_pool",
          "type": "address"
        },
        {
          "internalType": "address",
          "name": "_escrowReserva",
          "type": "address"
        }
      ],
      "stateMutability": "nonpayable",
      "type": "constructor"
    },
    {
      "anonymous": false,
      "inputs": [
        {
          "indexed": true,
          "internalType": "address",
          "name": "buyer",
          "type": "address"
        },
        {
          "indexed": false,
          "internalType": "uint256",
          "name": "tokenId",
          "type": "uint256"
        }
      ],
      "name": "LiquidatedDebt",
      "type": "event"
    },
    {
      "inputs": [],
      "name": "burnAddress",
      "outputs": [
        {
          "internalType": "address",
          "name": "",
          "type": "address"
        }
      ],
      "stateMutability": "view",
      "type": "function"
    },
    {
      "inputs": [],
      "name": "escrowReserva",
      "outputs": [
        {
          "internalType": "address",
          "name": "",
          "type": "address"
        }
      ],
      "stateMutability": "view",
      "type": "function"
    },
    {
      "inputs": [],
      "name": "interestReserva",
      "outputs": [
        {
          "internalType": "uint256",
          "name": "",
          "type": "uint256"
        }
      ],
      "stateMutability": "view",
      "type": "function"
    },
    {
      "inputs": [
        {
          "internalType": "address",
          "name": "",
          "type": "address"
        },
        {
          "internalType": "uint256",
          "name": "",
          "type": "uint256"
        }
      ],
      "name": "liquidatedDebts",
      "outputs": [
        {
          "internalType": "uint256",
          "name": "",
          "type": "uint256"
        }
      ],
      "stateMutability": "view",
      "type": "function"
    },
    {
      "inputs": [],
      "name": "pool",
      "outputs": [
        {
          "internalType": "address",
          "name": "",
          "type": "address"
        }
      ],
      "stateMutability": "view",
      "type": "function"
    },
    {
      "inputs": [
        {
          "internalType": "bytes4",
          "name": "interfaceId",
          "type": "bytes4"
        }
      ],
      "name": "supportsInterface",
      "outputs": [
        {
          "internalType": "bool",
          "name": "",
          "type": "bool"
        }
      ],
      "stateMutability": "view",
      "type": "function"
    },
    {
      "inputs": [
        {
          "internalType": "uint256",
          "name": "_tokenId",
          "type": "uint256"
        },
        {
          "internalType": "uint256",
          "name": "_value",
          "type": "uint256"
        }
      ],
      "name": "pay",
      "outputs": [],
      "stateMutability": "nonpayable",
      "type": "function"
    }
  ],
  "bytecode": "0x60806040523480156200001157600080fd5b50604051620013083803806200130883398181016040528101906200003791906200015b565b836000806101000a81548173ffffffffffffffffffffffffffffffffffffffff021916908373ffffffffffffffffffffffffffffffffffffffff16021790555082600160006101000a81548173ffffffffffffffffffffffffffffffffffffffff021916908373ffffffffffffffffffffffffffffffffffffffff16021790555081600360006101000a81548173ffffffffffffffffffffffffffffffffffffffff021916908373ffffffffffffffffffffffffffffffffffffffff16021790555080600260006101000a81548173ffffffffffffffffffffffffffffffffffffffff021916908373ffffffffffffffffffffffffffffffffffffffff1602179055505050505062000215565b6000815190506200015581620001fb565b92915050565b600080600080608085870312156200017257600080fd5b6000620001828782880162000144565b9450506020620001958782880162000144565b9350506040620001a88782880162000144565b9250506060620001bb8782880162000144565b91505092959194509250565b6000620001d482620001db565b9050919050565b600073ffffffffffffffffffffffffffffffffffffffff82169050919050565b6200020681620001c7565b81146200021257600080fd5b50565b6110e380620002256000396000f3fe608060405234801561001057600080fd5b506004361061007d5760003560e01c806370d5ae051161005b57806370d5ae05146100ee5780637bbac50e1461010c5780639a50d8491461012a578063ef48eee61461015a5761007d565b806301ffc9a71461008257806316f0115b146100b257806354ff8034146100d0575b600080fd5b61009c60048036038101906100979190610ad6565b610176565b6040516100a99190610d40565b60405180910390f35b6100ba6102c0565b6040516100c79190610cee565b60405180910390f35b6100d86102e6565b6040516100e59190610cee565b60405180910390f35b6100f661030c565b6040516101039190610cee565b60405180910390f35b610114610311565b6040516101219190610d7b565b60405180910390f35b610144600480360381019061013f9190610a71565b610316565b6040516101519190610d7b565b60405180910390f35b610174600480360381019061016f9190610bf9565b610347565b005b60007f36372b07000000000000000000000000000000000000000000000000000000007bffffffffffffffffffffffffffffffffffffffffffffffffffffffff1916827bffffffffffffffffffffffffffffffffffffffffffffffffffffffff1916148061024157507f0178fe3f000000000000000000000000000000000000000000000000000000007bffffffffffffffffffffffffffffffffffffffffffffffffffffffff1916827bffffffffffffffffffffffffffffffffffffffffffffffffffffffff1916145b806102a957507f3d92733d000000000000000000000000000000000000000000000000000000007bffffffffffffffffffffffffffffffffffffffffffffffffffffffff1916827bffffffffffffffffffffffffffffffffffffffffffffffffffffffff1916145b806102b957506102b8826108fa565b5b9050919050565b600360009054906101000a900473ffffffffffffffffffffffffffffffffffffffff1681565b600260009054906101000a900473ffffffffffffffffffffffffffffffffffffffff1681565b600181565b600181565b6004602052816000526040600020818154811061033257600080fd5b90600052602060002001600091509150505481565b6000806000600160009054906101000a900473ffffffffffffffffffffffffffffffffffffffff1673ffffffffffffffffffffffffffffffffffffffff16630178fe3f866040518263ffffffff1660e01b81526004016103a79190610d7b565b60006040518083038186803b1580156103bf57600080fd5b505afa1580156103d3573d6000803e3d6000fd5b505050506040513d6000823e3d601f19601f820116820180604052508101906103fc9190610aff565b955095509550505050838314610447576040517f08c379a000000000000000000000000000000000000000000000000000000000815260040161043e90610d5b565b60405180910390fd5b60006104f2600360009054906101000a900473ffffffffffffffffffffffffffffffffffffffff1673ffffffffffffffffffffffffffffffffffffffff1663c392f7666040518163ffffffff1660e01b815260040160206040518083038186803b1580156104b457600080fd5b505afa1580156104c8573d6000803e3d6000fd5b505050506040513d601f19601f820116820180604052508101906104ec9190610bd0565b84610964565b836104fd9190610e08565b90506000610517600183886105129190610ee9565b610964565b905060008183886105289190610ee9565b6105329190610ee9565b905060008054906101000a900473ffffffffffffffffffffffffffffffffffffffff1673ffffffffffffffffffffffffffffffffffffffff166323b872dd33600360009054906101000a900473ffffffffffffffffffffffffffffffffffffffff16866040518463ffffffff1660e01b81526004016105b393929190610d09565b602060405180830381600087803b1580156105cd57600080fd5b505af11580156105e1573d6000803e3d6000fd5b505050506040513d601f19601f820116820180604052508101906106059190610aad565b5060008054906101000a900473ffffffffffffffffffffffffffffffffffffffff1673ffffffffffffffffffffffffffffffffffffffff166323b872dd33600260009054906101000a900473ffffffffffffffffffffffffffffffffffffffff16856040518463ffffffff1660e01b815260040161068593929190610d09565b602060405180830381600087803b15801561069f57600080fd5b505af11580156106b3573d6000803e3d6000fd5b505050506040513d601f19601f820116820180604052508101906106d79190610aad565b5060008054906101000a900473ffffffffffffffffffffffffffffffffffffffff1673ffffffffffffffffffffffffffffffffffffffff166323b872dd3386846040518463ffffffff1660e01b815260040161073593929190610d09565b602060405180830381600087803b15801561074f57600080fd5b505af1158015610763573d6000803e3d6000fd5b505050506040513d601f19601f820116820180604052508101906107879190610aad565b50600160009054906101000a900473ffffffffffffffffffffffffffffffffffffffff1673ffffffffffffffffffffffffffffffffffffffff166323b872dd600360009054906101000a900473ffffffffffffffffffffffffffffffffffffffff1660018b6040518463ffffffff1660e01b815260040161080a93929190610d09565b600060405180830381600087803b15801561082457600080fd5b505af1158015610838573d6000803e3d6000fd5b50505050600460003373ffffffffffffffffffffffffffffffffffffffff1673ffffffffffffffffffffffffffffffffffffffff1681526020019081526020016000208890806001815401808255809150506001900390600052602060002001600090919091909150553373ffffffffffffffffffffffffffffffffffffffff167f39a0c6451f2e8066977800eb1b6872ce07fd7fb769c2e4dc61df2de34b662b7f896040516108e89190610d7b565b60405180910390a25050505050505050565b60007f01ffc9a7000000000000000000000000000000000000000000000000000000007bffffffffffffffffffffffffffffffffffffffffffffffffffffffff1916827bffffffffffffffffffffffffffffffffffffffffffffffffffffffff1916149050919050565b600080606483856109759190610e8f565b61097f9190610e5e565b90508091505092915050565b600061099e61099984610dc7565b610d96565b9050828152602081018484840111156109b657600080fd5b6109c1848285610f91565b509392505050565b6000813590506109d881611051565b92915050565b6000815190506109ed81611051565b92915050565b600081519050610a0281611068565b92915050565b600081359050610a178161107f565b92915050565b600082601f830112610a2e57600080fd5b8151610a3e84826020860161098b565b91505092915050565b600081359050610a5681611096565b92915050565b600081519050610a6b81611096565b92915050565b60008060408385031215610a8457600080fd5b6000610a92858286016109c9565b9250506020610aa385828601610a47565b9150509250929050565b600060208284031215610abf57600080fd5b6000610acd848285016109f3565b91505092915050565b600060208284031215610ae857600080fd5b6000610af684828501610a08565b91505092915050565b60008060008060008060c08789031215610b1857600080fd5b600087015167ffffffffffffffff811115610b3257600080fd5b610b3e89828a01610a1d565b965050602087015167ffffffffffffffff811115610b5b57600080fd5b610b6789828a01610a1d565b955050604087015167ffffffffffffffff811115610b8457600080fd5b610b9089828a01610a1d565b9450506060610ba189828a01610a5c565b9350506080610bb289828a01610a5c565b92505060a0610bc389828a016109de565b9150509295509295509295565b600060208284031215610be257600080fd5b6000610bf084828501610a5c565b91505092915050565b60008060408385031215610c0c57600080fd5b6000610c1a85828601610a47565b9250506020610c2b85828601610a47565b9150509250929050565b610c3e81610f1d565b82525050565b610c4d81610f2f565b82525050565b6000610c60604a83610df7565b91507f4d61726b6574706c6163653a205468652076616c7565207468617420796f752060008301527f74727920746f20706179206e6f74206d6174636820776974682074686520766160208301527f6c7565206f66204e4654000000000000000000000000000000000000000000006040830152606082019050919050565b610ce881610f87565b82525050565b6000602082019050610d036000830184610c35565b92915050565b6000606082019050610d1e6000830186610c35565b610d2b6020830185610c35565b610d386040830184610cdf565b949350505050565b6000602082019050610d556000830184610c44565b92915050565b60006020820190508181036000830152610d7481610c53565b9050919050565b6000602082019050610d906000830184610cdf565b92915050565b6000604051905081810181811067ffffffffffffffff82111715610dbd57610dbc611022565b5b8060405250919050565b600067ffffffffffffffff821115610de257610de1611022565b5b601f19601f8301169050602081019050919050565b600082825260208201905092915050565b6000610e1382610f87565b9150610e1e83610f87565b9250827fffffffffffffffffffffffffffffffffffffffffffffffffffffffffffffffff03821115610e5357610e52610fc4565b5b828201905092915050565b6000610e6982610f87565b9150610e7483610f87565b925082610e8457610e83610ff3565b5b828204905092915050565b6000610e9a82610f87565b9150610ea583610f87565b9250817fffffffffffffffffffffffffffffffffffffffffffffffffffffffffffffffff0483118215151615610ede57610edd610fc4565b5b828202905092915050565b6000610ef482610f87565b9150610eff83610f87565b925082821015610f1257610f11610fc4565b5b828203905092915050565b6000610f2882610f67565b9050919050565b60008115159050919050565b60007fffffffff0000000000000000000000000000000000000000000000000000000082169050919050565b600073ffffffffffffffffffffffffffffffffffffffff82169050919050565b6000819050919050565b60005b83811015610faf578082015181840152602081019050610f94565b83811115610fbe576000848401525b50505050565b7f4e487b7100000000000000000000000000000000000000000000000000000000600052601160045260246000fd5b7f4e487b7100000000000000000000000000000000000000000000000000000000600052601260045260246000fd5b7f4e487b7100000000000000000000000000000000000000000000000000000000600052604160045260246000fd5b61105a81610f1d565b811461106557600080fd5b50565b61107181610f2f565b811461107c57600080fd5b50565b61108881610f3b565b811461109357600080fd5b50565b61109f81610f87565b81146110aa57600080fd5b5056fea26469706673582212209b508b1871f567c67f092f158762b2e2f76e00d29e59c728f57324829e213a9f64736f6c63430008000033",
  "immutableReferences": {},
  "source": "// SPDX-License-Identifier: MIT\npragma solidity >=0.8.0 <0.9.0;\n\nimport \"@openzeppelin/contracts/token/ERC20/IERC20.sol\";\nimport \"@openzeppelin/contracts/utils/introspection/ERC165.sol\";\nimport \"./INFT_FACTORY.sol\";\n\n\ninterface IPool {\n   function _changedDebtLiquidator(address dl) external returns (bool);\n   function interest() external view returns(uint256);\n}\n\ncontract DebtLidquidator is ERC165{\n  IERC20 currency;\n  INFT_FACTORY nft;\n  uint256 public constant interestReserva = 1;\n  address public constant burnAddress = 0x0000000000000000000000000000000000000001;\n  address public escrowReserva;\n  address public pool;\n\n  mapping (address => uint256[]) public liquidatedDebts;\n  event LiquidatedDebt(address indexed buyer, uint256 tokenId);\n\n  constructor(address _currency, address _nft, address _pool,address _escrowReserva) {\n    currency = IERC20(_currency);\n    nft = INFT_FACTORY(_nft);\n    pool = _pool;\n    escrowReserva = _escrowReserva;\n  }\n\n  function supportsInterface(bytes4 interfaceId) public view virtual override returns (bool) {\n        return interfaceId == type(IERC20).interfaceId\n            || interfaceId == type(INFT_FACTORY).interfaceId \n            || interfaceId == type(IPool).interfaceId || super.supportsInterface(interfaceId);\n  }\n\n  function pay(uint256 _tokenId, uint256 _value) public virtual {\n    (, , ,uint256 valueOfNFT, uint256 balanceAdvance, address seller) = nft.getData(_tokenId);\n    require(valueOfNFT == _value, \"Marketplace: The value that you try to pay not match with the value of NFT\");\n    //use approve function from web3 to allow the transaction\n    uint256 toPool = balanceAdvance + _profit(IPool(pool).interest(), balanceAdvance);\n    uint256 toReserva = _profit(interestReserva, _value - toPool);\n    uint256 toSeller = _value - toPool - toReserva;\n    currency.transferFrom(msg.sender, pool, toPool);\n    currency.transferFrom(msg.sender, escrowReserva, toReserva);\n    currency.transferFrom(msg.sender, seller, toSeller);\n    nft.transferFrom(pool, burnAddress, _tokenId);\n    liquidatedDebts[msg.sender].push(_tokenId);\n    emit LiquidatedDebt(msg.sender, _tokenId);\n  }\n\n  function _profit(uint256 _interestInPorcentage, uint256 _amount) private pure returns(uint256) {\n     uint256 value = (_interestInPorcentage * _amount) / (100);\n     return value;\n  }\n  \n}\n\n",
  "sourcePath": "/home/peter/Documents/Reserva/0-Reservafs/Proyectos/DIF_PROJECT/Code/DIFonBlockchain_Enumerable/contracts/DebtLiquidator.sol",
  "compiler": {
    "name": "solc",
    "version": "0.8.0+commit.c7dfd78e.Emscripten.clang"
  },
  "schemaVersion": "3.4.3",
  "updatedAt": "2021-10-18T03:24:45.255Z",
  "devdoc": {
    "kind": "dev",
    "methods": {
      "supportsInterface(bytes4)": {
        "details": "See {IERC165-supportsInterface}."
      }
    },
    "version": 1
  },
  "userdoc": {
    "kind": "user",
    "methods": {},
    "version": 1
  }
}