{
  "contractName": "NFT_FACTORY",
  "abi": [
    {
      "inputs": [],
      "stateMutability": "nonpayable",
      "type": "constructor"
    },
    {
      "anonymous": false,
      "inputs": [
        {
          "indexed": true,
          "internalType": "address",
          "name": "owner",
          "type": "address"
        },
        {
          "indexed": true,
          "internalType": "address",
          "name": "approved",
          "type": "address"
        },
        {
          "indexed": true,
          "internalType": "uint256",
          "name": "tokenId",
          "type": "uint256"
        }
      ],
      "name": "Approval",
      "type": "event"
    },
    {
      "anonymous": false,
      "inputs": [
        {
          "indexed": true,
          "internalType": "address",
          "name": "owner",
          "type": "address"
        },
        {
          "indexed": true,
          "internalType": "address",
          "name": "operator",
          "type": "address"
        },
        {
          "indexed": false,
          "internalType": "bool",
          "name": "approved",
          "type": "bool"
        }
      ],
      "name": "ApprovalForAll",
      "type": "event"
    },
    {
      "anonymous": false,
      "inputs": [
        {
          "indexed": true,
          "internalType": "address",
          "name": "previousOwner",
          "type": "address"
        },
        {
          "indexed": true,
          "internalType": "address",
          "name": "newOwner",
          "type": "address"
        }
      ],
      "name": "OwnershipTransferred",
      "type": "event"
    },
    {
      "anonymous": false,
      "inputs": [
        {
          "indexed": true,
          "internalType": "int128",
          "name": "newRatio",
          "type": "int128"
        }
      ],
      "name": "RATIOCHANGED",
      "type": "event"
    },
    {
      "anonymous": false,
      "inputs": [
        {
          "indexed": true,
          "internalType": "address",
          "name": "from",
          "type": "address"
        },
        {
          "indexed": true,
          "internalType": "address",
          "name": "to",
          "type": "address"
        },
        {
          "indexed": true,
          "internalType": "uint256",
          "name": "tokenId",
          "type": "uint256"
        }
      ],
      "name": "Transfer",
      "type": "event"
    },
    {
      "inputs": [
        {
          "internalType": "address",
          "name": "to",
          "type": "address"
        },
        {
          "internalType": "uint256",
          "name": "tokenId",
          "type": "uint256"
        }
      ],
      "name": "approve",
      "outputs": [],
      "stateMutability": "nonpayable",
      "type": "function"
    },
    {
      "inputs": [
        {
          "internalType": "address",
          "name": "owner",
          "type": "address"
        }
      ],
      "name": "balanceOf",
      "outputs": [
        {
          "internalType": "uint256",
          "name": "",
          "type": "uint256"
        }
      ],
      "stateMutability": "view",
      "type": "function"
    },
    {
      "inputs": [],
      "name": "dailyInterestRUSD",
      "outputs": [
        {
          "internalType": "uint256",
          "name": "",
          "type": "uint256"
        }
      ],
      "stateMutability": "view",
      "type": "function"
    },
    {
      "inputs": [
        {
          "internalType": "uint256",
          "name": "tokenId",
          "type": "uint256"
        }
      ],
      "name": "getApproved",
      "outputs": [
        {
          "internalType": "address",
          "name": "",
          "type": "address"
        }
      ],
      "stateMutability": "view",
      "type": "function"
    },
    {
      "inputs": [
        {
          "internalType": "address",
          "name": "owner",
          "type": "address"
        },
        {
          "internalType": "address",
          "name": "operator",
          "type": "address"
        }
      ],
      "name": "isApprovedForAll",
      "outputs": [
        {
          "internalType": "bool",
          "name": "",
          "type": "bool"
        }
      ],
      "stateMutability": "view",
      "type": "function"
    },
    {
      "inputs": [],
      "name": "name",
      "outputs": [
        {
          "internalType": "string",
          "name": "",
          "type": "string"
        }
      ],
      "stateMutability": "view",
      "type": "function"
    },
    {
      "inputs": [],
      "name": "owner",
      "outputs": [
        {
          "internalType": "address",
          "name": "",
          "type": "address"
        }
      ],
      "stateMutability": "view",
      "type": "function"
    },
    {
      "inputs": [
        {
          "internalType": "uint256",
          "name": "tokenId",
          "type": "uint256"
        }
      ],
      "name": "ownerOf",
      "outputs": [
        {
          "internalType": "address",
          "name": "",
          "type": "address"
        }
      ],
      "stateMutability": "view",
      "type": "function"
    },
    {
      "inputs": [],
      "name": "renounceOwnership",
      "outputs": [],
      "stateMutability": "nonpayable",
      "type": "function"
    },
    {
      "inputs": [
        {
          "internalType": "address",
          "name": "from",
          "type": "address"
        },
        {
          "internalType": "address",
          "name": "to",
          "type": "address"
        },
        {
          "internalType": "uint256",
          "name": "tokenId",
          "type": "uint256"
        }
      ],
      "name": "safeTransferFrom",
      "outputs": [],
      "stateMutability": "nonpayable",
      "type": "function"
    },
    {
      "inputs": [
        {
          "internalType": "address",
          "name": "from",
          "type": "address"
        },
        {
          "internalType": "address",
          "name": "to",
          "type": "address"
        },
        {
          "internalType": "uint256",
          "name": "tokenId",
          "type": "uint256"
        },
        {
          "internalType": "bytes",
          "name": "_data",
          "type": "bytes"
        }
      ],
      "name": "safeTransferFrom",
      "outputs": [],
      "stateMutability": "nonpayable",
      "type": "function"
    },
    {
      "inputs": [
        {
          "internalType": "address",
          "name": "operator",
          "type": "address"
        },
        {
          "internalType": "bool",
          "name": "approved",
          "type": "bool"
        }
      ],
      "name": "setApprovalForAll",
      "outputs": [],
      "stateMutability": "nonpayable",
      "type": "function"
    },
    {
      "inputs": [],
      "name": "symbol",
      "outputs": [
        {
          "internalType": "string",
          "name": "",
          "type": "string"
        }
      ],
      "stateMutability": "view",
      "type": "function"
    },
    {
      "inputs": [
        {
          "internalType": "uint256",
          "name": "index",
          "type": "uint256"
        }
      ],
      "name": "tokenByIndex",
      "outputs": [
        {
          "internalType": "uint256",
          "name": "",
          "type": "uint256"
        }
      ],
      "stateMutability": "view",
      "type": "function"
    },
    {
      "inputs": [
        {
          "internalType": "address",
          "name": "owner",
          "type": "address"
        },
        {
          "internalType": "uint256",
          "name": "index",
          "type": "uint256"
        }
      ],
      "name": "tokenOfOwnerByIndex",
      "outputs": [
        {
          "internalType": "uint256",
          "name": "",
          "type": "uint256"
        }
      ],
      "stateMutability": "view",
      "type": "function"
    },
    {
      "inputs": [
        {
          "internalType": "uint256",
          "name": "tokenId",
          "type": "uint256"
        }
      ],
      "name": "tokenURI",
      "outputs": [
        {
          "internalType": "string",
          "name": "",
          "type": "string"
        }
      ],
      "stateMutability": "view",
      "type": "function"
    },
    {
      "inputs": [],
      "name": "totalSupply",
      "outputs": [
        {
          "internalType": "uint256",
          "name": "",
          "type": "uint256"
        }
      ],
      "stateMutability": "view",
      "type": "function"
    },
    {
      "inputs": [
        {
          "internalType": "address",
          "name": "from",
          "type": "address"
        },
        {
          "internalType": "address",
          "name": "to",
          "type": "address"
        },
        {
          "internalType": "uint256",
          "name": "tokenId",
          "type": "uint256"
        }
      ],
      "name": "transferFrom",
      "outputs": [],
      "stateMutability": "nonpayable",
      "type": "function"
    },
    {
      "inputs": [
        {
          "internalType": "address",
          "name": "newOwner",
          "type": "address"
        }
      ],
      "name": "transferOwnership",
      "outputs": [],
      "stateMutability": "nonpayable",
      "type": "function"
    },
    {
      "inputs": [
        {
          "internalType": "bytes4",
          "name": "interfaceId",
          "type": "bytes4"
        }
      ],
      "name": "supportsInterface",
      "outputs": [
        {
          "internalType": "bool",
          "name": "",
          "type": "bool"
        }
      ],
      "stateMutability": "view",
      "type": "function"
    },
    {
      "inputs": [
        {
          "internalType": "address",
          "name": "_recipient",
          "type": "address"
        },
        {
          "internalType": "string",
          "name": "_dataCustumer",
          "type": "string"
        },
        {
          "internalType": "uint256",
          "name": "_valueOfNFT",
          "type": "uint256"
        },
        {
          "internalType": "uint256",
          "name": "_balanceAdvance",
          "type": "uint256"
        },
        {
          "internalType": "int128",
          "name": "_interestRate",
          "type": "int128"
        },
        {
          "internalType": "int128",
          "name": "_interestRateOverDue",
          "type": "int128"
        }
      ],
      "name": "createInvoice",
      "outputs": [],
      "stateMutability": "nonpayable",
      "type": "function"
    },
    {
      "inputs": [
        {
          "internalType": "uint256",
          "name": "tokenId",
          "type": "uint256"
        }
      ],
      "name": "destroyNFT",
      "outputs": [],
      "stateMutability": "nonpayable",
      "type": "function"
    },
    {
      "inputs": [
        {
          "internalType": "uint256",
          "name": "tokenId",
          "type": "uint256"
        }
      ],
      "name": "getData",
      "outputs": [
        {
          "internalType": "string",
          "name": "dataCustumer",
          "type": "string"
        },
        {
          "internalType": "uint256",
          "name": "valueOfNFT",
          "type": "uint256"
        },
        {
          "internalType": "uint256",
          "name": "balanceAdvance",
          "type": "uint256"
        },
        {
          "internalType": "int128",
          "name": "interestRate",
          "type": "int128"
        },
        {
          "internalType": "int128",
          "name": "interestRateOverDue",
          "type": "int128"
        },
        {
          "internalType": "address",
          "name": "seller",
          "type": "address"
        }
      ],
      "stateMutability": "view",
      "type": "function"
    }
  ],
  "bytecode": "0x60806040523480156200001157600080fd5b506040518060400160405280601f81526020017f446563656e7472616c697a656420496e766f69636520466163746f72696e67008152506040518060400160405280600381526020017f4449460000000000000000000000000000000000000000000000000000000000815250816000908051906020019062000096929190620001a6565b508060019080519060200190620000af929190620001a6565b505050620000d2620000c6620000d860201b60201c565b620000e060201b60201c565b620002bb565b600033905090565b6000600660009054906101000a900473ffffffffffffffffffffffffffffffffffffffff16905081600660006101000a81548173ffffffffffffffffffffffffffffffffffffffff021916908373ffffffffffffffffffffffffffffffffffffffff1602179055508173ffffffffffffffffffffffffffffffffffffffff168173ffffffffffffffffffffffffffffffffffffffff167f8be0079c531659141344cd1fd0a4f28419497f9722a3daafe3b4186f6b6457e060405160405180910390a35050565b828054620001b49062000256565b90600052602060002090601f016020900481019282620001d8576000855562000224565b82601f10620001f357805160ff191683800117855562000224565b8280016001018555821562000224579182015b828111156200022357825182559160200191906001019062000206565b5b50905062000233919062000237565b5090565b5b808211156200025257600081600090555060010162000238565b5090565b600060028204905060018216806200026f57607f821691505b602082108114156200028657620002856200028c565b5b50919050565b7f4e487b7100000000000000000000000000000000000000000000000000000000600052602260045260246000fd5b6152b680620002cb6000396000f3fe608060405234801561001057600080fd5b506004361061014d5760003560e01c806370a08231116100c3578063c40412b51161007c578063c40412b5146103b5578063c87b56dd146103d1578063dd036e6314610401578063e7863d761461041f578063e985e9c51461043b578063f2fde38b1461046b5761014d565b806370a0823114610307578063715018a6146103375780638da5cb5b1461034157806395d89b411461035f578063a22cb4651461037d578063b88d4fde146103995761014d565b806318160ddd1161011557806318160ddd1461022157806323b872dd1461023f5780632f745c591461025b57806342842e0e1461028b5780634f6ccce7146102a75780636352211e146102d75761014d565b80630178fe3f1461015257806301ffc9a71461018757806306fdde03146101b7578063081812fc146101d5578063095ea7b314610205575b600080fd5b61016c6004803603810190610167919061418a565b610487565b60405161017e96959493929190614b05565b60405180910390f35b6101a1600480360381019061019c9190614138565b610730565b6040516101ae9190614ac8565b60405180910390f35b6101bf610742565b6040516101cc9190614ae3565b60405180910390f35b6101ef60048036038101906101ea919061418a565b6107d4565b6040516101fc9190614a61565b60405180910390f35b61021f600480360381019061021a91906140fc565b610859565b005b610229610971565b6040516102369190614dcd565b60405180910390f35b61025960048036038101906102549190613f55565b61097e565b005b610275600480360381019061027091906140fc565b6109de565b6040516102829190614dcd565b60405180910390f35b6102a560048036038101906102a09190613f55565b610a83565b005b6102c160048036038101906102bc919061418a565b610aa3565b6040516102ce9190614dcd565b60405180910390f35b6102f160048036038101906102ec919061418a565b610b3a565b6040516102fe9190614a61565b60405180910390f35b610321600480360381019061031c9190613ef0565b610bec565b60405161032e9190614dcd565b60405180910390f35b61033f610ca4565b005b610349610d2c565b6040516103569190614a61565b60405180910390f35b610367610d56565b6040516103749190614ae3565b60405180910390f35b6103976004803603810190610392919061401f565b610de8565b005b6103b360048036038101906103ae9190613fa4565b610f69565b005b6103cf60048036038101906103ca919061418a565b610fcb565b005b6103eb60048036038101906103e6919061418a565b611164565b6040516103f89190614ae3565b60405180910390f35b61040961120b565b6040516104169190614dcd565b60405180910390f35b6104396004803603810190610434919061405b565b611211565b005b61045560048036038101906104509190613f19565b611381565b6040516104629190614ac8565b60405180910390f35b61048560048036038101906104809190613ef0565b611415565b005b60606000806000806000600c87815481106104cb577f4e487b7100000000000000000000000000000000000000000000000000000000600052603260045260246000fd5b906000526020600020906006020160000180546104e79061503a565b80601f01602080910402602001604051908101604052809291908181526020018280546105139061503a565b80156105605780601f1061053557610100808354040283529160200191610560565b820191906000526020600020905b81548152906001019060200180831161054357829003601f168201915b50505050509550600c87815481106105a1577f4e487b7100000000000000000000000000000000000000000000000000000000600052603260045260246000fd5b9060005260206000209060060201600101549450600c87815481106105ef577f4e487b7100000000000000000000000000000000000000000000000000000000600052603260045260246000fd5b9060005260206000209060060201600201549350600c878154811061063d577f4e487b7100000000000000000000000000000000000000000000000000000000600052603260045260246000fd5b906000526020600020906006020160030160009054906101000a9004600f0b9250600c8781548110610698577f4e487b7100000000000000000000000000000000000000000000000000000000600052603260045260246000fd5b906000526020600020906006020160030160109054906101000a9004600f0b9150600c87815481106106f3577f4e487b7100000000000000000000000000000000000000000000000000000000600052603260045260246000fd5b906000526020600020906006020160040160009054906101000a900473ffffffffffffffffffffffffffffffffffffffff16905091939550919395565b600061073b8261150d565b9050919050565b6060600080546107519061503a565b80601f016020809104026020016040519081016040528092919081815260200182805461077d9061503a565b80156107ca5780601f1061079f576101008083540402835291602001916107ca565b820191906000526020600020905b8154815290600101906020018083116107ad57829003601f168201915b5050505050905090565b60006107df82611587565b61081e576040517f08c379a000000000000000000000000000000000000000000000000000000000815260040161081590614ccd565b60405180910390fd5b6004600083815260200190815260200160002060009054906101000a900473ffffffffffffffffffffffffffffffffffffffff169050919050565b600061086482610b3a565b90508073ffffffffffffffffffffffffffffffffffffffff168373ffffffffffffffffffffffffffffffffffffffff1614156108d5576040517f08c379a00000000000000000000000000000000000000000000000000000000081526004016108cc90614d4d565b60405180910390fd5b8073ffffffffffffffffffffffffffffffffffffffff166108f46115f3565b73ffffffffffffffffffffffffffffffffffffffff16148061092357506109228161091d6115f3565b611381565b5b610962576040517f08c379a000000000000000000000000000000000000000000000000000000000815260040161095990614c4d565b60405180910390fd5b61096c83836115fb565b505050565b6000600980549050905090565b61098f6109896115f3565b826116b4565b6109ce576040517f08c379a00000000000000000000000000000000000000000000000000000000081526004016109c590614d6d565b60405180910390fd5b6109d9838383611792565b505050565b60006109e983610bec565b8210610a2a576040517f08c379a0000000000000000000000000000000000000000000000000000000008152600401610a2190614b6d565b60405180910390fd5b600760008473ffffffffffffffffffffffffffffffffffffffff1673ffffffffffffffffffffffffffffffffffffffff168152602001908152602001600020600083815260200190815260200160002054905092915050565b610a9e83838360405180602001604052806000815250610f69565b505050565b6000610aad610971565b8210610aee576040517f08c379a0000000000000000000000000000000000000000000000000000000008152600401610ae590614d8d565b60405180910390fd5b60098281548110610b28577f4e487b7100000000000000000000000000000000000000000000000000000000600052603260045260246000fd5b90600052602060002001549050919050565b6000806002600084815260200190815260200160002060009054906101000a900473ffffffffffffffffffffffffffffffffffffffff169050600073ffffffffffffffffffffffffffffffffffffffff168173ffffffffffffffffffffffffffffffffffffffff161415610be3576040517f08c379a0000000000000000000000000000000000000000000000000000000008152600401610bda90614c8d565b60405180910390fd5b80915050919050565b60008073ffffffffffffffffffffffffffffffffffffffff168273ffffffffffffffffffffffffffffffffffffffff161415610c5d576040517f08c379a0000000000000000000000000000000000000000000000000000000008152600401610c5490614c6d565b60405180910390fd5b600360008373ffffffffffffffffffffffffffffffffffffffff1673ffffffffffffffffffffffffffffffffffffffff168152602001908152602001600020549050919050565b610cac6115f3565b73ffffffffffffffffffffffffffffffffffffffff16610cca610d2c565b73ffffffffffffffffffffffffffffffffffffffff1614610d20576040517f08c379a0000000000000000000000000000000000000000000000000000000008152600401610d1790614ced565b60405180910390fd5b610d2a60006119ee565b565b6000600660009054906101000a900473ffffffffffffffffffffffffffffffffffffffff16905090565b606060018054610d659061503a565b80601f0160208091040260200160405190810160405280929190818152602001828054610d919061503a565b8015610dde5780601f10610db357610100808354040283529160200191610dde565b820191906000526020600020905b815481529060010190602001808311610dc157829003601f168201915b5050505050905090565b610df06115f3565b73ffffffffffffffffffffffffffffffffffffffff168273ffffffffffffffffffffffffffffffffffffffff161415610e5e576040517f08c379a0000000000000000000000000000000000000000000000000000000008152600401610e5590614c0d565b60405180910390fd5b8060056000610e6b6115f3565b73ffffffffffffffffffffffffffffffffffffffff1673ffffffffffffffffffffffffffffffffffffffff16815260200190815260200160002060008473ffffffffffffffffffffffffffffffffffffffff1673ffffffffffffffffffffffffffffffffffffffff16815260200190815260200160002060006101000a81548160ff0219169083151502179055508173ffffffffffffffffffffffffffffffffffffffff16610f186115f3565b73ffffffffffffffffffffffffffffffffffffffff167f17307eab39ab6107e8899845ad3d59bd9653f200f220920489ca2b5937696c3183604051610f5d9190614ac8565b60405180910390a35050565b610f7a610f746115f3565b836116b4565b610fb9576040517f08c379a0000000000000000000000000000000000000000000000000000000008152600401610fb090614d6d565b60405180910390fd5b610fc584848484611ab4565b50505050565b610fd36115f3565b73ffffffffffffffffffffffffffffffffffffffff16610ff1610d2c565b73ffffffffffffffffffffffffffffffffffffffff1614611047576040517f08c379a000000000000000000000000000000000000000000000000000000000815260040161103e90614ced565b60405180910390fd5b6000600c8281548110611083577f4e487b7100000000000000000000000000000000000000000000000000000000600052603260045260246000fd5b906000526020600020906006020160030160009054906101000a9004600f0b90506000600c83815481106110e0577f4e487b7100000000000000000000000000000000000000000000000000000000600052603260045260246000fd5b90600052602060002090600602016001015490506110fe8282611b10565b50600c8381548110611139577f4e487b7100000000000000000000000000000000000000000000000000000000600052603260045260246000fd5b906000526020600020906006020160030160009054906101000a90505061115f83611b41565b505050565b606061116f82611587565b6111ae576040517f08c379a00000000000000000000000000000000000000000000000000000000081526004016111a590614d2d565b60405180910390fd5b60006111b8611c52565b905060008151116111d85760405180602001604052806000815250611203565b806111e284611c69565b6040516020016111f39291906149d1565b6040516020818303038152906040525b915050919050565b600b5481565b6112196115f3565b73ffffffffffffffffffffffffffffffffffffffff16611237610d2c565b73ffffffffffffffffffffffffffffffffffffffff161461128d576040517f08c379a000000000000000000000000000000000000000000000000000000000815260040161128490614ced565b60405180910390fd5b600085858585858b6040516020016112aa969594939291906149f5565b604051602081830303815290604052805190602001209050600e600082815260200190815260200160002060009054906101000a900460ff1615611323576040517f08c379a000000000000000000000000000000000000000000000000000000000815260040161131a90614dad565b60405180910390fd5b6001600e600083815260200190815260200160002060006101000a81548160ff021916908315150217905550600061136087878787878d88611e16565b905061136c8882611fbf565b611376848761218d565b505050505050505050565b6000600560008473ffffffffffffffffffffffffffffffffffffffff1673ffffffffffffffffffffffffffffffffffffffff16815260200190815260200160002060008373ffffffffffffffffffffffffffffffffffffffff1673ffffffffffffffffffffffffffffffffffffffff16815260200190815260200160002060009054906101000a900460ff16905092915050565b61141d6115f3565b73ffffffffffffffffffffffffffffffffffffffff1661143b610d2c565b73ffffffffffffffffffffffffffffffffffffffff1614611491576040517f08c379a000000000000000000000000000000000000000000000000000000000815260040161148890614ced565b60405180910390fd5b600073ffffffffffffffffffffffffffffffffffffffff168173ffffffffffffffffffffffffffffffffffffffff161415611501576040517f08c379a00000000000000000000000000000000000000000000000000000000081526004016114f890614bad565b60405180910390fd5b61150a816119ee565b50565b60007f780e9d63000000000000000000000000000000000000000000000000000000007bffffffffffffffffffffffffffffffffffffffffffffffffffffffff1916827bffffffffffffffffffffffffffffffffffffffffffffffffffffffff19161480611580575061157f826121be565b5b9050919050565b60008073ffffffffffffffffffffffffffffffffffffffff166002600084815260200190815260200160002060009054906101000a900473ffffffffffffffffffffffffffffffffffffffff1673ffffffffffffffffffffffffffffffffffffffff1614159050919050565b600033905090565b816004600083815260200190815260200160002060006101000a81548173ffffffffffffffffffffffffffffffffffffffff021916908373ffffffffffffffffffffffffffffffffffffffff160217905550808273ffffffffffffffffffffffffffffffffffffffff1661166e83610b3a565b73ffffffffffffffffffffffffffffffffffffffff167f8c5be1e5ebec7d5bd14f71427d1e84f3dd0314c0f7b2291e5b200ac8c7c3b92560405160405180910390a45050565b60006116bf82611587565b6116fe576040517f08c379a00000000000000000000000000000000000000000000000000000000081526004016116f590614c2d565b60405180910390fd5b600061170983610b3a565b90508073ffffffffffffffffffffffffffffffffffffffff168473ffffffffffffffffffffffffffffffffffffffff16148061177857508373ffffffffffffffffffffffffffffffffffffffff16611760846107d4565b73ffffffffffffffffffffffffffffffffffffffff16145b8061178957506117888185611381565b5b91505092915050565b8273ffffffffffffffffffffffffffffffffffffffff166117b282610b3a565b73ffffffffffffffffffffffffffffffffffffffff1614611808576040517f08c379a00000000000000000000000000000000000000000000000000000000081526004016117ff90614d0d565b60405180910390fd5b600073ffffffffffffffffffffffffffffffffffffffff168273ffffffffffffffffffffffffffffffffffffffff161415611878576040517f08c379a000000000000000000000000000000000000000000000000000000000815260040161186f90614bed565b60405180910390fd5b6118838383836122a0565b61188e6000826115fb565b6001600360008573ffffffffffffffffffffffffffffffffffffffff1673ffffffffffffffffffffffffffffffffffffffff16815260200190815260200160002060008282546118de9190614f43565b925050819055506001600360008473ffffffffffffffffffffffffffffffffffffffff1673ffffffffffffffffffffffffffffffffffffffff16815260200190815260200160002060008282546119359190614ebc565b92505081905550816002600083815260200190815260200160002060006101000a81548173ffffffffffffffffffffffffffffffffffffffff021916908373ffffffffffffffffffffffffffffffffffffffff160217905550808273ffffffffffffffffffffffffffffffffffffffff168473ffffffffffffffffffffffffffffffffffffffff167fddf252ad1be2c89b69c2b068fc378daa952ba7f163c4a11628f55a4df523b3ef60405160405180910390a4505050565b6000600660009054906101000a900473ffffffffffffffffffffffffffffffffffffffff16905081600660006101000a81548173ffffffffffffffffffffffffffffffffffffffff021916908373ffffffffffffffffffffffffffffffffffffffff1602179055508173ffffffffffffffffffffffffffffffffffffffff168173ffffffffffffffffffffffffffffffffffffffff167f8be0079c531659141344cd1fd0a4f28419497f9722a3daafe3b4186f6b6457e060405160405180910390a35050565b611abf848484611792565b611acb848484846122b0565b611b0a576040517f08c379a0000000000000000000000000000000000000000000000000000000008152600401611b0190614b8d565b60405180910390fd5b50505050565b600080611b25611b1f85612447565b84612496565b9050611b33600b5482612551565b600b81905591505092915050565b6000611b4c82610b3a565b9050611b5a816000846122a0565b611b656000836115fb565b6001600360008373ffffffffffffffffffffffffffffffffffffffff1673ffffffffffffffffffffffffffffffffffffffff1681526020019081526020016000206000828254611bb59190614f43565b925050819055506002600083815260200190815260200160002060006101000a81549073ffffffffffffffffffffffffffffffffffffffff021916905581600073ffffffffffffffffffffffffffffffffffffffff168273ffffffffffffffffffffffffffffffffffffffff167fddf252ad1be2c89b69c2b068fc378daa952ba7f163c4a11628f55a4df523b3ef60405160405180910390a45050565b606060405180602001604052806000815250905090565b60606000821415611cb1576040518060400160405280600181526020017f30000000000000000000000000000000000000000000000000000000000000008152509050611e11565b600082905060005b60008214611ce3578080611ccc9061506c565b915050600a82611cdc9190614f12565b9150611cb9565b60008167ffffffffffffffff811115611d25577f4e487b7100000000000000000000000000000000000000000000000000000000600052604160045260246000fd5b6040519080825280601f01601f191660200182016040528015611d575781602001600182028036833780820191505090505b5090505b60008514611e0a57600182611d709190614f43565b9150600a85611d7f91906150f5565b6030611d8b9190614ebc565b60f81b818381518110611dc7577f4e487b7100000000000000000000000000000000000000000000000000000000600052603260045260246000fd5b60200101907effffffffffffffffffffffffffffffffffffffffffffffffffffffffffffff1916908160001a905350600a85611e039190614f12565b9450611d5b565b8093505050505b919050565b6000600c6040518060e001604052808a815260200189815260200188815260200187600f0b815260200186600f0b81526020018573ffffffffffffffffffffffffffffffffffffffff1681526020018481525090806001815401808255809150506001900390600052602060002090600602016000909190919091506000820151816000019080519060200190611eae929190613cff565b50602082015181600101556040820151816002015560608201518160030160006101000a8154816fffffffffffffffffffffffffffffffff0219169083600f0b6fffffffffffffffffffffffffffffffff16021790555060808201518160030160106101000a8154816fffffffffffffffffffffffffffffffff0219169083600f0b6fffffffffffffffffffffffffffffffff16021790555060a08201518160040160006101000a81548173ffffffffffffffffffffffffffffffffffffffff021916908373ffffffffffffffffffffffffffffffffffffffff16021790555060c08201518160050155505060006001600c80549050611fae9190614f43565b905080915050979650505050505050565b600073ffffffffffffffffffffffffffffffffffffffff168273ffffffffffffffffffffffffffffffffffffffff16141561202f576040517f08c379a000000000000000000000000000000000000000000000000000000000815260040161202690614cad565b60405180910390fd5b61203881611587565b15612078576040517f08c379a000000000000000000000000000000000000000000000000000000000815260040161206f90614bcd565b60405180910390fd5b612084600083836122a0565b6001600360008473ffffffffffffffffffffffffffffffffffffffff1673ffffffffffffffffffffffffffffffffffffffff16815260200190815260200160002060008282546120d49190614ebc565b92505081905550816002600083815260200190815260200160002060006101000a81548173ffffffffffffffffffffffffffffffffffffffff021916908373ffffffffffffffffffffffffffffffffffffffff160217905550808273ffffffffffffffffffffffffffffffffffffffff16600073ffffffffffffffffffffffffffffffffffffffff167fddf252ad1be2c89b69c2b068fc378daa952ba7f163c4a11628f55a4df523b3ef60405160405180910390a45050565b6000806121a261219c85612447565b84612496565b90506121b0600b5482612567565b600b81905591505092915050565b60007f80ac58cd000000000000000000000000000000000000000000000000000000007bffffffffffffffffffffffffffffffffffffffffffffffffffffffff1916827bffffffffffffffffffffffffffffffffffffffffffffffffffffffff1916148061228957507f5b5e139f000000000000000000000000000000000000000000000000000000007bffffffffffffffffffffffffffffffffffffffffffffffffffffffff1916827bffffffffffffffffffffffffffffffffffffffffffffffffffffffff1916145b8061229957506122988261257d565b5b9050919050565b6122ab8383836125e7565b505050565b60006122d18473ffffffffffffffffffffffffffffffffffffffff166126fb565b1561243a578373ffffffffffffffffffffffffffffffffffffffff1663150b7a026122fa6115f3565b8786866040518563ffffffff1660e01b815260040161231c9493929190614a7c565b602060405180830381600087803b15801561233657600080fd5b505af192505050801561236757506040513d601f19601f820116820180604052508101906123649190614161565b60015b6123ea573d8060008114612397576040519150601f19603f3d011682016040523d82523d6000602084013e61239c565b606091505b506000815114156123e2576040517f08c379a00000000000000000000000000000000000000000000000000000000081526004016123d990614b8d565b60405180910390fd5b805181602001fd5b63150b7a0260e01b7bffffffffffffffffffffffffffffffffffffffffffffffffffffffff1916817bffffffffffffffffffffffffffffffffffffffffffffffffffffffff19161491505061243f565b600190505b949350505050565b600061248f61248061247b61246561246061016d61270e565b612731565b612476612471876127ea565b612810565b612934565b61299f565b61248a600161270e565b61359f565b9050919050565b6000808214156124a9576000905061254b565b600083600f0b12156124ba57600080fd5b600060406fffffffffffffffffffffffffffffffff841685600f0b02901c90506000608084901c85600f0b02905077ffffffffffffffffffffffffffffffffffffffffffffffff81111561250d57600080fd5b604081901b9050817fffffffffffffffffffffffffffffffffffffffffffffffffffffffffffffffff0381111561254357600080fd5b818101925050505b92915050565b6000818361255f9190614f43565b905092915050565b600081836125759190614ebc565b905092915050565b60007f01ffc9a7000000000000000000000000000000000000000000000000000000007bffffffffffffffffffffffffffffffffffffffffffffffffffffffff1916827bffffffffffffffffffffffffffffffffffffffffffffffffffffffff1916149050919050565b6125f2838383613606565b600073ffffffffffffffffffffffffffffffffffffffff168373ffffffffffffffffffffffffffffffffffffffff161415612635576126308161360b565b612674565b8173ffffffffffffffffffffffffffffffffffffffff168373ffffffffffffffffffffffffffffffffffffffff1614612673576126728382613654565b5b5b600073ffffffffffffffffffffffffffffffffffffffff168273ffffffffffffffffffffffffffffffffffffffff1614156126b7576126b2816137c1565b6126f6565b8273ffffffffffffffffffffffffffffffffffffffff168273ffffffffffffffffffffffffffffffffffffffff16146126f5576126f48282613904565b5b5b505050565b600080823b905060008111915050919050565b6000677fffffffffffffff82111561272557600080fd5b604082901b9050919050565b60008082600f0b141561274357600080fd5b600082600f0b7001000000000000000000000000000000008161278f577f4e487b7100000000000000000000000000000000000000000000000000000000600052601260045260246000fd5b0590507fffffffffffffffffffffffffffffffff80000000000000000000000000000000600f0b81121580156127d857506f7fffffffffffffffffffffffffffffff600f0b8113155b6127e157600080fd5b80915050919050565b60006128096128026127fc600161270e565b84613983565b600c6139ea565b9050919050565b60008082600f0b1361282157600080fd5b60008083600f0b905068010000000000000000811261284857604081901d90506040820191505b640100000000811261286257602081901d90506020820191505b62010000811261287a57601081901d90506010820191505b610100811261289157600881901d90506008820191505b601081126128a757600481901d90506004820191505b600481126128bd57600281901d90506002820191505b600281126128cc576001820191505b60006040808403901b9050600083607f0386600f0b901b9050600067800000000000000090505b6000811315612927578182029150600060ff83901c905080607f0183901c92508082028401935050600181901d90506128f3565b5081945050505050919050565b600080604083600f0b85600f0b02901d90507fffffffffffffffffffffffffffffffff80000000000000000000000000000000600f0b811215801561298c57506f7fffffffffffffffffffffffffffffff600f0b8113155b61299557600080fd5b8091505092915050565b60006840000000000000000082600f0b126129b957600080fd5b7fffffffffffffffffffffffffffffffffffffffffffffffc0000000000000000082600f0b12156129ed576000905061359a565b60006f80000000000000000000000000000000905060006780000000000000008416600f0b1315612a3357608070016a09e667f3bcc908b2fb1366ea957d3e8202901c90505b60006740000000000000008416600f0b1315612a645760807001306fe0a31b7152de8d5a46305c85edec8202901c90505b60006720000000000000008416600f0b1315612a955760807001172b83c7d517adcdf7c8c50eb14a791f8202901c90505b60006710000000000000008416600f0b1315612ac657608070010b5586cf9890f6298b92b71842a983638202901c90505b60006708000000000000008416600f0b1315612af75760807001059b0d31585743ae7c548eb68ca417fd8202901c90505b60006704000000000000008416600f0b1315612b28576080700102c9a3e778060ee6f7caca4f7a29bde88202901c90505b60006702000000000000008416600f0b1315612b5957608070010163da9fb33356d84a66ae336dcdfa3f8202901c90505b60006701000000000000008416600f0b1315612b8a576080700100b1afa5abcbed6129ab13ec11dc95438202901c90505b600066800000000000008416600f0b1315612bba57608070010058c86da1c09ea1ff19d294cf2f679b8202901c90505b600066400000000000008416600f0b1315612bea5760807001002c605e2e8cec506d21bfc89a23a00f8202901c90505b600066200000000000008416600f0b1315612c1a576080700100162f3904051fa128bca9c55c31e5df8202901c90505b600066100000000000008416600f0b1315612c4a5760807001000b175effdc76ba38e31671ca9397258202901c90505b600066080000000000008416600f0b1315612c7a576080700100058ba01fb9f96d6cacd4b180917c3d8202901c90505b600066040000000000008416600f0b1315612caa57608070010002c5cc37da9491d0985c348c68e7b38202901c90505b600066020000000000008416600f0b1315612cda5760807001000162e525ee054754457d59952920268202901c90505b600066010000000000008416600f0b1315612d0a57608070010000b17255775c040618bf4a4ade83fc8202901c90505b6000658000000000008416600f0b1315612d395760807001000058b91b5bc9ae2eed81e9b7d4cfab8202901c90505b6000654000000000008416600f0b1315612d68576080700100002c5c89d5ec6ca4d7c8acc017b7c98202901c90505b6000652000000000008416600f0b1315612d9757608070010000162e43f4f831060e02d839a9d16d8202901c90505b6000651000000000008416600f0b1315612dc6576080700100000b1721bcfc99d9f890ea069117638202901c90505b6000650800000000008416600f0b1315612df557608070010000058b90cf1e6d97f9ca14dbcc16288202901c90505b6000650400000000008416600f0b1315612e245760807001000002c5c863b73f016468f6bac5ca2b8202901c90505b6000650200000000008416600f0b1315612e53576080700100000162e430e5a18f6119e3c02282a58202901c90505b6000650100000000008416600f0b1315612e825760807001000000b1721835514b86e6d96efd1bfe8202901c90505b60006480000000008416600f0b1315612eb0576080700100000058b90c0b48c6be5df846c5b2ef8202901c90505b60006440000000008416600f0b1315612ede57608070010000002c5c8601cc6b9e94213c72737a8202901c90505b60006420000000008416600f0b1315612f0c5760807001000000162e42fff037df38aa2b219f068202901c90505b60006410000000008416600f0b1315612f3a57608070010000000b17217fba9c739aa5819f44f98202901c90505b60006408000000008416600f0b1315612f685760807001000000058b90bfcdee5acd3c1cedc8238202901c90505b60006404000000008416600f0b1315612f96576080700100000002c5c85fe31f35a6a30da1be508202901c90505b60006402000000008416600f0b1315612fc457608070010000000162e42ff0999ce3541b9fffcf8202901c90505b60006401000000008416600f0b1315612ff2576080700100000000b17217f80f4ef5aadda455548202901c90505b600063800000008416600f0b131561301f57608070010000000058b90bfbf8479bd5a81b51ad8202901c90505b600063400000008416600f0b131561304c5760807001000000002c5c85fdf84bd62ae30a74cc8202901c90505b600063200000008416600f0b1315613079576080700100000000162e42fefb2fed257559bdaa8202901c90505b600063100000008416600f0b13156130a65760807001000000000b17217f7d5a7716bba4a9ae8202901c90505b600063080000008416600f0b13156130d3576080700100000000058b90bfbe9ddbac5e109cce8202901c90505b600063040000008416600f0b131561310057608070010000000002c5c85fdf4b15de6f17eb0d8202901c90505b600063020000008416600f0b131561312d5760807001000000000162e42fefa494f1478fde058202901c90505b600063010000008416600f0b131561315a57608070010000000000b17217f7d20cf927c8e94c8202901c90505b6000628000008416600f0b13156131865760807001000000000058b90bfbe8f71cb4e4b33d8202901c90505b6000624000008416600f0b13156131b2576080700100000000002c5c85fdf477b662b269458202901c90505b6000622000008416600f0b13156131de57608070010000000000162e42fefa3ae53369388c8202901c90505b6000621000008416600f0b131561320a576080700100000000000b17217f7d1d351a389d408202901c90505b6000620800008416600f0b131561323657608070010000000000058b90bfbe8e8b2d3d4ede8202901c90505b6000620400008416600f0b13156132625760807001000000000002c5c85fdf4741bea6e77e8202901c90505b6000620200008416600f0b131561328e576080700100000000000162e42fefa39fe95583c28202901c90505b6000620100008416600f0b13156132ba5760807001000000000000b17217f7d1cfb72b45e18202901c90505b60006180008416600f0b13156132e5576080700100000000000058b90bfbe8e7cc35c3f08202901c90505b60006140008416600f0b131561331057608070010000000000002c5c85fdf473e242ea388202901c90505b60006120008416600f0b131561333b5760807001000000000000162e42fefa39f02b772c8202901c90505b60006110008416600f0b131561336657608070010000000000000b17217f7d1cf7d83c1a8202901c90505b60006108008416600f0b13156133915760807001000000000000058b90bfbe8e7bdcbe2e8202901c90505b60006104008416600f0b13156133bc576080700100000000000002c5c85fdf473dea871f8202901c90505b60006102008416600f0b13156133e757608070010000000000000162e42fefa39ef44d918202901c90505b60006101008416600f0b1315613412576080700100000000000000b17217f7d1cf79e9498202901c90505b600060808416600f0b131561343c57608070010000000000000058b90bfbe8e7bce5448202901c90505b600060408416600f0b13156134665760807001000000000000002c5c85fdf473de6eca8202901c90505b600060208416600f0b1315613490576080700100000000000000162e42fefa39ef366f8202901c90505b600060108416600f0b13156134ba5760807001000000000000000b17217f7d1cf79afa8202901c90505b600060088416600f0b13156134e4576080700100000000000000058b90bfbe8e7bcd6d8202901c90505b600060048416600f0b131561350e57608070010000000000000002c5c85fdf473de6b28202901c90505b600060028416600f0b13156135385760807001000000000000000162e42fefa39ef3588202901c90505b600060018416600f0b131561356257608070010000000000000000b17217f7d1cf79ab8202901c90505b604083600f0b901d603f03600f0b81901c90506f7fffffffffffffffffffffffffffffff600f0b81111561359557600080fd5b809150505b919050565b60008082600f0b84600f0b0390507fffffffffffffffffffffffffffffffff80000000000000000000000000000000600f0b81121580156135f357506f7fffffffffffffffffffffffffffffff600f0b8113155b6135fc57600080fd5b8091505092915050565b505050565b600980549050600a600083815260200190815260200160002081905550600981908060018154018082558091505060019003906000526020600020016000909190919091505550565b6000600161366184610bec565b61366b9190614f43565b9050600060086000848152602001908152602001600020549050818114613750576000600760008673ffffffffffffffffffffffffffffffffffffffff1673ffffffffffffffffffffffffffffffffffffffff168152602001908152602001600020600084815260200190815260200160002054905080600760008773ffffffffffffffffffffffffffffffffffffffff1673ffffffffffffffffffffffffffffffffffffffff168152602001908152602001600020600084815260200190815260200160002081905550816008600083815260200190815260200160002081905550505b6008600084815260200190815260200160002060009055600760008573ffffffffffffffffffffffffffffffffffffffff1673ffffffffffffffffffffffffffffffffffffffff16815260200190815260200160002060008381526020019081526020016000206000905550505050565b600060016009805490506137d59190614f43565b90506000600a600084815260200190815260200160002054905060006009838154811061382b577f4e487b7100000000000000000000000000000000000000000000000000000000600052603260045260246000fd5b906000526020600020015490508060098381548110613873577f4e487b7100000000000000000000000000000000000000000000000000000000600052603260045260246000fd5b906000526020600020018190555081600a600083815260200190815260200160002081905550600a60008581526020019081526020016000206000905560098054806138e8577f4e487b7100000000000000000000000000000000000000000000000000000000600052603160045260246000fd5b6001900381819060005260206000200160009055905550505050565b600061390f83610bec565b905081600760008573ffffffffffffffffffffffffffffffffffffffff1673ffffffffffffffffffffffffffffffffffffffff168152602001908152602001600020600083815260200190815260200160002081905550806008600084815260200190815260200160002081905550505050565b60008082600f0b84600f0b0190507fffffffffffffffffffffffffffffffff80000000000000000000000000000000600f0b81121580156139d757506f7fffffffffffffffffffffffffffffff600f0b8113155b6139e057600080fd5b8091505092915050565b600080600084600f0b128015613a0257506001808416145b905060008085600f0b12613a165784613a1b565b846000035b6fffffffffffffffffffffffffffffffff16905060007001000000000000000000000000000000009050680100000000000000008211613af557603f82901b91505b60008514613ae95760006001861614613a7a57607f828202901c90505b607f828302901c915060006002861614613a9857607f828202901c90505b607f828302901c915060006004861614613ab657607f828202901c90505b607f828302901c915060006008861614613ad457607f828202901c90505b607f828302901c9150600485901c9450613a5d565b604081901c9050613c8f565b6000603f90506c01000000000000000000000000831015613b1e57602083901b92506020810390505b6e010000000000000000000000000000831015613b4357601083901b92506010810390505b6f01000000000000000000000000000000831015613b6957600883901b92506008810390505b6f10000000000000000000000000000000831015613b8f57600483901b92506004810390505b6f40000000000000000000000000000000831015613bb557600283901b92506002810390505b6f80000000000000000000000000000000831015613bdb57600183901b92506001810390505b60005b60008714613c765760408210613bf357600080fd5b60006001881614613c3457607f848402901c92508181019050700100000000000000000000000000000000831115613c3357600183901c92506001810190505b5b607f848502901c9350600182901b91507001000000000000000000000000000000008410613c6a57600184901c93506001820191505b600187901c9650613bde565b60408110613c8357600080fd5b8060400383901c925050505b600083613c9c5781613ca1565b816000035b90507fffffffffffffffffffffffffffffffff80000000000000000000000000000000600f0b8112158015613ce957506f7fffffffffffffffffffffffffffffff600f0b8113155b613cf257600080fd5b8094505050505092915050565b828054613d0b9061503a565b90600052602060002090601f016020900481019282613d2d5760008555613d74565b82601f10613d4657805160ff1916838001178555613d74565b82800160010185558215613d74579182015b82811115613d73578251825591602001919060010190613d58565b5b509050613d819190613d85565b5090565b5b80821115613d9e576000816000905550600101613d86565b5090565b6000613db5613db084614e19565b614de8565b905082815260208101848484011115613dcd57600080fd5b613dd8848285614ff8565b509392505050565b6000613df3613dee84614e49565b614de8565b905082815260208101848484011115613e0b57600080fd5b613e16848285614ff8565b509392505050565b600081359050613e2d8161520d565b92915050565b600081359050613e4281615224565b92915050565b600081359050613e578161523b565b92915050565b600081519050613e6c8161523b565b92915050565b600082601f830112613e8357600080fd5b8135613e93848260208601613da2565b91505092915050565b600081359050613eab81615252565b92915050565b600082601f830112613ec257600080fd5b8135613ed2848260208601613de0565b91505092915050565b600081359050613eea81615269565b92915050565b600060208284031215613f0257600080fd5b6000613f1084828501613e1e565b91505092915050565b60008060408385031215613f2c57600080fd5b6000613f3a85828601613e1e565b9250506020613f4b85828601613e1e565b9150509250929050565b600080600060608486031215613f6a57600080fd5b6000613f7886828701613e1e565b9350506020613f8986828701613e1e565b9250506040613f9a86828701613edb565b9150509250925092565b60008060008060808587031215613fba57600080fd5b6000613fc887828801613e1e565b9450506020613fd987828801613e1e565b9350506040613fea87828801613edb565b925050606085013567ffffffffffffffff81111561400757600080fd5b61401387828801613e72565b91505092959194509250565b6000806040838503121561403257600080fd5b600061404085828601613e1e565b925050602061405185828601613e33565b9150509250929050565b60008060008060008060c0878903121561407457600080fd5b600061408289828a01613e1e565b965050602087013567ffffffffffffffff81111561409f57600080fd5b6140ab89828a01613eb1565b95505060406140bc89828a01613edb565b94505060606140cd89828a01613edb565b93505060806140de89828a01613e9c565b92505060a06140ef89828a01613e9c565b9150509295509295509295565b6000806040838503121561410f57600080fd5b600061411d85828601613e1e565b925050602061412e85828601613edb565b9150509250929050565b60006020828403121561414a57600080fd5b600061415884828501613e48565b91505092915050565b60006020828403121561417357600080fd5b600061418184828501613e5d565b91505092915050565b60006020828403121561419c57600080fd5b60006141aa84828501613edb565b91505092915050565b6141bc81614f77565b82525050565b6141d36141ce82614f77565b6150b5565b82525050565b6141e281614f89565b82525050565b60006141f382614e79565b6141fd8185614e8f565b935061420d818560208601615007565b614216816151e2565b840191505092915050565b61422a81614fc1565b82525050565b61424161423c82614fc1565b6150c7565b82525050565b600061425282614e84565b61425c8185614ea0565b935061426c818560208601615007565b614275816151e2565b840191505092915050565b600061428b82614e84565b6142958185614eb1565b93506142a5818560208601615007565b80840191505092915050565b60006142be602b83614ea0565b91507f455243373231456e756d657261626c653a206f776e657220696e646578206f7560008301527f74206f6620626f756e64730000000000000000000000000000000000000000006020830152604082019050919050565b6000614324603283614ea0565b91507f4552433732313a207472616e7366657220746f206e6f6e20455243373231526560008301527f63656976657220696d706c656d656e74657200000000000000000000000000006020830152604082019050919050565b600061438a602683614ea0565b91507f4f776e61626c653a206e6577206f776e657220697320746865207a65726f206160008301527f64647265737300000000000000000000000000000000000000000000000000006020830152604082019050919050565b60006143f0601c83614ea0565b91507f4552433732313a20746f6b656e20616c7265616479206d696e746564000000006000830152602082019050919050565b6000614430602483614ea0565b91507f4552433732313a207472616e7366657220746f20746865207a65726f2061646460008301527f72657373000000000000000000000000000000000000000000000000000000006020830152604082019050919050565b6000614496601983614ea0565b91507f4552433732313a20617070726f766520746f2063616c6c6572000000000000006000830152602082019050919050565b60006144d6602c83614ea0565b91507f4552433732313a206f70657261746f7220717565727920666f72206e6f6e657860008301527f697374656e7420746f6b656e00000000000000000000000000000000000000006020830152604082019050919050565b600061453c603883614ea0565b91507f4552433732313a20617070726f76652063616c6c6572206973206e6f74206f7760008301527f6e6572206e6f7220617070726f76656420666f7220616c6c00000000000000006020830152604082019050919050565b60006145a2602a83614ea0565b91507f4552433732313a2062616c616e636520717565727920666f7220746865207a6560008301527f726f2061646472657373000000000000000000000000000000000000000000006020830152604082019050919050565b6000614608602983614ea0565b91507f4552433732313a206f776e657220717565727920666f72206e6f6e657869737460008301527f656e7420746f6b656e00000000000000000000000000000000000000000000006020830152604082019050919050565b600061466e602083614ea0565b91507f4552433732313a206d696e7420746f20746865207a65726f20616464726573736000830152602082019050919050565b60006146ae602c83614ea0565b91507f4552433732313a20617070726f76656420717565727920666f72206e6f6e657860008301527f697374656e7420746f6b656e00000000000000000000000000000000000000006020830152604082019050919050565b6000614714602083614ea0565b91507f4f776e61626c653a2063616c6c6572206973206e6f7420746865206f776e65726000830152602082019050919050565b6000614754602983614ea0565b91507f4552433732313a207472616e73666572206f6620746f6b656e2074686174206960008301527f73206e6f74206f776e00000000000000000000000000000000000000000000006020830152604082019050919050565b60006147ba602f83614ea0565b91507f4552433732314d657461646174613a2055524920717565727920666f72206e6f60008301527f6e6578697374656e7420746f6b656e00000000000000000000000000000000006020830152604082019050919050565b6000614820602183614ea0565b91507f4552433732313a20617070726f76616c20746f2063757272656e74206f776e6560008301527f72000000000000000000000000000000000000000000000000000000000000006020830152604082019050919050565b6000614886603183614ea0565b91507f4552433732313a207472616e736665722063616c6c6572206973206e6f74206f60008301527f776e6572206e6f7220617070726f7665640000000000000000000000000000006020830152604082019050919050565b60006148ec602c83614ea0565b91507f455243373231456e756d657261626c653a20676c6f62616c20696e646578206f60008301527f7574206f6620626f756e647300000000000000000000000000000000000000006020830152604082019050919050565b6000614952602483614ea0565b91507f4e46545f466163746f72793a2054686973206861736820657869737420616c7260008301527f65616479000000000000000000000000000000000000000000000000000000006020830152604082019050919050565b6149b481614fee565b82525050565b6149cb6149c682614fee565b6150eb565b82525050565b60006149dd8285614280565b91506149e98284614280565b91508190509392505050565b6000614a018289614280565b9150614a0d82886149ba565b602082019150614a1d82876149ba565b602082019150614a2d8286614230565b601082019150614a3d8285614230565b601082019150614a4d82846141c2565b601482019150819050979650505050505050565b6000602082019050614a7660008301846141b3565b92915050565b6000608082019050614a9160008301876141b3565b614a9e60208301866141b3565b614aab60408301856149ab565b8181036060830152614abd81846141e8565b905095945050505050565b6000602082019050614add60008301846141d9565b92915050565b60006020820190508181036000830152614afd8184614247565b905092915050565b600060c0820190508181036000830152614b1f8189614247565b9050614b2e60208301886149ab565b614b3b60408301876149ab565b614b486060830186614221565b614b556080830185614221565b614b6260a08301846141b3565b979650505050505050565b60006020820190508181036000830152614b86816142b1565b9050919050565b60006020820190508181036000830152614ba681614317565b9050919050565b60006020820190508181036000830152614bc68161437d565b9050919050565b60006020820190508181036000830152614be6816143e3565b9050919050565b60006020820190508181036000830152614c0681614423565b9050919050565b60006020820190508181036000830152614c2681614489565b9050919050565b60006020820190508181036000830152614c46816144c9565b9050919050565b60006020820190508181036000830152614c668161452f565b9050919050565b60006020820190508181036000830152614c8681614595565b9050919050565b60006020820190508181036000830152614ca6816145fb565b9050919050565b60006020820190508181036000830152614cc681614661565b9050919050565b60006020820190508181036000830152614ce6816146a1565b9050919050565b60006020820190508181036000830152614d0681614707565b9050919050565b60006020820190508181036000830152614d2681614747565b9050919050565b60006020820190508181036000830152614d46816147ad565b9050919050565b60006020820190508181036000830152614d6681614813565b9050919050565b60006020820190508181036000830152614d8681614879565b9050919050565b60006020820190508181036000830152614da6816148df565b9050919050565b60006020820190508181036000830152614dc681614945565b9050919050565b6000602082019050614de260008301846149ab565b92915050565b6000604051905081810181811067ffffffffffffffff82111715614e0f57614e0e6151b3565b5b8060405250919050565b600067ffffffffffffffff821115614e3457614e336151b3565b5b601f19601f8301169050602081019050919050565b600067ffffffffffffffff821115614e6457614e636151b3565b5b601f19601f8301169050602081019050919050565b600081519050919050565b600081519050919050565b600082825260208201905092915050565b600082825260208201905092915050565b600081905092915050565b6000614ec782614fee565b9150614ed283614fee565b9250827fffffffffffffffffffffffffffffffffffffffffffffffffffffffffffffffff03821115614f0757614f06615126565b5b828201905092915050565b6000614f1d82614fee565b9150614f2883614fee565b925082614f3857614f37615155565b5b828204905092915050565b6000614f4e82614fee565b9150614f5983614fee565b925082821015614f6c57614f6b615126565b5b828203905092915050565b6000614f8282614fce565b9050919050565b60008115159050919050565b60007fffffffff0000000000000000000000000000000000000000000000000000000082169050919050565b600081600f0b9050919050565b600073ffffffffffffffffffffffffffffffffffffffff82169050919050565b6000819050919050565b82818337600083830152505050565b60005b8381101561502557808201518184015260208101905061500a565b83811115615034576000848401525b50505050565b6000600282049050600182168061505257607f821691505b6020821081141561506657615065615184565b5b50919050565b600061507782614fee565b91507fffffffffffffffffffffffffffffffffffffffffffffffffffffffffffffffff8214156150aa576150a9615126565b5b600182019050919050565b60006150c0826150d9565b9050919050565b60006150d2826151f3565b9050919050565b60006150e482615200565b9050919050565b6000819050919050565b600061510082614fee565b915061510b83614fee565b92508261511b5761511a615155565b5b828206905092915050565b7f4e487b7100000000000000000000000000000000000000000000000000000000600052601160045260246000fd5b7f4e487b7100000000000000000000000000000000000000000000000000000000600052601260045260246000fd5b7f4e487b7100000000000000000000000000000000000000000000000000000000600052602260045260246000fd5b7f4e487b7100000000000000000000000000000000000000000000000000000000600052604160045260246000fd5b6000601f19601f8301169050919050565b60008160801b9050919050565b60008160601b9050919050565b61521681614f77565b811461522157600080fd5b50565b61522d81614f89565b811461523857600080fd5b50565b61524481614f95565b811461524f57600080fd5b50565b61525b81614fc1565b811461526657600080fd5b50565b61527281614fee565b811461527d57600080fd5b5056fea26469706673582212202ea94d4636276b3ff5ef1cbe969c8a3380886b9de8c6585d64f3f642676dfb1564736f6c63430008000033",
  "immutableReferences": {},
  "source": "// SPDX-License-Identifier: MIT\npragma solidity ^0.8.0;\n\n/** @title NFT_FACTORY\n    @author Pedro Yuris Machado Leiva\n    @notice Smart Contract to mint NFTs that represent a real factoring invoices \n    @custom:company Reserva Food System\n    @custom:addressMumbai 0x5673a930Da6dB358E86B532d9d1B3941c5F64Aa3\n*/\n\nimport \"@openzeppelin/contracts/token/ERC721/ERC721.sol\";\nimport \"@openzeppelin/contracts/token/ERC721/extensions/ERC721Enumerable.sol\";\nimport \"@openzeppelin/contracts/access/Ownable.sol\";\nimport \"@openzeppelin/contracts/utils/math/SafeMath.sol\";\nimport \"./ABDKMath64x64.sol\";\n\n\ncontract NFT_FACTORY is ERC721, Ownable, ERC721Enumerable {\n    uint public dailyInterestRUSD;\n\n\n\n/// @dev NFT's properties and validation system for each NFT minted. \n\n    struct DATA_INVOICE {\n        string dataCustumer;\n        uint256 valueOfNFT;\n        uint256 balanceAdvance;\n        int128 interestRate;\n        int128 interestRateOverDue;\n        address seller;\n        bytes32 invoiceHash;\n    }\n    \n    DATA_INVOICE[] private _dataInvoices;\n    \n    mapping (bytes32 => uint256) private _hashTokenId;\n    mapping (bytes32 => bool) private _hashExist;\n\n    event RATIOCHANGED(int128 indexed newRatio);\n\n    constructor() ERC721(\"Decentralized Invoice Factoring\", \"DIF\") {}\n\n/// @dev The following functions are overrides required by Solidity.\n\n    function _beforeTokenTransfer(address from, address to, uint256 tokenId)\n        internal\n        override(ERC721, ERC721Enumerable)\n    {\n        super._beforeTokenTransfer(from, to, tokenId);\n    }\n\n\n    function supportsInterface(bytes4 interfaceId)\n        public\n        view\n        override(ERC721, ERC721Enumerable)\n        returns (bool)\n    {\n        return super.supportsInterface(interfaceId);\n    }\n\n/// @dev Private function to assemble one NFT and @return a single id for each token minted.\n\n    function _assemble( string memory _dataCustumer, \n                        uint256 _valueOfNFT, \n                        uint256 _balanceAdvance,\n                        int128 _interestRate,\n                        int128 _interestRateOverDue,\n                        address _seller, \n                        bytes32 _invoiceHash) private returns(uint256) {\n                            _dataInvoices.push(DATA_INVOICE(\n                                _dataCustumer, \n                                _valueOfNFT,\n                                _balanceAdvance,\n                                _interestRate,\n                                _interestRateOverDue,\n                                _seller,\n                                _invoiceHash));\n                        uint256 id = _dataInvoices.length - 1;\n                        return id;\n                       }\n\n/// @dev Mint a new NFT to recipient\n\n    function createInvoice(\n        address _recipient,\n        string memory _dataCustumer,\n        uint256 _valueOfNFT,\n        uint256 _balanceAdvance,\n        int128 _interestRate,\n        int128 _interestRateOverDue) external onlyOwner {\n            \n         bytes32 invoiceHash = keccak256(abi.encodePacked(_dataCustumer, _valueOfNFT, _balanceAdvance, _interestRate, _interestRateOverDue ,_recipient)); \n         require(! _hashExist[invoiceHash], \"NFT_Factory: This hash exist already\");\n         _hashExist[invoiceHash] = true;\n         uint256 newItemId = _assemble(\n                          _dataCustumer,\n                          _valueOfNFT,\n                          _balanceAdvance,\n                          _interestRate,\n                          _interestRateOverDue,\n                          _recipient,\n                          invoiceHash);\n        _mint(_recipient, newItemId);\n        interestToMint(_interestRate, _valueOfNFT);\n        \n        }\n///@dev Burn one NFT when is paid and reduce of Fund's dailyInterest \n    function destroyNFT(uint tokenId) external onlyOwner {\n        int128 mir = _dataInvoices[tokenId].interestRate;\n        uint amount = _dataInvoices[tokenId].valueOfNFT;\n        interestToBurn(mir, amount);(_dataInvoices[tokenId].interestRate);\n        _burn(tokenId);\n    }\n\n/// @dev Insert tokenId @param and the function @return all data attached at this token\n\n    function getData(uint256 tokenId) public view returns(string memory dataCustumer, uint256 valueOfNFT, uint256 balanceAdvance, int128 interestRate, int128 interestRateOverDue, address seller) {\n        dataCustumer = _dataInvoices[tokenId].dataCustumer;\n        valueOfNFT = _dataInvoices[tokenId].valueOfNFT;\n        balanceAdvance = _dataInvoices[tokenId].balanceAdvance;\n        interestRate = _dataInvoices[tokenId].interestRate;\n        interestRateOverDue = _dataInvoices[tokenId].interestRateOverDue;\n        seller = _dataInvoices[tokenId].seller;\n    }\n\n    // invoice interest rate = 1%,  interestRatioOfNFT = 0.01\n    // \n \n    function interestToMint(int128 _mir, uint _amount) private returns(uint){\n        uint newInterestToMint = ABDKMath64x64.mulu(dir(_mir), _amount);\n        return dailyInterestRUSD = SafeMath.add(dailyInterestRUSD, newInterestToMint) ;\n    }\n\n    function interestToBurn(int128 _mir, uint _amount) private returns(uint) {\n        uint newInterestToBurn = ABDKMath64x64.mulu(dir(_mir), _amount);\n        return dailyInterestRUSD = SafeMath.sub(dailyInterestRUSD, newInterestToBurn);\n    }\n\n    function dir(int128 mir) pure private returns(int128) {\n      return ABDKMath64x64.sub(ABDKMath64x64.exp_2(ABDKMath64x64.mul(ABDKMath64x64.inv(ABDKMath64x64.fromUInt(365)), ABDKMath64x64.log_2(air(mir)))), ABDKMath64x64.fromUInt(1));\n    }\n\n    function air(int128 mir) pure private returns(int128) {\n        return ABDKMath64x64.pow(ABDKMath64x64.add(ABDKMath64x64.fromUInt(1), mir), 12);\n    }\n    \n \n}",
  "sourcePath": "/home/peter/Documents/Reserva/0-Reservafs/Proyectos/DIF_PROJECT/Code/DIFonBlockchain_Enumerable/contracts/NFT_FACTORY.sol",
  "compiler": {
    "name": "solc",
    "version": "0.8.0+commit.c7dfd78e.Emscripten.clang"
  },
  "schemaVersion": "3.4.3",
  "updatedAt": "2021-11-26T04:11:43.259Z",
  "devdoc": {
    "kind": "dev",
    "methods": {
      "approve(address,uint256)": {
        "details": "See {IERC721-approve}."
      },
      "balanceOf(address)": {
        "details": "See {IERC721-balanceOf}."
      },
      "createInvoice(address,string,uint256,uint256,int128,int128)": {
        "details": "Mint a new NFT to recipient"
      },
      "destroyNFT(uint256)": {
        "details": "Burn one NFT when is paid and reduce of Fund's dailyInterest "
      },
      "getApproved(uint256)": {
        "details": "See {IERC721-getApproved}."
      },
      "getData(uint256)": {
        "details": "Insert tokenId @param and the function @return all data attached at this token"
      },
      "isApprovedForAll(address,address)": {
        "details": "See {IERC721-isApprovedForAll}."
      },
      "name()": {
        "details": "See {IERC721Metadata-name}."
      },
      "owner()": {
        "details": "Returns the address of the current owner."
      },
      "ownerOf(uint256)": {
        "details": "See {IERC721-ownerOf}."
      },
      "renounceOwnership()": {
        "details": "Leaves the contract without owner. It will not be possible to call `onlyOwner` functions anymore. Can only be called by the current owner. NOTE: Renouncing ownership will leave the contract without an owner, thereby removing any functionality that is only available to the owner."
      },
      "safeTransferFrom(address,address,uint256)": {
        "details": "See {IERC721-safeTransferFrom}."
      },
      "safeTransferFrom(address,address,uint256,bytes)": {
        "details": "See {IERC721-safeTransferFrom}."
      },
      "setApprovalForAll(address,bool)": {
        "details": "See {IERC721-setApprovalForAll}."
      },
      "symbol()": {
        "details": "See {IERC721Metadata-symbol}."
      },
      "tokenByIndex(uint256)": {
        "details": "See {IERC721Enumerable-tokenByIndex}."
      },
      "tokenOfOwnerByIndex(address,uint256)": {
        "details": "See {IERC721Enumerable-tokenOfOwnerByIndex}."
      },
      "tokenURI(uint256)": {
        "details": "See {IERC721Metadata-tokenURI}."
      },
      "totalSupply()": {
        "details": "See {IERC721Enumerable-totalSupply}."
      },
      "transferFrom(address,address,uint256)": {
        "details": "See {IERC721-transferFrom}."
      },
      "transferOwnership(address)": {
        "details": "Transfers ownership of the contract to a new account (`newOwner`). Can only be called by the current owner."
      }
    },
    "version": 1
  },
  "userdoc": {
    "kind": "user",
    "methods": {},
    "version": 1
  }
}