{
  "contractName": "NFT_FACTORY",
  "abi": [
    {
      "inputs": [
        {
          "internalType": "address",
          "name": "_usdtAddress",
          "type": "address"
        },
        {
          "internalType": "address",
          "name": "_rusdAddress",
          "type": "address"
        }
      ],
      "stateMutability": "nonpayable",
      "type": "constructor"
    },
    {
      "anonymous": false,
      "inputs": [
        {
          "indexed": true,
          "internalType": "address",
          "name": "owner",
          "type": "address"
        },
        {
          "indexed": true,
          "internalType": "address",
          "name": "approved",
          "type": "address"
        },
        {
          "indexed": true,
          "internalType": "uint256",
          "name": "tokenId",
          "type": "uint256"
        }
      ],
      "name": "Approval",
      "type": "event"
    },
    {
      "anonymous": false,
      "inputs": [
        {
          "indexed": true,
          "internalType": "address",
          "name": "owner",
          "type": "address"
        },
        {
          "indexed": true,
          "internalType": "address",
          "name": "operator",
          "type": "address"
        },
        {
          "indexed": false,
          "internalType": "bool",
          "name": "approved",
          "type": "bool"
        }
      ],
      "name": "ApprovalForAll",
      "type": "event"
    },
    {
      "anonymous": false,
      "inputs": [
        {
          "indexed": true,
          "internalType": "address",
          "name": "previousOwner",
          "type": "address"
        },
        {
          "indexed": true,
          "internalType": "address",
          "name": "newOwner",
          "type": "address"
        }
      ],
      "name": "OwnershipTransferred",
      "type": "event"
    },
    {
      "anonymous": false,
      "inputs": [
        {
          "indexed": true,
          "internalType": "int128",
          "name": "newRatio",
          "type": "int128"
        }
      ],
      "name": "RATIOCHANGED",
      "type": "event"
    },
    {
      "anonymous": false,
      "inputs": [
        {
          "indexed": true,
          "internalType": "address",
          "name": "from",
          "type": "address"
        },
        {
          "indexed": true,
          "internalType": "address",
          "name": "to",
          "type": "address"
        },
        {
          "indexed": true,
          "internalType": "uint256",
          "name": "tokenId",
          "type": "uint256"
        }
      ],
      "name": "Transfer",
      "type": "event"
    },
    {
      "inputs": [
        {
          "internalType": "address",
          "name": "to",
          "type": "address"
        },
        {
          "internalType": "uint256",
          "name": "tokenId",
          "type": "uint256"
        }
      ],
      "name": "approve",
      "outputs": [],
      "stateMutability": "nonpayable",
      "type": "function"
    },
    {
      "inputs": [
        {
          "internalType": "address",
          "name": "owner",
          "type": "address"
        }
      ],
      "name": "balanceOf",
      "outputs": [
        {
          "internalType": "uint256",
          "name": "",
          "type": "uint256"
        }
      ],
      "stateMutability": "view",
      "type": "function"
    },
    {
      "inputs": [],
      "name": "burnAddress",
      "outputs": [
        {
          "internalType": "address",
          "name": "",
          "type": "address"
        }
      ],
      "stateMutability": "view",
      "type": "function"
    },
    {
      "inputs": [],
      "name": "dailyInterestRUSD",
      "outputs": [
        {
          "internalType": "uint256",
          "name": "",
          "type": "uint256"
        }
      ],
      "stateMutability": "view",
      "type": "function"
    },
    {
      "inputs": [
        {
          "internalType": "uint256",
          "name": "tokenId",
          "type": "uint256"
        }
      ],
      "name": "getApproved",
      "outputs": [
        {
          "internalType": "address",
          "name": "",
          "type": "address"
        }
      ],
      "stateMutability": "view",
      "type": "function"
    },
    {
      "inputs": [
        {
          "internalType": "address",
          "name": "owner",
          "type": "address"
        },
        {
          "internalType": "address",
          "name": "operator",
          "type": "address"
        }
      ],
      "name": "isApprovedForAll",
      "outputs": [
        {
          "internalType": "bool",
          "name": "",
          "type": "bool"
        }
      ],
      "stateMutability": "view",
      "type": "function"
    },
    {
      "inputs": [],
      "name": "name",
      "outputs": [
        {
          "internalType": "string",
          "name": "",
          "type": "string"
        }
      ],
      "stateMutability": "view",
      "type": "function"
    },
    {
      "inputs": [],
      "name": "owner",
      "outputs": [
        {
          "internalType": "address",
          "name": "",
          "type": "address"
        }
      ],
      "stateMutability": "view",
      "type": "function"
    },
    {
      "inputs": [
        {
          "internalType": "uint256",
          "name": "tokenId",
          "type": "uint256"
        }
      ],
      "name": "ownerOf",
      "outputs": [
        {
          "internalType": "address",
          "name": "",
          "type": "address"
        }
      ],
      "stateMutability": "view",
      "type": "function"
    },
    {
      "inputs": [],
      "name": "renounceOwnership",
      "outputs": [],
      "stateMutability": "nonpayable",
      "type": "function"
    },
    {
      "inputs": [
        {
          "internalType": "address",
          "name": "from",
          "type": "address"
        },
        {
          "internalType": "address",
          "name": "to",
          "type": "address"
        },
        {
          "internalType": "uint256",
          "name": "tokenId",
          "type": "uint256"
        }
      ],
      "name": "safeTransferFrom",
      "outputs": [],
      "stateMutability": "nonpayable",
      "type": "function"
    },
    {
      "inputs": [
        {
          "internalType": "address",
          "name": "from",
          "type": "address"
        },
        {
          "internalType": "address",
          "name": "to",
          "type": "address"
        },
        {
          "internalType": "uint256",
          "name": "tokenId",
          "type": "uint256"
        },
        {
          "internalType": "bytes",
          "name": "_data",
          "type": "bytes"
        }
      ],
      "name": "safeTransferFrom",
      "outputs": [],
      "stateMutability": "nonpayable",
      "type": "function"
    },
    {
      "inputs": [
        {
          "internalType": "address",
          "name": "operator",
          "type": "address"
        },
        {
          "internalType": "bool",
          "name": "approved",
          "type": "bool"
        }
      ],
      "name": "setApprovalForAll",
      "outputs": [],
      "stateMutability": "nonpayable",
      "type": "function"
    },
    {
      "inputs": [],
      "name": "symbol",
      "outputs": [
        {
          "internalType": "string",
          "name": "",
          "type": "string"
        }
      ],
      "stateMutability": "view",
      "type": "function"
    },
    {
      "inputs": [
        {
          "internalType": "uint256",
          "name": "index",
          "type": "uint256"
        }
      ],
      "name": "tokenByIndex",
      "outputs": [
        {
          "internalType": "uint256",
          "name": "",
          "type": "uint256"
        }
      ],
      "stateMutability": "view",
      "type": "function"
    },
    {
      "inputs": [
        {
          "internalType": "address",
          "name": "owner",
          "type": "address"
        },
        {
          "internalType": "uint256",
          "name": "index",
          "type": "uint256"
        }
      ],
      "name": "tokenOfOwnerByIndex",
      "outputs": [
        {
          "internalType": "uint256",
          "name": "",
          "type": "uint256"
        }
      ],
      "stateMutability": "view",
      "type": "function"
    },
    {
      "inputs": [
        {
          "internalType": "uint256",
          "name": "tokenId",
          "type": "uint256"
        }
      ],
      "name": "tokenURI",
      "outputs": [
        {
          "internalType": "string",
          "name": "",
          "type": "string"
        }
      ],
      "stateMutability": "view",
      "type": "function"
    },
    {
      "inputs": [],
      "name": "totalSupply",
      "outputs": [
        {
          "internalType": "uint256",
          "name": "",
          "type": "uint256"
        }
      ],
      "stateMutability": "view",
      "type": "function"
    },
    {
      "inputs": [
        {
          "internalType": "address",
          "name": "from",
          "type": "address"
        },
        {
          "internalType": "address",
          "name": "to",
          "type": "address"
        },
        {
          "internalType": "uint256",
          "name": "tokenId",
          "type": "uint256"
        }
      ],
      "name": "transferFrom",
      "outputs": [],
      "stateMutability": "nonpayable",
      "type": "function"
    },
    {
      "inputs": [
        {
          "internalType": "address",
          "name": "newOwner",
          "type": "address"
        }
      ],
      "name": "transferOwnership",
      "outputs": [],
      "stateMutability": "nonpayable",
      "type": "function"
    },
    {
      "inputs": [
        {
          "internalType": "bytes4",
          "name": "interfaceId",
          "type": "bytes4"
        }
      ],
      "name": "supportsInterface",
      "outputs": [
        {
          "internalType": "bool",
          "name": "",
          "type": "bool"
        }
      ],
      "stateMutability": "view",
      "type": "function"
    },
    {
      "inputs": [
        {
          "internalType": "address",
          "name": "",
          "type": "address"
        },
        {
          "internalType": "address",
          "name": "",
          "type": "address"
        },
        {
          "internalType": "uint256",
          "name": "",
          "type": "uint256"
        },
        {
          "internalType": "bytes",
          "name": "",
          "type": "bytes"
        }
      ],
      "name": "onERC721Received",
      "outputs": [
        {
          "internalType": "bytes4",
          "name": "",
          "type": "bytes4"
        }
      ],
      "stateMutability": "nonpayable",
      "type": "function"
    },
    {
      "inputs": [
        {
          "components": [
            {
              "internalType": "bytes",
              "name": "dataCustumer",
              "type": "bytes"
            },
            {
              "internalType": "uint256",
              "name": "valueOfNFT",
              "type": "uint256"
            },
            {
              "internalType": "uint256",
              "name": "balanceAdvance",
              "type": "uint256"
            },
            {
              "internalType": "uint256",
              "name": "dateOverDue",
              "type": "uint256"
            },
            {
              "internalType": "int128",
              "name": "interestRate",
              "type": "int128"
            },
            {
              "internalType": "int128",
              "name": "interestRateOverDue",
              "type": "int128"
            },
            {
              "internalType": "address",
              "name": "seller",
              "type": "address"
            }
          ],
          "internalType": "struct NFT_FACTORY.DATA_INVOICE",
          "name": "_invoice",
          "type": "tuple"
        }
      ],
      "name": "createInvoice",
      "outputs": [
        {
          "internalType": "bool",
          "name": "",
          "type": "bool"
        }
      ],
      "stateMutability": "nonpayable",
      "type": "function"
    },
    {
      "inputs": [
        {
          "internalType": "uint256",
          "name": "tokenId",
          "type": "uint256"
        }
      ],
      "name": "payNFT",
      "outputs": [
        {
          "internalType": "bool",
          "name": "",
          "type": "bool"
        }
      ],
      "stateMutability": "nonpayable",
      "type": "function"
    },
    {
      "inputs": [
        {
          "internalType": "uint256",
          "name": "tokenId",
          "type": "uint256"
        }
      ],
      "name": "interestToMintOverDue",
      "outputs": [
        {
          "internalType": "uint256",
          "name": "",
          "type": "uint256"
        }
      ],
      "stateMutability": "nonpayable",
      "type": "function"
    },
    {
      "inputs": [
        {
          "internalType": "uint256",
          "name": "tokenId",
          "type": "uint256"
        }
      ],
      "name": "getData",
      "outputs": [
        {
          "internalType": "string",
          "name": "dataCustumer",
          "type": "string"
        },
        {
          "internalType": "uint256",
          "name": "valueOfNFT",
          "type": "uint256"
        },
        {
          "internalType": "uint256",
          "name": "balanceAdvance",
          "type": "uint256"
        },
        {
          "internalType": "uint256",
          "name": "dateOverDue",
          "type": "uint256"
        },
        {
          "internalType": "int128",
          "name": "interestRate",
          "type": "int128"
        },
        {
          "internalType": "int128",
          "name": "interestRateOverDue",
          "type": "int128"
        },
        {
          "internalType": "address",
          "name": "seller",
          "type": "address"
        }
      ],
      "stateMutability": "view",
      "type": "function"
    },
    {
      "inputs": [
        {
          "internalType": "uint256",
          "name": "tokenId",
          "type": "uint256"
        }
      ],
      "name": "get_tokenOverDue",
      "outputs": [
        {
          "internalType": "bool",
          "name": "",
          "type": "bool"
        }
      ],
      "stateMutability": "view",
      "type": "function"
    }
  ],
  "bytecode": "0x60c06040523480156200001157600080fd5b5060405162005e5338038062005e53833981810160405281019062000037919062000302565b6040518060400160405280601f81526020017f446563656e7472616c697a656420496e766f69636520466163746f72696e67008152506040518060400160405280600381526020017f44494600000000000000000000000000000000000000000000000000000000008152508160009080519060200190620000bb9291906200023b565b508060019080519060200190620000d49291906200023b565b505050620000f7620000eb6200016d60201b60201c565b6200017560201b60201c565b8173ffffffffffffffffffffffffffffffffffffffff1660808173ffffffffffffffffffffffffffffffffffffffff1660601b815250508073ffffffffffffffffffffffffffffffffffffffff1660a08173ffffffffffffffffffffffffffffffffffffffff1660601b815250505050620003f6565b600033905090565b6000600660009054906101000a900473ffffffffffffffffffffffffffffffffffffffff16905081600660006101000a81548173ffffffffffffffffffffffffffffffffffffffff021916908373ffffffffffffffffffffffffffffffffffffffff1602179055508173ffffffffffffffffffffffffffffffffffffffff168173ffffffffffffffffffffffffffffffffffffffff167f8be0079c531659141344cd1fd0a4f28419497f9722a3daafe3b4186f6b6457e060405160405180910390a35050565b828054620002499062000377565b90600052602060002090601f0160209004810192826200026d5760008555620002b9565b82601f106200028857805160ff1916838001178555620002b9565b82800160010185558215620002b9579182015b82811115620002b85782518255916020019190600101906200029b565b5b509050620002c89190620002cc565b5090565b5b80821115620002e7576000816000905550600101620002cd565b5090565b600081519050620002fc81620003dc565b92915050565b600080604083850312156200031657600080fd5b60006200032685828601620002eb565b92505060206200033985828601620002eb565b9150509250929050565b6000620003508262000357565b9050919050565b600073ffffffffffffffffffffffffffffffffffffffff82169050919050565b600060028204905060018216806200039057607f821691505b60208210811415620003a757620003a6620003ad565b5b50919050565b7f4e487b7100000000000000000000000000000000000000000000000000000000600052602260045260246000fd5b620003e78162000343565b8114620003f357600080fd5b50565b60805160601c60a05160601c615a3162000422600039600061103901526000610df60152615a316000f3fe608060405234801561001057600080fd5b50600436106101a95760003560e01c806370a08231116100f9578063b88d4fde11610097578063dd036e6311610071578063dd036e6314610520578063e985e9c51461053e578063f2fde38b1461056e578063fcac73331461058a576101a9565b8063b88d4fde146104a4578063c87b56dd146104c0578063cf821d23146104f0576101a9565b80638da5cb5b116100d35780638da5cb5b1461041c57806391c62a6a1461043a57806395d89b411461046a578063a22cb46514610488576101a9565b806370a08231146103c457806370d5ae05146103f4578063715018a614610412576101a9565b806318160ddd1161016657806342842e0e1161014057806342842e0e146103185780634f6ccce7146103345780636352211e1461036457806364b7632014610394576101a9565b806318160ddd146102ae57806323b872dd146102cc5780632f745c59146102e8576101a9565b80630178fe3f146101ae57806301ffc9a7146101e457806306fdde0314610214578063081812fc14610232578063095ea7b314610262578063150b7a021461027e575b600080fd5b6101c860048036038101906101c39190614758565b6105ba565b6040516101db97969594939291906151ed565b60405180910390f35b6101fe60048036038101906101f99190614684565b6108d3565b60405161020b9190615195565b60405180910390f35b61021c6108e5565b60405161022991906151cb565b60405180910390f35b61024c60048036038101906102479190614758565b610977565b60405161025991906150f7565b60405180910390f35b61027c6004803603810190610277919061461f565b6109fc565b005b61029860048036038101906102939190614568565b610b14565b6040516102a591906151b0565b60405180910390f35b6102b6610b28565b6040516102c391906154e3565b60405180910390f35b6102e660048036038101906102e19190614519565b610b35565b005b61030260048036038101906102fd919061461f565b610b95565b60405161030f91906154e3565b60405180910390f35b610332600480360381019061032d9190614519565b610c3a565b005b61034e60048036038101906103499190614758565b610c5a565b60405161035b91906154e3565b60405180910390f35b61037e60048036038101906103799190614758565b610cf1565b60405161038b91906150f7565b60405180910390f35b6103ae60048036038101906103a99190614758565b610da3565b6040516103bb9190615195565b60405180910390f35b6103de60048036038101906103d991906144b4565b61113d565b6040516103eb91906154e3565b60405180910390f35b6103fc6111f5565b60405161040991906150f7565b60405180910390f35b61041a6111fb565b005b610424611283565b60405161043191906150f7565b60405180910390f35b610454600480360381019061044f9190614758565b6112ad565b60405161046191906154e3565b60405180910390f35b61047261148e565b60405161047f91906151cb565b60405180910390f35b6104a2600480360381019061049d91906145e3565b611520565b005b6104be60048036038101906104b99190614568565b6116a1565b005b6104da60048036038101906104d59190614758565b611703565b6040516104e791906151cb565b60405180910390f35b61050a60048036038101906105059190614758565b6117aa565b6040516105179190615195565b60405180910390f35b6105286117d4565b60405161053591906154e3565b60405180910390f35b610558600480360381019061055391906144dd565b6117da565b6040516105659190615195565b60405180910390f35b610588600480360381019061058391906144b4565b61186e565b005b6105a4600480360381019061059f9190614717565b611966565b6040516105b19190615195565b60405180910390f35b60606000806000806000806000600d8981548110610601577f4e487b7100000000000000000000000000000000000000000000000000000000600052603260045260246000fd5b9060005260206000209060060201600001805461061d906157b5565b80601f0160208091040260200160405190810160405280929190818152602001828054610649906157b5565b80156106965780601f1061066b57610100808354040283529160200191610696565b820191906000526020600020905b81548152906001019060200180831161067957829003601f168201915b505050505090506000818060200190518101906106b391906146d6565b9050809850600d8a815481106106f2577f4e487b7100000000000000000000000000000000000000000000000000000000600052603260045260246000fd5b9060005260206000209060060201600101549750600d8a81548110610740577f4e487b7100000000000000000000000000000000000000000000000000000000600052603260045260246000fd5b9060005260206000209060060201600201549650600d8a8154811061078e577f4e487b7100000000000000000000000000000000000000000000000000000000600052603260045260246000fd5b9060005260206000209060060201600301549550600d8a815481106107dc577f4e487b7100000000000000000000000000000000000000000000000000000000600052603260045260246000fd5b906000526020600020906006020160040160009054906101000a9004600f0b9450600d8a81548110610837577f4e487b7100000000000000000000000000000000000000000000000000000000600052603260045260246000fd5b906000526020600020906006020160040160109054906101000a9004600f0b9350600d8a81548110610892577f4e487b7100000000000000000000000000000000000000000000000000000000600052603260045260246000fd5b906000526020600020906006020160050160009054906101000a900473ffffffffffffffffffffffffffffffffffffffff1692505050919395979092949650565b60006108de82611b25565b9050919050565b6060600080546108f4906157b5565b80601f0160208091040260200160405190810160405280929190818152602001828054610920906157b5565b801561096d5780601f106109425761010080835404028352916020019161096d565b820191906000526020600020905b81548152906001019060200180831161095057829003601f168201915b5050505050905090565b600061098282611b9f565b6109c1576040517f08c379a00000000000000000000000000000000000000000000000000000000081526004016109b8906153c3565b60405180910390fd5b6004600083815260200190815260200160002060009054906101000a900473ffffffffffffffffffffffffffffffffffffffff169050919050565b6000610a0782610cf1565b90508073ffffffffffffffffffffffffffffffffffffffff168373ffffffffffffffffffffffffffffffffffffffff161415610a78576040517f08c379a0000000000000000000000000000000000000000000000000000000008152600401610a6f90615443565b60405180910390fd5b8073ffffffffffffffffffffffffffffffffffffffff16610a97611c0b565b73ffffffffffffffffffffffffffffffffffffffff161480610ac65750610ac581610ac0611c0b565b6117da565b5b610b05576040517f08c379a0000000000000000000000000000000000000000000000000000000008152600401610afc90615343565b60405180910390fd5b610b0f8383611c13565b505050565b600063150b7a0260e01b9050949350505050565b6000600980549050905090565b610b46610b40611c0b565b82611ccc565b610b85576040517f08c379a0000000000000000000000000000000000000000000000000000000008152600401610b7c90615463565b60405180910390fd5b610b90838383611daa565b505050565b6000610ba08361113d565b8210610be1576040517f08c379a0000000000000000000000000000000000000000000000000000000008152600401610bd890615263565b60405180910390fd5b600760008473ffffffffffffffffffffffffffffffffffffffff1673ffffffffffffffffffffffffffffffffffffffff168152602001908152602001600020600083815260200190815260200160002054905092915050565b610c55838383604051806020016040528060008152506116a1565b505050565b6000610c64610b28565b8210610ca5576040517f08c379a0000000000000000000000000000000000000000000000000000000008152600401610c9c90615483565b60405180910390fd5b60098281548110610cdf577f4e487b7100000000000000000000000000000000000000000000000000000000600052603260045260246000fd5b90600052602060002001549050919050565b6000806002600084815260200190815260200160002060009054906101000a900473ffffffffffffffffffffffffffffffffffffffff169050600073ffffffffffffffffffffffffffffffffffffffff168173ffffffffffffffffffffffffffffffffffffffff161415610d9a576040517f08c379a0000000000000000000000000000000000000000000000000000000008152600401610d9190615383565b60405180910390fd5b80915050919050565b6000808214158015610deb575061dead73ffffffffffffffffffffffffffffffffffffffff16610dd283610cf1565b73ffffffffffffffffffffffffffffffffffffffff1614155b610df457600080fd5b7f0000000000000000000000000000000000000000000000000000000000000000600c60006101000a81548173ffffffffffffffffffffffffffffffffffffffff021916908373ffffffffffffffffffffffffffffffffffffffff160217905550600080600080600080610e67886105ba565b96509650965096509650965050600080610ea7610e9e610e85612006565b600e60008e81526020019081526020016000205461200e565b62015180612024565b90506000610ebd610eb78761203a565b8a612089565b90506000610ecb8a8a61200e565b905087610ed6612006565b11610f0057610eee81610ee98486612144565b61200e565b9350610efa878b61215a565b50610f38565b6000610f14610f0e8861203a565b8c612089565b9050610f2982610f248387612144565b61200e565b9450610f35878c61215a565b50505b600c60009054906101000a900473ffffffffffffffffffffffffffffffffffffffff1673ffffffffffffffffffffffffffffffffffffffff166323b872dd610f7e611c0b565b87876040518463ffffffff1660e01b8152600401610f9e93929190615112565b602060405180830381600087803b158015610fb857600080fd5b505af1158015610fcc573d6000803e3d6000fd5b505050506040513d601f19601f82011682018060405250810190610ff0919061465b565b50600c60009054906101000a900473ffffffffffffffffffffffffffffffffffffffff1673ffffffffffffffffffffffffffffffffffffffff166323b872dd611037611c0b565b7f00000000000000000000000000000000000000000000000000000000000000006110628e8961200e565b6040518463ffffffff1660e01b815260040161108093929190615112565b602060405180830381600087803b15801561109a57600080fd5b505af11580156110ae573d6000803e3d6000fd5b505050506040513d601f19601f820116820180604052508101906110d2919061465b565b506110e03061dead8e610b35565b601060008d815260200190815260200160002060009054906101000a900460ff161561112a57601060008d815260200190815260200160002060006101000a81549060ff02191690555b60019a5050505050505050505050919050565b60008073ffffffffffffffffffffffffffffffffffffffff168273ffffffffffffffffffffffffffffffffffffffff1614156111ae576040517f08c379a00000000000000000000000000000000000000000000000000000000081526004016111a590615363565b60405180910390fd5b600360008373ffffffffffffffffffffffffffffffffffffffff1673ffffffffffffffffffffffffffffffffffffffff168152602001908152602001600020549050919050565b61dead81565b611203611c0b565b73ffffffffffffffffffffffffffffffffffffffff16611221611283565b73ffffffffffffffffffffffffffffffffffffffff1614611277576040517f08c379a000000000000000000000000000000000000000000000000000000000815260040161126e906153e3565b60405180910390fd5b611281600061218b565b565b6000600660009054906101000a900473ffffffffffffffffffffffffffffffffffffffff16905090565b60006112b7611c0b565b73ffffffffffffffffffffffffffffffffffffffff166112d5611283565b73ffffffffffffffffffffffffffffffffffffffff161461132b576040517f08c379a0000000000000000000000000000000000000000000000000000000008152600401611322906153e3565b60405180910390fd5b6010600083815260200190815260200160002060009054906101000a900460ff161561138c576040517f08c379a0000000000000000000000000000000000000000000000000000000008152600401611383906154c3565b60405180910390fd5b60016010600084815260200190815260200160002060006101000a81548160ff02191690831515021790555060008060006113c6856105ba565b509550955095505050506113d8612006565b8311801561141c575061dead73ffffffffffffffffffffffffffffffffffffffff1661140386610cf1565b73ffffffffffffffffffffffffffffffffffffffff1614155b1561148157600061143d61142f8461203a565b670de0b6b3a7640000612089565b9050600061145b61144d8461203a565b670de0b6b3a7640000612089565b90506000611469828461200e565b9050611477600b5482612251565b600b819055505050505b600b549350505050919050565b60606001805461149d906157b5565b80601f01602080910402602001604051908101604052809291908181526020018280546114c9906157b5565b80156115165780601f106114eb57610100808354040283529160200191611516565b820191906000526020600020905b8154815290600101906020018083116114f957829003601f168201915b5050505050905090565b611528611c0b565b73ffffffffffffffffffffffffffffffffffffffff168273ffffffffffffffffffffffffffffffffffffffff161415611596576040517f08c379a000000000000000000000000000000000000000000000000000000000815260040161158d90615303565b60405180910390fd5b80600560006115a3611c0b565b73ffffffffffffffffffffffffffffffffffffffff1673ffffffffffffffffffffffffffffffffffffffff16815260200190815260200160002060008473ffffffffffffffffffffffffffffffffffffffff1673ffffffffffffffffffffffffffffffffffffffff16815260200190815260200160002060006101000a81548160ff0219169083151502179055508173ffffffffffffffffffffffffffffffffffffffff16611650611c0b565b73ffffffffffffffffffffffffffffffffffffffff167f17307eab39ab6107e8899845ad3d59bd9653f200f220920489ca2b5937696c31836040516116959190615195565b60405180910390a35050565b6116b26116ac611c0b565b83611ccc565b6116f1576040517f08c379a00000000000000000000000000000000000000000000000000000000081526004016116e890615463565b60405180910390fd5b6116fd84848484612267565b50505050565b606061170e82611b9f565b61174d576040517f08c379a000000000000000000000000000000000000000000000000000000000815260040161174490615423565b60405180910390fd5b60006117576122c3565b9050600081511161177757604051806020016040528060008152506117a2565b80611781846122da565b6040516020016117929291906150d3565b6040516020818303038152906040525b915050919050565b60006010600083815260200190815260200160002060009054906101000a900460ff169050919050565b600b5481565b6000600560008473ffffffffffffffffffffffffffffffffffffffff1673ffffffffffffffffffffffffffffffffffffffff16815260200190815260200160002060008373ffffffffffffffffffffffffffffffffffffffff1673ffffffffffffffffffffffffffffffffffffffff16815260200190815260200160002060009054906101000a900460ff16905092915050565b611876611c0b565b73ffffffffffffffffffffffffffffffffffffffff16611894611283565b73ffffffffffffffffffffffffffffffffffffffff16146118ea576040517f08c379a00000000000000000000000000000000000000000000000000000000081526004016118e1906153e3565b60405180910390fd5b600073ffffffffffffffffffffffffffffffffffffffff168173ffffffffffffffffffffffffffffffffffffffff16141561195a576040517f08c379a0000000000000000000000000000000000000000000000000000000008152600401611951906152a3565b60405180910390fd5b6119638161218b565b50565b6000611970611c0b565b73ffffffffffffffffffffffffffffffffffffffff1661198e611283565b73ffffffffffffffffffffffffffffffffffffffff16146119e4576040517f08c379a00000000000000000000000000000000000000000000000000000000081526004016119db906153e3565b60405180910390fd5b60008260000151836020015184604001516119fd612006565b866060015187608001518860a001518960c00151604051602001611a28989796959493929190615045565b604051602081830303815290604052805190602001209050600f600082815260200190815260200160002060009054906101000a900460ff1615611aa1576040517f08c379a0000000000000000000000000000000000000000000000000000000008152600401611a98906154a3565b60405180910390fd5b6001600f600083815260200190815260200160002060006101000a81548160ff0219169083151502179055506000611ad884612487565b9050611ae2612006565b600e600083815260200190815260200160002081905550611b078460c00151826125dc565b611b19846080015185602001516127aa565b50600192505050919050565b60007f780e9d63000000000000000000000000000000000000000000000000000000007bffffffffffffffffffffffffffffffffffffffffffffffffffffffff1916827bffffffffffffffffffffffffffffffffffffffffffffffffffffffff19161480611b985750611b97826127db565b5b9050919050565b60008073ffffffffffffffffffffffffffffffffffffffff166002600084815260200190815260200160002060009054906101000a900473ffffffffffffffffffffffffffffffffffffffff1673ffffffffffffffffffffffffffffffffffffffff1614159050919050565b600033905090565b816004600083815260200190815260200160002060006101000a81548173ffffffffffffffffffffffffffffffffffffffff021916908373ffffffffffffffffffffffffffffffffffffffff160217905550808273ffffffffffffffffffffffffffffffffffffffff16611c8683610cf1565b73ffffffffffffffffffffffffffffffffffffffff167f8c5be1e5ebec7d5bd14f71427d1e84f3dd0314c0f7b2291e5b200ac8c7c3b92560405160405180910390a45050565b6000611cd782611b9f565b611d16576040517f08c379a0000000000000000000000000000000000000000000000000000000008152600401611d0d90615323565b60405180910390fd5b6000611d2183610cf1565b90508073ffffffffffffffffffffffffffffffffffffffff168473ffffffffffffffffffffffffffffffffffffffff161480611d9057508373ffffffffffffffffffffffffffffffffffffffff16611d7884610977565b73ffffffffffffffffffffffffffffffffffffffff16145b80611da15750611da081856117da565b5b91505092915050565b8273ffffffffffffffffffffffffffffffffffffffff16611dca82610cf1565b73ffffffffffffffffffffffffffffffffffffffff1614611e20576040517f08c379a0000000000000000000000000000000000000000000000000000000008152600401611e1790615403565b60405180910390fd5b600073ffffffffffffffffffffffffffffffffffffffff168273ffffffffffffffffffffffffffffffffffffffff161415611e90576040517f08c379a0000000000000000000000000000000000000000000000000000000008152600401611e87906152e3565b60405180910390fd5b611e9b8383836128bd565b611ea6600082611c13565b6001600360008573ffffffffffffffffffffffffffffffffffffffff1673ffffffffffffffffffffffffffffffffffffffff1681526020019081526020016000206000828254611ef691906156be565b925050819055506001600360008473ffffffffffffffffffffffffffffffffffffffff1673ffffffffffffffffffffffffffffffffffffffff1681526020019081526020016000206000828254611f4d91906155dd565b92505081905550816002600083815260200190815260200160002060006101000a81548173ffffffffffffffffffffffffffffffffffffffff021916908373ffffffffffffffffffffffffffffffffffffffff160217905550808273ffffffffffffffffffffffffffffffffffffffff168473ffffffffffffffffffffffffffffffffffffffff167fddf252ad1be2c89b69c2b068fc378daa952ba7f163c4a11628f55a4df523b3ef60405160405180910390a4505050565b600042905090565b6000818361201c91906156be565b905092915050565b600081836120329190615633565b905092915050565b600061208261207361206e61205861205361016d6128cd565b6128f0565b612069612064876129a9565b6129cf565b612af3565b612b5e565b61207d60016128cd565b61375e565b9050919050565b60008082141561209c576000905061213e565b600083600f0b12156120ad57600080fd5b600060406fffffffffffffffffffffffffffffffff841685600f0b02901c90506000608084901c85600f0b02905077ffffffffffffffffffffffffffffffffffffffffffffffff81111561210057600080fd5b604081901b9050817fffffffffffffffffffffffffffffffffffffffffffffffffffffffffffffffff0381111561213657600080fd5b818101925050505b92915050565b600081836121529190615664565b905092915050565b60008061216f6121698561203a565b84612089565b905061217d600b548261200e565b600b81905591505092915050565b6000600660009054906101000a900473ffffffffffffffffffffffffffffffffffffffff16905081600660006101000a81548173ffffffffffffffffffffffffffffffffffffffff021916908373ffffffffffffffffffffffffffffffffffffffff1602179055508173ffffffffffffffffffffffffffffffffffffffff168173ffffffffffffffffffffffffffffffffffffffff167f8be0079c531659141344cd1fd0a4f28419497f9722a3daafe3b4186f6b6457e060405160405180910390a35050565b6000818361225f91906155dd565b905092915050565b612272848484611daa565b61227e848484846137c5565b6122bd576040517f08c379a00000000000000000000000000000000000000000000000000000000081526004016122b490615283565b60405180910390fd5b50505050565b606060405180602001604052806000815250905090565b60606000821415612322576040518060400160405280600181526020017f30000000000000000000000000000000000000000000000000000000000000008152509050612482565b600082905060005b6000821461235457808061233d906157e7565b915050600a8261234d9190615633565b915061232a565b60008167ffffffffffffffff811115612396577f4e487b7100000000000000000000000000000000000000000000000000000000600052604160045260246000fd5b6040519080825280601f01601f1916602001820160405280156123c85781602001600182028036833780820191505090505b5090505b6000851461247b576001826123e191906156be565b9150600a856123f09190615870565b60306123fc91906155dd565b60f81b818381518110612438577f4e487b7100000000000000000000000000000000000000000000000000000000600052603260045260246000fd5b60200101907effffffffffffffffffffffffffffffffffffffffffffffffffffffffffffff1916908160001a905350600a856124749190615633565b94506123cc565b8093505050505b919050565b6000600d82908060018154018082558091505060019003906000526020600020906006020160009091909190915060008201518160000190805190602001906124d19291906141e6565b5060208201518160010155604082015181600201556060820151816003015560808201518160040160006101000a8154816fffffffffffffffffffffffffffffffff0219169083600f0b6fffffffffffffffffffffffffffffffff16021790555060a08201518160040160106101000a8154816fffffffffffffffffffffffffffffffff0219169083600f0b6fffffffffffffffffffffffffffffffff16021790555060c08201518160050160006101000a81548173ffffffffffffffffffffffffffffffffffffffff021916908373ffffffffffffffffffffffffffffffffffffffff160217905550505060006001600d805490506125d191906156be565b905080915050919050565b600073ffffffffffffffffffffffffffffffffffffffff168273ffffffffffffffffffffffffffffffffffffffff16141561264c576040517f08c379a0000000000000000000000000000000000000000000000000000000008152600401612643906153a3565b60405180910390fd5b61265581611b9f565b15612695576040517f08c379a000000000000000000000000000000000000000000000000000000000815260040161268c906152c3565b60405180910390fd5b6126a1600083836128bd565b6001600360008473ffffffffffffffffffffffffffffffffffffffff1673ffffffffffffffffffffffffffffffffffffffff16815260200190815260200160002060008282546126f191906155dd565b92505081905550816002600083815260200190815260200160002060006101000a81548173ffffffffffffffffffffffffffffffffffffffff021916908373ffffffffffffffffffffffffffffffffffffffff160217905550808273ffffffffffffffffffffffffffffffffffffffff16600073ffffffffffffffffffffffffffffffffffffffff167fddf252ad1be2c89b69c2b068fc378daa952ba7f163c4a11628f55a4df523b3ef60405160405180910390a45050565b6000806127bf6127b98561203a565b84612089565b90506127cd600b5482612251565b600b81905591505092915050565b60007f80ac58cd000000000000000000000000000000000000000000000000000000007bffffffffffffffffffffffffffffffffffffffffffffffffffffffff1916827bffffffffffffffffffffffffffffffffffffffffffffffffffffffff191614806128a657507f5b5e139f000000000000000000000000000000000000000000000000000000007bffffffffffffffffffffffffffffffffffffffffffffffffffffffff1916827bffffffffffffffffffffffffffffffffffffffffffffffffffffffff1916145b806128b657506128b58261395c565b5b9050919050565b6128c88383836139c6565b505050565b6000677fffffffffffffff8211156128e457600080fd5b604082901b9050919050565b60008082600f0b141561290257600080fd5b600082600f0b7001000000000000000000000000000000008161294e577f4e487b7100000000000000000000000000000000000000000000000000000000600052601260045260246000fd5b0590507fffffffffffffffffffffffffffffffff80000000000000000000000000000000600f0b811215801561299757506f7fffffffffffffffffffffffffffffff600f0b8113155b6129a057600080fd5b80915050919050565b60006129c86129c16129bb60016128cd565b84613ada565b600c613b41565b9050919050565b60008082600f0b136129e057600080fd5b60008083600f0b9050680100000000000000008112612a0757604081901d90506040820191505b6401000000008112612a2157602081901d90506020820191505b620100008112612a3957601081901d90506010820191505b6101008112612a5057600881901d90506008820191505b60108112612a6657600481901d90506004820191505b60048112612a7c57600281901d90506002820191505b60028112612a8b576001820191505b60006040808403901b9050600083607f0386600f0b901b9050600067800000000000000090505b6000811315612ae6578182029150600060ff83901c905080607f0183901c92508082028401935050600181901d9050612ab2565b5081945050505050919050565b600080604083600f0b85600f0b02901d90507fffffffffffffffffffffffffffffffff80000000000000000000000000000000600f0b8112158015612b4b57506f7fffffffffffffffffffffffffffffff600f0b8113155b612b5457600080fd5b8091505092915050565b60006840000000000000000082600f0b12612b7857600080fd5b7fffffffffffffffffffffffffffffffffffffffffffffffc0000000000000000082600f0b1215612bac5760009050613759565b60006f80000000000000000000000000000000905060006780000000000000008416600f0b1315612bf257608070016a09e667f3bcc908b2fb1366ea957d3e8202901c90505b60006740000000000000008416600f0b1315612c235760807001306fe0a31b7152de8d5a46305c85edec8202901c90505b60006720000000000000008416600f0b1315612c545760807001172b83c7d517adcdf7c8c50eb14a791f8202901c90505b60006710000000000000008416600f0b1315612c8557608070010b5586cf9890f6298b92b71842a983638202901c90505b60006708000000000000008416600f0b1315612cb65760807001059b0d31585743ae7c548eb68ca417fd8202901c90505b60006704000000000000008416600f0b1315612ce7576080700102c9a3e778060ee6f7caca4f7a29bde88202901c90505b60006702000000000000008416600f0b1315612d1857608070010163da9fb33356d84a66ae336dcdfa3f8202901c90505b60006701000000000000008416600f0b1315612d49576080700100b1afa5abcbed6129ab13ec11dc95438202901c90505b600066800000000000008416600f0b1315612d7957608070010058c86da1c09ea1ff19d294cf2f679b8202901c90505b600066400000000000008416600f0b1315612da95760807001002c605e2e8cec506d21bfc89a23a00f8202901c90505b600066200000000000008416600f0b1315612dd9576080700100162f3904051fa128bca9c55c31e5df8202901c90505b600066100000000000008416600f0b1315612e095760807001000b175effdc76ba38e31671ca9397258202901c90505b600066080000000000008416600f0b1315612e39576080700100058ba01fb9f96d6cacd4b180917c3d8202901c90505b600066040000000000008416600f0b1315612e6957608070010002c5cc37da9491d0985c348c68e7b38202901c90505b600066020000000000008416600f0b1315612e995760807001000162e525ee054754457d59952920268202901c90505b600066010000000000008416600f0b1315612ec957608070010000b17255775c040618bf4a4ade83fc8202901c90505b6000658000000000008416600f0b1315612ef85760807001000058b91b5bc9ae2eed81e9b7d4cfab8202901c90505b6000654000000000008416600f0b1315612f27576080700100002c5c89d5ec6ca4d7c8acc017b7c98202901c90505b6000652000000000008416600f0b1315612f5657608070010000162e43f4f831060e02d839a9d16d8202901c90505b6000651000000000008416600f0b1315612f85576080700100000b1721bcfc99d9f890ea069117638202901c90505b6000650800000000008416600f0b1315612fb457608070010000058b90cf1e6d97f9ca14dbcc16288202901c90505b6000650400000000008416600f0b1315612fe35760807001000002c5c863b73f016468f6bac5ca2b8202901c90505b6000650200000000008416600f0b1315613012576080700100000162e430e5a18f6119e3c02282a58202901c90505b6000650100000000008416600f0b13156130415760807001000000b1721835514b86e6d96efd1bfe8202901c90505b60006480000000008416600f0b131561306f576080700100000058b90c0b48c6be5df846c5b2ef8202901c90505b60006440000000008416600f0b131561309d57608070010000002c5c8601cc6b9e94213c72737a8202901c90505b60006420000000008416600f0b13156130cb5760807001000000162e42fff037df38aa2b219f068202901c90505b60006410000000008416600f0b13156130f957608070010000000b17217fba9c739aa5819f44f98202901c90505b60006408000000008416600f0b13156131275760807001000000058b90bfcdee5acd3c1cedc8238202901c90505b60006404000000008416600f0b1315613155576080700100000002c5c85fe31f35a6a30da1be508202901c90505b60006402000000008416600f0b131561318357608070010000000162e42ff0999ce3541b9fffcf8202901c90505b60006401000000008416600f0b13156131b1576080700100000000b17217f80f4ef5aadda455548202901c90505b600063800000008416600f0b13156131de57608070010000000058b90bfbf8479bd5a81b51ad8202901c90505b600063400000008416600f0b131561320b5760807001000000002c5c85fdf84bd62ae30a74cc8202901c90505b600063200000008416600f0b1315613238576080700100000000162e42fefb2fed257559bdaa8202901c90505b600063100000008416600f0b13156132655760807001000000000b17217f7d5a7716bba4a9ae8202901c90505b600063080000008416600f0b1315613292576080700100000000058b90bfbe9ddbac5e109cce8202901c90505b600063040000008416600f0b13156132bf57608070010000000002c5c85fdf4b15de6f17eb0d8202901c90505b600063020000008416600f0b13156132ec5760807001000000000162e42fefa494f1478fde058202901c90505b600063010000008416600f0b131561331957608070010000000000b17217f7d20cf927c8e94c8202901c90505b6000628000008416600f0b13156133455760807001000000000058b90bfbe8f71cb4e4b33d8202901c90505b6000624000008416600f0b1315613371576080700100000000002c5c85fdf477b662b269458202901c90505b6000622000008416600f0b131561339d57608070010000000000162e42fefa3ae53369388c8202901c90505b6000621000008416600f0b13156133c9576080700100000000000b17217f7d1d351a389d408202901c90505b6000620800008416600f0b13156133f557608070010000000000058b90bfbe8e8b2d3d4ede8202901c90505b6000620400008416600f0b13156134215760807001000000000002c5c85fdf4741bea6e77e8202901c90505b6000620200008416600f0b131561344d576080700100000000000162e42fefa39fe95583c28202901c90505b6000620100008416600f0b13156134795760807001000000000000b17217f7d1cfb72b45e18202901c90505b60006180008416600f0b13156134a4576080700100000000000058b90bfbe8e7cc35c3f08202901c90505b60006140008416600f0b13156134cf57608070010000000000002c5c85fdf473e242ea388202901c90505b60006120008416600f0b13156134fa5760807001000000000000162e42fefa39f02b772c8202901c90505b60006110008416600f0b131561352557608070010000000000000b17217f7d1cf7d83c1a8202901c90505b60006108008416600f0b13156135505760807001000000000000058b90bfbe8e7bdcbe2e8202901c90505b60006104008416600f0b131561357b576080700100000000000002c5c85fdf473dea871f8202901c90505b60006102008416600f0b13156135a657608070010000000000000162e42fefa39ef44d918202901c90505b60006101008416600f0b13156135d1576080700100000000000000b17217f7d1cf79e9498202901c90505b600060808416600f0b13156135fb57608070010000000000000058b90bfbe8e7bce5448202901c90505b600060408416600f0b13156136255760807001000000000000002c5c85fdf473de6eca8202901c90505b600060208416600f0b131561364f576080700100000000000000162e42fefa39ef366f8202901c90505b600060108416600f0b13156136795760807001000000000000000b17217f7d1cf79afa8202901c90505b600060088416600f0b13156136a3576080700100000000000000058b90bfbe8e7bcd6d8202901c90505b600060048416600f0b13156136cd57608070010000000000000002c5c85fdf473de6b28202901c90505b600060028416600f0b13156136f75760807001000000000000000162e42fefa39ef3588202901c90505b600060018416600f0b131561372157608070010000000000000000b17217f7d1cf79ab8202901c90505b604083600f0b901d603f03600f0b81901c90506f7fffffffffffffffffffffffffffffff600f0b81111561375457600080fd5b809150505b919050565b60008082600f0b84600f0b0390507fffffffffffffffffffffffffffffffff80000000000000000000000000000000600f0b81121580156137b257506f7fffffffffffffffffffffffffffffff600f0b8113155b6137bb57600080fd5b8091505092915050565b60006137e68473ffffffffffffffffffffffffffffffffffffffff16613e56565b1561394f578373ffffffffffffffffffffffffffffffffffffffff1663150b7a0261380f611c0b565b8786866040518563ffffffff1660e01b81526004016138319493929190615149565b602060405180830381600087803b15801561384b57600080fd5b505af192505050801561387c57506040513d601f19601f8201168201806040525081019061387991906146ad565b60015b6138ff573d80600081146138ac576040519150601f19603f3d011682016040523d82523d6000602084013e6138b1565b606091505b506000815114156138f7576040517f08c379a00000000000000000000000000000000000000000000000000000000081526004016138ee90615283565b60405180910390fd5b805181602001fd5b63150b7a0260e01b7bffffffffffffffffffffffffffffffffffffffffffffffffffffffff1916817bffffffffffffffffffffffffffffffffffffffffffffffffffffffff191614915050613954565b600190505b949350505050565b60007f01ffc9a7000000000000000000000000000000000000000000000000000000007bffffffffffffffffffffffffffffffffffffffffffffffffffffffff1916827bffffffffffffffffffffffffffffffffffffffffffffffffffffffff1916149050919050565b6139d1838383613e69565b600073ffffffffffffffffffffffffffffffffffffffff168373ffffffffffffffffffffffffffffffffffffffff161415613a1457613a0f81613e6e565b613a53565b8173ffffffffffffffffffffffffffffffffffffffff168373ffffffffffffffffffffffffffffffffffffffff1614613a5257613a518382613eb7565b5b5b600073ffffffffffffffffffffffffffffffffffffffff168273ffffffffffffffffffffffffffffffffffffffff161415613a9657613a9181614024565b613ad5565b8273ffffffffffffffffffffffffffffffffffffffff168273ffffffffffffffffffffffffffffffffffffffff1614613ad457613ad38282614167565b5b5b505050565b60008082600f0b84600f0b0190507fffffffffffffffffffffffffffffffff80000000000000000000000000000000600f0b8112158015613b2e57506f7fffffffffffffffffffffffffffffff600f0b8113155b613b3757600080fd5b8091505092915050565b600080600084600f0b128015613b5957506001808416145b905060008085600f0b12613b6d5784613b72565b846000035b6fffffffffffffffffffffffffffffffff16905060007001000000000000000000000000000000009050680100000000000000008211613c4c57603f82901b91505b60008514613c405760006001861614613bd157607f828202901c90505b607f828302901c915060006002861614613bef57607f828202901c90505b607f828302901c915060006004861614613c0d57607f828202901c90505b607f828302901c915060006008861614613c2b57607f828202901c90505b607f828302901c9150600485901c9450613bb4565b604081901c9050613de6565b6000603f90506c01000000000000000000000000831015613c7557602083901b92506020810390505b6e010000000000000000000000000000831015613c9a57601083901b92506010810390505b6f01000000000000000000000000000000831015613cc057600883901b92506008810390505b6f10000000000000000000000000000000831015613ce657600483901b92506004810390505b6f40000000000000000000000000000000831015613d0c57600283901b92506002810390505b6f80000000000000000000000000000000831015613d3257600183901b92506001810390505b60005b60008714613dcd5760408210613d4a57600080fd5b60006001881614613d8b57607f848402901c92508181019050700100000000000000000000000000000000831115613d8a57600183901c92506001810190505b5b607f848502901c9350600182901b91507001000000000000000000000000000000008410613dc157600184901c93506001820191505b600187901c9650613d35565b60408110613dda57600080fd5b8060400383901c925050505b600083613df35781613df8565b816000035b90507fffffffffffffffffffffffffffffffff80000000000000000000000000000000600f0b8112158015613e4057506f7fffffffffffffffffffffffffffffff600f0b8113155b613e4957600080fd5b8094505050505092915050565b600080823b905060008111915050919050565b505050565b600980549050600a600083815260200190815260200160002081905550600981908060018154018082558091505060019003906000526020600020016000909190919091505550565b60006001613ec48461113d565b613ece91906156be565b9050600060086000848152602001908152602001600020549050818114613fb3576000600760008673ffffffffffffffffffffffffffffffffffffffff1673ffffffffffffffffffffffffffffffffffffffff168152602001908152602001600020600084815260200190815260200160002054905080600760008773ffffffffffffffffffffffffffffffffffffffff1673ffffffffffffffffffffffffffffffffffffffff168152602001908152602001600020600084815260200190815260200160002081905550816008600083815260200190815260200160002081905550505b6008600084815260200190815260200160002060009055600760008573ffffffffffffffffffffffffffffffffffffffff1673ffffffffffffffffffffffffffffffffffffffff16815260200190815260200160002060008381526020019081526020016000206000905550505050565b6000600160098054905061403891906156be565b90506000600a600084815260200190815260200160002054905060006009838154811061408e577f4e487b7100000000000000000000000000000000000000000000000000000000600052603260045260246000fd5b9060005260206000200154905080600983815481106140d6577f4e487b7100000000000000000000000000000000000000000000000000000000600052603260045260246000fd5b906000526020600020018190555081600a600083815260200190815260200160002081905550600a600085815260200190815260200160002060009055600980548061414b577f4e487b7100000000000000000000000000000000000000000000000000000000600052603160045260246000fd5b6001900381819060005260206000200160009055905550505050565b60006141728361113d565b905081600760008573ffffffffffffffffffffffffffffffffffffffff1673ffffffffffffffffffffffffffffffffffffffff168152602001908152602001600020600083815260200190815260200160002081905550806008600084815260200190815260200160002081905550505050565b8280546141f2906157b5565b90600052602060002090601f016020900481019282614214576000855561425b565b82601f1061422d57805160ff191683800117855561425b565b8280016001018555821561425b579182015b8281111561425a57825182559160200191906001019061423f565b5b509050614268919061426c565b5090565b5b8082111561428557600081600090555060010161426d565b5090565b600061429c6142978461552f565b6154fe565b9050828152602081018484840111156142b457600080fd5b6142bf848285615773565b509392505050565b60006142da6142d58461555f565b6154fe565b9050828152602081018484840111156142f257600080fd5b6142fd848285615782565b509392505050565b60008135905061431481615988565b92915050565b6000813590506143298161599f565b92915050565b60008151905061433e8161599f565b92915050565b600081359050614353816159b6565b92915050565b600081519050614368816159b6565b92915050565b600082601f83011261437f57600080fd5b813561438f848260208601614289565b91505092915050565b6000813590506143a7816159cd565b92915050565b600082601f8301126143be57600080fd5b81516143ce8482602086016142c7565b91505092915050565b600060e082840312156143e957600080fd5b6143f360e06154fe565b9050600082013567ffffffffffffffff81111561440f57600080fd5b61441b8482850161436e565b600083015250602061442f8482850161449f565b60208301525060406144438482850161449f565b60408301525060606144578482850161449f565b606083015250608061446b84828501614398565b60808301525060a061447f84828501614398565b60a08301525060c061449384828501614305565b60c08301525092915050565b6000813590506144ae816159e4565b92915050565b6000602082840312156144c657600080fd5b60006144d484828501614305565b91505092915050565b600080604083850312156144f057600080fd5b60006144fe85828601614305565b925050602061450f85828601614305565b9150509250929050565b60008060006060848603121561452e57600080fd5b600061453c86828701614305565b935050602061454d86828701614305565b925050604061455e8682870161449f565b9150509250925092565b6000806000806080858703121561457e57600080fd5b600061458c87828801614305565b945050602061459d87828801614305565b93505060406145ae8782880161449f565b925050606085013567ffffffffffffffff8111156145cb57600080fd5b6145d78782880161436e565b91505092959194509250565b600080604083850312156145f657600080fd5b600061460485828601614305565b92505060206146158582860161431a565b9150509250929050565b6000806040838503121561463257600080fd5b600061464085828601614305565b92505060206146518582860161449f565b9150509250929050565b60006020828403121561466d57600080fd5b600061467b8482850161432f565b91505092915050565b60006020828403121561469657600080fd5b60006146a484828501614344565b91505092915050565b6000602082840312156146bf57600080fd5b60006146cd84828501614359565b91505092915050565b6000602082840312156146e857600080fd5b600082015167ffffffffffffffff81111561470257600080fd5b61470e848285016143ad565b91505092915050565b60006020828403121561472957600080fd5b600082013567ffffffffffffffff81111561474357600080fd5b61474f848285016143d7565b91505092915050565b60006020828403121561476a57600080fd5b60006147788482850161449f565b91505092915050565b61478a816156f2565b82525050565b6147a161479c826156f2565b615830565b82525050565b6147b081615704565b82525050565b6147bf81615710565b82525050565b60006147d08261558f565b6147da81856155a5565b93506147ea818560208601615782565b6147f38161595d565b840191505092915050565b60006148098261558f565b61481381856155b6565b9350614823818560208601615782565b80840191505092915050565b6148388161573c565b82525050565b61484f61484a8261573c565b615842565b82525050565b60006148608261559a565b61486a81856155c1565b935061487a818560208601615782565b6148838161595d565b840191505092915050565b60006148998261559a565b6148a381856155d2565b93506148b3818560208601615782565b80840191505092915050565b60006148cc602b836155c1565b91507f455243373231456e756d657261626c653a206f776e657220696e646578206f7560008301527f74206f6620626f756e64730000000000000000000000000000000000000000006020830152604082019050919050565b60006149326032836155c1565b91507f4552433732313a207472616e7366657220746f206e6f6e20455243373231526560008301527f63656976657220696d706c656d656e74657200000000000000000000000000006020830152604082019050919050565b60006149986026836155c1565b91507f4f776e61626c653a206e6577206f776e657220697320746865207a65726f206160008301527f64647265737300000000000000000000000000000000000000000000000000006020830152604082019050919050565b60006149fe601c836155c1565b91507f4552433732313a20746f6b656e20616c7265616479206d696e746564000000006000830152602082019050919050565b6000614a3e6024836155c1565b91507f4552433732313a207472616e7366657220746f20746865207a65726f2061646460008301527f72657373000000000000000000000000000000000000000000000000000000006020830152604082019050919050565b6000614aa46019836155c1565b91507f4552433732313a20617070726f766520746f2063616c6c6572000000000000006000830152602082019050919050565b6000614ae4602c836155c1565b91507f4552433732313a206f70657261746f7220717565727920666f72206e6f6e657860008301527f697374656e7420746f6b656e00000000000000000000000000000000000000006020830152604082019050919050565b6000614b4a6038836155c1565b91507f4552433732313a20617070726f76652063616c6c6572206973206e6f74206f7760008301527f6e6572206e6f7220617070726f76656420666f7220616c6c00000000000000006020830152604082019050919050565b6000614bb0602a836155c1565b91507f4552433732313a2062616c616e636520717565727920666f7220746865207a6560008301527f726f2061646472657373000000000000000000000000000000000000000000006020830152604082019050919050565b6000614c166029836155c1565b91507f4552433732313a206f776e657220717565727920666f72206e6f6e657869737460008301527f656e7420746f6b656e00000000000000000000000000000000000000000000006020830152604082019050919050565b6000614c7c6020836155c1565b91507f4552433732313a206d696e7420746f20746865207a65726f20616464726573736000830152602082019050919050565b6000614cbc602c836155c1565b91507f4552433732313a20617070726f76656420717565727920666f72206e6f6e657860008301527f697374656e7420746f6b656e00000000000000000000000000000000000000006020830152604082019050919050565b6000614d226020836155c1565b91507f4f776e61626c653a2063616c6c6572206973206e6f7420746865206f776e65726000830152602082019050919050565b6000614d626029836155c1565b91507f4552433732313a207472616e73666572206f6620746f6b656e2074686174206960008301527f73206e6f74206f776e00000000000000000000000000000000000000000000006020830152604082019050919050565b6000614dc8602f836155c1565b91507f4552433732314d657461646174613a2055524920717565727920666f72206e6f60008301527f6e6578697374656e7420746f6b656e00000000000000000000000000000000006020830152604082019050919050565b6000614e2e6021836155c1565b91507f4552433732313a20617070726f76616c20746f2063757272656e74206f776e6560008301527f72000000000000000000000000000000000000000000000000000000000000006020830152604082019050919050565b6000614e946031836155c1565b91507f4552433732313a207472616e736665722063616c6c6572206973206e6f74206f60008301527f776e6572206e6f7220617070726f7665640000000000000000000000000000006020830152604082019050919050565b6000614efa602c836155c1565b91507f455243373231456e756d657261626c653a20676c6f62616c20696e646578206f60008301527f7574206f6620626f756e647300000000000000000000000000000000000000006020830152604082019050919050565b6000614f606024836155c1565b91507f4e46545f466163746f72793a2054686973206861736820657869737420616c7260008301527f65616479000000000000000000000000000000000000000000000000000000006020830152604082019050919050565b6000614fc66035836155c1565b91507f4e46545f466163746f72793a20546f6b656e20616c726561647920616464656460008301527f20746f206461696c79496e7465726573745255534400000000000000000000006020830152604082019050919050565b61502881615769565b82525050565b61503f61503a82615769565b615866565b82525050565b6000615051828b6147fe565b915061505d828a61502e565b60208201915061506d828961502e565b60208201915061507d828861502e565b60208201915061508d828761502e565b60208201915061509d828661483e565b6010820191506150ad828561483e565b6010820191506150bd8284614790565b6014820191508190509998505050505050505050565b60006150df828561488e565b91506150eb828461488e565b91508190509392505050565b600060208201905061510c6000830184614781565b92915050565b60006060820190506151276000830186614781565b6151346020830185614781565b615141604083018461501f565b949350505050565b600060808201905061515e6000830187614781565b61516b6020830186614781565b615178604083018561501f565b818103606083015261518a81846147c5565b905095945050505050565b60006020820190506151aa60008301846147a7565b92915050565b60006020820190506151c560008301846147b6565b92915050565b600060208201905081810360008301526151e58184614855565b905092915050565b600060e0820190508181036000830152615207818a614855565b9050615216602083018961501f565b615223604083018861501f565b615230606083018761501f565b61523d608083018661482f565b61524a60a083018561482f565b61525760c0830184614781565b98975050505050505050565b6000602082019050818103600083015261527c816148bf565b9050919050565b6000602082019050818103600083015261529c81614925565b9050919050565b600060208201905081810360008301526152bc8161498b565b9050919050565b600060208201905081810360008301526152dc816149f1565b9050919050565b600060208201905081810360008301526152fc81614a31565b9050919050565b6000602082019050818103600083015261531c81614a97565b9050919050565b6000602082019050818103600083015261533c81614ad7565b9050919050565b6000602082019050818103600083015261535c81614b3d565b9050919050565b6000602082019050818103600083015261537c81614ba3565b9050919050565b6000602082019050818103600083015261539c81614c09565b9050919050565b600060208201905081810360008301526153bc81614c6f565b9050919050565b600060208201905081810360008301526153dc81614caf565b9050919050565b600060208201905081810360008301526153fc81614d15565b9050919050565b6000602082019050818103600083015261541c81614d55565b9050919050565b6000602082019050818103600083015261543c81614dbb565b9050919050565b6000602082019050818103600083015261545c81614e21565b9050919050565b6000602082019050818103600083015261547c81614e87565b9050919050565b6000602082019050818103600083015261549c81614eed565b9050919050565b600060208201905081810360008301526154bc81614f53565b9050919050565b600060208201905081810360008301526154dc81614fb9565b9050919050565b60006020820190506154f8600083018461501f565b92915050565b6000604051905081810181811067ffffffffffffffff821117156155255761552461592e565b5b8060405250919050565b600067ffffffffffffffff82111561554a5761554961592e565b5b601f19601f8301169050602081019050919050565b600067ffffffffffffffff82111561557a5761557961592e565b5b601f19601f8301169050602081019050919050565b600081519050919050565b600081519050919050565b600082825260208201905092915050565b600081905092915050565b600082825260208201905092915050565b600081905092915050565b60006155e882615769565b91506155f383615769565b9250827fffffffffffffffffffffffffffffffffffffffffffffffffffffffffffffffff03821115615628576156276158a1565b5b828201905092915050565b600061563e82615769565b915061564983615769565b925082615659576156586158d0565b5b828204905092915050565b600061566f82615769565b915061567a83615769565b9250817fffffffffffffffffffffffffffffffffffffffffffffffffffffffffffffffff04831182151516156156b3576156b26158a1565b5b828202905092915050565b60006156c982615769565b91506156d483615769565b9250828210156156e7576156e66158a1565b5b828203905092915050565b60006156fd82615749565b9050919050565b60008115159050919050565b60007fffffffff0000000000000000000000000000000000000000000000000000000082169050919050565b600081600f0b9050919050565b600073ffffffffffffffffffffffffffffffffffffffff82169050919050565b6000819050919050565b82818337600083830152505050565b60005b838110156157a0578082015181840152602081019050615785565b838111156157af576000848401525b50505050565b600060028204905060018216806157cd57607f821691505b602082108114156157e1576157e06158ff565b5b50919050565b60006157f282615769565b91507fffffffffffffffffffffffffffffffffffffffffffffffffffffffffffffffff821415615825576158246158a1565b5b600182019050919050565b600061583b82615854565b9050919050565b600061584d8261596e565b9050919050565b600061585f8261597b565b9050919050565b6000819050919050565b600061587b82615769565b915061588683615769565b925082615896576158956158d0565b5b828206905092915050565b7f4e487b7100000000000000000000000000000000000000000000000000000000600052601160045260246000fd5b7f4e487b7100000000000000000000000000000000000000000000000000000000600052601260045260246000fd5b7f4e487b7100000000000000000000000000000000000000000000000000000000600052602260045260246000fd5b7f4e487b7100000000000000000000000000000000000000000000000000000000600052604160045260246000fd5b6000601f19601f8301169050919050565b60008160801b9050919050565b60008160601b9050919050565b615991816156f2565b811461599c57600080fd5b50565b6159a881615704565b81146159b357600080fd5b50565b6159bf81615710565b81146159ca57600080fd5b50565b6159d68161573c565b81146159e157600080fd5b50565b6159ed81615769565b81146159f857600080fd5b5056fea2646970667358221220dacd12960b2d1d917283e7a3c499c548182d45a283a4429c3db19e85af51bad964736f6c63430008000033",
  "immutableReferences": {
    "6043": [
      {
        "length": 32,
        "start": 3574
      }
    ],
    "6045": [
      {
        "length": 32,
        "start": 4153
      }
    ]
  },
  "source": "// SPDX-License-Identifier: MIT\npragma solidity ^0.8.0;\n\n/** @title NFT_FACTORY\n    @author Pedro Yuris Machado Leiva\n    @notice Smart Contract to mint NFTs that represent a real factoring invoices \n    @custom:company Reserva Food System\n    @custom:addressMumbai 0x5673a930Da6dB358E86B532d9d1B3941c5F64Aa3\n*/\n\nimport \"@openzeppelin/contracts/token/ERC721/ERC721.sol\";\nimport \"@openzeppelin/contracts/token/ERC721/extensions/ERC721Enumerable.sol\";\nimport \"@openzeppelin/contracts/token/ERC721/IERC721Receiver.sol\";\nimport \"@openzeppelin/contracts/token/ERC20/IERC20.sol\";\nimport \"@openzeppelin/contracts/access/Ownable.sol\";\nimport \"@openzeppelin/contracts/utils/math/SafeMath.sol\";\nimport \"./ABDKMath64x64.sol\";\n\n\ncontract NFT_FACTORY is ERC721, Ownable, ERC721Enumerable, IERC721Receiver {\n    uint public dailyInterestRUSD;\n    address constant public burnAddress = 0x000000000000000000000000000000000000dEaD;\n    address immutable usdtAddress;\n    address immutable rusdAddress;\n    \n    IERC20 USDT;\n\n\n\n\n\n/// @dev NFT's properties and validation system for each NFT minted. \n\n    struct DATA_INVOICE {\n        bytes dataCustumer;\n        uint valueOfNFT;\n        uint balanceAdvance;\n        uint dateOverDue;\n        int128 interestRate;\n        int128 interestRateOverDue;\n        address seller;\n    }\n\n    \n    DATA_INVOICE[] private _dataInvoices;\n    \n    mapping (uint => uint) private _dateLauncheds;\n    mapping (bytes32 => bool) private _hashExist;\n    mapping (uint => bool) private _tokenOverDues;\n\n    event RATIOCHANGED(int128 indexed newRatio);\n\n    constructor(address _usdtAddress, address _rusdAddress) ERC721(\"Decentralized Invoice Factoring\", \"DIF\") { \n        usdtAddress = _usdtAddress;\n        rusdAddress = _rusdAddress;\n    }\n\n/// @dev The following functions are overrides required by Solidity.\n\n    function _beforeTokenTransfer(address from, address to, uint256 tokenId)\n        internal\n        override(ERC721, ERC721Enumerable)\n    {\n        super._beforeTokenTransfer(from, to, tokenId);\n    }\n\n\n    function supportsInterface(bytes4 interfaceId)\n        public\n        view\n        override(ERC721, ERC721Enumerable)\n        returns (bool)\n    {\n        return super.supportsInterface(interfaceId);\n    }\n    \n    function onERC721Received(address, address, uint256, bytes memory) public virtual override returns (bytes4) {\n        return this.onERC721Received.selector;\n    }\n\n/// @dev Mint a new NFT to recipient\n\n    function createInvoice(DATA_INVOICE memory _invoice) external onlyOwner returns (bool) {            \n            bytes32 invoiceHash = keccak256(abi.encodePacked(_invoice.dataCustumer,\n            _invoice.valueOfNFT, _invoice.balanceAdvance, _now(), _invoice.dateOverDue,\n            _invoice.interestRate, _invoice.interestRateOverDue, _invoice.seller )); \n            require(! _hashExist[invoiceHash], \"NFT_Factory: This hash exist already\");\n            _hashExist[invoiceHash] = true;\n            uint256 newItemId = _assemble(_invoice);\n            _dateLauncheds[newItemId] = _now();\n            _mint(_invoice.seller, newItemId);\n            _interestToMint(_invoice.interestRate, _invoice.valueOfNFT);\n            return true;\n        }\n\n    function payNFT(uint tokenId) external returns(bool) {\n        require(tokenId != 0 && ownerOf(tokenId) != burnAddress);\n        USDT = IERC20(usdtAddress);\n        (,uint valueOfNFT, uint balanceAdvance, uint dateOverDue, int128 _mir, int128 _odmir, address seller) = getData(tokenId);\n        uint valueToRefund;\n        uint daysPassed = SafeMath.div(SafeMath.sub(_now(), _dateLauncheds[tokenId]), 1 days);\n        uint dirRUSD = ABDKMath64x64.mulu(_dir(_mir), valueOfNFT);\n        uint df = SafeMath.sub(valueOfNFT, balanceAdvance);\n        if(_now() <= dateOverDue) {\n            valueToRefund = SafeMath.sub(df, SafeMath.mul(dirRUSD, daysPassed));\n            _interestToBurn(_mir, valueOfNFT);\n        }\n\n        else {\n            uint oddirRUSD = ABDKMath64x64.mulu(_dir(_odmir), valueOfNFT);\n            valueToRefund = SafeMath.sub(df, SafeMath.mul(oddirRUSD, daysPassed));\n            _interestToBurn(_odmir, valueOfNFT);\n        }\n        USDT.transferFrom(_msgSender(), seller, valueToRefund);\n        USDT.transferFrom(_msgSender(), rusdAddress, SafeMath.sub(valueOfNFT, valueToRefund));\n        //split amount to different parts\n        transferFrom(address(this), burnAddress, tokenId);\n        if (_tokenOverDues[tokenId]) {delete _tokenOverDues[tokenId];}\n        return true;\n    }\n\n    function interestToMintOverDue(uint tokenId) public onlyOwner returns(uint) {\n        require(! _tokenOverDues[tokenId], \"NFT_Factory: Token already added to dailyInterestRUSD\" );\n        _tokenOverDues[tokenId] = true;\n        ( , , , uint dateOverDue, int128 _mir, int128 _odmir,) = getData(tokenId);\n        if (dateOverDue > _now() && ownerOf(tokenId) != burnAddress) {\n            uint dir = ABDKMath64x64.mulu(_dir(_mir), 1*10**18);\n            uint oddir = ABDKMath64x64.mulu(_dir(_odmir), 1*10**18);\n            uint df = SafeMath.sub(oddir, dir);\n            dailyInterestRUSD = SafeMath.add(dailyInterestRUSD, df);\n        }\n        return dailyInterestRUSD;\n    }\n\n\n/// @dev Insert tokenId @param and the function @return all data attached at this token\n\n    function getData(uint256 tokenId) public view returns (string memory dataCustumer, uint valueOfNFT, uint balanceAdvance, uint dateOverDue, int128 interestRate, int128 interestRateOverDue, address seller) {\n        bytes memory data = _dataInvoices[tokenId].dataCustumer;\n        string memory _dataCustumer = abi.decode(data, (string));\n        dataCustumer = _dataCustumer;\n        valueOfNFT = _dataInvoices[tokenId].valueOfNFT;\n        balanceAdvance = _dataInvoices[tokenId].balanceAdvance;\n        dateOverDue = _dataInvoices[tokenId].dateOverDue;\n        interestRate = _dataInvoices[tokenId].interestRate;\n        interestRateOverDue = _dataInvoices[tokenId].interestRateOverDue;\n        seller = _dataInvoices[tokenId].seller;\n    }\n\n    function get_tokenOverDue(uint tokenId) public view returns(bool) {\n        return _tokenOverDues[tokenId];\n    }  \n\n/// @dev Private function to assemble one NFT and @return a single id for each token minted.\n\n    function _assemble( DATA_INVOICE memory _invoice) private returns(uint256) {\n        _dataInvoices.push(_invoice);\n        uint256 id = _dataInvoices.length - 1;\n        return id;\n        }\n \n    function _interestToMint(int128 _mir, uint _amount) private returns (uint){\n        uint newInterestToMint = ABDKMath64x64.mulu(_dir(_mir), _amount);\n        return dailyInterestRUSD = SafeMath.add(dailyInterestRUSD, newInterestToMint) ;\n    }\n\n    function _interestToBurn(int128 _mir, uint _amount) private returns (uint) {\n        uint newInterestToBurn = ABDKMath64x64.mulu(_dir(_mir), _amount);\n        return dailyInterestRUSD = SafeMath.sub(dailyInterestRUSD, newInterestToBurn);\n    }\n\n    function _dir(int128 mir) pure private returns (int128) {\n      return ABDKMath64x64.sub(ABDKMath64x64.exp_2(ABDKMath64x64.mul(ABDKMath64x64.inv(ABDKMath64x64.fromUInt(365)), ABDKMath64x64.log_2(_air(mir)))), ABDKMath64x64.fromUInt(1));\n    }\n\n    function _air(int128 mir) pure private returns (int128) {\n        return ABDKMath64x64.pow(ABDKMath64x64.add(ABDKMath64x64.fromUInt(1), mir), 12);\n    }\n\n    function _now() private view returns(uint) {\n        return block.timestamp;\n    }\n    \n \n}",
  "sourcePath": "/home/peter/Documents/Reserva/0-Reservafs/Proyectos/DIF_PROJECT/Code/DIFonBlockchain_Enumerable/contracts/NFT_FACTORY.sol",
  "compiler": {
    "name": "solc",
    "version": "0.8.0+commit.c7dfd78e.Emscripten.clang"
  },
  "schemaVersion": "3.4.3",
  "updatedAt": "2021-12-15T23:24:15.416Z",
  "devdoc": {
    "kind": "dev",
    "methods": {
      "approve(address,uint256)": {
        "details": "See {IERC721-approve}."
      },
      "balanceOf(address)": {
        "details": "See {IERC721-balanceOf}."
      },
      "createInvoice((bytes,uint256,uint256,uint256,int128,int128,address))": {
        "details": "Mint a new NFT to recipient"
      },
      "getApproved(uint256)": {
        "details": "See {IERC721-getApproved}."
      },
      "getData(uint256)": {
        "details": "Insert tokenId @param and the function @return all data attached at this token"
      },
      "isApprovedForAll(address,address)": {
        "details": "See {IERC721-isApprovedForAll}."
      },
      "name()": {
        "details": "See {IERC721Metadata-name}."
      },
      "owner()": {
        "details": "Returns the address of the current owner."
      },
      "ownerOf(uint256)": {
        "details": "See {IERC721-ownerOf}."
      },
      "renounceOwnership()": {
        "details": "Leaves the contract without owner. It will not be possible to call `onlyOwner` functions anymore. Can only be called by the current owner. NOTE: Renouncing ownership will leave the contract without an owner, thereby removing any functionality that is only available to the owner."
      },
      "safeTransferFrom(address,address,uint256)": {
        "details": "See {IERC721-safeTransferFrom}."
      },
      "safeTransferFrom(address,address,uint256,bytes)": {
        "details": "See {IERC721-safeTransferFrom}."
      },
      "setApprovalForAll(address,bool)": {
        "details": "See {IERC721-setApprovalForAll}."
      },
      "symbol()": {
        "details": "See {IERC721Metadata-symbol}."
      },
      "tokenByIndex(uint256)": {
        "details": "See {IERC721Enumerable-tokenByIndex}."
      },
      "tokenOfOwnerByIndex(address,uint256)": {
        "details": "See {IERC721Enumerable-tokenOfOwnerByIndex}."
      },
      "tokenURI(uint256)": {
        "details": "See {IERC721Metadata-tokenURI}."
      },
      "totalSupply()": {
        "details": "See {IERC721Enumerable-totalSupply}."
      },
      "transferFrom(address,address,uint256)": {
        "details": "See {IERC721-transferFrom}."
      },
      "transferOwnership(address)": {
        "details": "Transfers ownership of the contract to a new account (`newOwner`). Can only be called by the current owner."
      }
    },
    "version": 1
  },
  "userdoc": {
    "kind": "user",
    "methods": {},
    "version": 1
  }
}