{
  "contractName": "NFT_FACTORY",
  "abi": [
    {
      "inputs": [],
      "stateMutability": "nonpayable",
      "type": "constructor"
    },
    {
      "anonymous": false,
      "inputs": [
        {
          "indexed": true,
          "internalType": "address",
          "name": "owner",
          "type": "address"
        },
        {
          "indexed": true,
          "internalType": "address",
          "name": "approved",
          "type": "address"
        },
        {
          "indexed": true,
          "internalType": "uint256",
          "name": "tokenId",
          "type": "uint256"
        }
      ],
      "name": "Approval",
      "type": "event"
    },
    {
      "anonymous": false,
      "inputs": [
        {
          "indexed": true,
          "internalType": "address",
          "name": "owner",
          "type": "address"
        },
        {
          "indexed": true,
          "internalType": "address",
          "name": "operator",
          "type": "address"
        },
        {
          "indexed": false,
          "internalType": "bool",
          "name": "approved",
          "type": "bool"
        }
      ],
      "name": "ApprovalForAll",
      "type": "event"
    },
    {
      "anonymous": false,
      "inputs": [
        {
          "indexed": true,
          "internalType": "address",
          "name": "previousOwner",
          "type": "address"
        },
        {
          "indexed": true,
          "internalType": "address",
          "name": "newOwner",
          "type": "address"
        }
      ],
      "name": "OwnershipTransferred",
      "type": "event"
    },
    {
      "anonymous": false,
      "inputs": [
        {
          "indexed": true,
          "internalType": "int128",
          "name": "newRatio",
          "type": "int128"
        }
      ],
      "name": "RATIOCHANGED",
      "type": "event"
    },
    {
      "anonymous": false,
      "inputs": [
        {
          "indexed": true,
          "internalType": "address",
          "name": "from",
          "type": "address"
        },
        {
          "indexed": true,
          "internalType": "address",
          "name": "to",
          "type": "address"
        },
        {
          "indexed": true,
          "internalType": "uint256",
          "name": "tokenId",
          "type": "uint256"
        }
      ],
      "name": "Transfer",
      "type": "event"
    },
    {
      "inputs": [
        {
          "internalType": "address",
          "name": "to",
          "type": "address"
        },
        {
          "internalType": "uint256",
          "name": "tokenId",
          "type": "uint256"
        }
      ],
      "name": "approve",
      "outputs": [],
      "stateMutability": "nonpayable",
      "type": "function"
    },
    {
      "inputs": [
        {
          "internalType": "address",
          "name": "owner",
          "type": "address"
        }
      ],
      "name": "balanceOf",
      "outputs": [
        {
          "internalType": "uint256",
          "name": "",
          "type": "uint256"
        }
      ],
      "stateMutability": "view",
      "type": "function"
    },
    {
      "inputs": [],
      "name": "dailyInterestRUSD",
      "outputs": [
        {
          "internalType": "uint256",
          "name": "",
          "type": "uint256"
        }
      ],
      "stateMutability": "view",
      "type": "function"
    },
    {
      "inputs": [
        {
          "internalType": "uint256",
          "name": "tokenId",
          "type": "uint256"
        }
      ],
      "name": "getApproved",
      "outputs": [
        {
          "internalType": "address",
          "name": "",
          "type": "address"
        }
      ],
      "stateMutability": "view",
      "type": "function"
    },
    {
      "inputs": [
        {
          "internalType": "address",
          "name": "owner",
          "type": "address"
        },
        {
          "internalType": "address",
          "name": "operator",
          "type": "address"
        }
      ],
      "name": "isApprovedForAll",
      "outputs": [
        {
          "internalType": "bool",
          "name": "",
          "type": "bool"
        }
      ],
      "stateMutability": "view",
      "type": "function"
    },
    {
      "inputs": [],
      "name": "name",
      "outputs": [
        {
          "internalType": "string",
          "name": "",
          "type": "string"
        }
      ],
      "stateMutability": "view",
      "type": "function"
    },
    {
      "inputs": [],
      "name": "owner",
      "outputs": [
        {
          "internalType": "address",
          "name": "",
          "type": "address"
        }
      ],
      "stateMutability": "view",
      "type": "function"
    },
    {
      "inputs": [
        {
          "internalType": "uint256",
          "name": "tokenId",
          "type": "uint256"
        }
      ],
      "name": "ownerOf",
      "outputs": [
        {
          "internalType": "address",
          "name": "",
          "type": "address"
        }
      ],
      "stateMutability": "view",
      "type": "function"
    },
    {
      "inputs": [],
      "name": "renounceOwnership",
      "outputs": [],
      "stateMutability": "nonpayable",
      "type": "function"
    },
    {
      "inputs": [
        {
          "internalType": "address",
          "name": "from",
          "type": "address"
        },
        {
          "internalType": "address",
          "name": "to",
          "type": "address"
        },
        {
          "internalType": "uint256",
          "name": "tokenId",
          "type": "uint256"
        }
      ],
      "name": "safeTransferFrom",
      "outputs": [],
      "stateMutability": "nonpayable",
      "type": "function"
    },
    {
      "inputs": [
        {
          "internalType": "address",
          "name": "from",
          "type": "address"
        },
        {
          "internalType": "address",
          "name": "to",
          "type": "address"
        },
        {
          "internalType": "uint256",
          "name": "tokenId",
          "type": "uint256"
        },
        {
          "internalType": "bytes",
          "name": "_data",
          "type": "bytes"
        }
      ],
      "name": "safeTransferFrom",
      "outputs": [],
      "stateMutability": "nonpayable",
      "type": "function"
    },
    {
      "inputs": [
        {
          "internalType": "address",
          "name": "operator",
          "type": "address"
        },
        {
          "internalType": "bool",
          "name": "approved",
          "type": "bool"
        }
      ],
      "name": "setApprovalForAll",
      "outputs": [],
      "stateMutability": "nonpayable",
      "type": "function"
    },
    {
      "inputs": [],
      "name": "symbol",
      "outputs": [
        {
          "internalType": "string",
          "name": "",
          "type": "string"
        }
      ],
      "stateMutability": "view",
      "type": "function"
    },
    {
      "inputs": [
        {
          "internalType": "uint256",
          "name": "index",
          "type": "uint256"
        }
      ],
      "name": "tokenByIndex",
      "outputs": [
        {
          "internalType": "uint256",
          "name": "",
          "type": "uint256"
        }
      ],
      "stateMutability": "view",
      "type": "function"
    },
    {
      "inputs": [
        {
          "internalType": "address",
          "name": "owner",
          "type": "address"
        },
        {
          "internalType": "uint256",
          "name": "index",
          "type": "uint256"
        }
      ],
      "name": "tokenOfOwnerByIndex",
      "outputs": [
        {
          "internalType": "uint256",
          "name": "",
          "type": "uint256"
        }
      ],
      "stateMutability": "view",
      "type": "function"
    },
    {
      "inputs": [
        {
          "internalType": "uint256",
          "name": "tokenId",
          "type": "uint256"
        }
      ],
      "name": "tokenURI",
      "outputs": [
        {
          "internalType": "string",
          "name": "",
          "type": "string"
        }
      ],
      "stateMutability": "view",
      "type": "function"
    },
    {
      "inputs": [],
      "name": "totalSupply",
      "outputs": [
        {
          "internalType": "uint256",
          "name": "",
          "type": "uint256"
        }
      ],
      "stateMutability": "view",
      "type": "function"
    },
    {
      "inputs": [
        {
          "internalType": "address",
          "name": "from",
          "type": "address"
        },
        {
          "internalType": "address",
          "name": "to",
          "type": "address"
        },
        {
          "internalType": "uint256",
          "name": "tokenId",
          "type": "uint256"
        }
      ],
      "name": "transferFrom",
      "outputs": [],
      "stateMutability": "nonpayable",
      "type": "function"
    },
    {
      "inputs": [
        {
          "internalType": "address",
          "name": "newOwner",
          "type": "address"
        }
      ],
      "name": "transferOwnership",
      "outputs": [],
      "stateMutability": "nonpayable",
      "type": "function"
    },
    {
      "inputs": [
        {
          "internalType": "bytes4",
          "name": "interfaceId",
          "type": "bytes4"
        }
      ],
      "name": "supportsInterface",
      "outputs": [
        {
          "internalType": "bool",
          "name": "",
          "type": "bool"
        }
      ],
      "stateMutability": "view",
      "type": "function"
    },
    {
      "inputs": [
        {
          "internalType": "address",
          "name": "",
          "type": "address"
        },
        {
          "internalType": "address",
          "name": "",
          "type": "address"
        },
        {
          "internalType": "uint256",
          "name": "",
          "type": "uint256"
        },
        {
          "internalType": "bytes",
          "name": "",
          "type": "bytes"
        }
      ],
      "name": "onERC721Received",
      "outputs": [
        {
          "internalType": "bytes4",
          "name": "",
          "type": "bytes4"
        }
      ],
      "stateMutability": "nonpayable",
      "type": "function"
    },
    {
      "inputs": [
        {
          "components": [
            {
              "internalType": "string",
              "name": "dataCustumer",
              "type": "string"
            },
            {
              "internalType": "uint256",
              "name": "valueOfNFT",
              "type": "uint256"
            },
            {
              "internalType": "uint256",
              "name": "balanceAdvance",
              "type": "uint256"
            },
            {
              "internalType": "uint256",
              "name": "dateOverDue",
              "type": "uint256"
            },
            {
              "internalType": "int128",
              "name": "interestRate",
              "type": "int128"
            },
            {
              "internalType": "int128",
              "name": "interestRateOverDue",
              "type": "int128"
            },
            {
              "internalType": "address",
              "name": "seller",
              "type": "address"
            }
          ],
          "internalType": "struct NFT_FACTORY.DATA_INVOICE",
          "name": "_invoice",
          "type": "tuple"
        }
      ],
      "name": "createInvoice",
      "outputs": [
        {
          "internalType": "bool",
          "name": "",
          "type": "bool"
        }
      ],
      "stateMutability": "nonpayable",
      "type": "function"
    },
    {
      "inputs": [
        {
          "internalType": "uint256",
          "name": "tokenId",
          "type": "uint256"
        }
      ],
      "name": "destroyNFT",
      "outputs": [
        {
          "internalType": "bool",
          "name": "",
          "type": "bool"
        }
      ],
      "stateMutability": "nonpayable",
      "type": "function"
    },
    {
      "inputs": [
        {
          "internalType": "uint256",
          "name": "tokenId",
          "type": "uint256"
        }
      ],
      "name": "getData",
      "outputs": [
        {
          "internalType": "string",
          "name": "dataCustumer",
          "type": "string"
        },
        {
          "internalType": "uint256",
          "name": "valueOfNFT",
          "type": "uint256"
        },
        {
          "internalType": "uint256",
          "name": "balanceAdvance",
          "type": "uint256"
        },
        {
          "internalType": "uint256",
          "name": "dateOverDue",
          "type": "uint256"
        },
        {
          "internalType": "int128",
          "name": "interestRate",
          "type": "int128"
        },
        {
          "internalType": "int128",
          "name": "interestRateOverDue",
          "type": "int128"
        },
        {
          "internalType": "address",
          "name": "seller",
          "type": "address"
        }
      ],
      "stateMutability": "view",
      "type": "function"
    },
    {
      "inputs": [
        {
          "internalType": "uint256",
          "name": "tokenId",
          "type": "uint256"
        }
      ],
      "name": "interestToMintOverDue",
      "outputs": [
        {
          "internalType": "uint256",
          "name": "",
          "type": "uint256"
        }
      ],
      "stateMutability": "nonpayable",
      "type": "function"
    }
  ],
  "bytecode": "0x60806040523480156200001157600080fd5b506040518060400160405280601f81526020017f446563656e7472616c697a656420496e766f69636520466163746f72696e67008152506040518060400160405280600381526020017f4449460000000000000000000000000000000000000000000000000000000000815250816000908051906020019062000096929190620001a6565b508060019080519060200190620000af929190620001a6565b505050620000d2620000c6620000d860201b60201c565b620000e060201b60201c565b620002bb565b600033905090565b6000600660009054906101000a900473ffffffffffffffffffffffffffffffffffffffff16905081600660006101000a81548173ffffffffffffffffffffffffffffffffffffffff021916908373ffffffffffffffffffffffffffffffffffffffff1602179055508173ffffffffffffffffffffffffffffffffffffffff168173ffffffffffffffffffffffffffffffffffffffff167f8be0079c531659141344cd1fd0a4f28419497f9722a3daafe3b4186f6b6457e060405160405180910390a35050565b828054620001b49062000256565b90600052602060002090601f016020900481019282620001d8576000855562000224565b82601f10620001f357805160ff191683800117855562000224565b8280016001018555821562000224579182015b828111156200022357825182559160200191906001019062000206565b5b50905062000233919062000237565b5090565b5b808211156200025257600081600090555060010162000238565b5090565b600060028204905060018216806200026f57607f821691505b602082108114156200028657620002856200028c565b5b50919050565b7f4e487b7100000000000000000000000000000000000000000000000000000000600052602260045260246000fd5b61550e80620002cb6000396000f3fe608060405234801561001057600080fd5b50600436106101735760003560e01c806370a08231116100de578063b88d4fde11610097578063dd036e6311610071578063dd036e631461049c578063e985e9c5146104ba578063f246d885146104ea578063f2fde38b1461051a57610173565b8063b88d4fde14610420578063c40412b51461043c578063c87b56dd1461046c57610173565b806370a082311461035e578063715018a61461038e5780638da5cb5b1461039857806391c62a6a146103b657806395d89b41146103e6578063a22cb4651461040457610173565b806318160ddd1161013057806318160ddd1461027857806323b872dd146102965780632f745c59146102b257806342842e0e146102e25780634f6ccce7146102fe5780636352211e1461032e57610173565b80630178fe3f1461017857806301ffc9a7146101ae57806306fdde03146101de578063081812fc146101fc578063095ea7b31461022c578063150b7a0214610248575b600080fd5b610192600480360381019061018d9190614399565b610536565b6040516101a59796959493929190614d4f565b60405180910390f35b6101c860048036038101906101c39190614306565b610830565b6040516101d59190614cf7565b60405180910390f35b6101e6610842565b6040516101f39190614d2d565b60405180910390f35b61021660048036038101906102119190614399565b6108d4565b6040516102239190614c90565b60405180910390f35b610246600480360381019061024191906142ca565b610959565b005b610262600480360381019061025d9190614213565b610a71565b60405161026f9190614d12565b60405180910390f35b610280610a85565b60405161028d9190615025565b60405180910390f35b6102b060048036038101906102ab91906141c4565b610a92565b005b6102cc60048036038101906102c791906142ca565b610af2565b6040516102d99190615025565b60405180910390f35b6102fc60048036038101906102f791906141c4565b610b97565b005b61031860048036038101906103139190614399565b610bb7565b6040516103259190615025565b60405180910390f35b61034860048036038101906103439190614399565b610c4e565b6040516103559190614c90565b60405180910390f35b6103786004803603810190610373919061415f565b610d00565b6040516103859190615025565b60405180910390f35b610396610db8565b005b6103a0610e40565b6040516103ad9190614c90565b60405180910390f35b6103d060048036038101906103cb9190614399565b610e6a565b6040516103dd9190615025565b60405180910390f35b6103ee610fbe565b6040516103fb9190614d2d565b60405180910390f35b61041e6004803603810190610419919061428e565b611050565b005b61043a60048036038101906104359190614213565b6111d1565b005b61045660048036038101906104519190614399565b611233565b6040516104639190614cf7565b60405180910390f35b61048660048036038101906104819190614399565b6113f1565b6040516104939190614d2d565b60405180910390f35b6104a4611498565b6040516104b19190615025565b60405180910390f35b6104d460048036038101906104cf9190614188565b61149e565b6040516104e19190614cf7565b60405180910390f35b61050460048036038101906104ff9190614358565b611532565b6040516105119190614cf7565b60405180910390f35b610534600480360381019061052f919061415f565b6116c9565b005b6060600080600080600080600c888154811061057b577f4e487b7100000000000000000000000000000000000000000000000000000000600052603260045260246000fd5b9060005260206000209060060201600001805461059790615292565b80601f01602080910402602001604051908101604052809291908181526020018280546105c390615292565b80156106105780601f106105e557610100808354040283529160200191610610565b820191906000526020600020905b8154815290600101906020018083116105f357829003601f168201915b50505050509650600c8881548110610651577f4e487b7100000000000000000000000000000000000000000000000000000000600052603260045260246000fd5b9060005260206000209060060201600101549550600c888154811061069f577f4e487b7100000000000000000000000000000000000000000000000000000000600052603260045260246000fd5b9060005260206000209060060201600201549450600c88815481106106ed577f4e487b7100000000000000000000000000000000000000000000000000000000600052603260045260246000fd5b9060005260206000209060060201600301549350600c888154811061073b577f4e487b7100000000000000000000000000000000000000000000000000000000600052603260045260246000fd5b906000526020600020906006020160040160009054906101000a9004600f0b9250600c8881548110610796577f4e487b7100000000000000000000000000000000000000000000000000000000600052603260045260246000fd5b906000526020600020906006020160040160109054906101000a9004600f0b9150600c88815481106107f1577f4e487b7100000000000000000000000000000000000000000000000000000000600052603260045260246000fd5b906000526020600020906006020160050160009054906101000a900473ffffffffffffffffffffffffffffffffffffffff169050919395979092949650565b600061083b826117c1565b9050919050565b60606000805461085190615292565b80601f016020809104026020016040519081016040528092919081815260200182805461087d90615292565b80156108ca5780601f1061089f576101008083540402835291602001916108ca565b820191906000526020600020905b8154815290600101906020018083116108ad57829003601f168201915b5050505050905090565b60006108df8261183b565b61091e576040517f08c379a000000000000000000000000000000000000000000000000000000000815260040161091590614f25565b60405180910390fd5b6004600083815260200190815260200160002060009054906101000a900473ffffffffffffffffffffffffffffffffffffffff169050919050565b600061096482610c4e565b90508073ffffffffffffffffffffffffffffffffffffffff168373ffffffffffffffffffffffffffffffffffffffff1614156109d5576040517f08c379a00000000000000000000000000000000000000000000000000000000081526004016109cc90614fa5565b60405180910390fd5b8073ffffffffffffffffffffffffffffffffffffffff166109f46118a7565b73ffffffffffffffffffffffffffffffffffffffff161480610a235750610a2281610a1d6118a7565b61149e565b5b610a62576040517f08c379a0000000000000000000000000000000000000000000000000000000008152600401610a5990614ea5565b60405180910390fd5b610a6c83836118af565b505050565b600063150b7a0260e01b9050949350505050565b6000600980549050905090565b610aa3610a9d6118a7565b82611968565b610ae2576040517f08c379a0000000000000000000000000000000000000000000000000000000008152600401610ad990614fc5565b60405180910390fd5b610aed838383611a46565b505050565b6000610afd83610d00565b8210610b3e576040517f08c379a0000000000000000000000000000000000000000000000000000000008152600401610b3590614dc5565b60405180910390fd5b600760008473ffffffffffffffffffffffffffffffffffffffff1673ffffffffffffffffffffffffffffffffffffffff168152602001908152602001600020600083815260200190815260200160002054905092915050565b610bb2838383604051806020016040528060008152506111d1565b505050565b6000610bc1610a85565b8210610c02576040517f08c379a0000000000000000000000000000000000000000000000000000000008152600401610bf990614fe5565b60405180910390fd5b60098281548110610c3c577f4e487b7100000000000000000000000000000000000000000000000000000000600052603260045260246000fd5b90600052602060002001549050919050565b6000806002600084815260200190815260200160002060009054906101000a900473ffffffffffffffffffffffffffffffffffffffff169050600073ffffffffffffffffffffffffffffffffffffffff168173ffffffffffffffffffffffffffffffffffffffff161415610cf7576040517f08c379a0000000000000000000000000000000000000000000000000000000008152600401610cee90614ee5565b60405180910390fd5b80915050919050565b60008073ffffffffffffffffffffffffffffffffffffffff168273ffffffffffffffffffffffffffffffffffffffff161415610d71576040517f08c379a0000000000000000000000000000000000000000000000000000000008152600401610d6890614ec5565b60405180910390fd5b600360008373ffffffffffffffffffffffffffffffffffffffff1673ffffffffffffffffffffffffffffffffffffffff168152602001908152602001600020549050919050565b610dc06118a7565b73ffffffffffffffffffffffffffffffffffffffff16610dde610e40565b73ffffffffffffffffffffffffffffffffffffffff1614610e34576040517f08c379a0000000000000000000000000000000000000000000000000000000008152600401610e2b90614f45565b60405180910390fd5b610e3e6000611ca2565b565b6000600660009054906101000a900473ffffffffffffffffffffffffffffffffffffffff16905090565b6000610e746118a7565b73ffffffffffffffffffffffffffffffffffffffff16610e92610e40565b73ffffffffffffffffffffffffffffffffffffffff1614610ee8576040517f08c379a0000000000000000000000000000000000000000000000000000000008152600401610edf90614f45565b60405180910390fd5b6000806000610ef685610536565b50955095509550505050610f08611d68565b83118015610f4c575061dead73ffffffffffffffffffffffffffffffffffffffff16610f3386610c4e565b73ffffffffffffffffffffffffffffffffffffffff1614155b15610fb1576000610f6d610f5f84611d70565b670de0b6b3a7640000611dbf565b90506000610f8b610f7d84611d70565b670de0b6b3a7640000611dbf565b90506000610f998284611e7a565b9050610fa7600b5482611e90565b600b819055505050505b600b549350505050919050565b606060018054610fcd90615292565b80601f0160208091040260200160405190810160405280929190818152602001828054610ff990615292565b80156110465780601f1061101b57610100808354040283529160200191611046565b820191906000526020600020905b81548152906001019060200180831161102957829003601f168201915b5050505050905090565b6110586118a7565b73ffffffffffffffffffffffffffffffffffffffff168273ffffffffffffffffffffffffffffffffffffffff1614156110c6576040517f08c379a00000000000000000000000000000000000000000000000000000000081526004016110bd90614e65565b60405180910390fd5b80600560006110d36118a7565b73ffffffffffffffffffffffffffffffffffffffff1673ffffffffffffffffffffffffffffffffffffffff16815260200190815260200160002060008473ffffffffffffffffffffffffffffffffffffffff1673ffffffffffffffffffffffffffffffffffffffff16815260200190815260200160002060006101000a81548160ff0219169083151502179055508173ffffffffffffffffffffffffffffffffffffffff166111806118a7565b73ffffffffffffffffffffffffffffffffffffffff167f17307eab39ab6107e8899845ad3d59bd9653f200f220920489ca2b5937696c31836040516111c59190614cf7565b60405180910390a35050565b6111e26111dc6118a7565b83611968565b611221576040517f08c379a000000000000000000000000000000000000000000000000000000000815260040161121890614fc5565b60405180910390fd5b61122d84848484611ea6565b50505050565b600061123d6118a7565b73ffffffffffffffffffffffffffffffffffffffff1661125b610e40565b73ffffffffffffffffffffffffffffffffffffffff16146112b1576040517f08c379a00000000000000000000000000000000000000000000000000000000081526004016112a890614f45565b60405180910390fd5b6000600c83815481106112ed577f4e487b7100000000000000000000000000000000000000000000000000000000600052603260045260246000fd5b906000526020600020906006020160040160009054906101000a9004600f0b90506000600c848154811061134a577f4e487b7100000000000000000000000000000000000000000000000000000000600052603260045260246000fd5b90600052602060002090600602016001015490506000600c858154811061139a577f4e487b7100000000000000000000000000000000000000000000000000000000600052603260045260246000fd5b9060005260206000209060060201600301549050806113b7611d68565b11156113cc576113c685611f02565b506113d8565b6113d68383611f52565b505b6113e53061dead87610a92565b60019350505050919050565b60606113fc8261183b565b61143b576040517f08c379a000000000000000000000000000000000000000000000000000000000815260040161143290614f85565b60405180910390fd5b6000611445611f83565b905060008151116114655760405180602001604052806000815250611490565b8061146f84611f9a565b604051602001611480929190614bef565b6040516020818303038152906040525b915050919050565b600b5481565b6000600560008473ffffffffffffffffffffffffffffffffffffffff1673ffffffffffffffffffffffffffffffffffffffff16815260200190815260200160002060008373ffffffffffffffffffffffffffffffffffffffff1673ffffffffffffffffffffffffffffffffffffffff16815260200190815260200160002060009054906101000a900460ff16905092915050565b600061153c6118a7565b73ffffffffffffffffffffffffffffffffffffffff1661155a610e40565b73ffffffffffffffffffffffffffffffffffffffff16146115b0576040517f08c379a00000000000000000000000000000000000000000000000000000000081526004016115a790614f45565b60405180910390fd5b6000826000015183602001518460400151856060015186608001518760a001518860c001516040516020016115eb9796959493929190614c13565b604051602081830303815290604052805190602001209050600e600082815260200190815260200160002060009054906101000a900460ff1615611664576040517f08c379a000000000000000000000000000000000000000000000000000000000815260040161165b90615005565b60405180910390fd5b6001600e600083815260200190815260200160002060006101000a81548160ff021916908315150217905550600061169b84612147565b90506116ab8460c001518261229c565b6116bd8460800151856020015161246a565b50600192505050919050565b6116d16118a7565b73ffffffffffffffffffffffffffffffffffffffff166116ef610e40565b73ffffffffffffffffffffffffffffffffffffffff1614611745576040517f08c379a000000000000000000000000000000000000000000000000000000000815260040161173c90614f45565b60405180910390fd5b600073ffffffffffffffffffffffffffffffffffffffff168173ffffffffffffffffffffffffffffffffffffffff1614156117b5576040517f08c379a00000000000000000000000000000000000000000000000000000000081526004016117ac90614e05565b60405180910390fd5b6117be81611ca2565b50565b60007f780e9d63000000000000000000000000000000000000000000000000000000007bffffffffffffffffffffffffffffffffffffffffffffffffffffffff1916827bffffffffffffffffffffffffffffffffffffffffffffffffffffffff1916148061183457506118338261249b565b5b9050919050565b60008073ffffffffffffffffffffffffffffffffffffffff166002600084815260200190815260200160002060009054906101000a900473ffffffffffffffffffffffffffffffffffffffff1673ffffffffffffffffffffffffffffffffffffffff1614159050919050565b600033905090565b816004600083815260200190815260200160002060006101000a81548173ffffffffffffffffffffffffffffffffffffffff021916908373ffffffffffffffffffffffffffffffffffffffff160217905550808273ffffffffffffffffffffffffffffffffffffffff1661192283610c4e565b73ffffffffffffffffffffffffffffffffffffffff167f8c5be1e5ebec7d5bd14f71427d1e84f3dd0314c0f7b2291e5b200ac8c7c3b92560405160405180910390a45050565b60006119738261183b565b6119b2576040517f08c379a00000000000000000000000000000000000000000000000000000000081526004016119a990614e85565b60405180910390fd5b60006119bd83610c4e565b90508073ffffffffffffffffffffffffffffffffffffffff168473ffffffffffffffffffffffffffffffffffffffff161480611a2c57508373ffffffffffffffffffffffffffffffffffffffff16611a14846108d4565b73ffffffffffffffffffffffffffffffffffffffff16145b80611a3d5750611a3c818561149e565b5b91505092915050565b8273ffffffffffffffffffffffffffffffffffffffff16611a6682610c4e565b73ffffffffffffffffffffffffffffffffffffffff1614611abc576040517f08c379a0000000000000000000000000000000000000000000000000000000008152600401611ab390614f65565b60405180910390fd5b600073ffffffffffffffffffffffffffffffffffffffff168273ffffffffffffffffffffffffffffffffffffffff161415611b2c576040517f08c379a0000000000000000000000000000000000000000000000000000000008152600401611b2390614e45565b60405180910390fd5b611b3783838361257d565b611b426000826118af565b6001600360008573ffffffffffffffffffffffffffffffffffffffff1673ffffffffffffffffffffffffffffffffffffffff1681526020019081526020016000206000828254611b92919061519b565b925050819055506001600360008473ffffffffffffffffffffffffffffffffffffffff1673ffffffffffffffffffffffffffffffffffffffff1681526020019081526020016000206000828254611be99190615114565b92505081905550816002600083815260200190815260200160002060006101000a81548173ffffffffffffffffffffffffffffffffffffffff021916908373ffffffffffffffffffffffffffffffffffffffff160217905550808273ffffffffffffffffffffffffffffffffffffffff168473ffffffffffffffffffffffffffffffffffffffff167fddf252ad1be2c89b69c2b068fc378daa952ba7f163c4a11628f55a4df523b3ef60405160405180910390a4505050565b6000600660009054906101000a900473ffffffffffffffffffffffffffffffffffffffff16905081600660006101000a81548173ffffffffffffffffffffffffffffffffffffffff021916908373ffffffffffffffffffffffffffffffffffffffff1602179055508173ffffffffffffffffffffffffffffffffffffffff168173ffffffffffffffffffffffffffffffffffffffff167f8be0079c531659141344cd1fd0a4f28419497f9722a3daafe3b4186f6b6457e060405160405180910390a35050565b600042905090565b6000611db8611da9611da4611d8e611d8961016d61258d565b6125b0565b611d9f611d9a87612669565b61268f565b6127b3565b61281e565b611db3600161258d565b61341e565b9050919050565b600080821415611dd25760009050611e74565b600083600f0b1215611de357600080fd5b600060406fffffffffffffffffffffffffffffffff841685600f0b02901c90506000608084901c85600f0b02905077ffffffffffffffffffffffffffffffffffffffffffffffff811115611e3657600080fd5b604081901b9050817fffffffffffffffffffffffffffffffffffffffffffffffffffffffffffffffff03811115611e6c57600080fd5b818101925050505b92915050565b60008183611e88919061519b565b905092915050565b60008183611e9e9190615114565b905092915050565b611eb1848484611a46565b611ebd84848484613485565b611efc576040517f08c379a0000000000000000000000000000000000000000000000000000000008152600401611ef390614de5565b60405180910390fd5b50505050565b600080611f0e83610536565b50955050505050506000611f32611f2483611d70565b670de0b6b3a7640000611dbf565b9050611f40600b5482611e7a565b600b81905550600b5492505050919050565b600080611f67611f6185611d70565b84611dbf565b9050611f75600b5482611e7a565b600b81905591505092915050565b606060405180602001604052806000815250905090565b60606000821415611fe2576040518060400160405280600181526020017f30000000000000000000000000000000000000000000000000000000000000008152509050612142565b600082905060005b60008214612014578080611ffd906152c4565b915050600a8261200d919061516a565b9150611fea565b60008167ffffffffffffffff811115612056577f4e487b7100000000000000000000000000000000000000000000000000000000600052604160045260246000fd5b6040519080825280601f01601f1916602001820160405280156120885781602001600182028036833780820191505090505b5090505b6000851461213b576001826120a1919061519b565b9150600a856120b0919061534d565b60306120bc9190615114565b60f81b8183815181106120f8577f4e487b7100000000000000000000000000000000000000000000000000000000600052603260045260246000fd5b60200101907effffffffffffffffffffffffffffffffffffffffffffffffffffffffffffff1916908160001a905350600a85612134919061516a565b945061208c565b8093505050505b919050565b6000600c8290806001815401808255809150506001900390600052602060002090600602016000909190919091506000820151816000019080519060200190612191929190613ea6565b5060208201518160010155604082015181600201556060820151816003015560808201518160040160006101000a8154816fffffffffffffffffffffffffffffffff0219169083600f0b6fffffffffffffffffffffffffffffffff16021790555060a08201518160040160106101000a8154816fffffffffffffffffffffffffffffffff0219169083600f0b6fffffffffffffffffffffffffffffffff16021790555060c08201518160050160006101000a81548173ffffffffffffffffffffffffffffffffffffffff021916908373ffffffffffffffffffffffffffffffffffffffff160217905550505060006001600c80549050612291919061519b565b905080915050919050565b600073ffffffffffffffffffffffffffffffffffffffff168273ffffffffffffffffffffffffffffffffffffffff16141561230c576040517f08c379a000000000000000000000000000000000000000000000000000000000815260040161230390614f05565b60405180910390fd5b6123158161183b565b15612355576040517f08c379a000000000000000000000000000000000000000000000000000000000815260040161234c90614e25565b60405180910390fd5b6123616000838361257d565b6001600360008473ffffffffffffffffffffffffffffffffffffffff1673ffffffffffffffffffffffffffffffffffffffff16815260200190815260200160002060008282546123b19190615114565b92505081905550816002600083815260200190815260200160002060006101000a81548173ffffffffffffffffffffffffffffffffffffffff021916908373ffffffffffffffffffffffffffffffffffffffff160217905550808273ffffffffffffffffffffffffffffffffffffffff16600073ffffffffffffffffffffffffffffffffffffffff167fddf252ad1be2c89b69c2b068fc378daa952ba7f163c4a11628f55a4df523b3ef60405160405180910390a45050565b60008061247f61247985611d70565b84611dbf565b905061248d600b5482611e90565b600b81905591505092915050565b60007f80ac58cd000000000000000000000000000000000000000000000000000000007bffffffffffffffffffffffffffffffffffffffffffffffffffffffff1916827bffffffffffffffffffffffffffffffffffffffffffffffffffffffff1916148061256657507f5b5e139f000000000000000000000000000000000000000000000000000000007bffffffffffffffffffffffffffffffffffffffffffffffffffffffff1916827bffffffffffffffffffffffffffffffffffffffffffffffffffffffff1916145b8061257657506125758261361c565b5b9050919050565b612588838383613686565b505050565b6000677fffffffffffffff8211156125a457600080fd5b604082901b9050919050565b60008082600f0b14156125c257600080fd5b600082600f0b7001000000000000000000000000000000008161260e577f4e487b7100000000000000000000000000000000000000000000000000000000600052601260045260246000fd5b0590507fffffffffffffffffffffffffffffffff80000000000000000000000000000000600f0b811215801561265757506f7fffffffffffffffffffffffffffffff600f0b8113155b61266057600080fd5b80915050919050565b600061268861268161267b600161258d565b8461379a565b600c613801565b9050919050565b60008082600f0b136126a057600080fd5b60008083600f0b90506801000000000000000081126126c757604081901d90506040820191505b64010000000081126126e157602081901d90506020820191505b6201000081126126f957601081901d90506010820191505b610100811261271057600881901d90506008820191505b6010811261272657600481901d90506004820191505b6004811261273c57600281901d90506002820191505b6002811261274b576001820191505b60006040808403901b9050600083607f0386600f0b901b9050600067800000000000000090505b60008113156127a6578182029150600060ff83901c905080607f0183901c92508082028401935050600181901d9050612772565b5081945050505050919050565b600080604083600f0b85600f0b02901d90507fffffffffffffffffffffffffffffffff80000000000000000000000000000000600f0b811215801561280b57506f7fffffffffffffffffffffffffffffff600f0b8113155b61281457600080fd5b8091505092915050565b60006840000000000000000082600f0b1261283857600080fd5b7fffffffffffffffffffffffffffffffffffffffffffffffc0000000000000000082600f0b121561286c5760009050613419565b60006f80000000000000000000000000000000905060006780000000000000008416600f0b13156128b257608070016a09e667f3bcc908b2fb1366ea957d3e8202901c90505b60006740000000000000008416600f0b13156128e35760807001306fe0a31b7152de8d5a46305c85edec8202901c90505b60006720000000000000008416600f0b13156129145760807001172b83c7d517adcdf7c8c50eb14a791f8202901c90505b60006710000000000000008416600f0b131561294557608070010b5586cf9890f6298b92b71842a983638202901c90505b60006708000000000000008416600f0b13156129765760807001059b0d31585743ae7c548eb68ca417fd8202901c90505b60006704000000000000008416600f0b13156129a7576080700102c9a3e778060ee6f7caca4f7a29bde88202901c90505b60006702000000000000008416600f0b13156129d857608070010163da9fb33356d84a66ae336dcdfa3f8202901c90505b60006701000000000000008416600f0b1315612a09576080700100b1afa5abcbed6129ab13ec11dc95438202901c90505b600066800000000000008416600f0b1315612a3957608070010058c86da1c09ea1ff19d294cf2f679b8202901c90505b600066400000000000008416600f0b1315612a695760807001002c605e2e8cec506d21bfc89a23a00f8202901c90505b600066200000000000008416600f0b1315612a99576080700100162f3904051fa128bca9c55c31e5df8202901c90505b600066100000000000008416600f0b1315612ac95760807001000b175effdc76ba38e31671ca9397258202901c90505b600066080000000000008416600f0b1315612af9576080700100058ba01fb9f96d6cacd4b180917c3d8202901c90505b600066040000000000008416600f0b1315612b2957608070010002c5cc37da9491d0985c348c68e7b38202901c90505b600066020000000000008416600f0b1315612b595760807001000162e525ee054754457d59952920268202901c90505b600066010000000000008416600f0b1315612b8957608070010000b17255775c040618bf4a4ade83fc8202901c90505b6000658000000000008416600f0b1315612bb85760807001000058b91b5bc9ae2eed81e9b7d4cfab8202901c90505b6000654000000000008416600f0b1315612be7576080700100002c5c89d5ec6ca4d7c8acc017b7c98202901c90505b6000652000000000008416600f0b1315612c1657608070010000162e43f4f831060e02d839a9d16d8202901c90505b6000651000000000008416600f0b1315612c45576080700100000b1721bcfc99d9f890ea069117638202901c90505b6000650800000000008416600f0b1315612c7457608070010000058b90cf1e6d97f9ca14dbcc16288202901c90505b6000650400000000008416600f0b1315612ca35760807001000002c5c863b73f016468f6bac5ca2b8202901c90505b6000650200000000008416600f0b1315612cd2576080700100000162e430e5a18f6119e3c02282a58202901c90505b6000650100000000008416600f0b1315612d015760807001000000b1721835514b86e6d96efd1bfe8202901c90505b60006480000000008416600f0b1315612d2f576080700100000058b90c0b48c6be5df846c5b2ef8202901c90505b60006440000000008416600f0b1315612d5d57608070010000002c5c8601cc6b9e94213c72737a8202901c90505b60006420000000008416600f0b1315612d8b5760807001000000162e42fff037df38aa2b219f068202901c90505b60006410000000008416600f0b1315612db957608070010000000b17217fba9c739aa5819f44f98202901c90505b60006408000000008416600f0b1315612de75760807001000000058b90bfcdee5acd3c1cedc8238202901c90505b60006404000000008416600f0b1315612e15576080700100000002c5c85fe31f35a6a30da1be508202901c90505b60006402000000008416600f0b1315612e4357608070010000000162e42ff0999ce3541b9fffcf8202901c90505b60006401000000008416600f0b1315612e71576080700100000000b17217f80f4ef5aadda455548202901c90505b600063800000008416600f0b1315612e9e57608070010000000058b90bfbf8479bd5a81b51ad8202901c90505b600063400000008416600f0b1315612ecb5760807001000000002c5c85fdf84bd62ae30a74cc8202901c90505b600063200000008416600f0b1315612ef8576080700100000000162e42fefb2fed257559bdaa8202901c90505b600063100000008416600f0b1315612f255760807001000000000b17217f7d5a7716bba4a9ae8202901c90505b600063080000008416600f0b1315612f52576080700100000000058b90bfbe9ddbac5e109cce8202901c90505b600063040000008416600f0b1315612f7f57608070010000000002c5c85fdf4b15de6f17eb0d8202901c90505b600063020000008416600f0b1315612fac5760807001000000000162e42fefa494f1478fde058202901c90505b600063010000008416600f0b1315612fd957608070010000000000b17217f7d20cf927c8e94c8202901c90505b6000628000008416600f0b13156130055760807001000000000058b90bfbe8f71cb4e4b33d8202901c90505b6000624000008416600f0b1315613031576080700100000000002c5c85fdf477b662b269458202901c90505b6000622000008416600f0b131561305d57608070010000000000162e42fefa3ae53369388c8202901c90505b6000621000008416600f0b1315613089576080700100000000000b17217f7d1d351a389d408202901c90505b6000620800008416600f0b13156130b557608070010000000000058b90bfbe8e8b2d3d4ede8202901c90505b6000620400008416600f0b13156130e15760807001000000000002c5c85fdf4741bea6e77e8202901c90505b6000620200008416600f0b131561310d576080700100000000000162e42fefa39fe95583c28202901c90505b6000620100008416600f0b13156131395760807001000000000000b17217f7d1cfb72b45e18202901c90505b60006180008416600f0b1315613164576080700100000000000058b90bfbe8e7cc35c3f08202901c90505b60006140008416600f0b131561318f57608070010000000000002c5c85fdf473e242ea388202901c90505b60006120008416600f0b13156131ba5760807001000000000000162e42fefa39f02b772c8202901c90505b60006110008416600f0b13156131e557608070010000000000000b17217f7d1cf7d83c1a8202901c90505b60006108008416600f0b13156132105760807001000000000000058b90bfbe8e7bdcbe2e8202901c90505b60006104008416600f0b131561323b576080700100000000000002c5c85fdf473dea871f8202901c90505b60006102008416600f0b131561326657608070010000000000000162e42fefa39ef44d918202901c90505b60006101008416600f0b1315613291576080700100000000000000b17217f7d1cf79e9498202901c90505b600060808416600f0b13156132bb57608070010000000000000058b90bfbe8e7bce5448202901c90505b600060408416600f0b13156132e55760807001000000000000002c5c85fdf473de6eca8202901c90505b600060208416600f0b131561330f576080700100000000000000162e42fefa39ef366f8202901c90505b600060108416600f0b13156133395760807001000000000000000b17217f7d1cf79afa8202901c90505b600060088416600f0b1315613363576080700100000000000000058b90bfbe8e7bcd6d8202901c90505b600060048416600f0b131561338d57608070010000000000000002c5c85fdf473de6b28202901c90505b600060028416600f0b13156133b75760807001000000000000000162e42fefa39ef3588202901c90505b600060018416600f0b13156133e157608070010000000000000000b17217f7d1cf79ab8202901c90505b604083600f0b901d603f03600f0b81901c90506f7fffffffffffffffffffffffffffffff600f0b81111561341457600080fd5b809150505b919050565b60008082600f0b84600f0b0390507fffffffffffffffffffffffffffffffff80000000000000000000000000000000600f0b811215801561347257506f7fffffffffffffffffffffffffffffff600f0b8113155b61347b57600080fd5b8091505092915050565b60006134a68473ffffffffffffffffffffffffffffffffffffffff16613b16565b1561360f578373ffffffffffffffffffffffffffffffffffffffff1663150b7a026134cf6118a7565b8786866040518563ffffffff1660e01b81526004016134f19493929190614cab565b602060405180830381600087803b15801561350b57600080fd5b505af192505050801561353c57506040513d601f19601f82011682018060405250810190613539919061432f565b60015b6135bf573d806000811461356c576040519150601f19603f3d011682016040523d82523d6000602084013e613571565b606091505b506000815114156135b7576040517f08c379a00000000000000000000000000000000000000000000000000000000081526004016135ae90614de5565b60405180910390fd5b805181602001fd5b63150b7a0260e01b7bffffffffffffffffffffffffffffffffffffffffffffffffffffffff1916817bffffffffffffffffffffffffffffffffffffffffffffffffffffffff191614915050613614565b600190505b949350505050565b60007f01ffc9a7000000000000000000000000000000000000000000000000000000007bffffffffffffffffffffffffffffffffffffffffffffffffffffffff1916827bffffffffffffffffffffffffffffffffffffffffffffffffffffffff1916149050919050565b613691838383613b29565b600073ffffffffffffffffffffffffffffffffffffffff168373ffffffffffffffffffffffffffffffffffffffff1614156136d4576136cf81613b2e565b613713565b8173ffffffffffffffffffffffffffffffffffffffff168373ffffffffffffffffffffffffffffffffffffffff1614613712576137118382613b77565b5b5b600073ffffffffffffffffffffffffffffffffffffffff168273ffffffffffffffffffffffffffffffffffffffff1614156137565761375181613ce4565b613795565b8273ffffffffffffffffffffffffffffffffffffffff168273ffffffffffffffffffffffffffffffffffffffff1614613794576137938282613e27565b5b5b505050565b60008082600f0b84600f0b0190507fffffffffffffffffffffffffffffffff80000000000000000000000000000000600f0b81121580156137ee57506f7fffffffffffffffffffffffffffffff600f0b8113155b6137f757600080fd5b8091505092915050565b600080600084600f0b12801561381957506001808416145b905060008085600f0b1261382d5784613832565b846000035b6fffffffffffffffffffffffffffffffff1690506000700100000000000000000000000000000000905068010000000000000000821161390c57603f82901b91505b60008514613900576000600186161461389157607f828202901c90505b607f828302901c9150600060028616146138af57607f828202901c90505b607f828302901c9150600060048616146138cd57607f828202901c90505b607f828302901c9150600060088616146138eb57607f828202901c90505b607f828302901c9150600485901c9450613874565b604081901c9050613aa6565b6000603f90506c0100000000000000000000000083101561393557602083901b92506020810390505b6e01000000000000000000000000000083101561395a57601083901b92506010810390505b6f0100000000000000000000000000000083101561398057600883901b92506008810390505b6f100000000000000000000000000000008310156139a657600483901b92506004810390505b6f400000000000000000000000000000008310156139cc57600283901b92506002810390505b6f800000000000000000000000000000008310156139f257600183901b92506001810390505b60005b60008714613a8d5760408210613a0a57600080fd5b60006001881614613a4b57607f848402901c92508181019050700100000000000000000000000000000000831115613a4a57600183901c92506001810190505b5b607f848502901c9350600182901b91507001000000000000000000000000000000008410613a8157600184901c93506001820191505b600187901c96506139f5565b60408110613a9a57600080fd5b8060400383901c925050505b600083613ab35781613ab8565b816000035b90507fffffffffffffffffffffffffffffffff80000000000000000000000000000000600f0b8112158015613b0057506f7fffffffffffffffffffffffffffffff600f0b8113155b613b0957600080fd5b8094505050505092915050565b600080823b905060008111915050919050565b505050565b600980549050600a600083815260200190815260200160002081905550600981908060018154018082558091505060019003906000526020600020016000909190919091505550565b60006001613b8484610d00565b613b8e919061519b565b9050600060086000848152602001908152602001600020549050818114613c73576000600760008673ffffffffffffffffffffffffffffffffffffffff1673ffffffffffffffffffffffffffffffffffffffff168152602001908152602001600020600084815260200190815260200160002054905080600760008773ffffffffffffffffffffffffffffffffffffffff1673ffffffffffffffffffffffffffffffffffffffff168152602001908152602001600020600084815260200190815260200160002081905550816008600083815260200190815260200160002081905550505b6008600084815260200190815260200160002060009055600760008573ffffffffffffffffffffffffffffffffffffffff1673ffffffffffffffffffffffffffffffffffffffff16815260200190815260200160002060008381526020019081526020016000206000905550505050565b60006001600980549050613cf8919061519b565b90506000600a6000848152602001908152602001600020549050600060098381548110613d4e577f4e487b7100000000000000000000000000000000000000000000000000000000600052603260045260246000fd5b906000526020600020015490508060098381548110613d96577f4e487b7100000000000000000000000000000000000000000000000000000000600052603260045260246000fd5b906000526020600020018190555081600a600083815260200190815260200160002081905550600a6000858152602001908152602001600020600090556009805480613e0b577f4e487b7100000000000000000000000000000000000000000000000000000000600052603160045260246000fd5b6001900381819060005260206000200160009055905550505050565b6000613e3283610d00565b905081600760008573ffffffffffffffffffffffffffffffffffffffff1673ffffffffffffffffffffffffffffffffffffffff168152602001908152602001600020600083815260200190815260200160002081905550806008600084815260200190815260200160002081905550505050565b828054613eb290615292565b90600052602060002090601f016020900481019282613ed45760008555613f1b565b82601f10613eed57805160ff1916838001178555613f1b565b82800160010185558215613f1b579182015b82811115613f1a578251825591602001919060010190613eff565b5b509050613f289190613f2c565b5090565b5b80821115613f45576000816000905550600101613f2d565b5090565b6000613f5c613f5784615071565b615040565b905082815260208101848484011115613f7457600080fd5b613f7f848285615250565b509392505050565b6000613f9a613f95846150a1565b615040565b905082815260208101848484011115613fb257600080fd5b613fbd848285615250565b509392505050565b600081359050613fd481615465565b92915050565b600081359050613fe98161547c565b92915050565b600081359050613ffe81615493565b92915050565b60008151905061401381615493565b92915050565b600082601f83011261402a57600080fd5b813561403a848260208601613f49565b91505092915050565b600081359050614052816154aa565b92915050565b600082601f83011261406957600080fd5b8135614079848260208601613f87565b91505092915050565b600060e0828403121561409457600080fd5b61409e60e0615040565b9050600082013567ffffffffffffffff8111156140ba57600080fd5b6140c684828501614058565b60008301525060206140da8482850161414a565b60208301525060406140ee8482850161414a565b60408301525060606141028482850161414a565b606083015250608061411684828501614043565b60808301525060a061412a84828501614043565b60a08301525060c061413e84828501613fc5565b60c08301525092915050565b600081359050614159816154c1565b92915050565b60006020828403121561417157600080fd5b600061417f84828501613fc5565b91505092915050565b6000806040838503121561419b57600080fd5b60006141a985828601613fc5565b92505060206141ba85828601613fc5565b9150509250929050565b6000806000606084860312156141d957600080fd5b60006141e786828701613fc5565b93505060206141f886828701613fc5565b92505060406142098682870161414a565b9150509250925092565b6000806000806080858703121561422957600080fd5b600061423787828801613fc5565b945050602061424887828801613fc5565b93505060406142598782880161414a565b925050606085013567ffffffffffffffff81111561427657600080fd5b61428287828801614019565b91505092959194509250565b600080604083850312156142a157600080fd5b60006142af85828601613fc5565b92505060206142c085828601613fda565b9150509250929050565b600080604083850312156142dd57600080fd5b60006142eb85828601613fc5565b92505060206142fc8582860161414a565b9150509250929050565b60006020828403121561431857600080fd5b600061432684828501613fef565b91505092915050565b60006020828403121561434157600080fd5b600061434f84828501614004565b91505092915050565b60006020828403121561436a57600080fd5b600082013567ffffffffffffffff81111561438457600080fd5b61439084828501614082565b91505092915050565b6000602082840312156143ab57600080fd5b60006143b98482850161414a565b91505092915050565b6143cb816151cf565b82525050565b6143e26143dd826151cf565b61530d565b82525050565b6143f1816151e1565b82525050565b614400816151ed565b82525050565b6000614411826150d1565b61441b81856150e7565b935061442b81856020860161525f565b6144348161543a565b840191505092915050565b61444881615219565b82525050565b61445f61445a82615219565b61531f565b82525050565b6000614470826150dc565b61447a81856150f8565b935061448a81856020860161525f565b6144938161543a565b840191505092915050565b60006144a9826150dc565b6144b38185615109565b93506144c381856020860161525f565b80840191505092915050565b60006144dc602b836150f8565b91507f455243373231456e756d657261626c653a206f776e657220696e646578206f7560008301527f74206f6620626f756e64730000000000000000000000000000000000000000006020830152604082019050919050565b60006145426032836150f8565b91507f4552433732313a207472616e7366657220746f206e6f6e20455243373231526560008301527f63656976657220696d706c656d656e74657200000000000000000000000000006020830152604082019050919050565b60006145a86026836150f8565b91507f4f776e61626c653a206e6577206f776e657220697320746865207a65726f206160008301527f64647265737300000000000000000000000000000000000000000000000000006020830152604082019050919050565b600061460e601c836150f8565b91507f4552433732313a20746f6b656e20616c7265616479206d696e746564000000006000830152602082019050919050565b600061464e6024836150f8565b91507f4552433732313a207472616e7366657220746f20746865207a65726f2061646460008301527f72657373000000000000000000000000000000000000000000000000000000006020830152604082019050919050565b60006146b46019836150f8565b91507f4552433732313a20617070726f766520746f2063616c6c6572000000000000006000830152602082019050919050565b60006146f4602c836150f8565b91507f4552433732313a206f70657261746f7220717565727920666f72206e6f6e657860008301527f697374656e7420746f6b656e00000000000000000000000000000000000000006020830152604082019050919050565b600061475a6038836150f8565b91507f4552433732313a20617070726f76652063616c6c6572206973206e6f74206f7760008301527f6e6572206e6f7220617070726f76656420666f7220616c6c00000000000000006020830152604082019050919050565b60006147c0602a836150f8565b91507f4552433732313a2062616c616e636520717565727920666f7220746865207a6560008301527f726f2061646472657373000000000000000000000000000000000000000000006020830152604082019050919050565b60006148266029836150f8565b91507f4552433732313a206f776e657220717565727920666f72206e6f6e657869737460008301527f656e7420746f6b656e00000000000000000000000000000000000000000000006020830152604082019050919050565b600061488c6020836150f8565b91507f4552433732313a206d696e7420746f20746865207a65726f20616464726573736000830152602082019050919050565b60006148cc602c836150f8565b91507f4552433732313a20617070726f76656420717565727920666f72206e6f6e657860008301527f697374656e7420746f6b656e00000000000000000000000000000000000000006020830152604082019050919050565b60006149326020836150f8565b91507f4f776e61626c653a2063616c6c6572206973206e6f7420746865206f776e65726000830152602082019050919050565b60006149726029836150f8565b91507f4552433732313a207472616e73666572206f6620746f6b656e2074686174206960008301527f73206e6f74206f776e00000000000000000000000000000000000000000000006020830152604082019050919050565b60006149d8602f836150f8565b91507f4552433732314d657461646174613a2055524920717565727920666f72206e6f60008301527f6e6578697374656e7420746f6b656e00000000000000000000000000000000006020830152604082019050919050565b6000614a3e6021836150f8565b91507f4552433732313a20617070726f76616c20746f2063757272656e74206f776e6560008301527f72000000000000000000000000000000000000000000000000000000000000006020830152604082019050919050565b6000614aa46031836150f8565b91507f4552433732313a207472616e736665722063616c6c6572206973206e6f74206f60008301527f776e6572206e6f7220617070726f7665640000000000000000000000000000006020830152604082019050919050565b6000614b0a602c836150f8565b91507f455243373231456e756d657261626c653a20676c6f62616c20696e646578206f60008301527f7574206f6620626f756e647300000000000000000000000000000000000000006020830152604082019050919050565b6000614b706024836150f8565b91507f4e46545f466163746f72793a2054686973206861736820657869737420616c7260008301527f65616479000000000000000000000000000000000000000000000000000000006020830152604082019050919050565b614bd281615246565b82525050565b614be9614be482615246565b615343565b82525050565b6000614bfb828561449e565b9150614c07828461449e565b91508190509392505050565b6000614c1f828a61449e565b9150614c2b8289614bd8565b602082019150614c3b8288614bd8565b602082019150614c4b8287614bd8565b602082019150614c5b828661444e565b601082019150614c6b828561444e565b601082019150614c7b82846143d1565b60148201915081905098975050505050505050565b6000602082019050614ca560008301846143c2565b92915050565b6000608082019050614cc060008301876143c2565b614ccd60208301866143c2565b614cda6040830185614bc9565b8181036060830152614cec8184614406565b905095945050505050565b6000602082019050614d0c60008301846143e8565b92915050565b6000602082019050614d2760008301846143f7565b92915050565b60006020820190508181036000830152614d478184614465565b905092915050565b600060e0820190508181036000830152614d69818a614465565b9050614d786020830189614bc9565b614d856040830188614bc9565b614d926060830187614bc9565b614d9f608083018661443f565b614dac60a083018561443f565b614db960c08301846143c2565b98975050505050505050565b60006020820190508181036000830152614dde816144cf565b9050919050565b60006020820190508181036000830152614dfe81614535565b9050919050565b60006020820190508181036000830152614e1e8161459b565b9050919050565b60006020820190508181036000830152614e3e81614601565b9050919050565b60006020820190508181036000830152614e5e81614641565b9050919050565b60006020820190508181036000830152614e7e816146a7565b9050919050565b60006020820190508181036000830152614e9e816146e7565b9050919050565b60006020820190508181036000830152614ebe8161474d565b9050919050565b60006020820190508181036000830152614ede816147b3565b9050919050565b60006020820190508181036000830152614efe81614819565b9050919050565b60006020820190508181036000830152614f1e8161487f565b9050919050565b60006020820190508181036000830152614f3e816148bf565b9050919050565b60006020820190508181036000830152614f5e81614925565b9050919050565b60006020820190508181036000830152614f7e81614965565b9050919050565b60006020820190508181036000830152614f9e816149cb565b9050919050565b60006020820190508181036000830152614fbe81614a31565b9050919050565b60006020820190508181036000830152614fde81614a97565b9050919050565b60006020820190508181036000830152614ffe81614afd565b9050919050565b6000602082019050818103600083015261501e81614b63565b9050919050565b600060208201905061503a6000830184614bc9565b92915050565b6000604051905081810181811067ffffffffffffffff821117156150675761506661540b565b5b8060405250919050565b600067ffffffffffffffff82111561508c5761508b61540b565b5b601f19601f8301169050602081019050919050565b600067ffffffffffffffff8211156150bc576150bb61540b565b5b601f19601f8301169050602081019050919050565b600081519050919050565b600081519050919050565b600082825260208201905092915050565b600082825260208201905092915050565b600081905092915050565b600061511f82615246565b915061512a83615246565b9250827fffffffffffffffffffffffffffffffffffffffffffffffffffffffffffffffff0382111561515f5761515e61537e565b5b828201905092915050565b600061517582615246565b915061518083615246565b9250826151905761518f6153ad565b5b828204905092915050565b60006151a682615246565b91506151b183615246565b9250828210156151c4576151c361537e565b5b828203905092915050565b60006151da82615226565b9050919050565b60008115159050919050565b60007fffffffff0000000000000000000000000000000000000000000000000000000082169050919050565b600081600f0b9050919050565b600073ffffffffffffffffffffffffffffffffffffffff82169050919050565b6000819050919050565b82818337600083830152505050565b60005b8381101561527d578082015181840152602081019050615262565b8381111561528c576000848401525b50505050565b600060028204905060018216806152aa57607f821691505b602082108114156152be576152bd6153dc565b5b50919050565b60006152cf82615246565b91507fffffffffffffffffffffffffffffffffffffffffffffffffffffffffffffffff8214156153025761530161537e565b5b600182019050919050565b600061531882615331565b9050919050565b600061532a8261544b565b9050919050565b600061533c82615458565b9050919050565b6000819050919050565b600061535882615246565b915061536383615246565b925082615373576153726153ad565b5b828206905092915050565b7f4e487b7100000000000000000000000000000000000000000000000000000000600052601160045260246000fd5b7f4e487b7100000000000000000000000000000000000000000000000000000000600052601260045260246000fd5b7f4e487b7100000000000000000000000000000000000000000000000000000000600052602260045260246000fd5b7f4e487b7100000000000000000000000000000000000000000000000000000000600052604160045260246000fd5b6000601f19601f8301169050919050565b60008160801b9050919050565b60008160601b9050919050565b61546e816151cf565b811461547957600080fd5b50565b615485816151e1565b811461549057600080fd5b50565b61549c816151ed565b81146154a757600080fd5b50565b6154b381615219565b81146154be57600080fd5b50565b6154ca81615246565b81146154d557600080fd5b5056fea26469706673582212201e08cf0bc76f912dcf1c084db89ba9943b8e81b50a18bf5251ddc439fc49475c64736f6c63430008000033",
  "immutableReferences": {},
  "source": "// SPDX-License-Identifier: MIT\npragma solidity ^0.8.0;\n\n/** @title NFT_FACTORY\n    @author Pedro Yuris Machado Leiva\n    @notice Smart Contract to mint NFTs that represent a real factoring invoices \n    @custom:company Reserva Food System\n    @custom:addressMumbai 0x5673a930Da6dB358E86B532d9d1B3941c5F64Aa3\n*/\n\nimport \"@openzeppelin/contracts/token/ERC721/ERC721.sol\";\nimport \"@openzeppelin/contracts/token/ERC721/extensions/ERC721Enumerable.sol\";\nimport \"@openzeppelin/contracts/token/ERC721/IERC721Receiver.sol\";\nimport \"@openzeppelin/contracts/access/Ownable.sol\";\nimport \"@openzeppelin/contracts/utils/math/SafeMath.sol\";\nimport \"@openzeppelin/contracts/utils/math/SignedSafeMath.sol\";\nimport \"./ABDKMath64x64.sol\";\n\n\ncontract NFT_FACTORY is ERC721, Ownable, ERC721Enumerable, IERC721Receiver {\n    uint public dailyInterestRUSD;\n    address constant burnAddress = 0x000000000000000000000000000000000000dEaD;\n    \n\n\n\n/// @dev NFT's properties and validation system for each NFT minted. \n\n    struct DATA_INVOICE {\n        string dataCustumer;\n        uint256 valueOfNFT;\n        uint256 balanceAdvance;\n        uint256 dateOverDue;\n        int128 interestRate;\n        int128 interestRateOverDue;\n        address seller;\n    }\n\n    \n    DATA_INVOICE[] private _dataInvoices;\n    \n    mapping (bytes32 => uint256) private _hashTokenId;\n    mapping (bytes32 => bool) private _hashExist;\n\n    event RATIOCHANGED(int128 indexed newRatio);\n\n    constructor() ERC721(\"Decentralized Invoice Factoring\", \"DIF\") { }\n\n/// @dev The following functions are overrides required by Solidity.\n\n    function _beforeTokenTransfer(address from, address to, uint256 tokenId)\n        internal\n        override(ERC721, ERC721Enumerable)\n    {\n        super._beforeTokenTransfer(from, to, tokenId);\n    }\n\n\n    function supportsInterface(bytes4 interfaceId)\n        public\n        view\n        override(ERC721, ERC721Enumerable)\n        returns (bool)\n    {\n        return super.supportsInterface(interfaceId);\n    }\n    \n    function onERC721Received(address, address, uint256, bytes memory) public virtual override returns (bytes4) {\n        return this.onERC721Received.selector;\n    }\n\n/// @dev Mint a new NFT to recipient\n\n    function createInvoice(DATA_INVOICE memory _invoice) external onlyOwner returns (bool) {            \n            bytes32 invoiceHash = keccak256(abi.encodePacked(_invoice.dataCustumer,\n            _invoice.valueOfNFT, _invoice.balanceAdvance, _invoice.dateOverDue,\n            _invoice.interestRate, _invoice.interestRateOverDue, _invoice.seller )); \n            require(! _hashExist[invoiceHash], \"NFT_Factory: This hash exist already\");\n            _hashExist[invoiceHash] = true;\n            uint256 newItemId = _assemble(_invoice);\n            _mint(_invoice.seller, newItemId);\n            _interestToMint(_invoice.interestRate, _invoice.valueOfNFT);\n            return true;\n        }\n///@dev Burn one NFT when is paid and reduce of Fund's dailyInterest \n    function destroyNFT(uint tokenId) external onlyOwner returns(bool) {\n        int128 mir = _dataInvoices[tokenId].interestRate;\n        uint amount = _dataInvoices[tokenId].valueOfNFT;\n        uint dateOverDue = _dataInvoices[tokenId].dateOverDue;\n        if (_now() > dateOverDue) {\n            _interestToBurnOverDue(tokenId);\n        }\n        else {\n            _interestToBurn(mir, amount);\n        }\n        transferFrom(address(this), burnAddress, tokenId);\n        return true;\n    }\n\n/// @dev Insert tokenId @param and the function @return all data attached at this token\n\n    function getData(uint256 tokenId) public view returns (string memory dataCustumer, uint valueOfNFT, uint balanceAdvance, uint dateOverDue, int128 interestRate, int128 interestRateOverDue, address seller) {\n        dataCustumer = _dataInvoices[tokenId].dataCustumer;\n        valueOfNFT = _dataInvoices[tokenId].valueOfNFT;\n        balanceAdvance = _dataInvoices[tokenId].balanceAdvance;\n        dateOverDue = _dataInvoices[tokenId].dateOverDue;\n        interestRate = _dataInvoices[tokenId].interestRate;\n        interestRateOverDue = _dataInvoices[tokenId].interestRateOverDue;\n        seller = _dataInvoices[tokenId].seller;\n    }\n\n\n/// @dev Private function to assemble one NFT and @return a single id for each token minted.\n\n    function _assemble( DATA_INVOICE memory _invoice) private returns(uint256) {\n        _dataInvoices.push(_invoice);\n        uint256 id = _dataInvoices.length - 1;\n        return id;\n        }\n\n    function interestToMintOverDue(uint tokenId) public onlyOwner returns(uint) {\n        ( , , , uint dateOverDue, int128 _mir, int128 _odmir,) = getData(tokenId);\n        if (dateOverDue > _now() && ownerOf(tokenId) != burnAddress) {\n            uint dir = ABDKMath64x64.mulu(_dir(_mir), 1*10**18);\n            uint oddir = ABDKMath64x64.mulu(_dir(_odmir), 1*10**18);\n            uint df = SafeMath.sub(oddir, dir);\n            dailyInterestRUSD = SafeMath.add(dailyInterestRUSD, df);\n        }\n        return dailyInterestRUSD;\n    }\n\n    function _interestToBurnOverDue(uint tokenId) private returns(uint) {\n        ( , , , , , int128 _odmir,) = getData(tokenId);\n        uint oddir = ABDKMath64x64.mulu(_dir(_odmir), 1*10**18);\n        dailyInterestRUSD = SafeMath.sub(dailyInterestRUSD, oddir);\n        return dailyInterestRUSD;\n    } \n \n    function _interestToMint(int128 _mir, uint _amount) private returns (uint){\n        uint newInterestToMint = ABDKMath64x64.mulu(_dir(_mir), _amount);\n        return dailyInterestRUSD = SafeMath.add(dailyInterestRUSD, newInterestToMint) ;\n    }\n\n    function _interestToBurn(int128 _mir, uint _amount) private returns (uint) {\n        uint newInterestToBurn = ABDKMath64x64.mulu(_dir(_mir), _amount);\n        return dailyInterestRUSD = SafeMath.sub(dailyInterestRUSD, newInterestToBurn);\n    }\n\n    function _dir(int128 mir) pure private returns (int128) {\n      return ABDKMath64x64.sub(ABDKMath64x64.exp_2(ABDKMath64x64.mul(ABDKMath64x64.inv(ABDKMath64x64.fromUInt(365)), ABDKMath64x64.log_2(_air(mir)))), ABDKMath64x64.fromUInt(1));\n    }\n\n    function _air(int128 mir) pure private returns (int128) {\n        return ABDKMath64x64.pow(ABDKMath64x64.add(ABDKMath64x64.fromUInt(1), mir), 12);\n    }\n\n    function _now() private view returns(uint) {\n        return block.timestamp;\n    }\n    \n \n}",
  "sourcePath": "/home/peter/Documents/Reserva/0-Reservafs/Proyectos/DIF_PROJECT/Code/DIFonBlockchain_Enumerable/contracts/NFT_FACTORY.sol",
  "compiler": {
    "name": "solc",
    "version": "0.8.0+commit.c7dfd78e.Emscripten.clang"
  },
  "schemaVersion": "3.4.3",
  "updatedAt": "2021-12-08T20:44:24.788Z",
  "devdoc": {
    "kind": "dev",
    "methods": {
      "approve(address,uint256)": {
        "details": "See {IERC721-approve}."
      },
      "balanceOf(address)": {
        "details": "See {IERC721-balanceOf}."
      },
      "createInvoice((string,uint256,uint256,uint256,int128,int128,address))": {
        "details": "Mint a new NFT to recipient"
      },
      "destroyNFT(uint256)": {
        "details": "Burn one NFT when is paid and reduce of Fund's dailyInterest "
      },
      "getApproved(uint256)": {
        "details": "See {IERC721-getApproved}."
      },
      "getData(uint256)": {
        "details": "Insert tokenId @param and the function @return all data attached at this token"
      },
      "isApprovedForAll(address,address)": {
        "details": "See {IERC721-isApprovedForAll}."
      },
      "name()": {
        "details": "See {IERC721Metadata-name}."
      },
      "owner()": {
        "details": "Returns the address of the current owner."
      },
      "ownerOf(uint256)": {
        "details": "See {IERC721-ownerOf}."
      },
      "renounceOwnership()": {
        "details": "Leaves the contract without owner. It will not be possible to call `onlyOwner` functions anymore. Can only be called by the current owner. NOTE: Renouncing ownership will leave the contract without an owner, thereby removing any functionality that is only available to the owner."
      },
      "safeTransferFrom(address,address,uint256)": {
        "details": "See {IERC721-safeTransferFrom}."
      },
      "safeTransferFrom(address,address,uint256,bytes)": {
        "details": "See {IERC721-safeTransferFrom}."
      },
      "setApprovalForAll(address,bool)": {
        "details": "See {IERC721-setApprovalForAll}."
      },
      "symbol()": {
        "details": "See {IERC721Metadata-symbol}."
      },
      "tokenByIndex(uint256)": {
        "details": "See {IERC721Enumerable-tokenByIndex}."
      },
      "tokenOfOwnerByIndex(address,uint256)": {
        "details": "See {IERC721Enumerable-tokenOfOwnerByIndex}."
      },
      "tokenURI(uint256)": {
        "details": "See {IERC721Metadata-tokenURI}."
      },
      "totalSupply()": {
        "details": "See {IERC721Enumerable-totalSupply}."
      },
      "transferFrom(address,address,uint256)": {
        "details": "See {IERC721-transferFrom}."
      },
      "transferOwnership(address)": {
        "details": "Transfers ownership of the contract to a new account (`newOwner`). Can only be called by the current owner."
      }
    },
    "version": 1
  },
  "userdoc": {
    "kind": "user",
    "methods": {},
    "version": 1
  }
}