{
  "contractName": "NFT_Factory",
  "abi": [
    {
      "inputs": [],
      "stateMutability": "nonpayable",
      "type": "constructor"
    },
    {
      "anonymous": false,
      "inputs": [
        {
          "indexed": true,
          "internalType": "address",
          "name": "owner",
          "type": "address"
        },
        {
          "indexed": true,
          "internalType": "address",
          "name": "approved",
          "type": "address"
        },
        {
          "indexed": true,
          "internalType": "uint256",
          "name": "tokenId",
          "type": "uint256"
        }
      ],
      "name": "Approval",
      "type": "event"
    },
    {
      "anonymous": false,
      "inputs": [
        {
          "indexed": true,
          "internalType": "address",
          "name": "owner",
          "type": "address"
        },
        {
          "indexed": true,
          "internalType": "address",
          "name": "operator",
          "type": "address"
        },
        {
          "indexed": false,
          "internalType": "bool",
          "name": "approved",
          "type": "bool"
        }
      ],
      "name": "ApprovalForAll",
      "type": "event"
    },
    {
      "anonymous": false,
      "inputs": [
        {
          "indexed": true,
          "internalType": "address",
          "name": "from",
          "type": "address"
        },
        {
          "indexed": true,
          "internalType": "address",
          "name": "to",
          "type": "address"
        },
        {
          "indexed": true,
          "internalType": "uint256",
          "name": "tokenId",
          "type": "uint256"
        }
      ],
      "name": "Transfer",
      "type": "event"
    },
    {
      "inputs": [],
      "name": "_tokenIds",
      "outputs": [
        {
          "internalType": "uint256",
          "name": "_value",
          "type": "uint256"
        }
      ],
      "stateMutability": "view",
      "type": "function"
    },
    {
      "inputs": [
        {
          "internalType": "address",
          "name": "to",
          "type": "address"
        },
        {
          "internalType": "uint256",
          "name": "tokenId",
          "type": "uint256"
        }
      ],
      "name": "approve",
      "outputs": [],
      "stateMutability": "nonpayable",
      "type": "function"
    },
    {
      "inputs": [
        {
          "internalType": "address",
          "name": "owner",
          "type": "address"
        }
      ],
      "name": "balanceOf",
      "outputs": [
        {
          "internalType": "uint256",
          "name": "",
          "type": "uint256"
        }
      ],
      "stateMutability": "view",
      "type": "function"
    },
    {
      "inputs": [
        {
          "internalType": "uint256",
          "name": "tokenId",
          "type": "uint256"
        }
      ],
      "name": "getApproved",
      "outputs": [
        {
          "internalType": "address",
          "name": "",
          "type": "address"
        }
      ],
      "stateMutability": "view",
      "type": "function"
    },
    {
      "inputs": [
        {
          "internalType": "address",
          "name": "owner",
          "type": "address"
        },
        {
          "internalType": "address",
          "name": "operator",
          "type": "address"
        }
      ],
      "name": "isApprovedForAll",
      "outputs": [
        {
          "internalType": "bool",
          "name": "",
          "type": "bool"
        }
      ],
      "stateMutability": "view",
      "type": "function"
    },
    {
      "inputs": [],
      "name": "name",
      "outputs": [
        {
          "internalType": "string",
          "name": "",
          "type": "string"
        }
      ],
      "stateMutability": "view",
      "type": "function"
    },
    {
      "inputs": [
        {
          "internalType": "uint256",
          "name": "tokenId",
          "type": "uint256"
        }
      ],
      "name": "ownerOf",
      "outputs": [
        {
          "internalType": "address",
          "name": "",
          "type": "address"
        }
      ],
      "stateMutability": "view",
      "type": "function"
    },
    {
      "inputs": [
        {
          "internalType": "address",
          "name": "from",
          "type": "address"
        },
        {
          "internalType": "address",
          "name": "to",
          "type": "address"
        },
        {
          "internalType": "uint256",
          "name": "tokenId",
          "type": "uint256"
        }
      ],
      "name": "safeTransferFrom",
      "outputs": [],
      "stateMutability": "nonpayable",
      "type": "function"
    },
    {
      "inputs": [
        {
          "internalType": "address",
          "name": "from",
          "type": "address"
        },
        {
          "internalType": "address",
          "name": "to",
          "type": "address"
        },
        {
          "internalType": "uint256",
          "name": "tokenId",
          "type": "uint256"
        },
        {
          "internalType": "bytes",
          "name": "_data",
          "type": "bytes"
        }
      ],
      "name": "safeTransferFrom",
      "outputs": [],
      "stateMutability": "nonpayable",
      "type": "function"
    },
    {
      "inputs": [
        {
          "internalType": "address",
          "name": "operator",
          "type": "address"
        },
        {
          "internalType": "bool",
          "name": "approved",
          "type": "bool"
        }
      ],
      "name": "setApprovalForAll",
      "outputs": [],
      "stateMutability": "nonpayable",
      "type": "function"
    },
    {
      "inputs": [],
      "name": "symbol",
      "outputs": [
        {
          "internalType": "string",
          "name": "",
          "type": "string"
        }
      ],
      "stateMutability": "view",
      "type": "function"
    },
    {
      "inputs": [
        {
          "internalType": "uint256",
          "name": "tokenId",
          "type": "uint256"
        }
      ],
      "name": "tokenURI",
      "outputs": [
        {
          "internalType": "string",
          "name": "",
          "type": "string"
        }
      ],
      "stateMutability": "view",
      "type": "function"
    },
    {
      "inputs": [
        {
          "internalType": "address",
          "name": "from",
          "type": "address"
        },
        {
          "internalType": "address",
          "name": "to",
          "type": "address"
        },
        {
          "internalType": "uint256",
          "name": "tokenId",
          "type": "uint256"
        }
      ],
      "name": "transferFrom",
      "outputs": [],
      "stateMutability": "nonpayable",
      "type": "function"
    },
    {
      "inputs": [
        {
          "internalType": "address",
          "name": "newAddress",
          "type": "address"
        }
      ],
      "name": "changeAdmin",
      "outputs": [],
      "stateMutability": "nonpayable",
      "type": "function"
    },
    {
      "inputs": [],
      "name": "showAdminAddress",
      "outputs": [
        {
          "internalType": "address",
          "name": "",
          "type": "address"
        }
      ],
      "stateMutability": "view",
      "type": "function"
    },
    {
      "inputs": [
        {
          "internalType": "bytes4",
          "name": "interfaceId",
          "type": "bytes4"
        }
      ],
      "name": "supportsInterface",
      "outputs": [
        {
          "internalType": "bool",
          "name": "",
          "type": "bool"
        }
      ],
      "stateMutability": "view",
      "type": "function"
    },
    {
      "inputs": [
        {
          "internalType": "string",
          "name": "tokenURI",
          "type": "string"
        },
        {
          "internalType": "uint256",
          "name": "_priceOfSell",
          "type": "uint256"
        },
        {
          "internalType": "uint256",
          "name": "_valueOfNFT",
          "type": "uint256"
        }
      ],
      "name": "createInvoice",
      "outputs": [
        {
          "internalType": "uint256",
          "name": "",
          "type": "uint256"
        }
      ],
      "stateMutability": "nonpayable",
      "type": "function"
    }
  ],
  "bytecode": "0x60806040523480156200001157600080fd5b506040518060400160405280601f81526020017f446563656e7472616c697a656420496e766f69636520466163746f72696e67008152506040518060400160405280600381526020017f4449460000000000000000000000000000000000000000000000000000000000815250816000908051906020019062000096929190620000f9565b508060019080519060200190620000af929190620000f9565b50505033600860006101000a81548173ffffffffffffffffffffffffffffffffffffffff021916908373ffffffffffffffffffffffffffffffffffffffff1602179055506200020e565b8280546200010790620001a9565b90600052602060002090601f0160209004810192826200012b576000855562000177565b82601f106200014657805160ff191683800117855562000177565b8280016001018555821562000177579182015b828111156200017657825182559160200191906001019062000159565b5b5090506200018691906200018a565b5090565b5b80821115620001a55760008160009055506001016200018b565b5090565b60006002820490506001821680620001c257607f821691505b60208210811415620001d957620001d8620001df565b5b50919050565b7f4e487b7100000000000000000000000000000000000000000000000000000000600052602260045260246000fd5b612ded806200021e6000396000f3fe608060405234801561001057600080fd5b506004361061010b5760003560e01c806370a08231116100a2578063aa46a40011610071578063aa46a400146102c8578063b1ed4f90146102e6578063b88d4fde14610304578063c87b56dd14610320578063e985e9c5146103505761010b565b806370a08231146102425780638f2839701461027257806395d89b411461028e578063a22cb465146102ac5761010b565b806323b872dd116100de57806323b872dd146101aa57806342842e0e146101c65780634d09084b146101e25780636352211e146102125761010b565b806301ffc9a71461011057806306fdde0314610140578063081812fc1461015e578063095ea7b31461018e575b600080fd5b61012a60048036038101906101259190611e6a565b610380565b604051610137919061270a565b60405180910390f35b610148610422565b6040516101559190612740565b60405180910390f35b61017860048036038101906101739190611f23565b6104b4565b60405161018591906126a3565b60405180910390f35b6101a860048036038101906101a39190611e05565b610539565b005b6101c460048036038101906101bf9190611cff565b610651565b005b6101e060048036038101906101db9190611cff565b6106b1565b005b6101fc60048036038101906101f79190611ebc565b6106d1565b6040516102099190612982565b60405180910390f35b61022c60048036038101906102279190611f23565b610749565b60405161023991906126a3565b60405180910390f35b61025c60048036038101906102579190611c9a565b6107fb565b6040516102699190612982565b60405180910390f35b61028c60048036038101906102879190611c9a565b6108b3565b005b610296610989565b6040516102a39190612740565b60405180910390f35b6102c660048036038101906102c19190611dc9565b610a1b565b005b6102d0610b9c565b6040516102dd9190612982565b60405180910390f35b6102ee610ba8565b6040516102fb91906126a3565b60405180910390f35b61031e60048036038101906103199190611d4e565b610bd2565b005b61033a60048036038101906103359190611f23565b610c34565b6040516103479190612740565b60405180910390f35b61036a60048036038101906103659190611cc3565b610d86565b604051610377919061270a565b60405180910390f35b60003073ffffffffffffffffffffffffffffffffffffffff166301ffc9a7836040518263ffffffff1660e01b81526004016103bb9190612725565b60206040518083038186803b1580156103d357600080fd5b505afa1580156103e7573d6000803e3d6000fd5b505050506040513d601f19601f8201168201806040525081019061040b9190611e41565b8061041b575061041a82610e1a565b5b9050919050565b60606000805461043190612be2565b80601f016020809104026020016040519081016040528092919081815260200182805461045d90612be2565b80156104aa5780601f1061047f576101008083540402835291602001916104aa565b820191906000526020600020905b81548152906001019060200180831161048d57829003601f168201915b5050505050905090565b60006104bf82610efc565b6104fe576040517f08c379a00000000000000000000000000000000000000000000000000000000081526004016104f5906128c2565b60405180910390fd5b6004600083815260200190815260200160002060009054906101000a900473ffffffffffffffffffffffffffffffffffffffff169050919050565b600061054482610749565b90508073ffffffffffffffffffffffffffffffffffffffff168373ffffffffffffffffffffffffffffffffffffffff1614156105b5576040517f08c379a00000000000000000000000000000000000000000000000000000000081526004016105ac90612922565b60405180910390fd5b8073ffffffffffffffffffffffffffffffffffffffff166105d4610f68565b73ffffffffffffffffffffffffffffffffffffffff1614806106035750610602816105fd610f68565b610d86565b5b610642576040517f08c379a000000000000000000000000000000000000000000000000000000000815260040161063990612802565b60405180910390fd5b61064c8383610f70565b505050565b61066261065c610f68565b82611029565b6106a1576040517f08c379a000000000000000000000000000000000000000000000000000000000815260040161069890612942565b60405180910390fd5b6106ac838383611107565b505050565b6106cc83838360405180602001604052806000815250610bd2565b505050565b60006106dd6007611363565b60006106e96007611379565b90506106f53382611387565b6106ff8186611555565b604051806040016040528085815260200184815250600960008381526020019081526020016000206000820151816000015560208201518160010155905050809150509392505050565b6000806002600084815260200190815260200160002060009054906101000a900473ffffffffffffffffffffffffffffffffffffffff169050600073ffffffffffffffffffffffffffffffffffffffff168173ffffffffffffffffffffffffffffffffffffffff1614156107f2576040517f08c379a00000000000000000000000000000000000000000000000000000000081526004016107e990612842565b60405180910390fd5b80915050919050565b60008073ffffffffffffffffffffffffffffffffffffffff168273ffffffffffffffffffffffffffffffffffffffff16141561086c576040517f08c379a000000000000000000000000000000000000000000000000000000000815260040161086390612822565b60405180910390fd5b600360008373ffffffffffffffffffffffffffffffffffffffff1673ffffffffffffffffffffffffffffffffffffffff168152602001908152602001600020549050919050565b338073ffffffffffffffffffffffffffffffffffffffff16600860009054906101000a900473ffffffffffffffffffffffffffffffffffffffff1673ffffffffffffffffffffffffffffffffffffffff1614610944576040517f08c379a000000000000000000000000000000000000000000000000000000000815260040161093b90612962565b60405180910390fd5b81600860006101000a81548173ffffffffffffffffffffffffffffffffffffffff021916908373ffffffffffffffffffffffffffffffffffffffff1602179055505050565b60606001805461099890612be2565b80601f01602080910402602001604051908101604052809291908181526020018280546109c490612be2565b8015610a115780601f106109e657610100808354040283529160200191610a11565b820191906000526020600020905b8154815290600101906020018083116109f457829003601f168201915b5050505050905090565b610a23610f68565b73ffffffffffffffffffffffffffffffffffffffff168273ffffffffffffffffffffffffffffffffffffffff161415610a91576040517f08c379a0000000000000000000000000000000000000000000000000000000008152600401610a88906127c2565b60405180910390fd5b8060056000610a9e610f68565b73ffffffffffffffffffffffffffffffffffffffff1673ffffffffffffffffffffffffffffffffffffffff16815260200190815260200160002060008473ffffffffffffffffffffffffffffffffffffffff1673ffffffffffffffffffffffffffffffffffffffff16815260200190815260200160002060006101000a81548160ff0219169083151502179055508173ffffffffffffffffffffffffffffffffffffffff16610b4b610f68565b73ffffffffffffffffffffffffffffffffffffffff167f17307eab39ab6107e8899845ad3d59bd9653f200f220920489ca2b5937696c3183604051610b90919061270a565b60405180910390a35050565b60078060000154905081565b6000600860009054906101000a900473ffffffffffffffffffffffffffffffffffffffff16905090565b610be3610bdd610f68565b83611029565b610c22576040517f08c379a0000000000000000000000000000000000000000000000000000000008152600401610c1990612942565b60405180910390fd5b610c2e848484846115c9565b50505050565b6060610c3f82610efc565b610c7e576040517f08c379a0000000000000000000000000000000000000000000000000000000008152600401610c75906128a2565b60405180910390fd5b6000600660008481526020019081526020016000208054610c9e90612be2565b80601f0160208091040260200160405190810160405280929190818152602001828054610cca90612be2565b8015610d175780601f10610cec57610100808354040283529160200191610d17565b820191906000526020600020905b815481529060010190602001808311610cfa57829003601f168201915b505050505090506000610d28611625565b9050600081511415610d3e578192505050610d81565b600082511115610d73578082604051602001610d5b92919061267f565b60405160208183030381529060405292505050610d81565b610d7c8461163c565b925050505b919050565b6000600560008473ffffffffffffffffffffffffffffffffffffffff1673ffffffffffffffffffffffffffffffffffffffff16815260200190815260200160002060008373ffffffffffffffffffffffffffffffffffffffff1673ffffffffffffffffffffffffffffffffffffffff16815260200190815260200160002060009054906101000a900460ff16905092915050565b60007f80ac58cd000000000000000000000000000000000000000000000000000000007bffffffffffffffffffffffffffffffffffffffffffffffffffffffff1916827bffffffffffffffffffffffffffffffffffffffffffffffffffffffff19161480610ee557507f5b5e139f000000000000000000000000000000000000000000000000000000007bffffffffffffffffffffffffffffffffffffffffffffffffffffffff1916827bffffffffffffffffffffffffffffffffffffffffffffffffffffffff1916145b80610ef55750610ef4826116e3565b5b9050919050565b60008073ffffffffffffffffffffffffffffffffffffffff166002600084815260200190815260200160002060009054906101000a900473ffffffffffffffffffffffffffffffffffffffff1673ffffffffffffffffffffffffffffffffffffffff1614159050919050565b600033905090565b816004600083815260200190815260200160002060006101000a81548173ffffffffffffffffffffffffffffffffffffffff021916908373ffffffffffffffffffffffffffffffffffffffff160217905550808273ffffffffffffffffffffffffffffffffffffffff16610fe383610749565b73ffffffffffffffffffffffffffffffffffffffff167f8c5be1e5ebec7d5bd14f71427d1e84f3dd0314c0f7b2291e5b200ac8c7c3b92560405160405180910390a45050565b600061103482610efc565b611073576040517f08c379a000000000000000000000000000000000000000000000000000000000815260040161106a906127e2565b60405180910390fd5b600061107e83610749565b90508073ffffffffffffffffffffffffffffffffffffffff168473ffffffffffffffffffffffffffffffffffffffff1614806110ed57508373ffffffffffffffffffffffffffffffffffffffff166110d5846104b4565b73ffffffffffffffffffffffffffffffffffffffff16145b806110fe57506110fd8185610d86565b5b91505092915050565b8273ffffffffffffffffffffffffffffffffffffffff1661112782610749565b73ffffffffffffffffffffffffffffffffffffffff161461117d576040517f08c379a0000000000000000000000000000000000000000000000000000000008152600401611174906128e2565b60405180910390fd5b600073ffffffffffffffffffffffffffffffffffffffff168273ffffffffffffffffffffffffffffffffffffffff1614156111ed576040517f08c379a00000000000000000000000000000000000000000000000000000000081526004016111e4906127a2565b60405180910390fd5b6111f883838361174d565b611203600082610f70565b6001600360008573ffffffffffffffffffffffffffffffffffffffff1673ffffffffffffffffffffffffffffffffffffffff16815260200190815260200160002060008282546112539190612af8565b925050819055506001600360008473ffffffffffffffffffffffffffffffffffffffff1673ffffffffffffffffffffffffffffffffffffffff16815260200190815260200160002060008282546112aa9190612a71565b92505081905550816002600083815260200190815260200160002060006101000a81548173ffffffffffffffffffffffffffffffffffffffff021916908373ffffffffffffffffffffffffffffffffffffffff160217905550808273ffffffffffffffffffffffffffffffffffffffff168473ffffffffffffffffffffffffffffffffffffffff167fddf252ad1be2c89b69c2b068fc378daa952ba7f163c4a11628f55a4df523b3ef60405160405180910390a4505050565b6001816000016000828254019250508190555050565b600081600001549050919050565b600073ffffffffffffffffffffffffffffffffffffffff168273ffffffffffffffffffffffffffffffffffffffff1614156113f7576040517f08c379a00000000000000000000000000000000000000000000000000000000081526004016113ee90612882565b60405180910390fd5b61140081610efc565b15611440576040517f08c379a000000000000000000000000000000000000000000000000000000000815260040161143790612782565b60405180910390fd5b61144c6000838361174d565b6001600360008473ffffffffffffffffffffffffffffffffffffffff1673ffffffffffffffffffffffffffffffffffffffff168152602001908152602001600020600082825461149c9190612a71565b92505081905550816002600083815260200190815260200160002060006101000a81548173ffffffffffffffffffffffffffffffffffffffff021916908373ffffffffffffffffffffffffffffffffffffffff160217905550808273ffffffffffffffffffffffffffffffffffffffff16600073ffffffffffffffffffffffffffffffffffffffff167fddf252ad1be2c89b69c2b068fc378daa952ba7f163c4a11628f55a4df523b3ef60405160405180910390a45050565b61155e82610efc565b61159d576040517f08c379a000000000000000000000000000000000000000000000000000000000815260040161159490612862565b60405180910390fd5b806006600084815260200190815260200160002090805190602001906115c4929190611aa9565b505050565b6115d4848484611107565b6115e084848484611752565b61161f576040517f08c379a000000000000000000000000000000000000000000000000000000000815260040161161690612762565b60405180910390fd5b50505050565b606060405180602001604052806000815250905090565b606061164782610efc565b611686576040517f08c379a000000000000000000000000000000000000000000000000000000000815260040161167d90612902565b60405180910390fd5b6000611690611625565b905060008151116116b057604051806020016040528060008152506116db565b806116ba846118e9565b6040516020016116cb92919061267f565b6040516020818303038152906040525b915050919050565b60007f01ffc9a7000000000000000000000000000000000000000000000000000000007bffffffffffffffffffffffffffffffffffffffffffffffffffffffff1916827bffffffffffffffffffffffffffffffffffffffffffffffffffffffff1916149050919050565b505050565b60006117738473ffffffffffffffffffffffffffffffffffffffff16611a96565b156118dc578373ffffffffffffffffffffffffffffffffffffffff1663150b7a0261179c610f68565b8786866040518563ffffffff1660e01b81526004016117be94939291906126be565b602060405180830381600087803b1580156117d857600080fd5b505af192505050801561180957506040513d601f19601f820116820180604052508101906118069190611e93565b60015b61188c573d8060008114611839576040519150601f19603f3d011682016040523d82523d6000602084013e61183e565b606091505b50600081511415611884576040517f08c379a000000000000000000000000000000000000000000000000000000000815260040161187b90612762565b60405180910390fd5b805181602001fd5b63150b7a0260e01b7bffffffffffffffffffffffffffffffffffffffffffffffffffffffff1916817bffffffffffffffffffffffffffffffffffffffffffffffffffffffff1916149150506118e1565b600190505b949350505050565b60606000821415611931576040518060400160405280600181526020017f30000000000000000000000000000000000000000000000000000000000000008152509050611a91565b600082905060005b6000821461196357808061194c90612c14565b915050600a8261195c9190612ac7565b9150611939565b60008167ffffffffffffffff8111156119a5577f4e487b7100000000000000000000000000000000000000000000000000000000600052604160045260246000fd5b6040519080825280601f01601f1916602001820160405280156119d75781602001600182028036833780820191505090505b5090505b60008514611a8a576001826119f09190612af8565b9150600a856119ff9190612c5d565b6030611a0b9190612a71565b60f81b818381518110611a47577f4e487b7100000000000000000000000000000000000000000000000000000000600052603260045260246000fd5b60200101907effffffffffffffffffffffffffffffffffffffffffffffffffffffffffffff1916908160001a905350600a85611a839190612ac7565b94506119db565b8093505050505b919050565b600080823b905060008111915050919050565b828054611ab590612be2565b90600052602060002090601f016020900481019282611ad75760008555611b1e565b82601f10611af057805160ff1916838001178555611b1e565b82800160010185558215611b1e579182015b82811115611b1d578251825591602001919060010190611b02565b5b509050611b2b9190611b2f565b5090565b5b80821115611b48576000816000905550600101611b30565b5090565b6000611b5f611b5a846129ce565b61299d565b905082815260208101848484011115611b7757600080fd5b611b82848285612ba0565b509392505050565b6000611b9d611b98846129fe565b61299d565b905082815260208101848484011115611bb557600080fd5b611bc0848285612ba0565b509392505050565b600081359050611bd781612d5b565b92915050565b600081359050611bec81612d72565b92915050565b600081519050611c0181612d72565b92915050565b600081359050611c1681612d89565b92915050565b600081519050611c2b81612d89565b92915050565b600082601f830112611c4257600080fd5b8135611c52848260208601611b4c565b91505092915050565b600082601f830112611c6c57600080fd5b8135611c7c848260208601611b8a565b91505092915050565b600081359050611c9481612da0565b92915050565b600060208284031215611cac57600080fd5b6000611cba84828501611bc8565b91505092915050565b60008060408385031215611cd657600080fd5b6000611ce485828601611bc8565b9250506020611cf585828601611bc8565b9150509250929050565b600080600060608486031215611d1457600080fd5b6000611d2286828701611bc8565b9350506020611d3386828701611bc8565b9250506040611d4486828701611c85565b9150509250925092565b60008060008060808587031215611d6457600080fd5b6000611d7287828801611bc8565b9450506020611d8387828801611bc8565b9350506040611d9487828801611c85565b925050606085013567ffffffffffffffff811115611db157600080fd5b611dbd87828801611c31565b91505092959194509250565b60008060408385031215611ddc57600080fd5b6000611dea85828601611bc8565b9250506020611dfb85828601611bdd565b9150509250929050565b60008060408385031215611e1857600080fd5b6000611e2685828601611bc8565b9250506020611e3785828601611c85565b9150509250929050565b600060208284031215611e5357600080fd5b6000611e6184828501611bf2565b91505092915050565b600060208284031215611e7c57600080fd5b6000611e8a84828501611c07565b91505092915050565b600060208284031215611ea557600080fd5b6000611eb384828501611c1c565b91505092915050565b600080600060608486031215611ed157600080fd5b600084013567ffffffffffffffff811115611eeb57600080fd5b611ef786828701611c5b565b9350506020611f0886828701611c85565b9250506040611f1986828701611c85565b9150509250925092565b600060208284031215611f3557600080fd5b6000611f4384828501611c85565b91505092915050565b611f5581612b2c565b82525050565b611f6481612b3e565b82525050565b611f7381612b4a565b82525050565b6000611f8482612a2e565b611f8e8185612a44565b9350611f9e818560208601612baf565b611fa781612d4a565b840191505092915050565b6000611fbd82612a39565b611fc78185612a55565b9350611fd7818560208601612baf565b611fe081612d4a565b840191505092915050565b6000611ff682612a39565b6120008185612a66565b9350612010818560208601612baf565b80840191505092915050565b6000612029603283612a55565b91507f4552433732313a207472616e7366657220746f206e6f6e20455243373231526560008301527f63656976657220696d706c656d656e74657200000000000000000000000000006020830152604082019050919050565b600061208f601c83612a55565b91507f4552433732313a20746f6b656e20616c7265616479206d696e746564000000006000830152602082019050919050565b60006120cf602483612a55565b91507f4552433732313a207472616e7366657220746f20746865207a65726f2061646460008301527f72657373000000000000000000000000000000000000000000000000000000006020830152604082019050919050565b6000612135601983612a55565b91507f4552433732313a20617070726f766520746f2063616c6c6572000000000000006000830152602082019050919050565b6000612175602c83612a55565b91507f4552433732313a206f70657261746f7220717565727920666f72206e6f6e657860008301527f697374656e7420746f6b656e00000000000000000000000000000000000000006020830152604082019050919050565b60006121db603883612a55565b91507f4552433732313a20617070726f76652063616c6c6572206973206e6f74206f7760008301527f6e6572206e6f7220617070726f76656420666f7220616c6c00000000000000006020830152604082019050919050565b6000612241602a83612a55565b91507f4552433732313a2062616c616e636520717565727920666f7220746865207a6560008301527f726f2061646472657373000000000000000000000000000000000000000000006020830152604082019050919050565b60006122a7602983612a55565b91507f4552433732313a206f776e657220717565727920666f72206e6f6e657869737460008301527f656e7420746f6b656e00000000000000000000000000000000000000000000006020830152604082019050919050565b600061230d602e83612a55565b91507f45524337323155524953746f726167653a2055524920736574206f66206e6f6e60008301527f6578697374656e7420746f6b656e0000000000000000000000000000000000006020830152604082019050919050565b6000612373602083612a55565b91507f4552433732313a206d696e7420746f20746865207a65726f20616464726573736000830152602082019050919050565b60006123b3603183612a55565b91507f45524337323155524953746f726167653a2055524920717565727920666f722060008301527f6e6f6e6578697374656e7420746f6b656e0000000000000000000000000000006020830152604082019050919050565b6000612419602c83612a55565b91507f4552433732313a20617070726f76656420717565727920666f72206e6f6e657860008301527f697374656e7420746f6b656e00000000000000000000000000000000000000006020830152604082019050919050565b600061247f602983612a55565b91507f4552433732313a207472616e73666572206f6620746f6b656e2074686174206960008301527f73206e6f74206f776e00000000000000000000000000000000000000000000006020830152604082019050919050565b60006124e5602f83612a55565b91507f4552433732314d657461646174613a2055524920717565727920666f72206e6f60008301527f6e6578697374656e7420746f6b656e00000000000000000000000000000000006020830152604082019050919050565b600061254b602183612a55565b91507f4552433732313a20617070726f76616c20746f2063757272656e74206f776e6560008301527f72000000000000000000000000000000000000000000000000000000000000006020830152604082019050919050565b60006125b1603183612a55565b91507f4552433732313a207472616e736665722063616c6c6572206973206e6f74206f60008301527f776e6572206e6f7220617070726f7665640000000000000000000000000000006020830152604082019050919050565b6000612617602283612a55565b91507f4e46545f464143544f52593a20596f7520617265206e6f74207468652061646d60008301527f696e0000000000000000000000000000000000000000000000000000000000006020830152604082019050919050565b61267981612b96565b82525050565b600061268b8285611feb565b91506126978284611feb565b91508190509392505050565b60006020820190506126b86000830184611f4c565b92915050565b60006080820190506126d36000830187611f4c565b6126e06020830186611f4c565b6126ed6040830185612670565b81810360608301526126ff8184611f79565b905095945050505050565b600060208201905061271f6000830184611f5b565b92915050565b600060208201905061273a6000830184611f6a565b92915050565b6000602082019050818103600083015261275a8184611fb2565b905092915050565b6000602082019050818103600083015261277b8161201c565b9050919050565b6000602082019050818103600083015261279b81612082565b9050919050565b600060208201905081810360008301526127bb816120c2565b9050919050565b600060208201905081810360008301526127db81612128565b9050919050565b600060208201905081810360008301526127fb81612168565b9050919050565b6000602082019050818103600083015261281b816121ce565b9050919050565b6000602082019050818103600083015261283b81612234565b9050919050565b6000602082019050818103600083015261285b8161229a565b9050919050565b6000602082019050818103600083015261287b81612300565b9050919050565b6000602082019050818103600083015261289b81612366565b9050919050565b600060208201905081810360008301526128bb816123a6565b9050919050565b600060208201905081810360008301526128db8161240c565b9050919050565b600060208201905081810360008301526128fb81612472565b9050919050565b6000602082019050818103600083015261291b816124d8565b9050919050565b6000602082019050818103600083015261293b8161253e565b9050919050565b6000602082019050818103600083015261295b816125a4565b9050919050565b6000602082019050818103600083015261297b8161260a565b9050919050565b60006020820190506129976000830184612670565b92915050565b6000604051905081810181811067ffffffffffffffff821117156129c4576129c3612d1b565b5b8060405250919050565b600067ffffffffffffffff8211156129e9576129e8612d1b565b5b601f19601f8301169050602081019050919050565b600067ffffffffffffffff821115612a1957612a18612d1b565b5b601f19601f8301169050602081019050919050565b600081519050919050565b600081519050919050565b600082825260208201905092915050565b600082825260208201905092915050565b600081905092915050565b6000612a7c82612b96565b9150612a8783612b96565b9250827fffffffffffffffffffffffffffffffffffffffffffffffffffffffffffffffff03821115612abc57612abb612c8e565b5b828201905092915050565b6000612ad282612b96565b9150612add83612b96565b925082612aed57612aec612cbd565b5b828204905092915050565b6000612b0382612b96565b9150612b0e83612b96565b925082821015612b2157612b20612c8e565b5b828203905092915050565b6000612b3782612b76565b9050919050565b60008115159050919050565b60007fffffffff0000000000000000000000000000000000000000000000000000000082169050919050565b600073ffffffffffffffffffffffffffffffffffffffff82169050919050565b6000819050919050565b82818337600083830152505050565b60005b83811015612bcd578082015181840152602081019050612bb2565b83811115612bdc576000848401525b50505050565b60006002820490506001821680612bfa57607f821691505b60208210811415612c0e57612c0d612cec565b5b50919050565b6000612c1f82612b96565b91507fffffffffffffffffffffffffffffffffffffffffffffffffffffffffffffffff821415612c5257612c51612c8e565b5b600182019050919050565b6000612c6882612b96565b9150612c7383612b96565b925082612c8357612c82612cbd565b5b828206905092915050565b7f4e487b7100000000000000000000000000000000000000000000000000000000600052601160045260246000fd5b7f4e487b7100000000000000000000000000000000000000000000000000000000600052601260045260246000fd5b7f4e487b7100000000000000000000000000000000000000000000000000000000600052602260045260246000fd5b7f4e487b7100000000000000000000000000000000000000000000000000000000600052604160045260246000fd5b6000601f19601f8301169050919050565b612d6481612b2c565b8114612d6f57600080fd5b50565b612d7b81612b3e565b8114612d8657600080fd5b50565b612d9281612b4a565b8114612d9d57600080fd5b50565b612da981612b96565b8114612db457600080fd5b5056fea2646970667358221220116528070106969cda2f7f895f30a9cc8ea7d81cbf436e4b718e2155fed1dd2b64736f6c63430008000033",
  "immutableReferences": {},
  "source": "// SPDX-License-Identifier: MIT\npragma solidity >=0.8.0 <0.9.0;\nimport \"@openzeppelin/contracts/token/ERC721/ERC721.sol\";\nimport \"@openzeppelin/contracts/token/ERC721/extensions/ERC721URIStorage.sol\";\nimport \"@openzeppelin/contracts/utils/Counters.sol\";\n\ncontract NFT_Factory is ERC721URIStorage{\n    using Counters for Counters.Counter;\n    Counters.Counter public _tokenIds;\n    address private _admin;\n\n    struct VALUES {\n      uint256 priceOfSell;\n      uint256 valueOfNFT;\n    }\n\n    mapping(uint256 => VALUES) private values;\n\n    constructor() ERC721(\"Decentralized Invoice Factoring\", \"DIF\") {\n        _admin = msg.sender;\n  }\n\n  modifier onlyAdmin(address user) {\n      require(_admin == user, \"NFT_FACTORY: You are not the admin\");\n      _;\n  }\n\n  function changeAdmin(address newAddress) public onlyAdmin(msg.sender) {\n      _admin = newAddress;\n  }\n\n  function showAdminAddress() public view returns(address) {\n      return _admin;\n  }\n\n    function supportsInterface(bytes4 interfaceId) public view virtual override returns (bool) {\n      return this.supportsInterface(interfaceId) || super.supportsInterface(interfaceId);\n  }\n\n    function createInvoice(string memory tokenURI, uint256 _priceOfSell, uint256 _valueOfNFT) public returns (uint256) {\n      _tokenIds.increment();\n      uint256 newItemId = _tokenIds.current();\n      _mint(msg.sender, newItemId);\n      _setTokenURI(newItemId, tokenURI);\n      values[newItemId] = VALUES(_priceOfSell, _valueOfNFT);\n      return newItemId;\n  }\n\n\n}",
  "sourcePath": "/home/peter/Documents/Reserva/0-Reservafs/Proyectos/DIF_PROJECT/Code/DIF_IPFS/contracts/NFT_FACTORY.sol",
  "compiler": {
    "name": "solc",
    "version": "0.8.0+commit.c7dfd78e.Emscripten.clang"
  },
  "schemaVersion": "3.4.3",
  "updatedAt": "2021-10-12T06:00:07.593Z",
  "devdoc": {
    "kind": "dev",
    "methods": {
      "approve(address,uint256)": {
        "details": "See {IERC721-approve}."
      },
      "balanceOf(address)": {
        "details": "See {IERC721-balanceOf}."
      },
      "getApproved(uint256)": {
        "details": "See {IERC721-getApproved}."
      },
      "isApprovedForAll(address,address)": {
        "details": "See {IERC721-isApprovedForAll}."
      },
      "name()": {
        "details": "See {IERC721Metadata-name}."
      },
      "ownerOf(uint256)": {
        "details": "See {IERC721-ownerOf}."
      },
      "safeTransferFrom(address,address,uint256)": {
        "details": "See {IERC721-safeTransferFrom}."
      },
      "safeTransferFrom(address,address,uint256,bytes)": {
        "details": "See {IERC721-safeTransferFrom}."
      },
      "setApprovalForAll(address,bool)": {
        "details": "See {IERC721-setApprovalForAll}."
      },
      "supportsInterface(bytes4)": {
        "details": "See {IERC165-supportsInterface}."
      },
      "symbol()": {
        "details": "See {IERC721Metadata-symbol}."
      },
      "tokenURI(uint256)": {
        "details": "See {IERC721Metadata-tokenURI}."
      },
      "transferFrom(address,address,uint256)": {
        "details": "See {IERC721-transferFrom}."
      }
    },
    "version": 1
  },
  "userdoc": {
    "kind": "user",
    "methods": {},
    "version": 1
  }
}