{
  "contractName": "NFT_FACTORY",
  "abi": [
    {
      "inputs": [],
      "stateMutability": "nonpayable",
      "type": "constructor"
    },
    {
      "anonymous": false,
      "inputs": [
        {
          "indexed": true,
          "internalType": "address",
          "name": "owner",
          "type": "address"
        },
        {
          "indexed": true,
          "internalType": "address",
          "name": "approved",
          "type": "address"
        },
        {
          "indexed": true,
          "internalType": "uint256",
          "name": "tokenId",
          "type": "uint256"
        }
      ],
      "name": "Approval",
      "type": "event"
    },
    {
      "anonymous": false,
      "inputs": [
        {
          "indexed": true,
          "internalType": "address",
          "name": "owner",
          "type": "address"
        },
        {
          "indexed": true,
          "internalType": "address",
          "name": "operator",
          "type": "address"
        },
        {
          "indexed": false,
          "internalType": "bool",
          "name": "approved",
          "type": "bool"
        }
      ],
      "name": "ApprovalForAll",
      "type": "event"
    },
    {
      "anonymous": false,
      "inputs": [
        {
          "indexed": true,
          "internalType": "address",
          "name": "previousOwner",
          "type": "address"
        },
        {
          "indexed": true,
          "internalType": "address",
          "name": "newOwner",
          "type": "address"
        }
      ],
      "name": "OwnershipTransferred",
      "type": "event"
    },
    {
      "anonymous": false,
      "inputs": [
        {
          "indexed": true,
          "internalType": "address",
          "name": "from",
          "type": "address"
        },
        {
          "indexed": true,
          "internalType": "address",
          "name": "to",
          "type": "address"
        },
        {
          "indexed": true,
          "internalType": "uint256",
          "name": "tokenId",
          "type": "uint256"
        }
      ],
      "name": "Transfer",
      "type": "event"
    },
    {
      "inputs": [
        {
          "internalType": "address",
          "name": "to",
          "type": "address"
        },
        {
          "internalType": "uint256",
          "name": "tokenId",
          "type": "uint256"
        }
      ],
      "name": "approve",
      "outputs": [],
      "stateMutability": "nonpayable",
      "type": "function"
    },
    {
      "inputs": [
        {
          "internalType": "address",
          "name": "owner",
          "type": "address"
        }
      ],
      "name": "balanceOf",
      "outputs": [
        {
          "internalType": "uint256",
          "name": "",
          "type": "uint256"
        }
      ],
      "stateMutability": "view",
      "type": "function",
      "constant": true
    },
    {
      "inputs": [
        {
          "internalType": "uint256",
          "name": "tokenId",
          "type": "uint256"
        }
      ],
      "name": "getApproved",
      "outputs": [
        {
          "internalType": "address",
          "name": "",
          "type": "address"
        }
      ],
      "stateMutability": "view",
      "type": "function",
      "constant": true
    },
    {
      "inputs": [
        {
          "internalType": "address",
          "name": "owner",
          "type": "address"
        },
        {
          "internalType": "address",
          "name": "operator",
          "type": "address"
        }
      ],
      "name": "isApprovedForAll",
      "outputs": [
        {
          "internalType": "bool",
          "name": "",
          "type": "bool"
        }
      ],
      "stateMutability": "view",
      "type": "function",
      "constant": true
    },
    {
      "inputs": [],
      "name": "name",
      "outputs": [
        {
          "internalType": "string",
          "name": "",
          "type": "string"
        }
      ],
      "stateMutability": "view",
      "type": "function",
      "constant": true
    },
    {
      "inputs": [],
      "name": "owner",
      "outputs": [
        {
          "internalType": "address",
          "name": "",
          "type": "address"
        }
      ],
      "stateMutability": "view",
      "type": "function",
      "constant": true
    },
    {
      "inputs": [
        {
          "internalType": "uint256",
          "name": "tokenId",
          "type": "uint256"
        }
      ],
      "name": "ownerOf",
      "outputs": [
        {
          "internalType": "address",
          "name": "",
          "type": "address"
        }
      ],
      "stateMutability": "view",
      "type": "function",
      "constant": true
    },
    {
      "inputs": [],
      "name": "renounceOwnership",
      "outputs": [],
      "stateMutability": "nonpayable",
      "type": "function"
    },
    {
      "inputs": [
        {
          "internalType": "address",
          "name": "from",
          "type": "address"
        },
        {
          "internalType": "address",
          "name": "to",
          "type": "address"
        },
        {
          "internalType": "uint256",
          "name": "tokenId",
          "type": "uint256"
        }
      ],
      "name": "safeTransferFrom",
      "outputs": [],
      "stateMutability": "nonpayable",
      "type": "function"
    },
    {
      "inputs": [
        {
          "internalType": "address",
          "name": "from",
          "type": "address"
        },
        {
          "internalType": "address",
          "name": "to",
          "type": "address"
        },
        {
          "internalType": "uint256",
          "name": "tokenId",
          "type": "uint256"
        },
        {
          "internalType": "bytes",
          "name": "_data",
          "type": "bytes"
        }
      ],
      "name": "safeTransferFrom",
      "outputs": [],
      "stateMutability": "nonpayable",
      "type": "function"
    },
    {
      "inputs": [
        {
          "internalType": "address",
          "name": "operator",
          "type": "address"
        },
        {
          "internalType": "bool",
          "name": "approved",
          "type": "bool"
        }
      ],
      "name": "setApprovalForAll",
      "outputs": [],
      "stateMutability": "nonpayable",
      "type": "function"
    },
    {
      "inputs": [],
      "name": "symbol",
      "outputs": [
        {
          "internalType": "string",
          "name": "",
          "type": "string"
        }
      ],
      "stateMutability": "view",
      "type": "function",
      "constant": true
    },
    {
      "inputs": [
        {
          "internalType": "uint256",
          "name": "index",
          "type": "uint256"
        }
      ],
      "name": "tokenByIndex",
      "outputs": [
        {
          "internalType": "uint256",
          "name": "",
          "type": "uint256"
        }
      ],
      "stateMutability": "view",
      "type": "function",
      "constant": true
    },
    {
      "inputs": [
        {
          "internalType": "address",
          "name": "owner",
          "type": "address"
        },
        {
          "internalType": "uint256",
          "name": "index",
          "type": "uint256"
        }
      ],
      "name": "tokenOfOwnerByIndex",
      "outputs": [
        {
          "internalType": "uint256",
          "name": "",
          "type": "uint256"
        }
      ],
      "stateMutability": "view",
      "type": "function",
      "constant": true
    },
    {
      "inputs": [
        {
          "internalType": "uint256",
          "name": "tokenId",
          "type": "uint256"
        }
      ],
      "name": "tokenURI",
      "outputs": [
        {
          "internalType": "string",
          "name": "",
          "type": "string"
        }
      ],
      "stateMutability": "view",
      "type": "function",
      "constant": true
    },
    {
      "inputs": [],
      "name": "totalSupply",
      "outputs": [
        {
          "internalType": "uint256",
          "name": "",
          "type": "uint256"
        }
      ],
      "stateMutability": "view",
      "type": "function",
      "constant": true
    },
    {
      "inputs": [
        {
          "internalType": "address",
          "name": "from",
          "type": "address"
        },
        {
          "internalType": "address",
          "name": "to",
          "type": "address"
        },
        {
          "internalType": "uint256",
          "name": "tokenId",
          "type": "uint256"
        }
      ],
      "name": "transferFrom",
      "outputs": [],
      "stateMutability": "nonpayable",
      "type": "function"
    },
    {
      "inputs": [
        {
          "internalType": "address",
          "name": "newOwner",
          "type": "address"
        }
      ],
      "name": "transferOwnership",
      "outputs": [],
      "stateMutability": "nonpayable",
      "type": "function"
    },
    {
      "inputs": [
        {
          "internalType": "bytes4",
          "name": "interfaceId",
          "type": "bytes4"
        }
      ],
      "name": "supportsInterface",
      "outputs": [
        {
          "internalType": "bool",
          "name": "",
          "type": "bool"
        }
      ],
      "stateMutability": "view",
      "type": "function",
      "constant": true
    },
    {
      "inputs": [
        {
          "internalType": "address",
          "name": "_recipient",
          "type": "address"
        },
        {
          "internalType": "string",
          "name": "_name",
          "type": "string"
        },
        {
          "internalType": "string",
          "name": "_description",
          "type": "string"
        },
        {
          "internalType": "string",
          "name": "_dataCustumer",
          "type": "string"
        },
        {
          "internalType": "uint256",
          "name": "_valueOfNFT",
          "type": "uint256"
        },
        {
          "internalType": "uint256",
          "name": "_balanceAdvance",
          "type": "uint256"
        }
      ],
      "name": "createInvoice",
      "outputs": [],
      "stateMutability": "nonpayable",
      "type": "function"
    },
    {
      "inputs": [
        {
          "internalType": "uint256",
          "name": "tokenId",
          "type": "uint256"
        }
      ],
      "name": "getData",
      "outputs": [
        {
          "internalType": "string",
          "name": "name",
          "type": "string"
        },
        {
          "internalType": "string",
          "name": "description",
          "type": "string"
        },
        {
          "internalType": "string",
          "name": "dataCustumer",
          "type": "string"
        },
        {
          "internalType": "uint256",
          "name": "valueOfNFT",
          "type": "uint256"
        },
        {
          "internalType": "uint256",
          "name": "balanceAdvance",
          "type": "uint256"
        },
        {
          "internalType": "address",
          "name": "seller",
          "type": "address"
        }
      ],
      "stateMutability": "view",
      "type": "function",
      "constant": true
    }
  ],
  "bytecode": "0x60806040523480156200001157600080fd5b506040518060400160405280601f81526020017f446563656e7472616c697a656420496e766f69636520466163746f72696e67008152506040518060400160405280600381526020017f4449460000000000000000000000000000000000000000000000000000000000815250816000908051906020019062000096929190620001a6565b508060019080519060200190620000af929190620001a6565b505050620000d2620000c6620000d860201b60201c565b620000e060201b60201c565b620002bb565b600033905090565b6000600660009054906101000a900473ffffffffffffffffffffffffffffffffffffffff16905081600660006101000a81548173ffffffffffffffffffffffffffffffffffffffff021916908373ffffffffffffffffffffffffffffffffffffffff1602179055508173ffffffffffffffffffffffffffffffffffffffff168173ffffffffffffffffffffffffffffffffffffffff167f8be0079c531659141344cd1fd0a4f28419497f9722a3daafe3b4186f6b6457e060405160405180910390a35050565b828054620001b49062000256565b90600052602060002090601f016020900481019282620001d8576000855562000224565b82601f10620001f357805160ff191683800117855562000224565b8280016001018555821562000224579182015b828111156200022357825182559160200191906001019062000206565b5b50905062000233919062000237565b5090565b5b808211156200025257600081600090555060010162000238565b5090565b600060028204905060018216806200026f57607f821691505b602082108114156200028657620002856200028c565b5b50919050565b7f4e487b7100000000000000000000000000000000000000000000000000000000600052602260045260246000fd5b613bfd80620002cb6000396000f3fe608060405234801561001057600080fd5b50600436106101375760003560e01c80636352211e116100b857806395d89b411161007c57806395d89b4114610365578063a22cb46514610383578063b88d4fde1461039f578063c87b56dd146103bb578063e985e9c5146103eb578063f2fde38b1461041b57610137565b80636352211e146102c157806370a08231146102f1578063715018a614610321578063775cd9b51461032b5780638da5cb5b1461034757610137565b806318160ddd116100ff57806318160ddd1461020b57806323b872dd146102295780632f745c591461024557806342842e0e146102755780634f6ccce71461029157610137565b80630178fe3f1461013c57806301ffc9a71461017157806306fdde03146101a1578063081812fc146101bf578063095ea7b3146101ef575b600080fd5b61015660048036038101906101519190612b34565b610437565b60405161016896959493929190613481565b60405180910390f35b61018b60048036038101906101869190612ae2565b6107d6565b6040516101989190613444565b60405180910390f35b6101a96107e8565b6040516101b6919061345f565b60405180910390f35b6101d960048036038101906101d49190612b34565b61087a565b6040516101e691906133dd565b60405180910390f35b61020960048036038101906102049190612aa6565b6108ff565b005b610213610a17565b6040516102209190613757565b60405180910390f35b610243600480360381019061023e91906128cf565b610a24565b005b61025f600480360381019061025a9190612aa6565b610a84565b60405161026c9190613757565b60405180910390f35b61028f600480360381019061028a91906128cf565b610b29565b005b6102ab60048036038101906102a69190612b34565b610b49565b6040516102b89190613757565b60405180910390f35b6102db60048036038101906102d69190612b34565b610be0565b6040516102e891906133dd565b60405180910390f35b61030b6004803603810190610306919061286a565b610c92565b6040516103189190613757565b60405180910390f35b610329610d4a565b005b610345600480360381019061034091906129d5565b610dd2565b005b61034f610f37565b60405161035c91906133dd565b60405180910390f35b61036d610f61565b60405161037a919061345f565b60405180910390f35b61039d60048036038101906103989190612999565b610ff3565b005b6103b960048036038101906103b4919061291e565b611174565b005b6103d560048036038101906103d09190612b34565b6111d6565b6040516103e2919061345f565b60405180910390f35b61040560048036038101906104009190612893565b61127d565b6040516104129190613444565b60405180910390f35b6104356004803603810190610430919061286a565b611311565b005b60608060606000806000600b878154811061047b577f4e487b7100000000000000000000000000000000000000000000000000000000600052603260045260246000fd5b90600052602060002090600702016000018054610497906139b7565b80601f01602080910402602001604051908101604052809291908181526020018280546104c3906139b7565b80156105105780601f106104e557610100808354040283529160200191610510565b820191906000526020600020905b8154815290600101906020018083116104f357829003601f168201915b50505050509550600b8781548110610551577f4e487b7100000000000000000000000000000000000000000000000000000000600052603260045260246000fd5b9060005260206000209060070201600101805461056d906139b7565b80601f0160208091040260200160405190810160405280929190818152602001828054610599906139b7565b80156105e65780601f106105bb576101008083540402835291602001916105e6565b820191906000526020600020905b8154815290600101906020018083116105c957829003601f168201915b50505050509450600b8781548110610627577f4e487b7100000000000000000000000000000000000000000000000000000000600052603260045260246000fd5b90600052602060002090600702016002018054610643906139b7565b80601f016020809104026020016040519081016040528092919081815260200182805461066f906139b7565b80156106bc5780601f10610691576101008083540402835291602001916106bc565b820191906000526020600020905b81548152906001019060200180831161069f57829003601f168201915b50505050509350600b87815481106106fd577f4e487b7100000000000000000000000000000000000000000000000000000000600052603260045260246000fd5b9060005260206000209060070201600301549250600b878154811061074b577f4e487b7100000000000000000000000000000000000000000000000000000000600052603260045260246000fd5b9060005260206000209060070201600401549150600b8781548110610799577f4e487b7100000000000000000000000000000000000000000000000000000000600052603260045260246000fd5b906000526020600020906007020160050160009054906101000a900473ffffffffffffffffffffffffffffffffffffffff16905091939550919395565b60006107e182611409565b9050919050565b6060600080546107f7906139b7565b80601f0160208091040260200160405190810160405280929190818152602001828054610823906139b7565b80156108705780601f1061084557610100808354040283529160200191610870565b820191906000526020600020905b81548152906001019060200180831161085357829003601f168201915b5050505050905090565b600061088582611483565b6108c4576040517f08c379a00000000000000000000000000000000000000000000000000000000081526004016108bb90613657565b60405180910390fd5b6004600083815260200190815260200160002060009054906101000a900473ffffffffffffffffffffffffffffffffffffffff169050919050565b600061090a82610be0565b90508073ffffffffffffffffffffffffffffffffffffffff168373ffffffffffffffffffffffffffffffffffffffff16141561097b576040517f08c379a0000000000000000000000000000000000000000000000000000000008152600401610972906136d7565b60405180910390fd5b8073ffffffffffffffffffffffffffffffffffffffff1661099a6114ef565b73ffffffffffffffffffffffffffffffffffffffff1614806109c957506109c8816109c36114ef565b61127d565b5b610a08576040517f08c379a00000000000000000000000000000000000000000000000000000000081526004016109ff906135d7565b60405180910390fd5b610a1283836114f7565b505050565b6000600980549050905090565b610a35610a2f6114ef565b826115b0565b610a74576040517f08c379a0000000000000000000000000000000000000000000000000000000008152600401610a6b906136f7565b60405180910390fd5b610a7f83838361168e565b505050565b6000610a8f83610c92565b8210610ad0576040517f08c379a0000000000000000000000000000000000000000000000000000000008152600401610ac7906134f7565b60405180910390fd5b600760008473ffffffffffffffffffffffffffffffffffffffff1673ffffffffffffffffffffffffffffffffffffffff168152602001908152602001600020600083815260200190815260200160002054905092915050565b610b4483838360405180602001604052806000815250611174565b505050565b6000610b53610a17565b8210610b94576040517f08c379a0000000000000000000000000000000000000000000000000000000008152600401610b8b90613717565b60405180910390fd5b60098281548110610bce577f4e487b7100000000000000000000000000000000000000000000000000000000600052603260045260246000fd5b90600052602060002001549050919050565b6000806002600084815260200190815260200160002060009054906101000a900473ffffffffffffffffffffffffffffffffffffffff169050600073ffffffffffffffffffffffffffffffffffffffff168173ffffffffffffffffffffffffffffffffffffffff161415610c89576040517f08c379a0000000000000000000000000000000000000000000000000000000008152600401610c8090613617565b60405180910390fd5b80915050919050565b60008073ffffffffffffffffffffffffffffffffffffffff168273ffffffffffffffffffffffffffffffffffffffff161415610d03576040517f08c379a0000000000000000000000000000000000000000000000000000000008152600401610cfa906135f7565b60405180910390fd5b600360008373ffffffffffffffffffffffffffffffffffffffff1673ffffffffffffffffffffffffffffffffffffffff168152602001908152602001600020549050919050565b610d526114ef565b73ffffffffffffffffffffffffffffffffffffffff16610d70610f37565b73ffffffffffffffffffffffffffffffffffffffff1614610dc6576040517f08c379a0000000000000000000000000000000000000000000000000000000008152600401610dbd90613677565b60405180910390fd5b610dd060006118ea565b565b610dda6114ef565b73ffffffffffffffffffffffffffffffffffffffff16610df8610f37565b73ffffffffffffffffffffffffffffffffffffffff1614610e4e576040517f08c379a0000000000000000000000000000000000000000000000000000000008152600401610e4590613677565b60405180910390fd5b600085858585858b604051602001610e6b96959493929190613379565b604051602081830303815290604052805190602001209050600d600082815260200190815260200160002060009054906101000a900460ff1615610ee4576040517f08c379a0000000000000000000000000000000000000000000000000000000008152600401610edb90613737565b60405180910390fd5b6001600d600083815260200190815260200160002060006101000a81548160ff0219169083151502179055506000610f2187878787878d886119b0565b9050610f2d8882611b09565b5050505050505050565b6000600660009054906101000a900473ffffffffffffffffffffffffffffffffffffffff16905090565b606060018054610f70906139b7565b80601f0160208091040260200160405190810160405280929190818152602001828054610f9c906139b7565b8015610fe95780601f10610fbe57610100808354040283529160200191610fe9565b820191906000526020600020905b815481529060010190602001808311610fcc57829003601f168201915b5050505050905090565b610ffb6114ef565b73ffffffffffffffffffffffffffffffffffffffff168273ffffffffffffffffffffffffffffffffffffffff161415611069576040517f08c379a000000000000000000000000000000000000000000000000000000000815260040161106090613597565b60405180910390fd5b80600560006110766114ef565b73ffffffffffffffffffffffffffffffffffffffff1673ffffffffffffffffffffffffffffffffffffffff16815260200190815260200160002060008473ffffffffffffffffffffffffffffffffffffffff1673ffffffffffffffffffffffffffffffffffffffff16815260200190815260200160002060006101000a81548160ff0219169083151502179055508173ffffffffffffffffffffffffffffffffffffffff166111236114ef565b73ffffffffffffffffffffffffffffffffffffffff167f17307eab39ab6107e8899845ad3d59bd9653f200f220920489ca2b5937696c31836040516111689190613444565b60405180910390a35050565b61118561117f6114ef565b836115b0565b6111c4576040517f08c379a00000000000000000000000000000000000000000000000000000000081526004016111bb906136f7565b60405180910390fd5b6111d084848484611cd7565b50505050565b60606111e182611483565b611220576040517f08c379a0000000000000000000000000000000000000000000000000000000008152600401611217906136b7565b60405180910390fd5b600061122a611d33565b9050600081511161124a5760405180602001604052806000815250611275565b8061125484611d4a565b604051602001611265929190613355565b6040516020818303038152906040525b915050919050565b6000600560008473ffffffffffffffffffffffffffffffffffffffff1673ffffffffffffffffffffffffffffffffffffffff16815260200190815260200160002060008373ffffffffffffffffffffffffffffffffffffffff1673ffffffffffffffffffffffffffffffffffffffff16815260200190815260200160002060009054906101000a900460ff16905092915050565b6113196114ef565b73ffffffffffffffffffffffffffffffffffffffff16611337610f37565b73ffffffffffffffffffffffffffffffffffffffff161461138d576040517f08c379a000000000000000000000000000000000000000000000000000000000815260040161138490613677565b60405180910390fd5b600073ffffffffffffffffffffffffffffffffffffffff168173ffffffffffffffffffffffffffffffffffffffff1614156113fd576040517f08c379a00000000000000000000000000000000000000000000000000000000081526004016113f490613537565b60405180910390fd5b611406816118ea565b50565b60007f780e9d63000000000000000000000000000000000000000000000000000000007bffffffffffffffffffffffffffffffffffffffffffffffffffffffff1916827bffffffffffffffffffffffffffffffffffffffffffffffffffffffff1916148061147c575061147b82611ef7565b5b9050919050565b60008073ffffffffffffffffffffffffffffffffffffffff166002600084815260200190815260200160002060009054906101000a900473ffffffffffffffffffffffffffffffffffffffff1673ffffffffffffffffffffffffffffffffffffffff1614159050919050565b600033905090565b816004600083815260200190815260200160002060006101000a81548173ffffffffffffffffffffffffffffffffffffffff021916908373ffffffffffffffffffffffffffffffffffffffff160217905550808273ffffffffffffffffffffffffffffffffffffffff1661156a83610be0565b73ffffffffffffffffffffffffffffffffffffffff167f8c5be1e5ebec7d5bd14f71427d1e84f3dd0314c0f7b2291e5b200ac8c7c3b92560405160405180910390a45050565b60006115bb82611483565b6115fa576040517f08c379a00000000000000000000000000000000000000000000000000000000081526004016115f1906135b7565b60405180910390fd5b600061160583610be0565b90508073ffffffffffffffffffffffffffffffffffffffff168473ffffffffffffffffffffffffffffffffffffffff16148061167457508373ffffffffffffffffffffffffffffffffffffffff1661165c8461087a565b73ffffffffffffffffffffffffffffffffffffffff16145b806116855750611684818561127d565b5b91505092915050565b8273ffffffffffffffffffffffffffffffffffffffff166116ae82610be0565b73ffffffffffffffffffffffffffffffffffffffff1614611704576040517f08c379a00000000000000000000000000000000000000000000000000000000081526004016116fb90613697565b60405180910390fd5b600073ffffffffffffffffffffffffffffffffffffffff168273ffffffffffffffffffffffffffffffffffffffff161415611774576040517f08c379a000000000000000000000000000000000000000000000000000000000815260040161176b90613577565b60405180910390fd5b61177f838383611fd9565b61178a6000826114f7565b6001600360008573ffffffffffffffffffffffffffffffffffffffff1673ffffffffffffffffffffffffffffffffffffffff16815260200190815260200160002060008282546117da91906138cd565b925050819055506001600360008473ffffffffffffffffffffffffffffffffffffffff1673ffffffffffffffffffffffffffffffffffffffff16815260200190815260200160002060008282546118319190613846565b92505081905550816002600083815260200190815260200160002060006101000a81548173ffffffffffffffffffffffffffffffffffffffff021916908373ffffffffffffffffffffffffffffffffffffffff160217905550808273ffffffffffffffffffffffffffffffffffffffff168473ffffffffffffffffffffffffffffffffffffffff167fddf252ad1be2c89b69c2b068fc378daa952ba7f163c4a11628f55a4df523b3ef60405160405180910390a4505050565b6000600660009054906101000a900473ffffffffffffffffffffffffffffffffffffffff16905081600660006101000a81548173ffffffffffffffffffffffffffffffffffffffff021916908373ffffffffffffffffffffffffffffffffffffffff1602179055508173ffffffffffffffffffffffffffffffffffffffff168173ffffffffffffffffffffffffffffffffffffffff167f8be0079c531659141344cd1fd0a4f28419497f9722a3daafe3b4186f6b6457e060405160405180910390a35050565b6000600b6040518060e001604052808a81526020018981526020018881526020018781526020018681526020018573ffffffffffffffffffffffffffffffffffffffff1681526020018481525090806001815401808255809150506001900390600052602060002090600702016000909190919091506000820151816000019080519060200190611a4292919061268e565b506020820151816001019080519060200190611a5f92919061268e565b506040820151816002019080519060200190611a7c92919061268e565b50606082015181600301556080820151816004015560a08201518160050160006101000a81548173ffffffffffffffffffffffffffffffffffffffff021916908373ffffffffffffffffffffffffffffffffffffffff16021790555060c08201518160060155505060006001600b80549050611af891906138cd565b905080915050979650505050505050565b600073ffffffffffffffffffffffffffffffffffffffff168273ffffffffffffffffffffffffffffffffffffffff161415611b79576040517f08c379a0000000000000000000000000000000000000000000000000000000008152600401611b7090613637565b60405180910390fd5b611b8281611483565b15611bc2576040517f08c379a0000000000000000000000000000000000000000000000000000000008152600401611bb990613557565b60405180910390fd5b611bce60008383611fd9565b6001600360008473ffffffffffffffffffffffffffffffffffffffff1673ffffffffffffffffffffffffffffffffffffffff1681526020019081526020016000206000828254611c1e9190613846565b92505081905550816002600083815260200190815260200160002060006101000a81548173ffffffffffffffffffffffffffffffffffffffff021916908373ffffffffffffffffffffffffffffffffffffffff160217905550808273ffffffffffffffffffffffffffffffffffffffff16600073ffffffffffffffffffffffffffffffffffffffff167fddf252ad1be2c89b69c2b068fc378daa952ba7f163c4a11628f55a4df523b3ef60405160405180910390a45050565b611ce284848461168e565b611cee84848484611fe9565b611d2d576040517f08c379a0000000000000000000000000000000000000000000000000000000008152600401611d2490613517565b60405180910390fd5b50505050565b606060405180602001604052806000815250905090565b60606000821415611d92576040518060400160405280600181526020017f30000000000000000000000000000000000000000000000000000000000000008152509050611ef2565b600082905060005b60008214611dc4578080611dad906139e9565b915050600a82611dbd919061389c565b9150611d9a565b60008167ffffffffffffffff811115611e06577f4e487b7100000000000000000000000000000000000000000000000000000000600052604160045260246000fd5b6040519080825280601f01601f191660200182016040528015611e385781602001600182028036833780820191505090505b5090505b60008514611eeb57600182611e5191906138cd565b9150600a85611e609190613a60565b6030611e6c9190613846565b60f81b818381518110611ea8577f4e487b7100000000000000000000000000000000000000000000000000000000600052603260045260246000fd5b60200101907effffffffffffffffffffffffffffffffffffffffffffffffffffffffffffff1916908160001a905350600a85611ee4919061389c565b9450611e3c565b8093505050505b919050565b60007f80ac58cd000000000000000000000000000000000000000000000000000000007bffffffffffffffffffffffffffffffffffffffffffffffffffffffff1916827bffffffffffffffffffffffffffffffffffffffffffffffffffffffff19161480611fc257507f5b5e139f000000000000000000000000000000000000000000000000000000007bffffffffffffffffffffffffffffffffffffffffffffffffffffffff1916827bffffffffffffffffffffffffffffffffffffffffffffffffffffffff1916145b80611fd25750611fd182612180565b5b9050919050565b611fe48383836121ea565b505050565b600061200a8473ffffffffffffffffffffffffffffffffffffffff166122fe565b15612173578373ffffffffffffffffffffffffffffffffffffffff1663150b7a026120336114ef565b8786866040518563ffffffff1660e01b815260040161205594939291906133f8565b602060405180830381600087803b15801561206f57600080fd5b505af19250505080156120a057506040513d601f19601f8201168201806040525081019061209d9190612b0b565b60015b612123573d80600081146120d0576040519150601f19603f3d011682016040523d82523d6000602084013e6120d5565b606091505b5060008151141561211b576040517f08c379a000000000000000000000000000000000000000000000000000000000815260040161211290613517565b60405180910390fd5b805181602001fd5b63150b7a0260e01b7bffffffffffffffffffffffffffffffffffffffffffffffffffffffff1916817bffffffffffffffffffffffffffffffffffffffffffffffffffffffff191614915050612178565b600190505b949350505050565b60007f01ffc9a7000000000000000000000000000000000000000000000000000000007bffffffffffffffffffffffffffffffffffffffffffffffffffffffff1916827bffffffffffffffffffffffffffffffffffffffffffffffffffffffff1916149050919050565b6121f5838383612311565b600073ffffffffffffffffffffffffffffffffffffffff168373ffffffffffffffffffffffffffffffffffffffff1614156122385761223381612316565b612277565b8173ffffffffffffffffffffffffffffffffffffffff168373ffffffffffffffffffffffffffffffffffffffff161461227657612275838261235f565b5b5b600073ffffffffffffffffffffffffffffffffffffffff168273ffffffffffffffffffffffffffffffffffffffff1614156122ba576122b5816124cc565b6122f9565b8273ffffffffffffffffffffffffffffffffffffffff168273ffffffffffffffffffffffffffffffffffffffff16146122f8576122f7828261260f565b5b5b505050565b600080823b905060008111915050919050565b505050565b600980549050600a600083815260200190815260200160002081905550600981908060018154018082558091505060019003906000526020600020016000909190919091505550565b6000600161236c84610c92565b61237691906138cd565b905060006008600084815260200190815260200160002054905081811461245b576000600760008673ffffffffffffffffffffffffffffffffffffffff1673ffffffffffffffffffffffffffffffffffffffff168152602001908152602001600020600084815260200190815260200160002054905080600760008773ffffffffffffffffffffffffffffffffffffffff1673ffffffffffffffffffffffffffffffffffffffff168152602001908152602001600020600084815260200190815260200160002081905550816008600083815260200190815260200160002081905550505b6008600084815260200190815260200160002060009055600760008573ffffffffffffffffffffffffffffffffffffffff1673ffffffffffffffffffffffffffffffffffffffff16815260200190815260200160002060008381526020019081526020016000206000905550505050565b600060016009805490506124e091906138cd565b90506000600a6000848152602001908152602001600020549050600060098381548110612536577f4e487b7100000000000000000000000000000000000000000000000000000000600052603260045260246000fd5b90600052602060002001549050806009838154811061257e577f4e487b7100000000000000000000000000000000000000000000000000000000600052603260045260246000fd5b906000526020600020018190555081600a600083815260200190815260200160002081905550600a60008581526020019081526020016000206000905560098054806125f3577f4e487b7100000000000000000000000000000000000000000000000000000000600052603160045260246000fd5b6001900381819060005260206000200160009055905550505050565b600061261a83610c92565b905081600760008573ffffffffffffffffffffffffffffffffffffffff1673ffffffffffffffffffffffffffffffffffffffff168152602001908152602001600020600083815260200190815260200160002081905550806008600084815260200190815260200160002081905550505050565b82805461269a906139b7565b90600052602060002090601f0160209004810192826126bc5760008555612703565b82601f106126d557805160ff1916838001178555612703565b82800160010185558215612703579182015b828111156127025782518255916020019190600101906126e7565b5b5090506127109190612714565b5090565b5b8082111561272d576000816000905550600101612715565b5090565b600061274461273f846137a3565b613772565b90508281526020810184848401111561275c57600080fd5b612767848285613975565b509392505050565b600061278261277d846137d3565b613772565b90508281526020810184848401111561279a57600080fd5b6127a5848285613975565b509392505050565b6000813590506127bc81613b6b565b92915050565b6000813590506127d181613b82565b92915050565b6000813590506127e681613b99565b92915050565b6000815190506127fb81613b99565b92915050565b600082601f83011261281257600080fd5b8135612822848260208601612731565b91505092915050565b600082601f83011261283c57600080fd5b813561284c84826020860161276f565b91505092915050565b60008135905061286481613bb0565b92915050565b60006020828403121561287c57600080fd5b600061288a848285016127ad565b91505092915050565b600080604083850312156128a657600080fd5b60006128b4858286016127ad565b92505060206128c5858286016127ad565b9150509250929050565b6000806000606084860312156128e457600080fd5b60006128f2868287016127ad565b9350506020612903868287016127ad565b925050604061291486828701612855565b9150509250925092565b6000806000806080858703121561293457600080fd5b6000612942878288016127ad565b9450506020612953878288016127ad565b935050604061296487828801612855565b925050606085013567ffffffffffffffff81111561298157600080fd5b61298d87828801612801565b91505092959194509250565b600080604083850312156129ac57600080fd5b60006129ba858286016127ad565b92505060206129cb858286016127c2565b9150509250929050565b60008060008060008060c087890312156129ee57600080fd5b60006129fc89828a016127ad565b965050602087013567ffffffffffffffff811115612a1957600080fd5b612a2589828a0161282b565b955050604087013567ffffffffffffffff811115612a4257600080fd5b612a4e89828a0161282b565b945050606087013567ffffffffffffffff811115612a6b57600080fd5b612a7789828a0161282b565b9350506080612a8889828a01612855565b92505060a0612a9989828a01612855565b9150509295509295509295565b60008060408385031215612ab957600080fd5b6000612ac7858286016127ad565b9250506020612ad885828601612855565b9150509250929050565b600060208284031215612af457600080fd5b6000612b02848285016127d7565b91505092915050565b600060208284031215612b1d57600080fd5b6000612b2b848285016127ec565b91505092915050565b600060208284031215612b4657600080fd5b6000612b5484828501612855565b91505092915050565b612b6681613901565b82525050565b612b7d612b7882613901565b613a32565b82525050565b612b8c81613913565b82525050565b6000612b9d82613803565b612ba78185613819565b9350612bb7818560208601613984565b612bc081613b4d565b840191505092915050565b6000612bd68261380e565b612be0818561382a565b9350612bf0818560208601613984565b612bf981613b4d565b840191505092915050565b6000612c0f8261380e565b612c19818561383b565b9350612c29818560208601613984565b80840191505092915050565b6000612c42602b8361382a565b91507f455243373231456e756d657261626c653a206f776e657220696e646578206f7560008301527f74206f6620626f756e64730000000000000000000000000000000000000000006020830152604082019050919050565b6000612ca860328361382a565b91507f4552433732313a207472616e7366657220746f206e6f6e20455243373231526560008301527f63656976657220696d706c656d656e74657200000000000000000000000000006020830152604082019050919050565b6000612d0e60268361382a565b91507f4f776e61626c653a206e6577206f776e657220697320746865207a65726f206160008301527f64647265737300000000000000000000000000000000000000000000000000006020830152604082019050919050565b6000612d74601c8361382a565b91507f4552433732313a20746f6b656e20616c7265616479206d696e746564000000006000830152602082019050919050565b6000612db460248361382a565b91507f4552433732313a207472616e7366657220746f20746865207a65726f2061646460008301527f72657373000000000000000000000000000000000000000000000000000000006020830152604082019050919050565b6000612e1a60198361382a565b91507f4552433732313a20617070726f766520746f2063616c6c6572000000000000006000830152602082019050919050565b6000612e5a602c8361382a565b91507f4552433732313a206f70657261746f7220717565727920666f72206e6f6e657860008301527f697374656e7420746f6b656e00000000000000000000000000000000000000006020830152604082019050919050565b6000612ec060388361382a565b91507f4552433732313a20617070726f76652063616c6c6572206973206e6f74206f7760008301527f6e6572206e6f7220617070726f76656420666f7220616c6c00000000000000006020830152604082019050919050565b6000612f26602a8361382a565b91507f4552433732313a2062616c616e636520717565727920666f7220746865207a6560008301527f726f2061646472657373000000000000000000000000000000000000000000006020830152604082019050919050565b6000612f8c60298361382a565b91507f4552433732313a206f776e657220717565727920666f72206e6f6e657869737460008301527f656e7420746f6b656e00000000000000000000000000000000000000000000006020830152604082019050919050565b6000612ff260208361382a565b91507f4552433732313a206d696e7420746f20746865207a65726f20616464726573736000830152602082019050919050565b6000613032602c8361382a565b91507f4552433732313a20617070726f76656420717565727920666f72206e6f6e657860008301527f697374656e7420746f6b656e00000000000000000000000000000000000000006020830152604082019050919050565b600061309860208361382a565b91507f4f776e61626c653a2063616c6c6572206973206e6f7420746865206f776e65726000830152602082019050919050565b60006130d860298361382a565b91507f4552433732313a207472616e73666572206f6620746f6b656e2074686174206960008301527f73206e6f74206f776e00000000000000000000000000000000000000000000006020830152604082019050919050565b600061313e602f8361382a565b91507f4552433732314d657461646174613a2055524920717565727920666f72206e6f60008301527f6e6578697374656e7420746f6b656e00000000000000000000000000000000006020830152604082019050919050565b60006131a460218361382a565b91507f4552433732313a20617070726f76616c20746f2063757272656e74206f776e6560008301527f72000000000000000000000000000000000000000000000000000000000000006020830152604082019050919050565b600061320a60318361382a565b91507f4552433732313a207472616e736665722063616c6c6572206973206e6f74206f60008301527f776e6572206e6f7220617070726f7665640000000000000000000000000000006020830152604082019050919050565b6000613270602c8361382a565b91507f455243373231456e756d657261626c653a20676c6f62616c20696e646578206f60008301527f7574206f6620626f756e647300000000000000000000000000000000000000006020830152604082019050919050565b60006132d660248361382a565b91507f4e46545f466163746f72793a2054686973206861736820657869737420616c7260008301527f65616479000000000000000000000000000000000000000000000000000000006020830152604082019050919050565b6133388161396b565b82525050565b61334f61334a8261396b565b613a56565b82525050565b60006133618285612c04565b915061336d8284612c04565b91508190509392505050565b60006133858289612c04565b91506133918288612c04565b915061339d8287612c04565b91506133a9828661333e565b6020820191506133b9828561333e565b6020820191506133c98284612b6c565b601482019150819050979650505050505050565b60006020820190506133f26000830184612b5d565b92915050565b600060808201905061340d6000830187612b5d565b61341a6020830186612b5d565b613427604083018561332f565b81810360608301526134398184612b92565b905095945050505050565b60006020820190506134596000830184612b83565b92915050565b600060208201905081810360008301526134798184612bcb565b905092915050565b600060c082019050818103600083015261349b8189612bcb565b905081810360208301526134af8188612bcb565b905081810360408301526134c38187612bcb565b90506134d2606083018661332f565b6134df608083018561332f565b6134ec60a0830184612b5d565b979650505050505050565b6000602082019050818103600083015261351081612c35565b9050919050565b6000602082019050818103600083015261353081612c9b565b9050919050565b6000602082019050818103600083015261355081612d01565b9050919050565b6000602082019050818103600083015261357081612d67565b9050919050565b6000602082019050818103600083015261359081612da7565b9050919050565b600060208201905081810360008301526135b081612e0d565b9050919050565b600060208201905081810360008301526135d081612e4d565b9050919050565b600060208201905081810360008301526135f081612eb3565b9050919050565b6000602082019050818103600083015261361081612f19565b9050919050565b6000602082019050818103600083015261363081612f7f565b9050919050565b6000602082019050818103600083015261365081612fe5565b9050919050565b6000602082019050818103600083015261367081613025565b9050919050565b600060208201905081810360008301526136908161308b565b9050919050565b600060208201905081810360008301526136b0816130cb565b9050919050565b600060208201905081810360008301526136d081613131565b9050919050565b600060208201905081810360008301526136f081613197565b9050919050565b60006020820190508181036000830152613710816131fd565b9050919050565b6000602082019050818103600083015261373081613263565b9050919050565b60006020820190508181036000830152613750816132c9565b9050919050565b600060208201905061376c600083018461332f565b92915050565b6000604051905081810181811067ffffffffffffffff8211171561379957613798613b1e565b5b8060405250919050565b600067ffffffffffffffff8211156137be576137bd613b1e565b5b601f19601f8301169050602081019050919050565b600067ffffffffffffffff8211156137ee576137ed613b1e565b5b601f19601f8301169050602081019050919050565b600081519050919050565b600081519050919050565b600082825260208201905092915050565b600082825260208201905092915050565b600081905092915050565b60006138518261396b565b915061385c8361396b565b9250827fffffffffffffffffffffffffffffffffffffffffffffffffffffffffffffffff0382111561389157613890613a91565b5b828201905092915050565b60006138a78261396b565b91506138b28361396b565b9250826138c2576138c1613ac0565b5b828204905092915050565b60006138d88261396b565b91506138e38361396b565b9250828210156138f6576138f5613a91565b5b828203905092915050565b600061390c8261394b565b9050919050565b60008115159050919050565b60007fffffffff0000000000000000000000000000000000000000000000000000000082169050919050565b600073ffffffffffffffffffffffffffffffffffffffff82169050919050565b6000819050919050565b82818337600083830152505050565b60005b838110156139a2578082015181840152602081019050613987565b838111156139b1576000848401525b50505050565b600060028204905060018216806139cf57607f821691505b602082108114156139e3576139e2613aef565b5b50919050565b60006139f48261396b565b91507fffffffffffffffffffffffffffffffffffffffffffffffffffffffffffffffff821415613a2757613a26613a91565b5b600182019050919050565b6000613a3d82613a44565b9050919050565b6000613a4f82613b5e565b9050919050565b6000819050919050565b6000613a6b8261396b565b9150613a768361396b565b925082613a8657613a85613ac0565b5b828206905092915050565b7f4e487b7100000000000000000000000000000000000000000000000000000000600052601160045260246000fd5b7f4e487b7100000000000000000000000000000000000000000000000000000000600052601260045260246000fd5b7f4e487b7100000000000000000000000000000000000000000000000000000000600052602260045260246000fd5b7f4e487b7100000000000000000000000000000000000000000000000000000000600052604160045260246000fd5b6000601f19601f8301169050919050565b60008160601b9050919050565b613b7481613901565b8114613b7f57600080fd5b50565b613b8b81613913565b8114613b9657600080fd5b50565b613ba28161391f565b8114613bad57600080fd5b50565b613bb98161396b565b8114613bc457600080fd5b5056fea26469706673582212205f7e0e182c056a29caebae459f6c6a19122fb6936321e0e41dbdeef56fb166cf64736f6c63430008000033",
  "immutableReferences": {},
  "source": "// SPDX-License-Identifier: MIT\npragma solidity ^0.8.0;\n\n/** @title NFT_FACTORY\n    @author Pedro Yuris Machado Leiva\n    @notice Smart Contract to mint NFTs that represent a real factoring invoices \n    @custom:company Reserva Food System\n    @custom:addressMumbai 0x5673a930Da6dB358E86B532d9d1B3941c5F64Aa3\n*/\n\nimport \"@openzeppelin/contracts/token/ERC721/ERC721.sol\";\nimport \"@openzeppelin/contracts/token/ERC721/extensions/ERC721Enumerable.sol\";\nimport \"@openzeppelin/contracts/access/Ownable.sol\";\n\ncontract NFT_FACTORY is ERC721, Ownable, ERC721Enumerable {\n\n/// @dev NFT's properties and validation system for each NFT minted. \n\n    struct DATA_INVOICE {\n        string name;\n        string description;\n        string dataCustumer;\n        uint256 valueOfNFT;\n        uint256 balanceAdvance;\n        address seller;\n        bytes32 invoiceHash;\n    }\n    \n    DATA_INVOICE[] private _dataInvoices;\n    \n    mapping (bytes32 => uint256) private _hashTokenId;\n    mapping (bytes32 => bool) private _hashExist;\n\n    constructor() ERC721(\"Decentralized Invoice Factoring\", \"DIF\") {}\n\n/// @dev The following functions are overrides required by Solidity.\n\n    function _beforeTokenTransfer(address from, address to, uint256 tokenId)\n        internal\n        override(ERC721, ERC721Enumerable)\n    {\n        super._beforeTokenTransfer(from, to, tokenId);\n    }\n\n\n    function supportsInterface(bytes4 interfaceId)\n        public\n        view\n        override(ERC721, ERC721Enumerable)\n        returns (bool)\n    {\n        return super.supportsInterface(interfaceId);\n    }\n\n/// @dev Private function to assemble one NFT and @return a single id for each token minted.\n\n    function _assemble( string memory _name,\n                        string memory _description,\n                        string memory _dataCustumer, \n                        uint256 _valueOfNFT, \n                        uint256 _balanceAdvance,\n                        address _seller, \n                        bytes32 _invoiceHash) private returns(uint256) {\n                            _dataInvoices.push(DATA_INVOICE(\n                                _name,\n                                _description,\n                                _dataCustumer, \n                                _valueOfNFT,\n                                _balanceAdvance,\n                                _seller,\n                                _invoiceHash));\n                        uint256 id = _dataInvoices.length - 1;\n                        return id;\n                       }\n\n/// @dev Mint a new NFT to recipient\n\n    function createInvoice(\n        address _recipient,\n        string memory _name,\n        string memory _description,\n        string memory _dataCustumer,\n        uint256 _valueOfNFT,\n        uint256 _balanceAdvance) external onlyOwner() {\n            \n         bytes32 invoiceHash = keccak256(abi.encodePacked(_name, _description, _dataCustumer, _valueOfNFT, _balanceAdvance, _recipient)); \n         require(! _hashExist[invoiceHash], \"NFT_Factory: This hash exist already\");\n         _hashExist[invoiceHash] = true;\n         uint256 newItemId = _assemble(\n                          _name,\n                          _description,\n                          _dataCustumer,\n                          _valueOfNFT,\n                          _balanceAdvance,\n                          _recipient,\n                          invoiceHash);\n        _mint(_recipient, newItemId);    \n\n        }\n\n/// @dev Insert tokenId @param and the function @return all data attached at this token\n\n    function getData(uint256 tokenId) public view returns(string memory name, string memory description, string memory dataCustumer, uint256 valueOfNFT, uint256 balanceAdvance, address seller) {\n        name =_dataInvoices[tokenId].name;\n        description = _dataInvoices[tokenId].description;\n        dataCustumer = _dataInvoices[tokenId].dataCustumer;\n        valueOfNFT = _dataInvoices[tokenId].valueOfNFT;\n        balanceAdvance = _dataInvoices[tokenId].balanceAdvance;\n        seller = _dataInvoices[tokenId].seller;\n    }\n \n}",
  "sourcePath": "/home/peter/Documents/Reserva/0-Reservafs/Proyectos/DIF_PROJECT/Code/DIFonBlockchain_Enumerable/contracts/NFT_FACTORY.sol",
  "compiler": {
    "name": "solc",
    "version": "0.8.0+commit.c7dfd78e.Emscripten.clang"
  },
  "schemaVersion": "3.4.3",
  "updatedAt": "2021-10-24T02:59:48.812Z",
  "networkType": "ethereum",
  "devdoc": {
    "kind": "dev",
    "methods": {
      "approve(address,uint256)": {
        "details": "See {IERC721-approve}."
      },
      "balanceOf(address)": {
        "details": "See {IERC721-balanceOf}."
      },
      "createInvoice(address,string,string,string,uint256,uint256)": {
        "details": "Mint a new NFT to recipient"
      },
      "getApproved(uint256)": {
        "details": "See {IERC721-getApproved}."
      },
      "getData(uint256)": {
        "details": "Insert tokenId @param and the function @return all data attached at this token"
      },
      "isApprovedForAll(address,address)": {
        "details": "See {IERC721-isApprovedForAll}."
      },
      "name()": {
        "details": "See {IERC721Metadata-name}."
      },
      "owner()": {
        "details": "Returns the address of the current owner."
      },
      "ownerOf(uint256)": {
        "details": "See {IERC721-ownerOf}."
      },
      "renounceOwnership()": {
        "details": "Leaves the contract without owner. It will not be possible to call `onlyOwner` functions anymore. Can only be called by the current owner. NOTE: Renouncing ownership will leave the contract without an owner, thereby removing any functionality that is only available to the owner."
      },
      "safeTransferFrom(address,address,uint256)": {
        "details": "See {IERC721-safeTransferFrom}."
      },
      "safeTransferFrom(address,address,uint256,bytes)": {
        "details": "See {IERC721-safeTransferFrom}."
      },
      "setApprovalForAll(address,bool)": {
        "details": "See {IERC721-setApprovalForAll}."
      },
      "symbol()": {
        "details": "See {IERC721Metadata-symbol}."
      },
      "tokenByIndex(uint256)": {
        "details": "See {IERC721Enumerable-tokenByIndex}."
      },
      "tokenOfOwnerByIndex(address,uint256)": {
        "details": "See {IERC721Enumerable-tokenOfOwnerByIndex}."
      },
      "tokenURI(uint256)": {
        "details": "See {IERC721Metadata-tokenURI}."
      },
      "totalSupply()": {
        "details": "See {IERC721Enumerable-totalSupply}."
      },
      "transferFrom(address,address,uint256)": {
        "details": "See {IERC721-transferFrom}."
      },
      "transferOwnership(address)": {
        "details": "Transfers ownership of the contract to a new account (`newOwner`). Can only be called by the current owner."
      }
    },
    "version": 1
  },
  "userdoc": {
    "kind": "user",
    "methods": {},
    "version": 1
  }
}