{
  "contractName": "NFT_FACTORY",
  "abi": [
    {
      "inputs": [],
      "stateMutability": "nonpayable",
      "type": "constructor"
    },
    {
      "anonymous": false,
      "inputs": [
        {
          "indexed": true,
          "internalType": "address",
          "name": "owner",
          "type": "address"
        },
        {
          "indexed": true,
          "internalType": "address",
          "name": "approved",
          "type": "address"
        },
        {
          "indexed": true,
          "internalType": "uint256",
          "name": "tokenId",
          "type": "uint256"
        }
      ],
      "name": "Approval",
      "type": "event"
    },
    {
      "anonymous": false,
      "inputs": [
        {
          "indexed": true,
          "internalType": "address",
          "name": "owner",
          "type": "address"
        },
        {
          "indexed": true,
          "internalType": "address",
          "name": "operator",
          "type": "address"
        },
        {
          "indexed": false,
          "internalType": "bool",
          "name": "approved",
          "type": "bool"
        }
      ],
      "name": "ApprovalForAll",
      "type": "event"
    },
    {
      "anonymous": false,
      "inputs": [
        {
          "indexed": true,
          "internalType": "address",
          "name": "previousOwner",
          "type": "address"
        },
        {
          "indexed": true,
          "internalType": "address",
          "name": "newOwner",
          "type": "address"
        }
      ],
      "name": "OwnershipTransferred",
      "type": "event"
    },
    {
      "anonymous": false,
      "inputs": [
        {
          "indexed": true,
          "internalType": "int128",
          "name": "newRatio",
          "type": "int128"
        }
      ],
      "name": "RATIOCHANGED",
      "type": "event"
    },
    {
      "anonymous": false,
      "inputs": [
        {
          "indexed": true,
          "internalType": "address",
          "name": "from",
          "type": "address"
        },
        {
          "indexed": true,
          "internalType": "address",
          "name": "to",
          "type": "address"
        },
        {
          "indexed": true,
          "internalType": "uint256",
          "name": "tokenId",
          "type": "uint256"
        }
      ],
      "name": "Transfer",
      "type": "event"
    },
    {
      "inputs": [
        {
          "internalType": "address",
          "name": "to",
          "type": "address"
        },
        {
          "internalType": "uint256",
          "name": "tokenId",
          "type": "uint256"
        }
      ],
      "name": "approve",
      "outputs": [],
      "stateMutability": "nonpayable",
      "type": "function"
    },
    {
      "inputs": [
        {
          "internalType": "address",
          "name": "owner",
          "type": "address"
        }
      ],
      "name": "balanceOf",
      "outputs": [
        {
          "internalType": "uint256",
          "name": "",
          "type": "uint256"
        }
      ],
      "stateMutability": "view",
      "type": "function"
    },
    {
      "inputs": [],
      "name": "dailyInterestRUSD",
      "outputs": [
        {
          "internalType": "uint256",
          "name": "",
          "type": "uint256"
        }
      ],
      "stateMutability": "view",
      "type": "function"
    },
    {
      "inputs": [
        {
          "internalType": "uint256",
          "name": "tokenId",
          "type": "uint256"
        }
      ],
      "name": "getApproved",
      "outputs": [
        {
          "internalType": "address",
          "name": "",
          "type": "address"
        }
      ],
      "stateMutability": "view",
      "type": "function"
    },
    {
      "inputs": [
        {
          "internalType": "address",
          "name": "owner",
          "type": "address"
        },
        {
          "internalType": "address",
          "name": "operator",
          "type": "address"
        }
      ],
      "name": "isApprovedForAll",
      "outputs": [
        {
          "internalType": "bool",
          "name": "",
          "type": "bool"
        }
      ],
      "stateMutability": "view",
      "type": "function"
    },
    {
      "inputs": [],
      "name": "name",
      "outputs": [
        {
          "internalType": "string",
          "name": "",
          "type": "string"
        }
      ],
      "stateMutability": "view",
      "type": "function"
    },
    {
      "inputs": [],
      "name": "owner",
      "outputs": [
        {
          "internalType": "address",
          "name": "",
          "type": "address"
        }
      ],
      "stateMutability": "view",
      "type": "function"
    },
    {
      "inputs": [
        {
          "internalType": "uint256",
          "name": "tokenId",
          "type": "uint256"
        }
      ],
      "name": "ownerOf",
      "outputs": [
        {
          "internalType": "address",
          "name": "",
          "type": "address"
        }
      ],
      "stateMutability": "view",
      "type": "function"
    },
    {
      "inputs": [],
      "name": "renounceOwnership",
      "outputs": [],
      "stateMutability": "nonpayable",
      "type": "function"
    },
    {
      "inputs": [
        {
          "internalType": "address",
          "name": "from",
          "type": "address"
        },
        {
          "internalType": "address",
          "name": "to",
          "type": "address"
        },
        {
          "internalType": "uint256",
          "name": "tokenId",
          "type": "uint256"
        }
      ],
      "name": "safeTransferFrom",
      "outputs": [],
      "stateMutability": "nonpayable",
      "type": "function"
    },
    {
      "inputs": [
        {
          "internalType": "address",
          "name": "from",
          "type": "address"
        },
        {
          "internalType": "address",
          "name": "to",
          "type": "address"
        },
        {
          "internalType": "uint256",
          "name": "tokenId",
          "type": "uint256"
        },
        {
          "internalType": "bytes",
          "name": "_data",
          "type": "bytes"
        }
      ],
      "name": "safeTransferFrom",
      "outputs": [],
      "stateMutability": "nonpayable",
      "type": "function"
    },
    {
      "inputs": [
        {
          "internalType": "address",
          "name": "operator",
          "type": "address"
        },
        {
          "internalType": "bool",
          "name": "approved",
          "type": "bool"
        }
      ],
      "name": "setApprovalForAll",
      "outputs": [],
      "stateMutability": "nonpayable",
      "type": "function"
    },
    {
      "inputs": [],
      "name": "symbol",
      "outputs": [
        {
          "internalType": "string",
          "name": "",
          "type": "string"
        }
      ],
      "stateMutability": "view",
      "type": "function"
    },
    {
      "inputs": [
        {
          "internalType": "uint256",
          "name": "index",
          "type": "uint256"
        }
      ],
      "name": "tokenByIndex",
      "outputs": [
        {
          "internalType": "uint256",
          "name": "",
          "type": "uint256"
        }
      ],
      "stateMutability": "view",
      "type": "function"
    },
    {
      "inputs": [
        {
          "internalType": "address",
          "name": "owner",
          "type": "address"
        },
        {
          "internalType": "uint256",
          "name": "index",
          "type": "uint256"
        }
      ],
      "name": "tokenOfOwnerByIndex",
      "outputs": [
        {
          "internalType": "uint256",
          "name": "",
          "type": "uint256"
        }
      ],
      "stateMutability": "view",
      "type": "function"
    },
    {
      "inputs": [
        {
          "internalType": "uint256",
          "name": "tokenId",
          "type": "uint256"
        }
      ],
      "name": "tokenURI",
      "outputs": [
        {
          "internalType": "string",
          "name": "",
          "type": "string"
        }
      ],
      "stateMutability": "view",
      "type": "function"
    },
    {
      "inputs": [],
      "name": "totalSupply",
      "outputs": [
        {
          "internalType": "uint256",
          "name": "",
          "type": "uint256"
        }
      ],
      "stateMutability": "view",
      "type": "function"
    },
    {
      "inputs": [
        {
          "internalType": "address",
          "name": "from",
          "type": "address"
        },
        {
          "internalType": "address",
          "name": "to",
          "type": "address"
        },
        {
          "internalType": "uint256",
          "name": "tokenId",
          "type": "uint256"
        }
      ],
      "name": "transferFrom",
      "outputs": [],
      "stateMutability": "nonpayable",
      "type": "function"
    },
    {
      "inputs": [
        {
          "internalType": "address",
          "name": "newOwner",
          "type": "address"
        }
      ],
      "name": "transferOwnership",
      "outputs": [],
      "stateMutability": "nonpayable",
      "type": "function"
    },
    {
      "inputs": [
        {
          "internalType": "bytes4",
          "name": "interfaceId",
          "type": "bytes4"
        }
      ],
      "name": "supportsInterface",
      "outputs": [
        {
          "internalType": "bool",
          "name": "",
          "type": "bool"
        }
      ],
      "stateMutability": "view",
      "type": "function"
    },
    {
      "inputs": [
        {
          "internalType": "address",
          "name": "",
          "type": "address"
        },
        {
          "internalType": "address",
          "name": "",
          "type": "address"
        },
        {
          "internalType": "uint256",
          "name": "",
          "type": "uint256"
        },
        {
          "internalType": "bytes",
          "name": "",
          "type": "bytes"
        }
      ],
      "name": "onERC721Received",
      "outputs": [
        {
          "internalType": "bytes4",
          "name": "",
          "type": "bytes4"
        }
      ],
      "stateMutability": "nonpayable",
      "type": "function"
    },
    {
      "inputs": [
        {
          "components": [
            {
              "internalType": "string",
              "name": "dataCustumer",
              "type": "string"
            },
            {
              "internalType": "uint256",
              "name": "valueOfNFT",
              "type": "uint256"
            },
            {
              "internalType": "uint256",
              "name": "balanceAdvance",
              "type": "uint256"
            },
            {
              "internalType": "uint256",
              "name": "dateOverDue",
              "type": "uint256"
            },
            {
              "internalType": "int128",
              "name": "interestRate",
              "type": "int128"
            },
            {
              "internalType": "int128",
              "name": "interestRateOverDue",
              "type": "int128"
            },
            {
              "internalType": "address",
              "name": "seller",
              "type": "address"
            }
          ],
          "internalType": "struct NFT_FACTORY.DATA_INVOICE",
          "name": "_invoice",
          "type": "tuple"
        }
      ],
      "name": "createInvoice",
      "outputs": [
        {
          "internalType": "bool",
          "name": "",
          "type": "bool"
        }
      ],
      "stateMutability": "nonpayable",
      "type": "function"
    },
    {
      "inputs": [
        {
          "internalType": "uint256",
          "name": "tokenId",
          "type": "uint256"
        }
      ],
      "name": "destroyNFT",
      "outputs": [
        {
          "internalType": "bool",
          "name": "",
          "type": "bool"
        }
      ],
      "stateMutability": "nonpayable",
      "type": "function"
    },
    {
      "inputs": [
        {
          "internalType": "uint256",
          "name": "tokenId",
          "type": "uint256"
        }
      ],
      "name": "getData",
      "outputs": [
        {
          "internalType": "string",
          "name": "dataCustumer",
          "type": "string"
        },
        {
          "internalType": "uint256",
          "name": "valueOfNFT",
          "type": "uint256"
        },
        {
          "internalType": "uint256",
          "name": "balanceAdvance",
          "type": "uint256"
        },
        {
          "internalType": "uint256",
          "name": "dateOverDue",
          "type": "uint256"
        },
        {
          "internalType": "int128",
          "name": "interestRate",
          "type": "int128"
        },
        {
          "internalType": "int128",
          "name": "interestRateOverDue",
          "type": "int128"
        },
        {
          "internalType": "address",
          "name": "seller",
          "type": "address"
        }
      ],
      "stateMutability": "view",
      "type": "function"
    }
  ],
  "bytecode": "0x60806040523480156200001157600080fd5b506040518060400160405280601f81526020017f446563656e7472616c697a656420496e766f69636520466163746f72696e67008152506040518060400160405280600381526020017f4449460000000000000000000000000000000000000000000000000000000000815250816000908051906020019062000096929190620001a6565b508060019080519060200190620000af929190620001a6565b505050620000d2620000c6620000d860201b60201c565b620000e060201b60201c565b620002bb565b600033905090565b6000600660009054906101000a900473ffffffffffffffffffffffffffffffffffffffff16905081600660006101000a81548173ffffffffffffffffffffffffffffffffffffffff021916908373ffffffffffffffffffffffffffffffffffffffff1602179055508173ffffffffffffffffffffffffffffffffffffffff168173ffffffffffffffffffffffffffffffffffffffff167f8be0079c531659141344cd1fd0a4f28419497f9722a3daafe3b4186f6b6457e060405160405180910390a35050565b828054620001b49062000256565b90600052602060002090601f016020900481019282620001d8576000855562000224565b82601f10620001f357805160ff191683800117855562000224565b8280016001018555821562000224579182015b828111156200022357825182559160200191906001019062000206565b5b50905062000233919062000237565b5090565b5b808211156200025257600081600090555060010162000238565b5090565b600060028204905060018216806200026f57607f821691505b602082108114156200028657620002856200028c565b5b50919050565b7f4e487b7100000000000000000000000000000000000000000000000000000000600052602260045260246000fd5b6152fe80620002cb6000396000f3fe608060405234801561001057600080fd5b50600436106101585760003560e01c806370a08231116100c3578063c40412b51161007c578063c40412b5146103f1578063c87b56dd14610421578063dd036e6314610451578063e985e9c51461046f578063f246d8851461049f578063f2fde38b146104cf57610158565b806370a0823114610343578063715018a6146103735780638da5cb5b1461037d57806395d89b411461039b578063a22cb465146103b9578063b88d4fde146103d557610158565b806318160ddd1161011557806318160ddd1461025d57806323b872dd1461027b5780632f745c591461029757806342842e0e146102c75780634f6ccce7146102e35780636352211e1461031357610158565b80630178fe3f1461015d57806301ffc9a71461019357806306fdde03146101c3578063081812fc146101e1578063095ea7b314610211578063150b7a021461022d575b600080fd5b61017760048036038101906101729190614189565b6104eb565b60405161018a9796959493929190614b3f565b60405180910390f35b6101ad60048036038101906101a891906140f6565b6107e5565b6040516101ba9190614ae7565b60405180910390f35b6101cb6107f7565b6040516101d89190614b1d565b60405180910390f35b6101fb60048036038101906101f69190614189565b610889565b6040516102089190614a80565b60405180910390f35b61022b600480360381019061022691906140ba565b61090e565b005b61024760048036038101906102429190614003565b610a26565b6040516102549190614b02565b60405180910390f35b610265610a3a565b6040516102729190614e15565b60405180910390f35b61029560048036038101906102909190613fb4565b610a47565b005b6102b160048036038101906102ac91906140ba565b610aa7565b6040516102be9190614e15565b60405180910390f35b6102e160048036038101906102dc9190613fb4565b610b4c565b005b6102fd60048036038101906102f89190614189565b610b6c565b60405161030a9190614e15565b60405180910390f35b61032d60048036038101906103289190614189565b610c03565b60405161033a9190614a80565b60405180910390f35b61035d60048036038101906103589190613f4f565b610cb5565b60405161036a9190614e15565b60405180910390f35b61037b610d6d565b005b610385610df5565b6040516103929190614a80565b60405180910390f35b6103a3610e1f565b6040516103b09190614b1d565b60405180910390f35b6103d360048036038101906103ce919061407e565b610eb1565b005b6103ef60048036038101906103ea9190614003565b611032565b005b61040b60048036038101906104069190614189565b611094565b6040516104189190614ae7565b60405180910390f35b61043b60048036038101906104369190614189565b611239565b6040516104489190614b1d565b60405180910390f35b6104596112e0565b6040516104669190614e15565b60405180910390f35b61048960048036038101906104849190613f78565b6112e6565b6040516104969190614ae7565b60405180910390f35b6104b960048036038101906104b49190614148565b61137a565b6040516104c69190614ae7565b60405180910390f35b6104e960048036038101906104e49190613f4f565b611511565b005b6060600080600080600080600c8881548110610530577f4e487b7100000000000000000000000000000000000000000000000000000000600052603260045260246000fd5b9060005260206000209060060201600001805461054c90615082565b80601f016020809104026020016040519081016040528092919081815260200182805461057890615082565b80156105c55780601f1061059a576101008083540402835291602001916105c5565b820191906000526020600020905b8154815290600101906020018083116105a857829003601f168201915b50505050509650600c8881548110610606577f4e487b7100000000000000000000000000000000000000000000000000000000600052603260045260246000fd5b9060005260206000209060060201600101549550600c8881548110610654577f4e487b7100000000000000000000000000000000000000000000000000000000600052603260045260246000fd5b9060005260206000209060060201600201549450600c88815481106106a2577f4e487b7100000000000000000000000000000000000000000000000000000000600052603260045260246000fd5b9060005260206000209060060201600301549350600c88815481106106f0577f4e487b7100000000000000000000000000000000000000000000000000000000600052603260045260246000fd5b906000526020600020906006020160040160009054906101000a9004600f0b9250600c888154811061074b577f4e487b7100000000000000000000000000000000000000000000000000000000600052603260045260246000fd5b906000526020600020906006020160040160109054906101000a9004600f0b9150600c88815481106107a6577f4e487b7100000000000000000000000000000000000000000000000000000000600052603260045260246000fd5b906000526020600020906006020160050160009054906101000a900473ffffffffffffffffffffffffffffffffffffffff169050919395979092949650565b60006107f082611609565b9050919050565b60606000805461080690615082565b80601f016020809104026020016040519081016040528092919081815260200182805461083290615082565b801561087f5780601f106108545761010080835404028352916020019161087f565b820191906000526020600020905b81548152906001019060200180831161086257829003601f168201915b5050505050905090565b600061089482611683565b6108d3576040517f08c379a00000000000000000000000000000000000000000000000000000000081526004016108ca90614d15565b60405180910390fd5b6004600083815260200190815260200160002060009054906101000a900473ffffffffffffffffffffffffffffffffffffffff169050919050565b600061091982610c03565b90508073ffffffffffffffffffffffffffffffffffffffff168373ffffffffffffffffffffffffffffffffffffffff16141561098a576040517f08c379a000000000000000000000000000000000000000000000000000000000815260040161098190614d95565b60405180910390fd5b8073ffffffffffffffffffffffffffffffffffffffff166109a96116ef565b73ffffffffffffffffffffffffffffffffffffffff1614806109d857506109d7816109d26116ef565b6112e6565b5b610a17576040517f08c379a0000000000000000000000000000000000000000000000000000000008152600401610a0e90614c95565b60405180910390fd5b610a2183836116f7565b505050565b600063150b7a0260e01b9050949350505050565b6000600980549050905090565b610a58610a526116ef565b826117b0565b610a97576040517f08c379a0000000000000000000000000000000000000000000000000000000008152600401610a8e90614db5565b60405180910390fd5b610aa283838361188e565b505050565b6000610ab283610cb5565b8210610af3576040517f08c379a0000000000000000000000000000000000000000000000000000000008152600401610aea90614bb5565b60405180910390fd5b600760008473ffffffffffffffffffffffffffffffffffffffff1673ffffffffffffffffffffffffffffffffffffffff168152602001908152602001600020600083815260200190815260200160002054905092915050565b610b6783838360405180602001604052806000815250611032565b505050565b6000610b76610a3a565b8210610bb7576040517f08c379a0000000000000000000000000000000000000000000000000000000008152600401610bae90614dd5565b60405180910390fd5b60098281548110610bf1577f4e487b7100000000000000000000000000000000000000000000000000000000600052603260045260246000fd5b90600052602060002001549050919050565b6000806002600084815260200190815260200160002060009054906101000a900473ffffffffffffffffffffffffffffffffffffffff169050600073ffffffffffffffffffffffffffffffffffffffff168173ffffffffffffffffffffffffffffffffffffffff161415610cac576040517f08c379a0000000000000000000000000000000000000000000000000000000008152600401610ca390614cd5565b60405180910390fd5b80915050919050565b60008073ffffffffffffffffffffffffffffffffffffffff168273ffffffffffffffffffffffffffffffffffffffff161415610d26576040517f08c379a0000000000000000000000000000000000000000000000000000000008152600401610d1d90614cb5565b60405180910390fd5b600360008373ffffffffffffffffffffffffffffffffffffffff1673ffffffffffffffffffffffffffffffffffffffff168152602001908152602001600020549050919050565b610d756116ef565b73ffffffffffffffffffffffffffffffffffffffff16610d93610df5565b73ffffffffffffffffffffffffffffffffffffffff1614610de9576040517f08c379a0000000000000000000000000000000000000000000000000000000008152600401610de090614d35565b60405180910390fd5b610df36000611aea565b565b6000600660009054906101000a900473ffffffffffffffffffffffffffffffffffffffff16905090565b606060018054610e2e90615082565b80601f0160208091040260200160405190810160405280929190818152602001828054610e5a90615082565b8015610ea75780601f10610e7c57610100808354040283529160200191610ea7565b820191906000526020600020905b815481529060010190602001808311610e8a57829003601f168201915b5050505050905090565b610eb96116ef565b73ffffffffffffffffffffffffffffffffffffffff168273ffffffffffffffffffffffffffffffffffffffff161415610f27576040517f08c379a0000000000000000000000000000000000000000000000000000000008152600401610f1e90614c55565b60405180910390fd5b8060056000610f346116ef565b73ffffffffffffffffffffffffffffffffffffffff1673ffffffffffffffffffffffffffffffffffffffff16815260200190815260200160002060008473ffffffffffffffffffffffffffffffffffffffff1673ffffffffffffffffffffffffffffffffffffffff16815260200190815260200160002060006101000a81548160ff0219169083151502179055508173ffffffffffffffffffffffffffffffffffffffff16610fe16116ef565b73ffffffffffffffffffffffffffffffffffffffff167f17307eab39ab6107e8899845ad3d59bd9653f200f220920489ca2b5937696c31836040516110269190614ae7565b60405180910390a35050565b61104361103d6116ef565b836117b0565b611082576040517f08c379a000000000000000000000000000000000000000000000000000000000815260040161107990614db5565b60405180910390fd5b61108e84848484611bb0565b50505050565b600061109e6116ef565b73ffffffffffffffffffffffffffffffffffffffff166110bc610df5565b73ffffffffffffffffffffffffffffffffffffffff1614611112576040517f08c379a000000000000000000000000000000000000000000000000000000000815260040161110990614d35565b60405180910390fd5b6000600c838154811061114e577f4e487b7100000000000000000000000000000000000000000000000000000000600052603260045260246000fd5b906000526020600020906006020160040160009054906101000a9004600f0b90506000600c84815481106111ab577f4e487b7100000000000000000000000000000000000000000000000000000000600052603260045260246000fd5b90600052602060002090600602016001015490506111c98282611c0c565b50600c8481548110611204577f4e487b7100000000000000000000000000000000000000000000000000000000600052603260045260246000fd5b906000526020600020906006020160040160009054906101000a90505061122e3061dead86610a47565b600192505050919050565b606061124482611683565b611283576040517f08c379a000000000000000000000000000000000000000000000000000000000815260040161127a90614d75565b60405180910390fd5b600061128d611c3d565b905060008151116112ad57604051806020016040528060008152506112d8565b806112b784611c54565b6040516020016112c89291906149df565b6040516020818303038152906040525b915050919050565b600b5481565b6000600560008473ffffffffffffffffffffffffffffffffffffffff1673ffffffffffffffffffffffffffffffffffffffff16815260200190815260200160002060008373ffffffffffffffffffffffffffffffffffffffff1673ffffffffffffffffffffffffffffffffffffffff16815260200190815260200160002060009054906101000a900460ff16905092915050565b60006113846116ef565b73ffffffffffffffffffffffffffffffffffffffff166113a2610df5565b73ffffffffffffffffffffffffffffffffffffffff16146113f8576040517f08c379a00000000000000000000000000000000000000000000000000000000081526004016113ef90614d35565b60405180910390fd5b6000826000015183602001518460400151856060015186608001518760a001518860c001516040516020016114339796959493929190614a03565b604051602081830303815290604052805190602001209050600e600082815260200190815260200160002060009054906101000a900460ff16156114ac576040517f08c379a00000000000000000000000000000000000000000000000000000000081526004016114a390614df5565b60405180910390fd5b6001600e600083815260200190815260200160002060006101000a81548160ff02191690831515021790555060006114e384611e01565b90506114f38460c0015182611f56565b61150584608001518560200151612124565b50600192505050919050565b6115196116ef565b73ffffffffffffffffffffffffffffffffffffffff16611537610df5565b73ffffffffffffffffffffffffffffffffffffffff161461158d576040517f08c379a000000000000000000000000000000000000000000000000000000000815260040161158490614d35565b60405180910390fd5b600073ffffffffffffffffffffffffffffffffffffffff168173ffffffffffffffffffffffffffffffffffffffff1614156115fd576040517f08c379a00000000000000000000000000000000000000000000000000000000081526004016115f490614bf5565b60405180910390fd5b61160681611aea565b50565b60007f780e9d63000000000000000000000000000000000000000000000000000000007bffffffffffffffffffffffffffffffffffffffffffffffffffffffff1916827bffffffffffffffffffffffffffffffffffffffffffffffffffffffff1916148061167c575061167b82612155565b5b9050919050565b60008073ffffffffffffffffffffffffffffffffffffffff166002600084815260200190815260200160002060009054906101000a900473ffffffffffffffffffffffffffffffffffffffff1673ffffffffffffffffffffffffffffffffffffffff1614159050919050565b600033905090565b816004600083815260200190815260200160002060006101000a81548173ffffffffffffffffffffffffffffffffffffffff021916908373ffffffffffffffffffffffffffffffffffffffff160217905550808273ffffffffffffffffffffffffffffffffffffffff1661176a83610c03565b73ffffffffffffffffffffffffffffffffffffffff167f8c5be1e5ebec7d5bd14f71427d1e84f3dd0314c0f7b2291e5b200ac8c7c3b92560405160405180910390a45050565b60006117bb82611683565b6117fa576040517f08c379a00000000000000000000000000000000000000000000000000000000081526004016117f190614c75565b60405180910390fd5b600061180583610c03565b90508073ffffffffffffffffffffffffffffffffffffffff168473ffffffffffffffffffffffffffffffffffffffff16148061187457508373ffffffffffffffffffffffffffffffffffffffff1661185c84610889565b73ffffffffffffffffffffffffffffffffffffffff16145b80611885575061188481856112e6565b5b91505092915050565b8273ffffffffffffffffffffffffffffffffffffffff166118ae82610c03565b73ffffffffffffffffffffffffffffffffffffffff1614611904576040517f08c379a00000000000000000000000000000000000000000000000000000000081526004016118fb90614d55565b60405180910390fd5b600073ffffffffffffffffffffffffffffffffffffffff168273ffffffffffffffffffffffffffffffffffffffff161415611974576040517f08c379a000000000000000000000000000000000000000000000000000000000815260040161196b90614c35565b60405180910390fd5b61197f838383612237565b61198a6000826116f7565b6001600360008573ffffffffffffffffffffffffffffffffffffffff1673ffffffffffffffffffffffffffffffffffffffff16815260200190815260200160002060008282546119da9190614f8b565b925050819055506001600360008473ffffffffffffffffffffffffffffffffffffffff1673ffffffffffffffffffffffffffffffffffffffff1681526020019081526020016000206000828254611a319190614f04565b92505081905550816002600083815260200190815260200160002060006101000a81548173ffffffffffffffffffffffffffffffffffffffff021916908373ffffffffffffffffffffffffffffffffffffffff160217905550808273ffffffffffffffffffffffffffffffffffffffff168473ffffffffffffffffffffffffffffffffffffffff167fddf252ad1be2c89b69c2b068fc378daa952ba7f163c4a11628f55a4df523b3ef60405160405180910390a4505050565b6000600660009054906101000a900473ffffffffffffffffffffffffffffffffffffffff16905081600660006101000a81548173ffffffffffffffffffffffffffffffffffffffff021916908373ffffffffffffffffffffffffffffffffffffffff1602179055508173ffffffffffffffffffffffffffffffffffffffff168173ffffffffffffffffffffffffffffffffffffffff167f8be0079c531659141344cd1fd0a4f28419497f9722a3daafe3b4186f6b6457e060405160405180910390a35050565b611bbb84848461188e565b611bc784848484612247565b611c06576040517f08c379a0000000000000000000000000000000000000000000000000000000008152600401611bfd90614bd5565b60405180910390fd5b50505050565b600080611c21611c1b856123de565b8461242d565b9050611c2f600b54826124e8565b600b81905591505092915050565b606060405180602001604052806000815250905090565b60606000821415611c9c576040518060400160405280600181526020017f30000000000000000000000000000000000000000000000000000000000000008152509050611dfc565b600082905060005b60008214611cce578080611cb7906150b4565b915050600a82611cc79190614f5a565b9150611ca4565b60008167ffffffffffffffff811115611d10577f4e487b7100000000000000000000000000000000000000000000000000000000600052604160045260246000fd5b6040519080825280601f01601f191660200182016040528015611d425781602001600182028036833780820191505090505b5090505b60008514611df557600182611d5b9190614f8b565b9150600a85611d6a919061513d565b6030611d769190614f04565b60f81b818381518110611db2577f4e487b7100000000000000000000000000000000000000000000000000000000600052603260045260246000fd5b60200101907effffffffffffffffffffffffffffffffffffffffffffffffffffffffffffff1916908160001a905350600a85611dee9190614f5a565b9450611d46565b8093505050505b919050565b6000600c8290806001815401808255809150506001900390600052602060002090600602016000909190919091506000820151816000019080519060200190611e4b929190613c96565b5060208201518160010155604082015181600201556060820151816003015560808201518160040160006101000a8154816fffffffffffffffffffffffffffffffff0219169083600f0b6fffffffffffffffffffffffffffffffff16021790555060a08201518160040160106101000a8154816fffffffffffffffffffffffffffffffff0219169083600f0b6fffffffffffffffffffffffffffffffff16021790555060c08201518160050160006101000a81548173ffffffffffffffffffffffffffffffffffffffff021916908373ffffffffffffffffffffffffffffffffffffffff160217905550505060006001600c80549050611f4b9190614f8b565b905080915050919050565b600073ffffffffffffffffffffffffffffffffffffffff168273ffffffffffffffffffffffffffffffffffffffff161415611fc6576040517f08c379a0000000000000000000000000000000000000000000000000000000008152600401611fbd90614cf5565b60405180910390fd5b611fcf81611683565b1561200f576040517f08c379a000000000000000000000000000000000000000000000000000000000815260040161200690614c15565b60405180910390fd5b61201b60008383612237565b6001600360008473ffffffffffffffffffffffffffffffffffffffff1673ffffffffffffffffffffffffffffffffffffffff168152602001908152602001600020600082825461206b9190614f04565b92505081905550816002600083815260200190815260200160002060006101000a81548173ffffffffffffffffffffffffffffffffffffffff021916908373ffffffffffffffffffffffffffffffffffffffff160217905550808273ffffffffffffffffffffffffffffffffffffffff16600073ffffffffffffffffffffffffffffffffffffffff167fddf252ad1be2c89b69c2b068fc378daa952ba7f163c4a11628f55a4df523b3ef60405160405180910390a45050565b600080612139612133856123de565b8461242d565b9050612147600b54826124fe565b600b81905591505092915050565b60007f80ac58cd000000000000000000000000000000000000000000000000000000007bffffffffffffffffffffffffffffffffffffffffffffffffffffffff1916827bffffffffffffffffffffffffffffffffffffffffffffffffffffffff1916148061222057507f5b5e139f000000000000000000000000000000000000000000000000000000007bffffffffffffffffffffffffffffffffffffffffffffffffffffffff1916827bffffffffffffffffffffffffffffffffffffffffffffffffffffffff1916145b80612230575061222f82612514565b5b9050919050565b61224283838361257e565b505050565b60006122688473ffffffffffffffffffffffffffffffffffffffff16612692565b156123d1578373ffffffffffffffffffffffffffffffffffffffff1663150b7a026122916116ef565b8786866040518563ffffffff1660e01b81526004016122b39493929190614a9b565b602060405180830381600087803b1580156122cd57600080fd5b505af19250505080156122fe57506040513d601f19601f820116820180604052508101906122fb919061411f565b60015b612381573d806000811461232e576040519150601f19603f3d011682016040523d82523d6000602084013e612333565b606091505b50600081511415612379576040517f08c379a000000000000000000000000000000000000000000000000000000000815260040161237090614bd5565b60405180910390fd5b805181602001fd5b63150b7a0260e01b7bffffffffffffffffffffffffffffffffffffffffffffffffffffffff1916817bffffffffffffffffffffffffffffffffffffffffffffffffffffffff1916149150506123d6565b600190505b949350505050565b60006124266124176124126123fc6123f761016d6126a5565b6126c8565b61240d61240887612781565b6127a7565b6128cb565b612936565b61242160016126a5565b613536565b9050919050565b60008082141561244057600090506124e2565b600083600f0b121561245157600080fd5b600060406fffffffffffffffffffffffffffffffff841685600f0b02901c90506000608084901c85600f0b02905077ffffffffffffffffffffffffffffffffffffffffffffffff8111156124a457600080fd5b604081901b9050817fffffffffffffffffffffffffffffffffffffffffffffffffffffffffffffffff038111156124da57600080fd5b818101925050505b92915050565b600081836124f69190614f8b565b905092915050565b6000818361250c9190614f04565b905092915050565b60007f01ffc9a7000000000000000000000000000000000000000000000000000000007bffffffffffffffffffffffffffffffffffffffffffffffffffffffff1916827bffffffffffffffffffffffffffffffffffffffffffffffffffffffff1916149050919050565b61258983838361359d565b600073ffffffffffffffffffffffffffffffffffffffff168373ffffffffffffffffffffffffffffffffffffffff1614156125cc576125c7816135a2565b61260b565b8173ffffffffffffffffffffffffffffffffffffffff168373ffffffffffffffffffffffffffffffffffffffff161461260a5761260983826135eb565b5b5b600073ffffffffffffffffffffffffffffffffffffffff168273ffffffffffffffffffffffffffffffffffffffff16141561264e5761264981613758565b61268d565b8273ffffffffffffffffffffffffffffffffffffffff168273ffffffffffffffffffffffffffffffffffffffff161461268c5761268b828261389b565b5b5b505050565b600080823b905060008111915050919050565b6000677fffffffffffffff8211156126bc57600080fd5b604082901b9050919050565b60008082600f0b14156126da57600080fd5b600082600f0b70010000000000000000000000000000000081612726577f4e487b7100000000000000000000000000000000000000000000000000000000600052601260045260246000fd5b0590507fffffffffffffffffffffffffffffffff80000000000000000000000000000000600f0b811215801561276f57506f7fffffffffffffffffffffffffffffff600f0b8113155b61277857600080fd5b80915050919050565b60006127a061279961279360016126a5565b8461391a565b600c613981565b9050919050565b60008082600f0b136127b857600080fd5b60008083600f0b90506801000000000000000081126127df57604081901d90506040820191505b64010000000081126127f957602081901d90506020820191505b62010000811261281157601081901d90506010820191505b610100811261282857600881901d90506008820191505b6010811261283e57600481901d90506004820191505b6004811261285457600281901d90506002820191505b60028112612863576001820191505b60006040808403901b9050600083607f0386600f0b901b9050600067800000000000000090505b60008113156128be578182029150600060ff83901c905080607f0183901c92508082028401935050600181901d905061288a565b5081945050505050919050565b600080604083600f0b85600f0b02901d90507fffffffffffffffffffffffffffffffff80000000000000000000000000000000600f0b811215801561292357506f7fffffffffffffffffffffffffffffff600f0b8113155b61292c57600080fd5b8091505092915050565b60006840000000000000000082600f0b1261295057600080fd5b7fffffffffffffffffffffffffffffffffffffffffffffffc0000000000000000082600f0b12156129845760009050613531565b60006f80000000000000000000000000000000905060006780000000000000008416600f0b13156129ca57608070016a09e667f3bcc908b2fb1366ea957d3e8202901c90505b60006740000000000000008416600f0b13156129fb5760807001306fe0a31b7152de8d5a46305c85edec8202901c90505b60006720000000000000008416600f0b1315612a2c5760807001172b83c7d517adcdf7c8c50eb14a791f8202901c90505b60006710000000000000008416600f0b1315612a5d57608070010b5586cf9890f6298b92b71842a983638202901c90505b60006708000000000000008416600f0b1315612a8e5760807001059b0d31585743ae7c548eb68ca417fd8202901c90505b60006704000000000000008416600f0b1315612abf576080700102c9a3e778060ee6f7caca4f7a29bde88202901c90505b60006702000000000000008416600f0b1315612af057608070010163da9fb33356d84a66ae336dcdfa3f8202901c90505b60006701000000000000008416600f0b1315612b21576080700100b1afa5abcbed6129ab13ec11dc95438202901c90505b600066800000000000008416600f0b1315612b5157608070010058c86da1c09ea1ff19d294cf2f679b8202901c90505b600066400000000000008416600f0b1315612b815760807001002c605e2e8cec506d21bfc89a23a00f8202901c90505b600066200000000000008416600f0b1315612bb1576080700100162f3904051fa128bca9c55c31e5df8202901c90505b600066100000000000008416600f0b1315612be15760807001000b175effdc76ba38e31671ca9397258202901c90505b600066080000000000008416600f0b1315612c11576080700100058ba01fb9f96d6cacd4b180917c3d8202901c90505b600066040000000000008416600f0b1315612c4157608070010002c5cc37da9491d0985c348c68e7b38202901c90505b600066020000000000008416600f0b1315612c715760807001000162e525ee054754457d59952920268202901c90505b600066010000000000008416600f0b1315612ca157608070010000b17255775c040618bf4a4ade83fc8202901c90505b6000658000000000008416600f0b1315612cd05760807001000058b91b5bc9ae2eed81e9b7d4cfab8202901c90505b6000654000000000008416600f0b1315612cff576080700100002c5c89d5ec6ca4d7c8acc017b7c98202901c90505b6000652000000000008416600f0b1315612d2e57608070010000162e43f4f831060e02d839a9d16d8202901c90505b6000651000000000008416600f0b1315612d5d576080700100000b1721bcfc99d9f890ea069117638202901c90505b6000650800000000008416600f0b1315612d8c57608070010000058b90cf1e6d97f9ca14dbcc16288202901c90505b6000650400000000008416600f0b1315612dbb5760807001000002c5c863b73f016468f6bac5ca2b8202901c90505b6000650200000000008416600f0b1315612dea576080700100000162e430e5a18f6119e3c02282a58202901c90505b6000650100000000008416600f0b1315612e195760807001000000b1721835514b86e6d96efd1bfe8202901c90505b60006480000000008416600f0b1315612e47576080700100000058b90c0b48c6be5df846c5b2ef8202901c90505b60006440000000008416600f0b1315612e7557608070010000002c5c8601cc6b9e94213c72737a8202901c90505b60006420000000008416600f0b1315612ea35760807001000000162e42fff037df38aa2b219f068202901c90505b60006410000000008416600f0b1315612ed157608070010000000b17217fba9c739aa5819f44f98202901c90505b60006408000000008416600f0b1315612eff5760807001000000058b90bfcdee5acd3c1cedc8238202901c90505b60006404000000008416600f0b1315612f2d576080700100000002c5c85fe31f35a6a30da1be508202901c90505b60006402000000008416600f0b1315612f5b57608070010000000162e42ff0999ce3541b9fffcf8202901c90505b60006401000000008416600f0b1315612f89576080700100000000b17217f80f4ef5aadda455548202901c90505b600063800000008416600f0b1315612fb657608070010000000058b90bfbf8479bd5a81b51ad8202901c90505b600063400000008416600f0b1315612fe35760807001000000002c5c85fdf84bd62ae30a74cc8202901c90505b600063200000008416600f0b1315613010576080700100000000162e42fefb2fed257559bdaa8202901c90505b600063100000008416600f0b131561303d5760807001000000000b17217f7d5a7716bba4a9ae8202901c90505b600063080000008416600f0b131561306a576080700100000000058b90bfbe9ddbac5e109cce8202901c90505b600063040000008416600f0b131561309757608070010000000002c5c85fdf4b15de6f17eb0d8202901c90505b600063020000008416600f0b13156130c45760807001000000000162e42fefa494f1478fde058202901c90505b600063010000008416600f0b13156130f157608070010000000000b17217f7d20cf927c8e94c8202901c90505b6000628000008416600f0b131561311d5760807001000000000058b90bfbe8f71cb4e4b33d8202901c90505b6000624000008416600f0b1315613149576080700100000000002c5c85fdf477b662b269458202901c90505b6000622000008416600f0b131561317557608070010000000000162e42fefa3ae53369388c8202901c90505b6000621000008416600f0b13156131a1576080700100000000000b17217f7d1d351a389d408202901c90505b6000620800008416600f0b13156131cd57608070010000000000058b90bfbe8e8b2d3d4ede8202901c90505b6000620400008416600f0b13156131f95760807001000000000002c5c85fdf4741bea6e77e8202901c90505b6000620200008416600f0b1315613225576080700100000000000162e42fefa39fe95583c28202901c90505b6000620100008416600f0b13156132515760807001000000000000b17217f7d1cfb72b45e18202901c90505b60006180008416600f0b131561327c576080700100000000000058b90bfbe8e7cc35c3f08202901c90505b60006140008416600f0b13156132a757608070010000000000002c5c85fdf473e242ea388202901c90505b60006120008416600f0b13156132d25760807001000000000000162e42fefa39f02b772c8202901c90505b60006110008416600f0b13156132fd57608070010000000000000b17217f7d1cf7d83c1a8202901c90505b60006108008416600f0b13156133285760807001000000000000058b90bfbe8e7bdcbe2e8202901c90505b60006104008416600f0b1315613353576080700100000000000002c5c85fdf473dea871f8202901c90505b60006102008416600f0b131561337e57608070010000000000000162e42fefa39ef44d918202901c90505b60006101008416600f0b13156133a9576080700100000000000000b17217f7d1cf79e9498202901c90505b600060808416600f0b13156133d357608070010000000000000058b90bfbe8e7bce5448202901c90505b600060408416600f0b13156133fd5760807001000000000000002c5c85fdf473de6eca8202901c90505b600060208416600f0b1315613427576080700100000000000000162e42fefa39ef366f8202901c90505b600060108416600f0b13156134515760807001000000000000000b17217f7d1cf79afa8202901c90505b600060088416600f0b131561347b576080700100000000000000058b90bfbe8e7bcd6d8202901c90505b600060048416600f0b13156134a557608070010000000000000002c5c85fdf473de6b28202901c90505b600060028416600f0b13156134cf5760807001000000000000000162e42fefa39ef3588202901c90505b600060018416600f0b13156134f957608070010000000000000000b17217f7d1cf79ab8202901c90505b604083600f0b901d603f03600f0b81901c90506f7fffffffffffffffffffffffffffffff600f0b81111561352c57600080fd5b809150505b919050565b60008082600f0b84600f0b0390507fffffffffffffffffffffffffffffffff80000000000000000000000000000000600f0b811215801561358a57506f7fffffffffffffffffffffffffffffff600f0b8113155b61359357600080fd5b8091505092915050565b505050565b600980549050600a600083815260200190815260200160002081905550600981908060018154018082558091505060019003906000526020600020016000909190919091505550565b600060016135f884610cb5565b6136029190614f8b565b90506000600860008481526020019081526020016000205490508181146136e7576000600760008673ffffffffffffffffffffffffffffffffffffffff1673ffffffffffffffffffffffffffffffffffffffff168152602001908152602001600020600084815260200190815260200160002054905080600760008773ffffffffffffffffffffffffffffffffffffffff1673ffffffffffffffffffffffffffffffffffffffff168152602001908152602001600020600084815260200190815260200160002081905550816008600083815260200190815260200160002081905550505b6008600084815260200190815260200160002060009055600760008573ffffffffffffffffffffffffffffffffffffffff1673ffffffffffffffffffffffffffffffffffffffff16815260200190815260200160002060008381526020019081526020016000206000905550505050565b6000600160098054905061376c9190614f8b565b90506000600a60008481526020019081526020016000205490506000600983815481106137c2577f4e487b7100000000000000000000000000000000000000000000000000000000600052603260045260246000fd5b90600052602060002001549050806009838154811061380a577f4e487b7100000000000000000000000000000000000000000000000000000000600052603260045260246000fd5b906000526020600020018190555081600a600083815260200190815260200160002081905550600a600085815260200190815260200160002060009055600980548061387f577f4e487b7100000000000000000000000000000000000000000000000000000000600052603160045260246000fd5b6001900381819060005260206000200160009055905550505050565b60006138a683610cb5565b905081600760008573ffffffffffffffffffffffffffffffffffffffff1673ffffffffffffffffffffffffffffffffffffffff168152602001908152602001600020600083815260200190815260200160002081905550806008600084815260200190815260200160002081905550505050565b60008082600f0b84600f0b0190507fffffffffffffffffffffffffffffffff80000000000000000000000000000000600f0b811215801561396e57506f7fffffffffffffffffffffffffffffff600f0b8113155b61397757600080fd5b8091505092915050565b600080600084600f0b12801561399957506001808416145b905060008085600f0b126139ad57846139b2565b846000035b6fffffffffffffffffffffffffffffffff16905060007001000000000000000000000000000000009050680100000000000000008211613a8c57603f82901b91505b60008514613a805760006001861614613a1157607f828202901c90505b607f828302901c915060006002861614613a2f57607f828202901c90505b607f828302901c915060006004861614613a4d57607f828202901c90505b607f828302901c915060006008861614613a6b57607f828202901c90505b607f828302901c9150600485901c94506139f4565b604081901c9050613c26565b6000603f90506c01000000000000000000000000831015613ab557602083901b92506020810390505b6e010000000000000000000000000000831015613ada57601083901b92506010810390505b6f01000000000000000000000000000000831015613b0057600883901b92506008810390505b6f10000000000000000000000000000000831015613b2657600483901b92506004810390505b6f40000000000000000000000000000000831015613b4c57600283901b92506002810390505b6f80000000000000000000000000000000831015613b7257600183901b92506001810390505b60005b60008714613c0d5760408210613b8a57600080fd5b60006001881614613bcb57607f848402901c92508181019050700100000000000000000000000000000000831115613bca57600183901c92506001810190505b5b607f848502901c9350600182901b91507001000000000000000000000000000000008410613c0157600184901c93506001820191505b600187901c9650613b75565b60408110613c1a57600080fd5b8060400383901c925050505b600083613c335781613c38565b816000035b90507fffffffffffffffffffffffffffffffff80000000000000000000000000000000600f0b8112158015613c8057506f7fffffffffffffffffffffffffffffff600f0b8113155b613c8957600080fd5b8094505050505092915050565b828054613ca290615082565b90600052602060002090601f016020900481019282613cc45760008555613d0b565b82601f10613cdd57805160ff1916838001178555613d0b565b82800160010185558215613d0b579182015b82811115613d0a578251825591602001919060010190613cef565b5b509050613d189190613d1c565b5090565b5b80821115613d35576000816000905550600101613d1d565b5090565b6000613d4c613d4784614e61565b614e30565b905082815260208101848484011115613d6457600080fd5b613d6f848285615040565b509392505050565b6000613d8a613d8584614e91565b614e30565b905082815260208101848484011115613da257600080fd5b613dad848285615040565b509392505050565b600081359050613dc481615255565b92915050565b600081359050613dd98161526c565b92915050565b600081359050613dee81615283565b92915050565b600081519050613e0381615283565b92915050565b600082601f830112613e1a57600080fd5b8135613e2a848260208601613d39565b91505092915050565b600081359050613e428161529a565b92915050565b600082601f830112613e5957600080fd5b8135613e69848260208601613d77565b91505092915050565b600060e08284031215613e8457600080fd5b613e8e60e0614e30565b9050600082013567ffffffffffffffff811115613eaa57600080fd5b613eb684828501613e48565b6000830152506020613eca84828501613f3a565b6020830152506040613ede84828501613f3a565b6040830152506060613ef284828501613f3a565b6060830152506080613f0684828501613e33565b60808301525060a0613f1a84828501613e33565b60a08301525060c0613f2e84828501613db5565b60c08301525092915050565b600081359050613f49816152b1565b92915050565b600060208284031215613f6157600080fd5b6000613f6f84828501613db5565b91505092915050565b60008060408385031215613f8b57600080fd5b6000613f9985828601613db5565b9250506020613faa85828601613db5565b9150509250929050565b600080600060608486031215613fc957600080fd5b6000613fd786828701613db5565b9350506020613fe886828701613db5565b9250506040613ff986828701613f3a565b9150509250925092565b6000806000806080858703121561401957600080fd5b600061402787828801613db5565b945050602061403887828801613db5565b935050604061404987828801613f3a565b925050606085013567ffffffffffffffff81111561406657600080fd5b61407287828801613e09565b91505092959194509250565b6000806040838503121561409157600080fd5b600061409f85828601613db5565b92505060206140b085828601613dca565b9150509250929050565b600080604083850312156140cd57600080fd5b60006140db85828601613db5565b92505060206140ec85828601613f3a565b9150509250929050565b60006020828403121561410857600080fd5b600061411684828501613ddf565b91505092915050565b60006020828403121561413157600080fd5b600061413f84828501613df4565b91505092915050565b60006020828403121561415a57600080fd5b600082013567ffffffffffffffff81111561417457600080fd5b61418084828501613e72565b91505092915050565b60006020828403121561419b57600080fd5b60006141a984828501613f3a565b91505092915050565b6141bb81614fbf565b82525050565b6141d26141cd82614fbf565b6150fd565b82525050565b6141e181614fd1565b82525050565b6141f081614fdd565b82525050565b600061420182614ec1565b61420b8185614ed7565b935061421b81856020860161504f565b6142248161522a565b840191505092915050565b61423881615009565b82525050565b61424f61424a82615009565b61510f565b82525050565b600061426082614ecc565b61426a8185614ee8565b935061427a81856020860161504f565b6142838161522a565b840191505092915050565b600061429982614ecc565b6142a38185614ef9565b93506142b381856020860161504f565b80840191505092915050565b60006142cc602b83614ee8565b91507f455243373231456e756d657261626c653a206f776e657220696e646578206f7560008301527f74206f6620626f756e64730000000000000000000000000000000000000000006020830152604082019050919050565b6000614332603283614ee8565b91507f4552433732313a207472616e7366657220746f206e6f6e20455243373231526560008301527f63656976657220696d706c656d656e74657200000000000000000000000000006020830152604082019050919050565b6000614398602683614ee8565b91507f4f776e61626c653a206e6577206f776e657220697320746865207a65726f206160008301527f64647265737300000000000000000000000000000000000000000000000000006020830152604082019050919050565b60006143fe601c83614ee8565b91507f4552433732313a20746f6b656e20616c7265616479206d696e746564000000006000830152602082019050919050565b600061443e602483614ee8565b91507f4552433732313a207472616e7366657220746f20746865207a65726f2061646460008301527f72657373000000000000000000000000000000000000000000000000000000006020830152604082019050919050565b60006144a4601983614ee8565b91507f4552433732313a20617070726f766520746f2063616c6c6572000000000000006000830152602082019050919050565b60006144e4602c83614ee8565b91507f4552433732313a206f70657261746f7220717565727920666f72206e6f6e657860008301527f697374656e7420746f6b656e00000000000000000000000000000000000000006020830152604082019050919050565b600061454a603883614ee8565b91507f4552433732313a20617070726f76652063616c6c6572206973206e6f74206f7760008301527f6e6572206e6f7220617070726f76656420666f7220616c6c00000000000000006020830152604082019050919050565b60006145b0602a83614ee8565b91507f4552433732313a2062616c616e636520717565727920666f7220746865207a6560008301527f726f2061646472657373000000000000000000000000000000000000000000006020830152604082019050919050565b6000614616602983614ee8565b91507f4552433732313a206f776e657220717565727920666f72206e6f6e657869737460008301527f656e7420746f6b656e00000000000000000000000000000000000000000000006020830152604082019050919050565b600061467c602083614ee8565b91507f4552433732313a206d696e7420746f20746865207a65726f20616464726573736000830152602082019050919050565b60006146bc602c83614ee8565b91507f4552433732313a20617070726f76656420717565727920666f72206e6f6e657860008301527f697374656e7420746f6b656e00000000000000000000000000000000000000006020830152604082019050919050565b6000614722602083614ee8565b91507f4f776e61626c653a2063616c6c6572206973206e6f7420746865206f776e65726000830152602082019050919050565b6000614762602983614ee8565b91507f4552433732313a207472616e73666572206f6620746f6b656e2074686174206960008301527f73206e6f74206f776e00000000000000000000000000000000000000000000006020830152604082019050919050565b60006147c8602f83614ee8565b91507f4552433732314d657461646174613a2055524920717565727920666f72206e6f60008301527f6e6578697374656e7420746f6b656e00000000000000000000000000000000006020830152604082019050919050565b600061482e602183614ee8565b91507f4552433732313a20617070726f76616c20746f2063757272656e74206f776e6560008301527f72000000000000000000000000000000000000000000000000000000000000006020830152604082019050919050565b6000614894603183614ee8565b91507f4552433732313a207472616e736665722063616c6c6572206973206e6f74206f60008301527f776e6572206e6f7220617070726f7665640000000000000000000000000000006020830152604082019050919050565b60006148fa602c83614ee8565b91507f455243373231456e756d657261626c653a20676c6f62616c20696e646578206f60008301527f7574206f6620626f756e647300000000000000000000000000000000000000006020830152604082019050919050565b6000614960602483614ee8565b91507f4e46545f466163746f72793a2054686973206861736820657869737420616c7260008301527f65616479000000000000000000000000000000000000000000000000000000006020830152604082019050919050565b6149c281615036565b82525050565b6149d96149d482615036565b615133565b82525050565b60006149eb828561428e565b91506149f7828461428e565b91508190509392505050565b6000614a0f828a61428e565b9150614a1b82896149c8565b602082019150614a2b82886149c8565b602082019150614a3b82876149c8565b602082019150614a4b828661423e565b601082019150614a5b828561423e565b601082019150614a6b82846141c1565b60148201915081905098975050505050505050565b6000602082019050614a9560008301846141b2565b92915050565b6000608082019050614ab060008301876141b2565b614abd60208301866141b2565b614aca60408301856149b9565b8181036060830152614adc81846141f6565b905095945050505050565b6000602082019050614afc60008301846141d8565b92915050565b6000602082019050614b1760008301846141e7565b92915050565b60006020820190508181036000830152614b378184614255565b905092915050565b600060e0820190508181036000830152614b59818a614255565b9050614b6860208301896149b9565b614b7560408301886149b9565b614b8260608301876149b9565b614b8f608083018661422f565b614b9c60a083018561422f565b614ba960c08301846141b2565b98975050505050505050565b60006020820190508181036000830152614bce816142bf565b9050919050565b60006020820190508181036000830152614bee81614325565b9050919050565b60006020820190508181036000830152614c0e8161438b565b9050919050565b60006020820190508181036000830152614c2e816143f1565b9050919050565b60006020820190508181036000830152614c4e81614431565b9050919050565b60006020820190508181036000830152614c6e81614497565b9050919050565b60006020820190508181036000830152614c8e816144d7565b9050919050565b60006020820190508181036000830152614cae8161453d565b9050919050565b60006020820190508181036000830152614cce816145a3565b9050919050565b60006020820190508181036000830152614cee81614609565b9050919050565b60006020820190508181036000830152614d0e8161466f565b9050919050565b60006020820190508181036000830152614d2e816146af565b9050919050565b60006020820190508181036000830152614d4e81614715565b9050919050565b60006020820190508181036000830152614d6e81614755565b9050919050565b60006020820190508181036000830152614d8e816147bb565b9050919050565b60006020820190508181036000830152614dae81614821565b9050919050565b60006020820190508181036000830152614dce81614887565b9050919050565b60006020820190508181036000830152614dee816148ed565b9050919050565b60006020820190508181036000830152614e0e81614953565b9050919050565b6000602082019050614e2a60008301846149b9565b92915050565b6000604051905081810181811067ffffffffffffffff82111715614e5757614e566151fb565b5b8060405250919050565b600067ffffffffffffffff821115614e7c57614e7b6151fb565b5b601f19601f8301169050602081019050919050565b600067ffffffffffffffff821115614eac57614eab6151fb565b5b601f19601f8301169050602081019050919050565b600081519050919050565b600081519050919050565b600082825260208201905092915050565b600082825260208201905092915050565b600081905092915050565b6000614f0f82615036565b9150614f1a83615036565b9250827fffffffffffffffffffffffffffffffffffffffffffffffffffffffffffffffff03821115614f4f57614f4e61516e565b5b828201905092915050565b6000614f6582615036565b9150614f7083615036565b925082614f8057614f7f61519d565b5b828204905092915050565b6000614f9682615036565b9150614fa183615036565b925082821015614fb457614fb361516e565b5b828203905092915050565b6000614fca82615016565b9050919050565b60008115159050919050565b60007fffffffff0000000000000000000000000000000000000000000000000000000082169050919050565b600081600f0b9050919050565b600073ffffffffffffffffffffffffffffffffffffffff82169050919050565b6000819050919050565b82818337600083830152505050565b60005b8381101561506d578082015181840152602081019050615052565b8381111561507c576000848401525b50505050565b6000600282049050600182168061509a57607f821691505b602082108114156150ae576150ad6151cc565b5b50919050565b60006150bf82615036565b91507fffffffffffffffffffffffffffffffffffffffffffffffffffffffffffffffff8214156150f2576150f161516e565b5b600182019050919050565b600061510882615121565b9050919050565b600061511a8261523b565b9050919050565b600061512c82615248565b9050919050565b6000819050919050565b600061514882615036565b915061515383615036565b9250826151635761516261519d565b5b828206905092915050565b7f4e487b7100000000000000000000000000000000000000000000000000000000600052601160045260246000fd5b7f4e487b7100000000000000000000000000000000000000000000000000000000600052601260045260246000fd5b7f4e487b7100000000000000000000000000000000000000000000000000000000600052602260045260246000fd5b7f4e487b7100000000000000000000000000000000000000000000000000000000600052604160045260246000fd5b6000601f19601f8301169050919050565b60008160801b9050919050565b60008160601b9050919050565b61525e81614fbf565b811461526957600080fd5b50565b61527581614fd1565b811461528057600080fd5b50565b61528c81614fdd565b811461529757600080fd5b50565b6152a381615009565b81146152ae57600080fd5b50565b6152ba81615036565b81146152c557600080fd5b5056fea2646970667358221220d4fa25f3c92e6cd94bcf43e8262adf4d0829d9bc9f9b8c33312ee016b7c1838764736f6c63430008000033",
  "immutableReferences": {},
  "source": "// SPDX-License-Identifier: MIT\npragma solidity ^0.8.0;\n\n/** @title NFT_FACTORY\n    @author Pedro Yuris Machado Leiva\n    @notice Smart Contract to mint NFTs that represent a real factoring invoices \n    @custom:company Reserva Food System\n    @custom:addressMumbai 0x5673a930Da6dB358E86B532d9d1B3941c5F64Aa3\n*/\n\nimport \"@openzeppelin/contracts/token/ERC721/ERC721.sol\";\nimport \"@openzeppelin/contracts/token/ERC721/extensions/ERC721Enumerable.sol\";\nimport \"@openzeppelin/contracts/token/ERC721/IERC721Receiver.sol\";\nimport \"@openzeppelin/contracts/access/Ownable.sol\";\nimport \"@openzeppelin/contracts/utils/math/SafeMath.sol\";\nimport \"./ABDKMath64x64.sol\";\n\n\ncontract NFT_FACTORY is ERC721, Ownable, ERC721Enumerable, IERC721Receiver {\n    uint public dailyInterestRUSD;\n    address constant burnAddress = 0x000000000000000000000000000000000000dEaD;\n    \n\n\n\n/// @dev NFT's properties and validation system for each NFT minted. \n\n    struct DATA_INVOICE {\n        string dataCustumer;\n        uint valueOfNFT;\n        uint balanceAdvance;\n        uint dateOverDue;\n        int128 interestRate;\n        int128 interestRateOverDue;\n        address seller;\n    }\n    \n    DATA_INVOICE[] private _dataInvoices;\n    \n    mapping (bytes32 => uint256) private _hashTokenId;\n    mapping (bytes32 => bool) private _hashExist;\n\n    event RATIOCHANGED(int128 indexed newRatio);\n\n    constructor() ERC721(\"Decentralized Invoice Factoring\", \"DIF\") { }\n\n/// @dev The following functions are overrides required by Solidity.\n\n    function _beforeTokenTransfer(address from, address to, uint256 tokenId)\n        internal\n        override(ERC721, ERC721Enumerable)\n    {\n        super._beforeTokenTransfer(from, to, tokenId);\n    }\n\n\n    function supportsInterface(bytes4 interfaceId)\n        public\n        view\n        override(ERC721, ERC721Enumerable)\n        returns (bool)\n    {\n        return super.supportsInterface(interfaceId);\n    }\n    \n    function onERC721Received(address, address, uint256, bytes memory) public virtual override returns (bytes4) {\n        return this.onERC721Received.selector;\n    }\n\n/// @dev Mint a new NFT to recipient\n\n    function createInvoice(DATA_INVOICE memory _invoice) external onlyOwner returns (bool) {            \n            bytes32 invoiceHash = keccak256(abi.encodePacked(_invoice.dataCustumer,\n            _invoice.valueOfNFT, _invoice.balanceAdvance, _invoice.dateOverDue,\n            _invoice.interestRate, _invoice.interestRateOverDue, _invoice.seller )); \n            require(! _hashExist[invoiceHash], \"NFT_Factory: This hash exist already\");\n            _hashExist[invoiceHash] = true;\n            uint256 newItemId = _assemble(_invoice);\n            _mint(_invoice.seller, newItemId);\n            _interestToMint(_invoice.interestRate, _invoice.valueOfNFT);\n            return true;\n        \n        }\n///@dev Burn one NFT when is paid and reduce of Fund's dailyInterest \n    function destroyNFT(uint tokenId) external onlyOwner returns(bool) {\n        int128 mir = _dataInvoices[tokenId].interestRate;\n        uint amount = _dataInvoices[tokenId].valueOfNFT;\n        _interestToBurn(mir, amount);(_dataInvoices[tokenId].interestRate);\n        transferFrom(address(this), burnAddress, tokenId);\n        return true;\n    }\n\n/// @dev Insert tokenId @param and the function @return all data attached at this token\n\n    function getData(uint256 tokenId) public view returns (string memory dataCustumer, uint valueOfNFT, uint balanceAdvance, uint dateOverDue, int128 interestRate, int128 interestRateOverDue, address seller) {\n        dataCustumer = _dataInvoices[tokenId].dataCustumer;\n        valueOfNFT = _dataInvoices[tokenId].valueOfNFT;\n        balanceAdvance = _dataInvoices[tokenId].balanceAdvance;\n        dateOverDue = _dataInvoices[tokenId].dateOverDue;\n        interestRate = _dataInvoices[tokenId].interestRate;\n        interestRateOverDue = _dataInvoices[tokenId].interestRateOverDue;\n        seller = _dataInvoices[tokenId].seller;\n    }\n\n\n/// @dev Private function to assemble one NFT and @return a single id for each token minted.\n\n    function _assemble( DATA_INVOICE memory _invoice) private returns(uint256) {\n        _dataInvoices.push(_invoice);\n        uint256 id = _dataInvoices.length - 1;\n        return id;\n        }\n\n\n    // invoice interest rate = 1%,  interestRatioOfNFT = 0.01\n    // \n \n    function _interestToMint(int128 _mir, uint _amount) private returns (uint){\n        uint newInterestToMint = ABDKMath64x64.mulu(_dir(_mir), _amount);\n        return dailyInterestRUSD = SafeMath.add(dailyInterestRUSD, newInterestToMint) ;\n    }\n\n    function _interestToBurn(int128 _mir, uint _amount) private returns (uint) {\n        uint newInterestToBurn = ABDKMath64x64.mulu(_dir(_mir), _amount);\n        return dailyInterestRUSD = SafeMath.sub(dailyInterestRUSD, newInterestToBurn);\n    }\n\n    function _dir(int128 mir) pure private returns (int128) {\n      return ABDKMath64x64.sub(ABDKMath64x64.exp_2(ABDKMath64x64.mul(ABDKMath64x64.inv(ABDKMath64x64.fromUInt(365)), ABDKMath64x64.log_2(_air(mir)))), ABDKMath64x64.fromUInt(1));\n    }\n\n    function _air(int128 mir) pure private returns (int128) {\n        return ABDKMath64x64.pow(ABDKMath64x64.add(ABDKMath64x64.fromUInt(1), mir), 12);\n    }\n    \n \n}",
  "sourcePath": "/home/peter/Documents/Reserva/0-Reservafs/Proyectos/DIF_PROJECT/Code/DIFonBlockchain_Enumerable/contracts/NFT_FACTORY.sol",
  "compiler": {
    "name": "solc",
    "version": "0.8.0+commit.c7dfd78e.Emscripten.clang"
  },
  "schemaVersion": "3.4.3",
  "updatedAt": "2021-12-02T03:54:05.822Z",
  "devdoc": {
    "kind": "dev",
    "methods": {
      "approve(address,uint256)": {
        "details": "See {IERC721-approve}."
      },
      "balanceOf(address)": {
        "details": "See {IERC721-balanceOf}."
      },
      "createInvoice((string,uint256,uint256,uint256,int128,int128,address))": {
        "details": "Mint a new NFT to recipient"
      },
      "destroyNFT(uint256)": {
        "details": "Burn one NFT when is paid and reduce of Fund's dailyInterest "
      },
      "getApproved(uint256)": {
        "details": "See {IERC721-getApproved}."
      },
      "getData(uint256)": {
        "details": "Insert tokenId @param and the function @return all data attached at this token"
      },
      "isApprovedForAll(address,address)": {
        "details": "See {IERC721-isApprovedForAll}."
      },
      "name()": {
        "details": "See {IERC721Metadata-name}."
      },
      "owner()": {
        "details": "Returns the address of the current owner."
      },
      "ownerOf(uint256)": {
        "details": "See {IERC721-ownerOf}."
      },
      "renounceOwnership()": {
        "details": "Leaves the contract without owner. It will not be possible to call `onlyOwner` functions anymore. Can only be called by the current owner. NOTE: Renouncing ownership will leave the contract without an owner, thereby removing any functionality that is only available to the owner."
      },
      "safeTransferFrom(address,address,uint256)": {
        "details": "See {IERC721-safeTransferFrom}."
      },
      "safeTransferFrom(address,address,uint256,bytes)": {
        "details": "See {IERC721-safeTransferFrom}."
      },
      "setApprovalForAll(address,bool)": {
        "details": "See {IERC721-setApprovalForAll}."
      },
      "symbol()": {
        "details": "See {IERC721Metadata-symbol}."
      },
      "tokenByIndex(uint256)": {
        "details": "See {IERC721Enumerable-tokenByIndex}."
      },
      "tokenOfOwnerByIndex(address,uint256)": {
        "details": "See {IERC721Enumerable-tokenOfOwnerByIndex}."
      },
      "tokenURI(uint256)": {
        "details": "See {IERC721Metadata-tokenURI}."
      },
      "totalSupply()": {
        "details": "See {IERC721Enumerable-totalSupply}."
      },
      "transferFrom(address,address,uint256)": {
        "details": "See {IERC721-transferFrom}."
      },
      "transferOwnership(address)": {
        "details": "Transfers ownership of the contract to a new account (`newOwner`). Can only be called by the current owner."
      }
    },
    "version": 1
  },
  "userdoc": {
    "kind": "user",
    "methods": {},
    "version": 1
  }
}