{
  "contractName": "NFT_FACTORY",
  "abi": [
    {
      "inputs": [],
      "stateMutability": "nonpayable",
      "type": "constructor"
    },
    {
      "anonymous": false,
      "inputs": [
        {
          "indexed": true,
          "internalType": "address",
          "name": "owner",
          "type": "address"
        },
        {
          "indexed": true,
          "internalType": "address",
          "name": "approved",
          "type": "address"
        },
        {
          "indexed": true,
          "internalType": "uint256",
          "name": "tokenId",
          "type": "uint256"
        }
      ],
      "name": "Approval",
      "type": "event"
    },
    {
      "anonymous": false,
      "inputs": [
        {
          "indexed": true,
          "internalType": "address",
          "name": "owner",
          "type": "address"
        },
        {
          "indexed": true,
          "internalType": "address",
          "name": "operator",
          "type": "address"
        },
        {
          "indexed": false,
          "internalType": "bool",
          "name": "approved",
          "type": "bool"
        }
      ],
      "name": "ApprovalForAll",
      "type": "event"
    },
    {
      "anonymous": false,
      "inputs": [
        {
          "indexed": true,
          "internalType": "address",
          "name": "previousOwner",
          "type": "address"
        },
        {
          "indexed": true,
          "internalType": "address",
          "name": "newOwner",
          "type": "address"
        }
      ],
      "name": "OwnershipTransferred",
      "type": "event"
    },
    {
      "anonymous": false,
      "inputs": [
        {
          "indexed": true,
          "internalType": "int128",
          "name": "newRatio",
          "type": "int128"
        }
      ],
      "name": "RATIOCHANGED",
      "type": "event"
    },
    {
      "anonymous": false,
      "inputs": [
        {
          "indexed": true,
          "internalType": "address",
          "name": "from",
          "type": "address"
        },
        {
          "indexed": true,
          "internalType": "address",
          "name": "to",
          "type": "address"
        },
        {
          "indexed": true,
          "internalType": "uint256",
          "name": "tokenId",
          "type": "uint256"
        }
      ],
      "name": "Transfer",
      "type": "event"
    },
    {
      "inputs": [
        {
          "internalType": "address",
          "name": "to",
          "type": "address"
        },
        {
          "internalType": "uint256",
          "name": "tokenId",
          "type": "uint256"
        }
      ],
      "name": "approve",
      "outputs": [],
      "stateMutability": "nonpayable",
      "type": "function"
    },
    {
      "inputs": [
        {
          "internalType": "address",
          "name": "owner",
          "type": "address"
        }
      ],
      "name": "balanceOf",
      "outputs": [
        {
          "internalType": "uint256",
          "name": "",
          "type": "uint256"
        }
      ],
      "stateMutability": "view",
      "type": "function"
    },
    {
      "inputs": [],
      "name": "dailyInterestRUSD",
      "outputs": [
        {
          "internalType": "uint256",
          "name": "",
          "type": "uint256"
        }
      ],
      "stateMutability": "view",
      "type": "function"
    },
    {
      "inputs": [
        {
          "internalType": "uint256",
          "name": "tokenId",
          "type": "uint256"
        }
      ],
      "name": "getApproved",
      "outputs": [
        {
          "internalType": "address",
          "name": "",
          "type": "address"
        }
      ],
      "stateMutability": "view",
      "type": "function"
    },
    {
      "inputs": [
        {
          "internalType": "address",
          "name": "owner",
          "type": "address"
        },
        {
          "internalType": "address",
          "name": "operator",
          "type": "address"
        }
      ],
      "name": "isApprovedForAll",
      "outputs": [
        {
          "internalType": "bool",
          "name": "",
          "type": "bool"
        }
      ],
      "stateMutability": "view",
      "type": "function"
    },
    {
      "inputs": [],
      "name": "name",
      "outputs": [
        {
          "internalType": "string",
          "name": "",
          "type": "string"
        }
      ],
      "stateMutability": "view",
      "type": "function"
    },
    {
      "inputs": [],
      "name": "owner",
      "outputs": [
        {
          "internalType": "address",
          "name": "",
          "type": "address"
        }
      ],
      "stateMutability": "view",
      "type": "function"
    },
    {
      "inputs": [
        {
          "internalType": "uint256",
          "name": "tokenId",
          "type": "uint256"
        }
      ],
      "name": "ownerOf",
      "outputs": [
        {
          "internalType": "address",
          "name": "",
          "type": "address"
        }
      ],
      "stateMutability": "view",
      "type": "function"
    },
    {
      "inputs": [],
      "name": "renounceOwnership",
      "outputs": [],
      "stateMutability": "nonpayable",
      "type": "function"
    },
    {
      "inputs": [
        {
          "internalType": "address",
          "name": "from",
          "type": "address"
        },
        {
          "internalType": "address",
          "name": "to",
          "type": "address"
        },
        {
          "internalType": "uint256",
          "name": "tokenId",
          "type": "uint256"
        }
      ],
      "name": "safeTransferFrom",
      "outputs": [],
      "stateMutability": "nonpayable",
      "type": "function"
    },
    {
      "inputs": [
        {
          "internalType": "address",
          "name": "from",
          "type": "address"
        },
        {
          "internalType": "address",
          "name": "to",
          "type": "address"
        },
        {
          "internalType": "uint256",
          "name": "tokenId",
          "type": "uint256"
        },
        {
          "internalType": "bytes",
          "name": "_data",
          "type": "bytes"
        }
      ],
      "name": "safeTransferFrom",
      "outputs": [],
      "stateMutability": "nonpayable",
      "type": "function"
    },
    {
      "inputs": [
        {
          "internalType": "address",
          "name": "operator",
          "type": "address"
        },
        {
          "internalType": "bool",
          "name": "approved",
          "type": "bool"
        }
      ],
      "name": "setApprovalForAll",
      "outputs": [],
      "stateMutability": "nonpayable",
      "type": "function"
    },
    {
      "inputs": [],
      "name": "symbol",
      "outputs": [
        {
          "internalType": "string",
          "name": "",
          "type": "string"
        }
      ],
      "stateMutability": "view",
      "type": "function"
    },
    {
      "inputs": [
        {
          "internalType": "uint256",
          "name": "index",
          "type": "uint256"
        }
      ],
      "name": "tokenByIndex",
      "outputs": [
        {
          "internalType": "uint256",
          "name": "",
          "type": "uint256"
        }
      ],
      "stateMutability": "view",
      "type": "function"
    },
    {
      "inputs": [
        {
          "internalType": "address",
          "name": "owner",
          "type": "address"
        },
        {
          "internalType": "uint256",
          "name": "index",
          "type": "uint256"
        }
      ],
      "name": "tokenOfOwnerByIndex",
      "outputs": [
        {
          "internalType": "uint256",
          "name": "",
          "type": "uint256"
        }
      ],
      "stateMutability": "view",
      "type": "function"
    },
    {
      "inputs": [
        {
          "internalType": "uint256",
          "name": "tokenId",
          "type": "uint256"
        }
      ],
      "name": "tokenURI",
      "outputs": [
        {
          "internalType": "string",
          "name": "",
          "type": "string"
        }
      ],
      "stateMutability": "view",
      "type": "function"
    },
    {
      "inputs": [],
      "name": "totalSupply",
      "outputs": [
        {
          "internalType": "uint256",
          "name": "",
          "type": "uint256"
        }
      ],
      "stateMutability": "view",
      "type": "function"
    },
    {
      "inputs": [
        {
          "internalType": "address",
          "name": "from",
          "type": "address"
        },
        {
          "internalType": "address",
          "name": "to",
          "type": "address"
        },
        {
          "internalType": "uint256",
          "name": "tokenId",
          "type": "uint256"
        }
      ],
      "name": "transferFrom",
      "outputs": [],
      "stateMutability": "nonpayable",
      "type": "function"
    },
    {
      "inputs": [
        {
          "internalType": "address",
          "name": "newOwner",
          "type": "address"
        }
      ],
      "name": "transferOwnership",
      "outputs": [],
      "stateMutability": "nonpayable",
      "type": "function"
    },
    {
      "inputs": [
        {
          "internalType": "bytes4",
          "name": "interfaceId",
          "type": "bytes4"
        }
      ],
      "name": "supportsInterface",
      "outputs": [
        {
          "internalType": "bool",
          "name": "",
          "type": "bool"
        }
      ],
      "stateMutability": "view",
      "type": "function"
    },
    {
      "inputs": [
        {
          "internalType": "address",
          "name": "",
          "type": "address"
        },
        {
          "internalType": "address",
          "name": "",
          "type": "address"
        },
        {
          "internalType": "uint256",
          "name": "",
          "type": "uint256"
        },
        {
          "internalType": "bytes",
          "name": "",
          "type": "bytes"
        }
      ],
      "name": "onERC721Received",
      "outputs": [
        {
          "internalType": "bytes4",
          "name": "",
          "type": "bytes4"
        }
      ],
      "stateMutability": "nonpayable",
      "type": "function"
    },
    {
      "inputs": [
        {
          "internalType": "address",
          "name": "_recipient",
          "type": "address"
        },
        {
          "internalType": "string",
          "name": "_dataCustumer",
          "type": "string"
        },
        {
          "internalType": "uint256",
          "name": "_valueOfNFT",
          "type": "uint256"
        },
        {
          "internalType": "uint256",
          "name": "_balanceAdvance",
          "type": "uint256"
        },
        {
          "internalType": "int128",
          "name": "_interestRate",
          "type": "int128"
        },
        {
          "internalType": "int128",
          "name": "_interestRateOverDue",
          "type": "int128"
        }
      ],
      "name": "createInvoice",
      "outputs": [
        {
          "internalType": "bool",
          "name": "",
          "type": "bool"
        }
      ],
      "stateMutability": "nonpayable",
      "type": "function"
    },
    {
      "inputs": [
        {
          "internalType": "uint256",
          "name": "tokenId",
          "type": "uint256"
        }
      ],
      "name": "destroyNFT",
      "outputs": [
        {
          "internalType": "bool",
          "name": "",
          "type": "bool"
        }
      ],
      "stateMutability": "nonpayable",
      "type": "function"
    },
    {
      "inputs": [
        {
          "internalType": "uint256",
          "name": "tokenId",
          "type": "uint256"
        }
      ],
      "name": "getData",
      "outputs": [
        {
          "internalType": "string",
          "name": "dataCustumer",
          "type": "string"
        },
        {
          "internalType": "uint256",
          "name": "valueOfNFT",
          "type": "uint256"
        },
        {
          "internalType": "uint256",
          "name": "balanceAdvance",
          "type": "uint256"
        },
        {
          "internalType": "int128",
          "name": "interestRate",
          "type": "int128"
        },
        {
          "internalType": "int128",
          "name": "interestRateOverDue",
          "type": "int128"
        },
        {
          "internalType": "address",
          "name": "seller",
          "type": "address"
        }
      ],
      "stateMutability": "view",
      "type": "function"
    }
  ],
  "bytecode": "0x60806040523480156200001157600080fd5b506040518060400160405280601f81526020017f446563656e7472616c697a656420496e766f69636520466163746f72696e67008152506040518060400160405280600381526020017f4449460000000000000000000000000000000000000000000000000000000000815250816000908051906020019062000096929190620001a6565b508060019080519060200190620000af929190620001a6565b505050620000d2620000c6620000d860201b60201c565b620000e060201b60201c565b620002bb565b600033905090565b6000600660009054906101000a900473ffffffffffffffffffffffffffffffffffffffff16905081600660006101000a81548173ffffffffffffffffffffffffffffffffffffffff021916908373ffffffffffffffffffffffffffffffffffffffff1602179055508173ffffffffffffffffffffffffffffffffffffffff168173ffffffffffffffffffffffffffffffffffffffff167f8be0079c531659141344cd1fd0a4f28419497f9722a3daafe3b4186f6b6457e060405160405180910390a35050565b828054620001b49062000256565b90600052602060002090601f016020900481019282620001d8576000855562000224565b82601f10620001f357805160ff191683800117855562000224565b8280016001018555821562000224579182015b828111156200022357825182559160200191906001019062000206565b5b50905062000233919062000237565b5090565b5b808211156200025257600081600090555060010162000238565b5090565b600060028204905060018216806200026f57607f821691505b602082108114156200028657620002856200028c565b5b50919050565b7f4e487b7100000000000000000000000000000000000000000000000000000000600052602260045260246000fd5b61525a80620002cb6000396000f3fe608060405234801561001057600080fd5b50600436106101585760003560e01c806370a08231116100c3578063c40412b51161007c578063c40412b5146103f0578063c87b56dd14610420578063dd036e6314610450578063e7863d761461046e578063e985e9c51461049e578063f2fde38b146104ce57610158565b806370a0823114610342578063715018a6146103725780638da5cb5b1461037c57806395d89b411461039a578063a22cb465146103b8578063b88d4fde146103d457610158565b806318160ddd1161011557806318160ddd1461025c57806323b872dd1461027a5780632f745c591461029657806342842e0e146102c65780634f6ccce7146102e25780636352211e1461031257610158565b80630178fe3f1461015d57806301ffc9a71461019257806306fdde03146101c2578063081812fc146101e0578063095ea7b314610210578063150b7a021461022c575b600080fd5b61017760048036038101906101729190614104565b6104ea565b60405161018996959493929190614aa9565b60405180910390f35b6101ac60048036038101906101a791906140b2565b610793565b6040516101b99190614a51565b60405180910390f35b6101ca6107a5565b6040516101d79190614a87565b60405180910390f35b6101fa60048036038101906101f59190614104565b610837565b60405161020791906149ea565b60405180910390f35b61022a60048036038101906102259190614076565b6108bc565b005b61024660048036038101906102419190613f1e565b6109d4565b6040516102539190614a6c565b60405180910390f35b6102646109e8565b6040516102719190614d71565b60405180910390f35b610294600480360381019061028f9190613ecf565b6109f5565b005b6102b060048036038101906102ab9190614076565b610a55565b6040516102bd9190614d71565b60405180910390f35b6102e060048036038101906102db9190613ecf565b610afa565b005b6102fc60048036038101906102f79190614104565b610b1a565b6040516103099190614d71565b60405180910390f35b61032c60048036038101906103279190614104565b610bb1565b60405161033991906149ea565b60405180910390f35b61035c60048036038101906103579190613e6a565b610c63565b6040516103699190614d71565b60405180910390f35b61037a610d1b565b005b610384610da3565b60405161039191906149ea565b60405180910390f35b6103a2610dcd565b6040516103af9190614a87565b60405180910390f35b6103d260048036038101906103cd9190613f99565b610e5f565b005b6103ee60048036038101906103e99190613f1e565b610fe0565b005b61040a60048036038101906104059190614104565b611042565b6040516104179190614a51565b60405180910390f35b61043a60048036038101906104359190614104565b6111e7565b6040516104479190614a87565b60405180910390f35b61045861128e565b6040516104659190614d71565b60405180910390f35b61048860048036038101906104839190613fd5565b611294565b6040516104959190614a51565b60405180910390f35b6104b860048036038101906104b39190613e93565b61140c565b6040516104c59190614a51565b60405180910390f35b6104e860048036038101906104e39190613e6a565b6114a0565b005b60606000806000806000600c878154811061052e577f4e487b7100000000000000000000000000000000000000000000000000000000600052603260045260246000fd5b9060005260206000209060060201600001805461054a90614fde565b80601f016020809104026020016040519081016040528092919081815260200182805461057690614fde565b80156105c35780601f10610598576101008083540402835291602001916105c3565b820191906000526020600020905b8154815290600101906020018083116105a657829003601f168201915b50505050509550600c8781548110610604577f4e487b7100000000000000000000000000000000000000000000000000000000600052603260045260246000fd5b9060005260206000209060060201600101549450600c8781548110610652577f4e487b7100000000000000000000000000000000000000000000000000000000600052603260045260246000fd5b9060005260206000209060060201600201549350600c87815481106106a0577f4e487b7100000000000000000000000000000000000000000000000000000000600052603260045260246000fd5b906000526020600020906006020160030160009054906101000a9004600f0b9250600c87815481106106fb577f4e487b7100000000000000000000000000000000000000000000000000000000600052603260045260246000fd5b906000526020600020906006020160030160109054906101000a9004600f0b9150600c8781548110610756577f4e487b7100000000000000000000000000000000000000000000000000000000600052603260045260246000fd5b906000526020600020906006020160040160009054906101000a900473ffffffffffffffffffffffffffffffffffffffff16905091939550919395565b600061079e82611598565b9050919050565b6060600080546107b490614fde565b80601f01602080910402602001604051908101604052809291908181526020018280546107e090614fde565b801561082d5780601f106108025761010080835404028352916020019161082d565b820191906000526020600020905b81548152906001019060200180831161081057829003601f168201915b5050505050905090565b600061084282611612565b610881576040517f08c379a000000000000000000000000000000000000000000000000000000000815260040161087890614c71565b60405180910390fd5b6004600083815260200190815260200160002060009054906101000a900473ffffffffffffffffffffffffffffffffffffffff169050919050565b60006108c782610bb1565b90508073ffffffffffffffffffffffffffffffffffffffff168373ffffffffffffffffffffffffffffffffffffffff161415610938576040517f08c379a000000000000000000000000000000000000000000000000000000000815260040161092f90614cf1565b60405180910390fd5b8073ffffffffffffffffffffffffffffffffffffffff1661095761167e565b73ffffffffffffffffffffffffffffffffffffffff16148061098657506109858161098061167e565b61140c565b5b6109c5576040517f08c379a00000000000000000000000000000000000000000000000000000000081526004016109bc90614bf1565b60405180910390fd5b6109cf8383611686565b505050565b600063150b7a0260e01b9050949350505050565b6000600980549050905090565b610a06610a0061167e565b8261173f565b610a45576040517f08c379a0000000000000000000000000000000000000000000000000000000008152600401610a3c90614d11565b60405180910390fd5b610a5083838361181d565b505050565b6000610a6083610c63565b8210610aa1576040517f08c379a0000000000000000000000000000000000000000000000000000000008152600401610a9890614b11565b60405180910390fd5b600760008473ffffffffffffffffffffffffffffffffffffffff1673ffffffffffffffffffffffffffffffffffffffff168152602001908152602001600020600083815260200190815260200160002054905092915050565b610b1583838360405180602001604052806000815250610fe0565b505050565b6000610b246109e8565b8210610b65576040517f08c379a0000000000000000000000000000000000000000000000000000000008152600401610b5c90614d31565b60405180910390fd5b60098281548110610b9f577f4e487b7100000000000000000000000000000000000000000000000000000000600052603260045260246000fd5b90600052602060002001549050919050565b6000806002600084815260200190815260200160002060009054906101000a900473ffffffffffffffffffffffffffffffffffffffff169050600073ffffffffffffffffffffffffffffffffffffffff168173ffffffffffffffffffffffffffffffffffffffff161415610c5a576040517f08c379a0000000000000000000000000000000000000000000000000000000008152600401610c5190614c31565b60405180910390fd5b80915050919050565b60008073ffffffffffffffffffffffffffffffffffffffff168273ffffffffffffffffffffffffffffffffffffffff161415610cd4576040517f08c379a0000000000000000000000000000000000000000000000000000000008152600401610ccb90614c11565b60405180910390fd5b600360008373ffffffffffffffffffffffffffffffffffffffff1673ffffffffffffffffffffffffffffffffffffffff168152602001908152602001600020549050919050565b610d2361167e565b73ffffffffffffffffffffffffffffffffffffffff16610d41610da3565b73ffffffffffffffffffffffffffffffffffffffff1614610d97576040517f08c379a0000000000000000000000000000000000000000000000000000000008152600401610d8e90614c91565b60405180910390fd5b610da16000611a79565b565b6000600660009054906101000a900473ffffffffffffffffffffffffffffffffffffffff16905090565b606060018054610ddc90614fde565b80601f0160208091040260200160405190810160405280929190818152602001828054610e0890614fde565b8015610e555780601f10610e2a57610100808354040283529160200191610e55565b820191906000526020600020905b815481529060010190602001808311610e3857829003601f168201915b5050505050905090565b610e6761167e565b73ffffffffffffffffffffffffffffffffffffffff168273ffffffffffffffffffffffffffffffffffffffff161415610ed5576040517f08c379a0000000000000000000000000000000000000000000000000000000008152600401610ecc90614bb1565b60405180910390fd5b8060056000610ee261167e565b73ffffffffffffffffffffffffffffffffffffffff1673ffffffffffffffffffffffffffffffffffffffff16815260200190815260200160002060008473ffffffffffffffffffffffffffffffffffffffff1673ffffffffffffffffffffffffffffffffffffffff16815260200190815260200160002060006101000a81548160ff0219169083151502179055508173ffffffffffffffffffffffffffffffffffffffff16610f8f61167e565b73ffffffffffffffffffffffffffffffffffffffff167f17307eab39ab6107e8899845ad3d59bd9653f200f220920489ca2b5937696c3183604051610fd49190614a51565b60405180910390a35050565b610ff1610feb61167e565b8361173f565b611030576040517f08c379a000000000000000000000000000000000000000000000000000000000815260040161102790614d11565b60405180910390fd5b61103c84848484611b3f565b50505050565b600061104c61167e565b73ffffffffffffffffffffffffffffffffffffffff1661106a610da3565b73ffffffffffffffffffffffffffffffffffffffff16146110c0576040517f08c379a00000000000000000000000000000000000000000000000000000000081526004016110b790614c91565b60405180910390fd5b6000600c83815481106110fc577f4e487b7100000000000000000000000000000000000000000000000000000000600052603260045260246000fd5b906000526020600020906006020160030160009054906101000a9004600f0b90506000600c8481548110611159577f4e487b7100000000000000000000000000000000000000000000000000000000600052603260045260246000fd5b90600052602060002090600602016001015490506111778282611b9b565b50600c84815481106111b2577f4e487b7100000000000000000000000000000000000000000000000000000000600052603260045260246000fd5b906000526020600020906006020160030160009054906101000a9050506111dc3061dead866109f5565b600192505050919050565b60606111f282611612565b611231576040517f08c379a000000000000000000000000000000000000000000000000000000000815260040161122890614cd1565b60405180910390fd5b600061123b611bcc565b9050600081511161125b5760405180602001604052806000815250611286565b8061126584611be3565b60405160200161127692919061495a565b6040516020818303038152906040525b915050919050565b600b5481565b600061129e61167e565b73ffffffffffffffffffffffffffffffffffffffff166112bc610da3565b73ffffffffffffffffffffffffffffffffffffffff1614611312576040517f08c379a000000000000000000000000000000000000000000000000000000000815260040161130990614c91565b60405180910390fd5b600086868686868c60405160200161132f9695949392919061497e565b604051602081830303815290604052805190602001209050600e600082815260200190815260200160002060009054906101000a900460ff16156113a8576040517f08c379a000000000000000000000000000000000000000000000000000000000815260040161139f90614d51565b60405180910390fd5b6001600e600083815260200190815260200160002060006101000a81548160ff02191690831515021790555060006113e588888888888e88611d90565b90506113f18982611f39565b6113fb8588612107565b506001925050509695505050505050565b6000600560008473ffffffffffffffffffffffffffffffffffffffff1673ffffffffffffffffffffffffffffffffffffffff16815260200190815260200160002060008373ffffffffffffffffffffffffffffffffffffffff1673ffffffffffffffffffffffffffffffffffffffff16815260200190815260200160002060009054906101000a900460ff16905092915050565b6114a861167e565b73ffffffffffffffffffffffffffffffffffffffff166114c6610da3565b73ffffffffffffffffffffffffffffffffffffffff161461151c576040517f08c379a000000000000000000000000000000000000000000000000000000000815260040161151390614c91565b60405180910390fd5b600073ffffffffffffffffffffffffffffffffffffffff168173ffffffffffffffffffffffffffffffffffffffff16141561158c576040517f08c379a000000000000000000000000000000000000000000000000000000000815260040161158390614b51565b60405180910390fd5b61159581611a79565b50565b60007f780e9d63000000000000000000000000000000000000000000000000000000007bffffffffffffffffffffffffffffffffffffffffffffffffffffffff1916827bffffffffffffffffffffffffffffffffffffffffffffffffffffffff1916148061160b575061160a82612138565b5b9050919050565b60008073ffffffffffffffffffffffffffffffffffffffff166002600084815260200190815260200160002060009054906101000a900473ffffffffffffffffffffffffffffffffffffffff1673ffffffffffffffffffffffffffffffffffffffff1614159050919050565b600033905090565b816004600083815260200190815260200160002060006101000a81548173ffffffffffffffffffffffffffffffffffffffff021916908373ffffffffffffffffffffffffffffffffffffffff160217905550808273ffffffffffffffffffffffffffffffffffffffff166116f983610bb1565b73ffffffffffffffffffffffffffffffffffffffff167f8c5be1e5ebec7d5bd14f71427d1e84f3dd0314c0f7b2291e5b200ac8c7c3b92560405160405180910390a45050565b600061174a82611612565b611789576040517f08c379a000000000000000000000000000000000000000000000000000000000815260040161178090614bd1565b60405180910390fd5b600061179483610bb1565b90508073ffffffffffffffffffffffffffffffffffffffff168473ffffffffffffffffffffffffffffffffffffffff16148061180357508373ffffffffffffffffffffffffffffffffffffffff166117eb84610837565b73ffffffffffffffffffffffffffffffffffffffff16145b806118145750611813818561140c565b5b91505092915050565b8273ffffffffffffffffffffffffffffffffffffffff1661183d82610bb1565b73ffffffffffffffffffffffffffffffffffffffff1614611893576040517f08c379a000000000000000000000000000000000000000000000000000000000815260040161188a90614cb1565b60405180910390fd5b600073ffffffffffffffffffffffffffffffffffffffff168273ffffffffffffffffffffffffffffffffffffffff161415611903576040517f08c379a00000000000000000000000000000000000000000000000000000000081526004016118fa90614b91565b60405180910390fd5b61190e83838361221a565b611919600082611686565b6001600360008573ffffffffffffffffffffffffffffffffffffffff1673ffffffffffffffffffffffffffffffffffffffff16815260200190815260200160002060008282546119699190614ee7565b925050819055506001600360008473ffffffffffffffffffffffffffffffffffffffff1673ffffffffffffffffffffffffffffffffffffffff16815260200190815260200160002060008282546119c09190614e60565b92505081905550816002600083815260200190815260200160002060006101000a81548173ffffffffffffffffffffffffffffffffffffffff021916908373ffffffffffffffffffffffffffffffffffffffff160217905550808273ffffffffffffffffffffffffffffffffffffffff168473ffffffffffffffffffffffffffffffffffffffff167fddf252ad1be2c89b69c2b068fc378daa952ba7f163c4a11628f55a4df523b3ef60405160405180910390a4505050565b6000600660009054906101000a900473ffffffffffffffffffffffffffffffffffffffff16905081600660006101000a81548173ffffffffffffffffffffffffffffffffffffffff021916908373ffffffffffffffffffffffffffffffffffffffff1602179055508173ffffffffffffffffffffffffffffffffffffffff168173ffffffffffffffffffffffffffffffffffffffff167f8be0079c531659141344cd1fd0a4f28419497f9722a3daafe3b4186f6b6457e060405160405180910390a35050565b611b4a84848461181d565b611b568484848461222a565b611b95576040517f08c379a0000000000000000000000000000000000000000000000000000000008152600401611b8c90614b31565b60405180910390fd5b50505050565b600080611bb0611baa856123c1565b84612410565b9050611bbe600b54826124cb565b600b81905591505092915050565b606060405180602001604052806000815250905090565b60606000821415611c2b576040518060400160405280600181526020017f30000000000000000000000000000000000000000000000000000000000000008152509050611d8b565b600082905060005b60008214611c5d578080611c4690615010565b915050600a82611c569190614eb6565b9150611c33565b60008167ffffffffffffffff811115611c9f577f4e487b7100000000000000000000000000000000000000000000000000000000600052604160045260246000fd5b6040519080825280601f01601f191660200182016040528015611cd15781602001600182028036833780820191505090505b5090505b60008514611d8457600182611cea9190614ee7565b9150600a85611cf99190615099565b6030611d059190614e60565b60f81b818381518110611d41577f4e487b7100000000000000000000000000000000000000000000000000000000600052603260045260246000fd5b60200101907effffffffffffffffffffffffffffffffffffffffffffffffffffffffffffff1916908160001a905350600a85611d7d9190614eb6565b9450611cd5565b8093505050505b919050565b6000600c6040518060e001604052808a815260200189815260200188815260200187600f0b815260200186600f0b81526020018573ffffffffffffffffffffffffffffffffffffffff1681526020018481525090806001815401808255809150506001900390600052602060002090600602016000909190919091506000820151816000019080519060200190611e28929190613c79565b50602082015181600101556040820151816002015560608201518160030160006101000a8154816fffffffffffffffffffffffffffffffff0219169083600f0b6fffffffffffffffffffffffffffffffff16021790555060808201518160030160106101000a8154816fffffffffffffffffffffffffffffffff0219169083600f0b6fffffffffffffffffffffffffffffffff16021790555060a08201518160040160006101000a81548173ffffffffffffffffffffffffffffffffffffffff021916908373ffffffffffffffffffffffffffffffffffffffff16021790555060c08201518160050155505060006001600c80549050611f289190614ee7565b905080915050979650505050505050565b600073ffffffffffffffffffffffffffffffffffffffff168273ffffffffffffffffffffffffffffffffffffffff161415611fa9576040517f08c379a0000000000000000000000000000000000000000000000000000000008152600401611fa090614c51565b60405180910390fd5b611fb281611612565b15611ff2576040517f08c379a0000000000000000000000000000000000000000000000000000000008152600401611fe990614b71565b60405180910390fd5b611ffe6000838361221a565b6001600360008473ffffffffffffffffffffffffffffffffffffffff1673ffffffffffffffffffffffffffffffffffffffff168152602001908152602001600020600082825461204e9190614e60565b92505081905550816002600083815260200190815260200160002060006101000a81548173ffffffffffffffffffffffffffffffffffffffff021916908373ffffffffffffffffffffffffffffffffffffffff160217905550808273ffffffffffffffffffffffffffffffffffffffff16600073ffffffffffffffffffffffffffffffffffffffff167fddf252ad1be2c89b69c2b068fc378daa952ba7f163c4a11628f55a4df523b3ef60405160405180910390a45050565b60008061211c612116856123c1565b84612410565b905061212a600b54826124e1565b600b81905591505092915050565b60007f80ac58cd000000000000000000000000000000000000000000000000000000007bffffffffffffffffffffffffffffffffffffffffffffffffffffffff1916827bffffffffffffffffffffffffffffffffffffffffffffffffffffffff1916148061220357507f5b5e139f000000000000000000000000000000000000000000000000000000007bffffffffffffffffffffffffffffffffffffffffffffffffffffffff1916827bffffffffffffffffffffffffffffffffffffffffffffffffffffffff1916145b806122135750612212826124f7565b5b9050919050565b612225838383612561565b505050565b600061224b8473ffffffffffffffffffffffffffffffffffffffff16612675565b156123b4578373ffffffffffffffffffffffffffffffffffffffff1663150b7a0261227461167e565b8786866040518563ffffffff1660e01b81526004016122969493929190614a05565b602060405180830381600087803b1580156122b057600080fd5b505af19250505080156122e157506040513d601f19601f820116820180604052508101906122de91906140db565b60015b612364573d8060008114612311576040519150601f19603f3d011682016040523d82523d6000602084013e612316565b606091505b5060008151141561235c576040517f08c379a000000000000000000000000000000000000000000000000000000000815260040161235390614b31565b60405180910390fd5b805181602001fd5b63150b7a0260e01b7bffffffffffffffffffffffffffffffffffffffffffffffffffffffff1916817bffffffffffffffffffffffffffffffffffffffffffffffffffffffff1916149150506123b9565b600190505b949350505050565b60006124096123fa6123f56123df6123da61016d612688565b6126ab565b6123f06123eb87612764565b61278a565b6128ae565b612919565b6124046001612688565b613519565b9050919050565b60008082141561242357600090506124c5565b600083600f0b121561243457600080fd5b600060406fffffffffffffffffffffffffffffffff841685600f0b02901c90506000608084901c85600f0b02905077ffffffffffffffffffffffffffffffffffffffffffffffff81111561248757600080fd5b604081901b9050817fffffffffffffffffffffffffffffffffffffffffffffffffffffffffffffffff038111156124bd57600080fd5b818101925050505b92915050565b600081836124d99190614ee7565b905092915050565b600081836124ef9190614e60565b905092915050565b60007f01ffc9a7000000000000000000000000000000000000000000000000000000007bffffffffffffffffffffffffffffffffffffffffffffffffffffffff1916827bffffffffffffffffffffffffffffffffffffffffffffffffffffffff1916149050919050565b61256c838383613580565b600073ffffffffffffffffffffffffffffffffffffffff168373ffffffffffffffffffffffffffffffffffffffff1614156125af576125aa81613585565b6125ee565b8173ffffffffffffffffffffffffffffffffffffffff168373ffffffffffffffffffffffffffffffffffffffff16146125ed576125ec83826135ce565b5b5b600073ffffffffffffffffffffffffffffffffffffffff168273ffffffffffffffffffffffffffffffffffffffff1614156126315761262c8161373b565b612670565b8273ffffffffffffffffffffffffffffffffffffffff168273ffffffffffffffffffffffffffffffffffffffff161461266f5761266e828261387e565b5b5b505050565b600080823b905060008111915050919050565b6000677fffffffffffffff82111561269f57600080fd5b604082901b9050919050565b60008082600f0b14156126bd57600080fd5b600082600f0b70010000000000000000000000000000000081612709577f4e487b7100000000000000000000000000000000000000000000000000000000600052601260045260246000fd5b0590507fffffffffffffffffffffffffffffffff80000000000000000000000000000000600f0b811215801561275257506f7fffffffffffffffffffffffffffffff600f0b8113155b61275b57600080fd5b80915050919050565b600061278361277c6127766001612688565b846138fd565b600c613964565b9050919050565b60008082600f0b1361279b57600080fd5b60008083600f0b90506801000000000000000081126127c257604081901d90506040820191505b64010000000081126127dc57602081901d90506020820191505b6201000081126127f457601081901d90506010820191505b610100811261280b57600881901d90506008820191505b6010811261282157600481901d90506004820191505b6004811261283757600281901d90506002820191505b60028112612846576001820191505b60006040808403901b9050600083607f0386600f0b901b9050600067800000000000000090505b60008113156128a1578182029150600060ff83901c905080607f0183901c92508082028401935050600181901d905061286d565b5081945050505050919050565b600080604083600f0b85600f0b02901d90507fffffffffffffffffffffffffffffffff80000000000000000000000000000000600f0b811215801561290657506f7fffffffffffffffffffffffffffffff600f0b8113155b61290f57600080fd5b8091505092915050565b60006840000000000000000082600f0b1261293357600080fd5b7fffffffffffffffffffffffffffffffffffffffffffffffc0000000000000000082600f0b12156129675760009050613514565b60006f80000000000000000000000000000000905060006780000000000000008416600f0b13156129ad57608070016a09e667f3bcc908b2fb1366ea957d3e8202901c90505b60006740000000000000008416600f0b13156129de5760807001306fe0a31b7152de8d5a46305c85edec8202901c90505b60006720000000000000008416600f0b1315612a0f5760807001172b83c7d517adcdf7c8c50eb14a791f8202901c90505b60006710000000000000008416600f0b1315612a4057608070010b5586cf9890f6298b92b71842a983638202901c90505b60006708000000000000008416600f0b1315612a715760807001059b0d31585743ae7c548eb68ca417fd8202901c90505b60006704000000000000008416600f0b1315612aa2576080700102c9a3e778060ee6f7caca4f7a29bde88202901c90505b60006702000000000000008416600f0b1315612ad357608070010163da9fb33356d84a66ae336dcdfa3f8202901c90505b60006701000000000000008416600f0b1315612b04576080700100b1afa5abcbed6129ab13ec11dc95438202901c90505b600066800000000000008416600f0b1315612b3457608070010058c86da1c09ea1ff19d294cf2f679b8202901c90505b600066400000000000008416600f0b1315612b645760807001002c605e2e8cec506d21bfc89a23a00f8202901c90505b600066200000000000008416600f0b1315612b94576080700100162f3904051fa128bca9c55c31e5df8202901c90505b600066100000000000008416600f0b1315612bc45760807001000b175effdc76ba38e31671ca9397258202901c90505b600066080000000000008416600f0b1315612bf4576080700100058ba01fb9f96d6cacd4b180917c3d8202901c90505b600066040000000000008416600f0b1315612c2457608070010002c5cc37da9491d0985c348c68e7b38202901c90505b600066020000000000008416600f0b1315612c545760807001000162e525ee054754457d59952920268202901c90505b600066010000000000008416600f0b1315612c8457608070010000b17255775c040618bf4a4ade83fc8202901c90505b6000658000000000008416600f0b1315612cb35760807001000058b91b5bc9ae2eed81e9b7d4cfab8202901c90505b6000654000000000008416600f0b1315612ce2576080700100002c5c89d5ec6ca4d7c8acc017b7c98202901c90505b6000652000000000008416600f0b1315612d1157608070010000162e43f4f831060e02d839a9d16d8202901c90505b6000651000000000008416600f0b1315612d40576080700100000b1721bcfc99d9f890ea069117638202901c90505b6000650800000000008416600f0b1315612d6f57608070010000058b90cf1e6d97f9ca14dbcc16288202901c90505b6000650400000000008416600f0b1315612d9e5760807001000002c5c863b73f016468f6bac5ca2b8202901c90505b6000650200000000008416600f0b1315612dcd576080700100000162e430e5a18f6119e3c02282a58202901c90505b6000650100000000008416600f0b1315612dfc5760807001000000b1721835514b86e6d96efd1bfe8202901c90505b60006480000000008416600f0b1315612e2a576080700100000058b90c0b48c6be5df846c5b2ef8202901c90505b60006440000000008416600f0b1315612e5857608070010000002c5c8601cc6b9e94213c72737a8202901c90505b60006420000000008416600f0b1315612e865760807001000000162e42fff037df38aa2b219f068202901c90505b60006410000000008416600f0b1315612eb457608070010000000b17217fba9c739aa5819f44f98202901c90505b60006408000000008416600f0b1315612ee25760807001000000058b90bfcdee5acd3c1cedc8238202901c90505b60006404000000008416600f0b1315612f10576080700100000002c5c85fe31f35a6a30da1be508202901c90505b60006402000000008416600f0b1315612f3e57608070010000000162e42ff0999ce3541b9fffcf8202901c90505b60006401000000008416600f0b1315612f6c576080700100000000b17217f80f4ef5aadda455548202901c90505b600063800000008416600f0b1315612f9957608070010000000058b90bfbf8479bd5a81b51ad8202901c90505b600063400000008416600f0b1315612fc65760807001000000002c5c85fdf84bd62ae30a74cc8202901c90505b600063200000008416600f0b1315612ff3576080700100000000162e42fefb2fed257559bdaa8202901c90505b600063100000008416600f0b13156130205760807001000000000b17217f7d5a7716bba4a9ae8202901c90505b600063080000008416600f0b131561304d576080700100000000058b90bfbe9ddbac5e109cce8202901c90505b600063040000008416600f0b131561307a57608070010000000002c5c85fdf4b15de6f17eb0d8202901c90505b600063020000008416600f0b13156130a75760807001000000000162e42fefa494f1478fde058202901c90505b600063010000008416600f0b13156130d457608070010000000000b17217f7d20cf927c8e94c8202901c90505b6000628000008416600f0b13156131005760807001000000000058b90bfbe8f71cb4e4b33d8202901c90505b6000624000008416600f0b131561312c576080700100000000002c5c85fdf477b662b269458202901c90505b6000622000008416600f0b131561315857608070010000000000162e42fefa3ae53369388c8202901c90505b6000621000008416600f0b1315613184576080700100000000000b17217f7d1d351a389d408202901c90505b6000620800008416600f0b13156131b057608070010000000000058b90bfbe8e8b2d3d4ede8202901c90505b6000620400008416600f0b13156131dc5760807001000000000002c5c85fdf4741bea6e77e8202901c90505b6000620200008416600f0b1315613208576080700100000000000162e42fefa39fe95583c28202901c90505b6000620100008416600f0b13156132345760807001000000000000b17217f7d1cfb72b45e18202901c90505b60006180008416600f0b131561325f576080700100000000000058b90bfbe8e7cc35c3f08202901c90505b60006140008416600f0b131561328a57608070010000000000002c5c85fdf473e242ea388202901c90505b60006120008416600f0b13156132b55760807001000000000000162e42fefa39f02b772c8202901c90505b60006110008416600f0b13156132e057608070010000000000000b17217f7d1cf7d83c1a8202901c90505b60006108008416600f0b131561330b5760807001000000000000058b90bfbe8e7bdcbe2e8202901c90505b60006104008416600f0b1315613336576080700100000000000002c5c85fdf473dea871f8202901c90505b60006102008416600f0b131561336157608070010000000000000162e42fefa39ef44d918202901c90505b60006101008416600f0b131561338c576080700100000000000000b17217f7d1cf79e9498202901c90505b600060808416600f0b13156133b657608070010000000000000058b90bfbe8e7bce5448202901c90505b600060408416600f0b13156133e05760807001000000000000002c5c85fdf473de6eca8202901c90505b600060208416600f0b131561340a576080700100000000000000162e42fefa39ef366f8202901c90505b600060108416600f0b13156134345760807001000000000000000b17217f7d1cf79afa8202901c90505b600060088416600f0b131561345e576080700100000000000000058b90bfbe8e7bcd6d8202901c90505b600060048416600f0b131561348857608070010000000000000002c5c85fdf473de6b28202901c90505b600060028416600f0b13156134b25760807001000000000000000162e42fefa39ef3588202901c90505b600060018416600f0b13156134dc57608070010000000000000000b17217f7d1cf79ab8202901c90505b604083600f0b901d603f03600f0b81901c90506f7fffffffffffffffffffffffffffffff600f0b81111561350f57600080fd5b809150505b919050565b60008082600f0b84600f0b0390507fffffffffffffffffffffffffffffffff80000000000000000000000000000000600f0b811215801561356d57506f7fffffffffffffffffffffffffffffff600f0b8113155b61357657600080fd5b8091505092915050565b505050565b600980549050600a600083815260200190815260200160002081905550600981908060018154018082558091505060019003906000526020600020016000909190919091505550565b600060016135db84610c63565b6135e59190614ee7565b90506000600860008481526020019081526020016000205490508181146136ca576000600760008673ffffffffffffffffffffffffffffffffffffffff1673ffffffffffffffffffffffffffffffffffffffff168152602001908152602001600020600084815260200190815260200160002054905080600760008773ffffffffffffffffffffffffffffffffffffffff1673ffffffffffffffffffffffffffffffffffffffff168152602001908152602001600020600084815260200190815260200160002081905550816008600083815260200190815260200160002081905550505b6008600084815260200190815260200160002060009055600760008573ffffffffffffffffffffffffffffffffffffffff1673ffffffffffffffffffffffffffffffffffffffff16815260200190815260200160002060008381526020019081526020016000206000905550505050565b6000600160098054905061374f9190614ee7565b90506000600a60008481526020019081526020016000205490506000600983815481106137a5577f4e487b7100000000000000000000000000000000000000000000000000000000600052603260045260246000fd5b9060005260206000200154905080600983815481106137ed577f4e487b7100000000000000000000000000000000000000000000000000000000600052603260045260246000fd5b906000526020600020018190555081600a600083815260200190815260200160002081905550600a6000858152602001908152602001600020600090556009805480613862577f4e487b7100000000000000000000000000000000000000000000000000000000600052603160045260246000fd5b6001900381819060005260206000200160009055905550505050565b600061388983610c63565b905081600760008573ffffffffffffffffffffffffffffffffffffffff1673ffffffffffffffffffffffffffffffffffffffff168152602001908152602001600020600083815260200190815260200160002081905550806008600084815260200190815260200160002081905550505050565b60008082600f0b84600f0b0190507fffffffffffffffffffffffffffffffff80000000000000000000000000000000600f0b811215801561395157506f7fffffffffffffffffffffffffffffff600f0b8113155b61395a57600080fd5b8091505092915050565b600080600084600f0b12801561397c57506001808416145b905060008085600f0b126139905784613995565b846000035b6fffffffffffffffffffffffffffffffff16905060007001000000000000000000000000000000009050680100000000000000008211613a6f57603f82901b91505b60008514613a6357600060018616146139f457607f828202901c90505b607f828302901c915060006002861614613a1257607f828202901c90505b607f828302901c915060006004861614613a3057607f828202901c90505b607f828302901c915060006008861614613a4e57607f828202901c90505b607f828302901c9150600485901c94506139d7565b604081901c9050613c09565b6000603f90506c01000000000000000000000000831015613a9857602083901b92506020810390505b6e010000000000000000000000000000831015613abd57601083901b92506010810390505b6f01000000000000000000000000000000831015613ae357600883901b92506008810390505b6f10000000000000000000000000000000831015613b0957600483901b92506004810390505b6f40000000000000000000000000000000831015613b2f57600283901b92506002810390505b6f80000000000000000000000000000000831015613b5557600183901b92506001810390505b60005b60008714613bf05760408210613b6d57600080fd5b60006001881614613bae57607f848402901c92508181019050700100000000000000000000000000000000831115613bad57600183901c92506001810190505b5b607f848502901c9350600182901b91507001000000000000000000000000000000008410613be457600184901c93506001820191505b600187901c9650613b58565b60408110613bfd57600080fd5b8060400383901c925050505b600083613c165781613c1b565b816000035b90507fffffffffffffffffffffffffffffffff80000000000000000000000000000000600f0b8112158015613c6357506f7fffffffffffffffffffffffffffffff600f0b8113155b613c6c57600080fd5b8094505050505092915050565b828054613c8590614fde565b90600052602060002090601f016020900481019282613ca75760008555613cee565b82601f10613cc057805160ff1916838001178555613cee565b82800160010185558215613cee579182015b82811115613ced578251825591602001919060010190613cd2565b5b509050613cfb9190613cff565b5090565b5b80821115613d18576000816000905550600101613d00565b5090565b6000613d2f613d2a84614dbd565b614d8c565b905082815260208101848484011115613d4757600080fd5b613d52848285614f9c565b509392505050565b6000613d6d613d6884614ded565b614d8c565b905082815260208101848484011115613d8557600080fd5b613d90848285614f9c565b509392505050565b600081359050613da7816151b1565b92915050565b600081359050613dbc816151c8565b92915050565b600081359050613dd1816151df565b92915050565b600081519050613de6816151df565b92915050565b600082601f830112613dfd57600080fd5b8135613e0d848260208601613d1c565b91505092915050565b600081359050613e25816151f6565b92915050565b600082601f830112613e3c57600080fd5b8135613e4c848260208601613d5a565b91505092915050565b600081359050613e648161520d565b92915050565b600060208284031215613e7c57600080fd5b6000613e8a84828501613d98565b91505092915050565b60008060408385031215613ea657600080fd5b6000613eb485828601613d98565b9250506020613ec585828601613d98565b9150509250929050565b600080600060608486031215613ee457600080fd5b6000613ef286828701613d98565b9350506020613f0386828701613d98565b9250506040613f1486828701613e55565b9150509250925092565b60008060008060808587031215613f3457600080fd5b6000613f4287828801613d98565b9450506020613f5387828801613d98565b9350506040613f6487828801613e55565b925050606085013567ffffffffffffffff811115613f8157600080fd5b613f8d87828801613dec565b91505092959194509250565b60008060408385031215613fac57600080fd5b6000613fba85828601613d98565b9250506020613fcb85828601613dad565b9150509250929050565b60008060008060008060c08789031215613fee57600080fd5b6000613ffc89828a01613d98565b965050602087013567ffffffffffffffff81111561401957600080fd5b61402589828a01613e2b565b955050604061403689828a01613e55565b945050606061404789828a01613e55565b935050608061405889828a01613e16565b92505060a061406989828a01613e16565b9150509295509295509295565b6000806040838503121561408957600080fd5b600061409785828601613d98565b92505060206140a885828601613e55565b9150509250929050565b6000602082840312156140c457600080fd5b60006140d284828501613dc2565b91505092915050565b6000602082840312156140ed57600080fd5b60006140fb84828501613dd7565b91505092915050565b60006020828403121561411657600080fd5b600061412484828501613e55565b91505092915050565b61413681614f1b565b82525050565b61414d61414882614f1b565b615059565b82525050565b61415c81614f2d565b82525050565b61416b81614f39565b82525050565b600061417c82614e1d565b6141868185614e33565b9350614196818560208601614fab565b61419f81615186565b840191505092915050565b6141b381614f65565b82525050565b6141ca6141c582614f65565b61506b565b82525050565b60006141db82614e28565b6141e58185614e44565b93506141f5818560208601614fab565b6141fe81615186565b840191505092915050565b600061421482614e28565b61421e8185614e55565b935061422e818560208601614fab565b80840191505092915050565b6000614247602b83614e44565b91507f455243373231456e756d657261626c653a206f776e657220696e646578206f7560008301527f74206f6620626f756e64730000000000000000000000000000000000000000006020830152604082019050919050565b60006142ad603283614e44565b91507f4552433732313a207472616e7366657220746f206e6f6e20455243373231526560008301527f63656976657220696d706c656d656e74657200000000000000000000000000006020830152604082019050919050565b6000614313602683614e44565b91507f4f776e61626c653a206e6577206f776e657220697320746865207a65726f206160008301527f64647265737300000000000000000000000000000000000000000000000000006020830152604082019050919050565b6000614379601c83614e44565b91507f4552433732313a20746f6b656e20616c7265616479206d696e746564000000006000830152602082019050919050565b60006143b9602483614e44565b91507f4552433732313a207472616e7366657220746f20746865207a65726f2061646460008301527f72657373000000000000000000000000000000000000000000000000000000006020830152604082019050919050565b600061441f601983614e44565b91507f4552433732313a20617070726f766520746f2063616c6c6572000000000000006000830152602082019050919050565b600061445f602c83614e44565b91507f4552433732313a206f70657261746f7220717565727920666f72206e6f6e657860008301527f697374656e7420746f6b656e00000000000000000000000000000000000000006020830152604082019050919050565b60006144c5603883614e44565b91507f4552433732313a20617070726f76652063616c6c6572206973206e6f74206f7760008301527f6e6572206e6f7220617070726f76656420666f7220616c6c00000000000000006020830152604082019050919050565b600061452b602a83614e44565b91507f4552433732313a2062616c616e636520717565727920666f7220746865207a6560008301527f726f2061646472657373000000000000000000000000000000000000000000006020830152604082019050919050565b6000614591602983614e44565b91507f4552433732313a206f776e657220717565727920666f72206e6f6e657869737460008301527f656e7420746f6b656e00000000000000000000000000000000000000000000006020830152604082019050919050565b60006145f7602083614e44565b91507f4552433732313a206d696e7420746f20746865207a65726f20616464726573736000830152602082019050919050565b6000614637602c83614e44565b91507f4552433732313a20617070726f76656420717565727920666f72206e6f6e657860008301527f697374656e7420746f6b656e00000000000000000000000000000000000000006020830152604082019050919050565b600061469d602083614e44565b91507f4f776e61626c653a2063616c6c6572206973206e6f7420746865206f776e65726000830152602082019050919050565b60006146dd602983614e44565b91507f4552433732313a207472616e73666572206f6620746f6b656e2074686174206960008301527f73206e6f74206f776e00000000000000000000000000000000000000000000006020830152604082019050919050565b6000614743602f83614e44565b91507f4552433732314d657461646174613a2055524920717565727920666f72206e6f60008301527f6e6578697374656e7420746f6b656e00000000000000000000000000000000006020830152604082019050919050565b60006147a9602183614e44565b91507f4552433732313a20617070726f76616c20746f2063757272656e74206f776e6560008301527f72000000000000000000000000000000000000000000000000000000000000006020830152604082019050919050565b600061480f603183614e44565b91507f4552433732313a207472616e736665722063616c6c6572206973206e6f74206f60008301527f776e6572206e6f7220617070726f7665640000000000000000000000000000006020830152604082019050919050565b6000614875602c83614e44565b91507f455243373231456e756d657261626c653a20676c6f62616c20696e646578206f60008301527f7574206f6620626f756e647300000000000000000000000000000000000000006020830152604082019050919050565b60006148db602483614e44565b91507f4e46545f466163746f72793a2054686973206861736820657869737420616c7260008301527f65616479000000000000000000000000000000000000000000000000000000006020830152604082019050919050565b61493d81614f92565b82525050565b61495461494f82614f92565b61508f565b82525050565b60006149668285614209565b91506149728284614209565b91508190509392505050565b600061498a8289614209565b91506149968288614943565b6020820191506149a68287614943565b6020820191506149b682866141b9565b6010820191506149c682856141b9565b6010820191506149d6828461413c565b601482019150819050979650505050505050565b60006020820190506149ff600083018461412d565b92915050565b6000608082019050614a1a600083018761412d565b614a27602083018661412d565b614a346040830185614934565b8181036060830152614a468184614171565b905095945050505050565b6000602082019050614a666000830184614153565b92915050565b6000602082019050614a816000830184614162565b92915050565b60006020820190508181036000830152614aa181846141d0565b905092915050565b600060c0820190508181036000830152614ac381896141d0565b9050614ad26020830188614934565b614adf6040830187614934565b614aec60608301866141aa565b614af960808301856141aa565b614b0660a083018461412d565b979650505050505050565b60006020820190508181036000830152614b2a8161423a565b9050919050565b60006020820190508181036000830152614b4a816142a0565b9050919050565b60006020820190508181036000830152614b6a81614306565b9050919050565b60006020820190508181036000830152614b8a8161436c565b9050919050565b60006020820190508181036000830152614baa816143ac565b9050919050565b60006020820190508181036000830152614bca81614412565b9050919050565b60006020820190508181036000830152614bea81614452565b9050919050565b60006020820190508181036000830152614c0a816144b8565b9050919050565b60006020820190508181036000830152614c2a8161451e565b9050919050565b60006020820190508181036000830152614c4a81614584565b9050919050565b60006020820190508181036000830152614c6a816145ea565b9050919050565b60006020820190508181036000830152614c8a8161462a565b9050919050565b60006020820190508181036000830152614caa81614690565b9050919050565b60006020820190508181036000830152614cca816146d0565b9050919050565b60006020820190508181036000830152614cea81614736565b9050919050565b60006020820190508181036000830152614d0a8161479c565b9050919050565b60006020820190508181036000830152614d2a81614802565b9050919050565b60006020820190508181036000830152614d4a81614868565b9050919050565b60006020820190508181036000830152614d6a816148ce565b9050919050565b6000602082019050614d866000830184614934565b92915050565b6000604051905081810181811067ffffffffffffffff82111715614db357614db2615157565b5b8060405250919050565b600067ffffffffffffffff821115614dd857614dd7615157565b5b601f19601f8301169050602081019050919050565b600067ffffffffffffffff821115614e0857614e07615157565b5b601f19601f8301169050602081019050919050565b600081519050919050565b600081519050919050565b600082825260208201905092915050565b600082825260208201905092915050565b600081905092915050565b6000614e6b82614f92565b9150614e7683614f92565b9250827fffffffffffffffffffffffffffffffffffffffffffffffffffffffffffffffff03821115614eab57614eaa6150ca565b5b828201905092915050565b6000614ec182614f92565b9150614ecc83614f92565b925082614edc57614edb6150f9565b5b828204905092915050565b6000614ef282614f92565b9150614efd83614f92565b925082821015614f1057614f0f6150ca565b5b828203905092915050565b6000614f2682614f72565b9050919050565b60008115159050919050565b60007fffffffff0000000000000000000000000000000000000000000000000000000082169050919050565b600081600f0b9050919050565b600073ffffffffffffffffffffffffffffffffffffffff82169050919050565b6000819050919050565b82818337600083830152505050565b60005b83811015614fc9578082015181840152602081019050614fae565b83811115614fd8576000848401525b50505050565b60006002820490506001821680614ff657607f821691505b6020821081141561500a57615009615128565b5b50919050565b600061501b82614f92565b91507fffffffffffffffffffffffffffffffffffffffffffffffffffffffffffffffff82141561504e5761504d6150ca565b5b600182019050919050565b60006150648261507d565b9050919050565b600061507682615197565b9050919050565b6000615088826151a4565b9050919050565b6000819050919050565b60006150a482614f92565b91506150af83614f92565b9250826150bf576150be6150f9565b5b828206905092915050565b7f4e487b7100000000000000000000000000000000000000000000000000000000600052601160045260246000fd5b7f4e487b7100000000000000000000000000000000000000000000000000000000600052601260045260246000fd5b7f4e487b7100000000000000000000000000000000000000000000000000000000600052602260045260246000fd5b7f4e487b7100000000000000000000000000000000000000000000000000000000600052604160045260246000fd5b6000601f19601f8301169050919050565b60008160801b9050919050565b60008160601b9050919050565b6151ba81614f1b565b81146151c557600080fd5b50565b6151d181614f2d565b81146151dc57600080fd5b50565b6151e881614f39565b81146151f357600080fd5b50565b6151ff81614f65565b811461520a57600080fd5b50565b61521681614f92565b811461522157600080fd5b5056fea2646970667358221220f90931a2a1a9d319663ba22577dfd7e251ef1a7123e44c6190c3f251fd3e9c4c64736f6c63430008000033",
  "immutableReferences": {},
  "source": "// SPDX-License-Identifier: MIT\npragma solidity ^0.8.0;\n\n/** @title NFT_FACTORY\n    @author Pedro Yuris Machado Leiva\n    @notice Smart Contract to mint NFTs that represent a real factoring invoices \n    @custom:company Reserva Food System\n    @custom:addressMumbai 0x5673a930Da6dB358E86B532d9d1B3941c5F64Aa3\n*/\n\nimport \"@openzeppelin/contracts/token/ERC721/ERC721.sol\";\nimport \"@openzeppelin/contracts/token/ERC721/extensions/ERC721Enumerable.sol\";\nimport \"@openzeppelin/contracts/token/ERC721/IERC721Receiver.sol\";\nimport \"@openzeppelin/contracts/access/Ownable.sol\";\nimport \"@openzeppelin/contracts/utils/math/SafeMath.sol\";\nimport \"./ABDKMath64x64.sol\";\n\n\ncontract NFT_FACTORY is ERC721, Ownable, ERC721Enumerable, IERC721Receiver {\n    uint public dailyInterestRUSD;\n    address constant burnAddress = 0x000000000000000000000000000000000000dEaD;\n    \n\n\n\n/// @dev NFT's properties and validation system for each NFT minted. \n\n    struct DATA_INVOICE {\n        string dataCustumer;\n        uint valueOfNFT;\n        uint balanceAdvance;\n        int128 interestRate;\n        int128 interestRateOverDue;\n        address seller;\n        bytes32 invoiceHash;\n    }\n    \n    DATA_INVOICE[] private _dataInvoices;\n    \n    mapping (bytes32 => uint256) private _hashTokenId;\n    mapping (bytes32 => bool) private _hashExist;\n\n    event RATIOCHANGED(int128 indexed newRatio);\n\n    constructor() ERC721(\"Decentralized Invoice Factoring\", \"DIF\") { }\n\n/// @dev The following functions are overrides required by Solidity.\n\n    function _beforeTokenTransfer(address from, address to, uint256 tokenId)\n        internal\n        override(ERC721, ERC721Enumerable)\n    {\n        super._beforeTokenTransfer(from, to, tokenId);\n    }\n\n\n    function supportsInterface(bytes4 interfaceId)\n        public\n        view\n        override(ERC721, ERC721Enumerable)\n        returns (bool)\n    {\n        return super.supportsInterface(interfaceId);\n    }\n    \n    function onERC721Received(address, address, uint256, bytes memory) public virtual override returns (bytes4) {\n        return this.onERC721Received.selector;\n    }\n\n/// @dev Mint a new NFT to recipient\n\n    function createInvoice(\n        address _recipient,\n        string memory _dataCustumer,\n        uint _valueOfNFT,\n        uint _balanceAdvance,\n        int128 _interestRate,\n        int128 _interestRateOverDue) external onlyOwner returns (bool) {            \n            bytes32 invoiceHash = keccak256(abi.encodePacked(_dataCustumer, _valueOfNFT, _balanceAdvance, _interestRate, _interestRateOverDue , _recipient)); \n            require(! _hashExist[invoiceHash], \"NFT_Factory: This hash exist already\");\n            _hashExist[invoiceHash] = true;\n            uint256 newItemId = _assemble(\n                            _dataCustumer,\n                            _valueOfNFT,\n                            _balanceAdvance,                           \n                            _interestRate,\n                            _interestRateOverDue,\n                            _recipient,\n                            invoiceHash);\n            _mint(_recipient, newItemId);\n            _interestToMint(_interestRate, _valueOfNFT);\n            return true;\n        \n        }\n///@dev Burn one NFT when is paid and reduce of Fund's dailyInterest \n    function destroyNFT(uint tokenId) external onlyOwner returns(bool) {\n        int128 mir = _dataInvoices[tokenId].interestRate;\n        uint amount = _dataInvoices[tokenId].valueOfNFT;\n        _interestToBurn(mir, amount);(_dataInvoices[tokenId].interestRate);\n        transferFrom(address(this), burnAddress, tokenId);\n        return true;\n    }\n\n/// @dev Insert tokenId @param and the function @return all data attached at this token\n\n    function getData(uint256 tokenId) public view returns (string memory dataCustumer, uint valueOfNFT, uint balanceAdvance, int128 interestRate, int128 interestRateOverDue, address seller) {\n        dataCustumer = _dataInvoices[tokenId].dataCustumer;\n        valueOfNFT = _dataInvoices[tokenId].valueOfNFT;\n        balanceAdvance = _dataInvoices[tokenId].balanceAdvance;\n        interestRate = _dataInvoices[tokenId].interestRate;\n        interestRateOverDue = _dataInvoices[tokenId].interestRateOverDue;\n        seller = _dataInvoices[tokenId].seller;\n    }\n\n\n/// @dev Private function to assemble one NFT and @return a single id for each token minted.\n\n    function _assemble( string memory _dataCustumer, \n                        uint _valueOfNFT, \n                        uint _balanceAdvance,\n                        int128 _interestRate,\n                        int128 _interestRateOverDue,\n                        address _seller, \n                        bytes32 _invoiceHash) private returns(uint256) {\n                            _dataInvoices.push(DATA_INVOICE(\n                                _dataCustumer, \n                                _valueOfNFT,\n                                _balanceAdvance,\n                                _interestRate,\n                                _interestRateOverDue,\n                                _seller,\n                                _invoiceHash));\n                        uint256 id = _dataInvoices.length - 1;\n                        return id;\n                       }\n\n\n    // invoice interest rate = 1%,  interestRatioOfNFT = 0.01\n    // \n \n    function _interestToMint(int128 _mir, uint _amount) private returns (uint){\n        uint newInterestToMint = ABDKMath64x64.mulu(_dir(_mir), _amount);\n        return dailyInterestRUSD = SafeMath.add(dailyInterestRUSD, newInterestToMint) ;\n    }\n\n    function _interestToBurn(int128 _mir, uint _amount) private returns (uint) {\n        uint newInterestToBurn = ABDKMath64x64.mulu(_dir(_mir), _amount);\n        return dailyInterestRUSD = SafeMath.sub(dailyInterestRUSD, newInterestToBurn);\n    }\n\n    function _dir(int128 mir) pure private returns (int128) {\n      return ABDKMath64x64.sub(ABDKMath64x64.exp_2(ABDKMath64x64.mul(ABDKMath64x64.inv(ABDKMath64x64.fromUInt(365)), ABDKMath64x64.log_2(_air(mir)))), ABDKMath64x64.fromUInt(1));\n    }\n\n    function _air(int128 mir) pure private returns (int128) {\n        return ABDKMath64x64.pow(ABDKMath64x64.add(ABDKMath64x64.fromUInt(1), mir), 12);\n    }\n    \n \n}",
  "sourcePath": "/home/peter/Documents/Reserva/0-Reservafs/Proyectos/DIF_PROJECT/Code/DIFonBlockchain_Enumerable/contracts/NFT_FACTORY.sol",
  "compiler": {
    "name": "solc",
    "version": "0.8.0+commit.c7dfd78e.Emscripten.clang"
  },
  "schemaVersion": "3.4.3",
  "updatedAt": "2021-11-29T06:27:47.894Z",
  "devdoc": {
    "kind": "dev",
    "methods": {
      "approve(address,uint256)": {
        "details": "See {IERC721-approve}."
      },
      "balanceOf(address)": {
        "details": "See {IERC721-balanceOf}."
      },
      "createInvoice(address,string,uint256,uint256,int128,int128)": {
        "details": "Mint a new NFT to recipient"
      },
      "destroyNFT(uint256)": {
        "details": "Burn one NFT when is paid and reduce of Fund's dailyInterest "
      },
      "getApproved(uint256)": {
        "details": "See {IERC721-getApproved}."
      },
      "getData(uint256)": {
        "details": "Insert tokenId @param and the function @return all data attached at this token"
      },
      "isApprovedForAll(address,address)": {
        "details": "See {IERC721-isApprovedForAll}."
      },
      "name()": {
        "details": "See {IERC721Metadata-name}."
      },
      "owner()": {
        "details": "Returns the address of the current owner."
      },
      "ownerOf(uint256)": {
        "details": "See {IERC721-ownerOf}."
      },
      "renounceOwnership()": {
        "details": "Leaves the contract without owner. It will not be possible to call `onlyOwner` functions anymore. Can only be called by the current owner. NOTE: Renouncing ownership will leave the contract without an owner, thereby removing any functionality that is only available to the owner."
      },
      "safeTransferFrom(address,address,uint256)": {
        "details": "See {IERC721-safeTransferFrom}."
      },
      "safeTransferFrom(address,address,uint256,bytes)": {
        "details": "See {IERC721-safeTransferFrom}."
      },
      "setApprovalForAll(address,bool)": {
        "details": "See {IERC721-setApprovalForAll}."
      },
      "symbol()": {
        "details": "See {IERC721Metadata-symbol}."
      },
      "tokenByIndex(uint256)": {
        "details": "See {IERC721Enumerable-tokenByIndex}."
      },
      "tokenOfOwnerByIndex(address,uint256)": {
        "details": "See {IERC721Enumerable-tokenOfOwnerByIndex}."
      },
      "tokenURI(uint256)": {
        "details": "See {IERC721Metadata-tokenURI}."
      },
      "totalSupply()": {
        "details": "See {IERC721Enumerable-totalSupply}."
      },
      "transferFrom(address,address,uint256)": {
        "details": "See {IERC721-transferFrom}."
      },
      "transferOwnership(address)": {
        "details": "Transfers ownership of the contract to a new account (`newOwner`). Can only be called by the current owner."
      }
    },
    "version": 1
  },
  "userdoc": {
    "kind": "user",
    "methods": {},
    "version": 1
  }
}