{
  "contractName": "NFT_FACTORY",
  "abi": [
    {
      "inputs": [],
      "stateMutability": "nonpayable",
      "type": "constructor"
    },
    {
      "anonymous": false,
      "inputs": [
        {
          "indexed": true,
          "internalType": "address",
          "name": "owner",
          "type": "address"
        },
        {
          "indexed": true,
          "internalType": "address",
          "name": "approved",
          "type": "address"
        },
        {
          "indexed": true,
          "internalType": "uint256",
          "name": "tokenId",
          "type": "uint256"
        }
      ],
      "name": "Approval",
      "type": "event"
    },
    {
      "anonymous": false,
      "inputs": [
        {
          "indexed": true,
          "internalType": "address",
          "name": "owner",
          "type": "address"
        },
        {
          "indexed": true,
          "internalType": "address",
          "name": "operator",
          "type": "address"
        },
        {
          "indexed": false,
          "internalType": "bool",
          "name": "approved",
          "type": "bool"
        }
      ],
      "name": "ApprovalForAll",
      "type": "event"
    },
    {
      "anonymous": false,
      "inputs": [
        {
          "indexed": true,
          "internalType": "address",
          "name": "previousOwner",
          "type": "address"
        },
        {
          "indexed": true,
          "internalType": "address",
          "name": "newOwner",
          "type": "address"
        }
      ],
      "name": "OwnershipTransferred",
      "type": "event"
    },
    {
      "anonymous": false,
      "inputs": [
        {
          "indexed": true,
          "internalType": "int128",
          "name": "newRatio",
          "type": "int128"
        }
      ],
      "name": "RATIOCHANGED",
      "type": "event"
    },
    {
      "anonymous": false,
      "inputs": [
        {
          "indexed": true,
          "internalType": "address",
          "name": "from",
          "type": "address"
        },
        {
          "indexed": true,
          "internalType": "address",
          "name": "to",
          "type": "address"
        },
        {
          "indexed": true,
          "internalType": "uint256",
          "name": "tokenId",
          "type": "uint256"
        }
      ],
      "name": "Transfer",
      "type": "event"
    },
    {
      "inputs": [
        {
          "internalType": "address",
          "name": "to",
          "type": "address"
        },
        {
          "internalType": "uint256",
          "name": "tokenId",
          "type": "uint256"
        }
      ],
      "name": "approve",
      "outputs": [],
      "stateMutability": "nonpayable",
      "type": "function"
    },
    {
      "inputs": [
        {
          "internalType": "address",
          "name": "owner",
          "type": "address"
        }
      ],
      "name": "balanceOf",
      "outputs": [
        {
          "internalType": "uint256",
          "name": "",
          "type": "uint256"
        }
      ],
      "stateMutability": "view",
      "type": "function"
    },
    {
      "inputs": [],
      "name": "burnAddress",
      "outputs": [
        {
          "internalType": "address",
          "name": "",
          "type": "address"
        }
      ],
      "stateMutability": "view",
      "type": "function"
    },
    {
      "inputs": [],
      "name": "dailyInterestRUSD",
      "outputs": [
        {
          "internalType": "uint256",
          "name": "",
          "type": "uint256"
        }
      ],
      "stateMutability": "view",
      "type": "function"
    },
    {
      "inputs": [
        {
          "internalType": "uint256",
          "name": "tokenId",
          "type": "uint256"
        }
      ],
      "name": "getApproved",
      "outputs": [
        {
          "internalType": "address",
          "name": "",
          "type": "address"
        }
      ],
      "stateMutability": "view",
      "type": "function"
    },
    {
      "inputs": [
        {
          "internalType": "address",
          "name": "owner",
          "type": "address"
        },
        {
          "internalType": "address",
          "name": "operator",
          "type": "address"
        }
      ],
      "name": "isApprovedForAll",
      "outputs": [
        {
          "internalType": "bool",
          "name": "",
          "type": "bool"
        }
      ],
      "stateMutability": "view",
      "type": "function"
    },
    {
      "inputs": [],
      "name": "name",
      "outputs": [
        {
          "internalType": "string",
          "name": "",
          "type": "string"
        }
      ],
      "stateMutability": "view",
      "type": "function"
    },
    {
      "inputs": [],
      "name": "owner",
      "outputs": [
        {
          "internalType": "address",
          "name": "",
          "type": "address"
        }
      ],
      "stateMutability": "view",
      "type": "function"
    },
    {
      "inputs": [
        {
          "internalType": "uint256",
          "name": "tokenId",
          "type": "uint256"
        }
      ],
      "name": "ownerOf",
      "outputs": [
        {
          "internalType": "address",
          "name": "",
          "type": "address"
        }
      ],
      "stateMutability": "view",
      "type": "function"
    },
    {
      "inputs": [],
      "name": "renounceOwnership",
      "outputs": [],
      "stateMutability": "nonpayable",
      "type": "function"
    },
    {
      "inputs": [
        {
          "internalType": "address",
          "name": "from",
          "type": "address"
        },
        {
          "internalType": "address",
          "name": "to",
          "type": "address"
        },
        {
          "internalType": "uint256",
          "name": "tokenId",
          "type": "uint256"
        }
      ],
      "name": "safeTransferFrom",
      "outputs": [],
      "stateMutability": "nonpayable",
      "type": "function"
    },
    {
      "inputs": [
        {
          "internalType": "address",
          "name": "from",
          "type": "address"
        },
        {
          "internalType": "address",
          "name": "to",
          "type": "address"
        },
        {
          "internalType": "uint256",
          "name": "tokenId",
          "type": "uint256"
        },
        {
          "internalType": "bytes",
          "name": "_data",
          "type": "bytes"
        }
      ],
      "name": "safeTransferFrom",
      "outputs": [],
      "stateMutability": "nonpayable",
      "type": "function"
    },
    {
      "inputs": [
        {
          "internalType": "address",
          "name": "operator",
          "type": "address"
        },
        {
          "internalType": "bool",
          "name": "approved",
          "type": "bool"
        }
      ],
      "name": "setApprovalForAll",
      "outputs": [],
      "stateMutability": "nonpayable",
      "type": "function"
    },
    {
      "inputs": [],
      "name": "symbol",
      "outputs": [
        {
          "internalType": "string",
          "name": "",
          "type": "string"
        }
      ],
      "stateMutability": "view",
      "type": "function"
    },
    {
      "inputs": [
        {
          "internalType": "uint256",
          "name": "index",
          "type": "uint256"
        }
      ],
      "name": "tokenByIndex",
      "outputs": [
        {
          "internalType": "uint256",
          "name": "",
          "type": "uint256"
        }
      ],
      "stateMutability": "view",
      "type": "function"
    },
    {
      "inputs": [
        {
          "internalType": "address",
          "name": "owner",
          "type": "address"
        },
        {
          "internalType": "uint256",
          "name": "index",
          "type": "uint256"
        }
      ],
      "name": "tokenOfOwnerByIndex",
      "outputs": [
        {
          "internalType": "uint256",
          "name": "",
          "type": "uint256"
        }
      ],
      "stateMutability": "view",
      "type": "function"
    },
    {
      "inputs": [
        {
          "internalType": "uint256",
          "name": "tokenId",
          "type": "uint256"
        }
      ],
      "name": "tokenURI",
      "outputs": [
        {
          "internalType": "string",
          "name": "",
          "type": "string"
        }
      ],
      "stateMutability": "view",
      "type": "function"
    },
    {
      "inputs": [],
      "name": "totalSupply",
      "outputs": [
        {
          "internalType": "uint256",
          "name": "",
          "type": "uint256"
        }
      ],
      "stateMutability": "view",
      "type": "function"
    },
    {
      "inputs": [
        {
          "internalType": "address",
          "name": "from",
          "type": "address"
        },
        {
          "internalType": "address",
          "name": "to",
          "type": "address"
        },
        {
          "internalType": "uint256",
          "name": "tokenId",
          "type": "uint256"
        }
      ],
      "name": "transferFrom",
      "outputs": [],
      "stateMutability": "nonpayable",
      "type": "function"
    },
    {
      "inputs": [
        {
          "internalType": "address",
          "name": "newOwner",
          "type": "address"
        }
      ],
      "name": "transferOwnership",
      "outputs": [],
      "stateMutability": "nonpayable",
      "type": "function"
    },
    {
      "inputs": [
        {
          "internalType": "bytes4",
          "name": "interfaceId",
          "type": "bytes4"
        }
      ],
      "name": "supportsInterface",
      "outputs": [
        {
          "internalType": "bool",
          "name": "",
          "type": "bool"
        }
      ],
      "stateMutability": "view",
      "type": "function"
    },
    {
      "inputs": [
        {
          "internalType": "address",
          "name": "",
          "type": "address"
        },
        {
          "internalType": "address",
          "name": "",
          "type": "address"
        },
        {
          "internalType": "uint256",
          "name": "",
          "type": "uint256"
        },
        {
          "internalType": "bytes",
          "name": "",
          "type": "bytes"
        }
      ],
      "name": "onERC721Received",
      "outputs": [
        {
          "internalType": "bytes4",
          "name": "",
          "type": "bytes4"
        }
      ],
      "stateMutability": "nonpayable",
      "type": "function"
    },
    {
      "inputs": [
        {
          "components": [
            {
              "internalType": "bytes",
              "name": "dataCustumer",
              "type": "bytes"
            },
            {
              "internalType": "uint256",
              "name": "valueOfNFT",
              "type": "uint256"
            },
            {
              "internalType": "uint256",
              "name": "balanceAdvance",
              "type": "uint256"
            },
            {
              "internalType": "uint256",
              "name": "dateOverDue",
              "type": "uint256"
            },
            {
              "internalType": "int128",
              "name": "interestRate",
              "type": "int128"
            },
            {
              "internalType": "int128",
              "name": "interestRateOverDue",
              "type": "int128"
            },
            {
              "internalType": "address",
              "name": "seller",
              "type": "address"
            }
          ],
          "internalType": "struct NFT_FACTORY.DATA_INVOICE",
          "name": "_invoice",
          "type": "tuple"
        }
      ],
      "name": "createInvoice",
      "outputs": [
        {
          "internalType": "bool",
          "name": "",
          "type": "bool"
        }
      ],
      "stateMutability": "nonpayable",
      "type": "function"
    },
    {
      "inputs": [
        {
          "internalType": "uint256",
          "name": "tokenId",
          "type": "uint256"
        }
      ],
      "name": "payNFT",
      "outputs": [
        {
          "internalType": "bool",
          "name": "",
          "type": "bool"
        }
      ],
      "stateMutability": "nonpayable",
      "type": "function"
    },
    {
      "inputs": [
        {
          "internalType": "uint256",
          "name": "tokenId",
          "type": "uint256"
        }
      ],
      "name": "interestToMintOverDue",
      "outputs": [
        {
          "internalType": "uint256",
          "name": "",
          "type": "uint256"
        }
      ],
      "stateMutability": "nonpayable",
      "type": "function"
    },
    {
      "inputs": [
        {
          "internalType": "uint256",
          "name": "tokenId",
          "type": "uint256"
        }
      ],
      "name": "getData",
      "outputs": [
        {
          "internalType": "string",
          "name": "dataCustumer",
          "type": "string"
        },
        {
          "internalType": "uint256",
          "name": "valueOfNFT",
          "type": "uint256"
        },
        {
          "internalType": "uint256",
          "name": "balanceAdvance",
          "type": "uint256"
        },
        {
          "internalType": "uint256",
          "name": "dateOverDue",
          "type": "uint256"
        },
        {
          "internalType": "int128",
          "name": "interestRate",
          "type": "int128"
        },
        {
          "internalType": "int128",
          "name": "interestRateOverDue",
          "type": "int128"
        },
        {
          "internalType": "address",
          "name": "seller",
          "type": "address"
        }
      ],
      "stateMutability": "view",
      "type": "function"
    },
    {
      "inputs": [
        {
          "internalType": "uint256",
          "name": "tokenId",
          "type": "uint256"
        }
      ],
      "name": "get_tokenOverDue",
      "outputs": [
        {
          "internalType": "bool",
          "name": "",
          "type": "bool"
        }
      ],
      "stateMutability": "view",
      "type": "function"
    }
  ],
  "bytecode": "0x60806040523480156200001157600080fd5b506040518060400160405280601f81526020017f446563656e7472616c697a656420496e766f69636520466163746f72696e67008152506040518060400160405280600381526020017f4449460000000000000000000000000000000000000000000000000000000000815250816000908051906020019062000096929190620001a6565b508060019080519060200190620000af929190620001a6565b505050620000d2620000c6620000d860201b60201c565b620000e060201b60201c565b620002bb565b600033905090565b6000600660009054906101000a900473ffffffffffffffffffffffffffffffffffffffff16905081600660006101000a81548173ffffffffffffffffffffffffffffffffffffffff021916908373ffffffffffffffffffffffffffffffffffffffff1602179055508173ffffffffffffffffffffffffffffffffffffffff168173ffffffffffffffffffffffffffffffffffffffff167f8be0079c531659141344cd1fd0a4f28419497f9722a3daafe3b4186f6b6457e060405160405180910390a35050565b828054620001b49062000256565b90600052602060002090601f016020900481019282620001d8576000855562000224565b82601f10620001f357805160ff191683800117855562000224565b8280016001018555821562000224579182015b828111156200022357825182559160200191906001019062000206565b5b50905062000233919062000237565b5090565b5b808211156200025257600081600090555060010162000238565b5090565b600060028204905060018216806200026f57607f821691505b602082108114156200028657620002856200028c565b5b50919050565b7f4e487b7100000000000000000000000000000000000000000000000000000000600052602260045260246000fd5b6158a280620002cb6000396000f3fe608060405234801561001057600080fd5b50600436106101a95760003560e01c806370a08231116100f9578063b88d4fde11610097578063dd036e6311610071578063dd036e6314610520578063e985e9c51461053e578063f2fde38b1461056e578063fcac73331461058a576101a9565b8063b88d4fde146104a4578063c87b56dd146104c0578063cf821d23146104f0576101a9565b80638da5cb5b116100d35780638da5cb5b1461041c57806391c62a6a1461043a57806395d89b411461046a578063a22cb46514610488576101a9565b806370a08231146103c457806370d5ae05146103f4578063715018a614610412576101a9565b806318160ddd1161016657806342842e0e1161014057806342842e0e146103185780634f6ccce7146103345780636352211e1461036457806364b7632014610394576101a9565b806318160ddd146102ae57806323b872dd146102cc5780632f745c59146102e8576101a9565b80630178fe3f146101ae57806301ffc9a7146101e457806306fdde0314610214578063081812fc14610232578063095ea7b314610262578063150b7a021461027e575b600080fd5b6101c860048036038101906101c391906145e5565b6105ba565b6040516101db9796959493929190615098565b60405180910390f35b6101fe60048036038101906101f99190614511565b6108d3565b60405161020b9190615040565b60405180910390f35b61021c6108e5565b6040516102299190615076565b60405180910390f35b61024c600480360381019061024791906145e5565b610977565b6040516102599190614fd9565b60405180910390f35b61027c600480360381019061027791906144d5565b6109fc565b005b6102986004803603810190610293919061441e565b610b14565b6040516102a5919061505b565b60405180910390f35b6102b6610b28565b6040516102c391906153ae565b60405180910390f35b6102e660048036038101906102e191906143cf565b610b35565b005b61030260048036038101906102fd91906144d5565b610b95565b60405161030f91906153ae565b60405180910390f35b610332600480360381019061032d91906143cf565b610c3a565b005b61034e600480360381019061034991906145e5565b610c5a565b60405161035b91906153ae565b60405180910390f35b61037e600480360381019061037991906145e5565b610cf1565b60405161038b9190614fd9565b60405180910390f35b6103ae60048036038101906103a991906145e5565b610da3565b6040516103bb9190615040565b60405180910390f35b6103de60048036038101906103d9919061436a565b610e07565b6040516103eb91906153ae565b60405180910390f35b6103fc610ebf565b6040516104099190614fd9565b60405180910390f35b61041a610ec5565b005b610424610f4d565b6040516104319190614fd9565b60405180910390f35b610454600480360381019061044f91906145e5565b610f77565b60405161046191906153ae565b60405180910390f35b610472611158565b60405161047f9190615076565b60405180910390f35b6104a2600480360381019061049d9190614499565b6111ea565b005b6104be60048036038101906104b9919061441e565b61136b565b005b6104da60048036038101906104d591906145e5565b6113cd565b6040516104e79190615076565b60405180910390f35b61050a600480360381019061050591906145e5565b611474565b6040516105179190615040565b60405180910390f35b61052861149e565b60405161053591906153ae565b60405180910390f35b61055860048036038101906105539190614393565b6114a4565b6040516105659190615040565b60405180910390f35b6105886004803603810190610583919061436a565b611538565b005b6105a4600480360381019061059f91906145a4565b611630565b6040516105b19190615040565b60405180910390f35b60606000806000806000806000600c8981548110610601577f4e487b7100000000000000000000000000000000000000000000000000000000600052603260045260246000fd5b9060005260206000209060060201600001805461061d90615626565b80601f016020809104026020016040519081016040528092919081815260200182805461064990615626565b80156106965780601f1061066b57610100808354040283529160200191610696565b820191906000526020600020905b81548152906001019060200180831161067957829003601f168201915b505050505090506000818060200190518101906106b39190614563565b9050809850600c8a815481106106f2577f4e487b7100000000000000000000000000000000000000000000000000000000600052603260045260246000fd5b9060005260206000209060060201600101549750600c8a81548110610740577f4e487b7100000000000000000000000000000000000000000000000000000000600052603260045260246000fd5b9060005260206000209060060201600201549650600c8a8154811061078e577f4e487b7100000000000000000000000000000000000000000000000000000000600052603260045260246000fd5b9060005260206000209060060201600301549550600c8a815481106107dc577f4e487b7100000000000000000000000000000000000000000000000000000000600052603260045260246000fd5b906000526020600020906006020160040160009054906101000a9004600f0b9450600c8a81548110610837577f4e487b7100000000000000000000000000000000000000000000000000000000600052603260045260246000fd5b906000526020600020906006020160040160109054906101000a9004600f0b9350600c8a81548110610892577f4e487b7100000000000000000000000000000000000000000000000000000000600052603260045260246000fd5b906000526020600020906006020160050160009054906101000a900473ffffffffffffffffffffffffffffffffffffffff1692505050919395979092949650565b60006108de826117c7565b9050919050565b6060600080546108f490615626565b80601f016020809104026020016040519081016040528092919081815260200182805461092090615626565b801561096d5780601f106109425761010080835404028352916020019161096d565b820191906000526020600020905b81548152906001019060200180831161095057829003601f168201915b5050505050905090565b600061098282611841565b6109c1576040517f08c379a00000000000000000000000000000000000000000000000000000000081526004016109b89061526e565b60405180910390fd5b6004600083815260200190815260200160002060009054906101000a900473ffffffffffffffffffffffffffffffffffffffff169050919050565b6000610a0782610cf1565b90508073ffffffffffffffffffffffffffffffffffffffff168373ffffffffffffffffffffffffffffffffffffffff161415610a78576040517f08c379a0000000000000000000000000000000000000000000000000000000008152600401610a6f9061530e565b60405180910390fd5b8073ffffffffffffffffffffffffffffffffffffffff16610a976118ad565b73ffffffffffffffffffffffffffffffffffffffff161480610ac65750610ac581610ac06118ad565b6114a4565b5b610b05576040517f08c379a0000000000000000000000000000000000000000000000000000000008152600401610afc906151ee565b60405180910390fd5b610b0f83836118b5565b505050565b600063150b7a0260e01b9050949350505050565b6000600980549050905090565b610b46610b406118ad565b8261196e565b610b85576040517f08c379a0000000000000000000000000000000000000000000000000000000008152600401610b7c9061532e565b60405180910390fd5b610b90838383611a4c565b505050565b6000610ba083610e07565b8210610be1576040517f08c379a0000000000000000000000000000000000000000000000000000000008152600401610bd89061510e565b60405180910390fd5b600760008473ffffffffffffffffffffffffffffffffffffffff1673ffffffffffffffffffffffffffffffffffffffff168152602001908152602001600020600083815260200190815260200160002054905092915050565b610c558383836040518060200160405280600081525061136b565b505050565b6000610c64610b28565b8210610ca5576040517f08c379a0000000000000000000000000000000000000000000000000000000008152600401610c9c9061534e565b60405180910390fd5b60098281548110610cdf577f4e487b7100000000000000000000000000000000000000000000000000000000600052603260045260246000fd5b90600052602060002001549050919050565b6000806002600084815260200190815260200160002060009054906101000a900473ffffffffffffffffffffffffffffffffffffffff169050600073ffffffffffffffffffffffffffffffffffffffff168173ffffffffffffffffffffffffffffffffffffffff161415610d9a576040517f08c379a0000000000000000000000000000000000000000000000000000000008152600401610d919061522e565b60405180910390fd5b80915050919050565b6000808214158015610deb575061dead73ffffffffffffffffffffffffffffffffffffffff16610dd283610cf1565b73ffffffffffffffffffffffffffffffffffffffff1614155b610df457600080fd5b610dfd82611ca8565b5060019050919050565b60008073ffffffffffffffffffffffffffffffffffffffff168273ffffffffffffffffffffffffffffffffffffffff161415610e78576040517f08c379a0000000000000000000000000000000000000000000000000000000008152600401610e6f9061520e565b60405180910390fd5b600360008373ffffffffffffffffffffffffffffffffffffffff1673ffffffffffffffffffffffffffffffffffffffff168152602001908152602001600020549050919050565b61dead81565b610ecd6118ad565b73ffffffffffffffffffffffffffffffffffffffff16610eeb610f4d565b73ffffffffffffffffffffffffffffffffffffffff1614610f41576040517f08c379a0000000000000000000000000000000000000000000000000000000008152600401610f389061528e565b60405180910390fd5b610f4b6000611ead565b565b6000600660009054906101000a900473ffffffffffffffffffffffffffffffffffffffff16905090565b6000610f816118ad565b73ffffffffffffffffffffffffffffffffffffffff16610f9f610f4d565b73ffffffffffffffffffffffffffffffffffffffff1614610ff5576040517f08c379a0000000000000000000000000000000000000000000000000000000008152600401610fec9061528e565b60405180910390fd5b600e600083815260200190815260200160002060009054906101000a900460ff1615611056576040517f08c379a000000000000000000000000000000000000000000000000000000000815260040161104d9061538e565b60405180910390fd5b6001600e600084815260200190815260200160002060006101000a81548160ff0219169083151502179055506000806000611090856105ba565b509550955095505050506110a2611f73565b831180156110e6575061dead73ffffffffffffffffffffffffffffffffffffffff166110cd86610cf1565b73ffffffffffffffffffffffffffffffffffffffff1614155b1561114b5760006111076110f984611f7b565b670de0b6b3a7640000611fca565b9050600061112561111784611f7b565b670de0b6b3a7640000611fca565b905060006111338284612085565b9050611141600b548261209b565b600b819055505050505b600b549350505050919050565b60606001805461116790615626565b80601f016020809104026020016040519081016040528092919081815260200182805461119390615626565b80156111e05780601f106111b5576101008083540402835291602001916111e0565b820191906000526020600020905b8154815290600101906020018083116111c357829003601f168201915b5050505050905090565b6111f26118ad565b73ffffffffffffffffffffffffffffffffffffffff168273ffffffffffffffffffffffffffffffffffffffff161415611260576040517f08c379a0000000000000000000000000000000000000000000000000000000008152600401611257906151ae565b60405180910390fd5b806005600061126d6118ad565b73ffffffffffffffffffffffffffffffffffffffff1673ffffffffffffffffffffffffffffffffffffffff16815260200190815260200160002060008473ffffffffffffffffffffffffffffffffffffffff1673ffffffffffffffffffffffffffffffffffffffff16815260200190815260200160002060006101000a81548160ff0219169083151502179055508173ffffffffffffffffffffffffffffffffffffffff1661131a6118ad565b73ffffffffffffffffffffffffffffffffffffffff167f17307eab39ab6107e8899845ad3d59bd9653f200f220920489ca2b5937696c318360405161135f9190615040565b60405180910390a35050565b61137c6113766118ad565b8361196e565b6113bb576040517f08c379a00000000000000000000000000000000000000000000000000000000081526004016113b29061532e565b60405180910390fd5b6113c7848484846120b1565b50505050565b60606113d882611841565b611417576040517f08c379a000000000000000000000000000000000000000000000000000000000815260040161140e906152ce565b60405180910390fd5b600061142161210d565b90506000815111611441576040518060200160405280600081525061146c565b8061144b84612124565b60405160200161145c929190614fb5565b6040516020818303038152906040525b915050919050565b6000600e600083815260200190815260200160002060009054906101000a900460ff169050919050565b600b5481565b6000600560008473ffffffffffffffffffffffffffffffffffffffff1673ffffffffffffffffffffffffffffffffffffffff16815260200190815260200160002060008373ffffffffffffffffffffffffffffffffffffffff1673ffffffffffffffffffffffffffffffffffffffff16815260200190815260200160002060009054906101000a900460ff16905092915050565b6115406118ad565b73ffffffffffffffffffffffffffffffffffffffff1661155e610f4d565b73ffffffffffffffffffffffffffffffffffffffff16146115b4576040517f08c379a00000000000000000000000000000000000000000000000000000000081526004016115ab9061528e565b60405180910390fd5b600073ffffffffffffffffffffffffffffffffffffffff168173ffffffffffffffffffffffffffffffffffffffff161415611624576040517f08c379a000000000000000000000000000000000000000000000000000000000815260040161161b9061514e565b60405180910390fd5b61162d81611ead565b50565b600061163a6118ad565b73ffffffffffffffffffffffffffffffffffffffff16611658610f4d565b73ffffffffffffffffffffffffffffffffffffffff16146116ae576040517f08c379a00000000000000000000000000000000000000000000000000000000081526004016116a59061528e565b60405180910390fd5b6000826000015183602001518460400151856060015186608001518760a001518860c001516040516020016116e99796959493929190614f38565b604051602081830303815290604052805190602001209050600d600082815260200190815260200160002060009054906101000a900460ff1615611762576040517f08c379a00000000000000000000000000000000000000000000000000000000081526004016117599061536e565b60405180910390fd5b6001600d600083815260200190815260200160002060006101000a81548160ff0219169083151502179055506000611799846122d1565b90506117a98460c0015182612426565b6117bb846080015185602001516125f4565b50600192505050919050565b60007f780e9d63000000000000000000000000000000000000000000000000000000007bffffffffffffffffffffffffffffffffffffffffffffffffffffffff1916827bffffffffffffffffffffffffffffffffffffffffffffffffffffffff1916148061183a575061183982612625565b5b9050919050565b60008073ffffffffffffffffffffffffffffffffffffffff166002600084815260200190815260200160002060009054906101000a900473ffffffffffffffffffffffffffffffffffffffff1673ffffffffffffffffffffffffffffffffffffffff1614159050919050565b600033905090565b816004600083815260200190815260200160002060006101000a81548173ffffffffffffffffffffffffffffffffffffffff021916908373ffffffffffffffffffffffffffffffffffffffff160217905550808273ffffffffffffffffffffffffffffffffffffffff1661192883610cf1565b73ffffffffffffffffffffffffffffffffffffffff167f8c5be1e5ebec7d5bd14f71427d1e84f3dd0314c0f7b2291e5b200ac8c7c3b92560405160405180910390a45050565b600061197982611841565b6119b8576040517f08c379a00000000000000000000000000000000000000000000000000000000081526004016119af906151ce565b60405180910390fd5b60006119c383610cf1565b90508073ffffffffffffffffffffffffffffffffffffffff168473ffffffffffffffffffffffffffffffffffffffff161480611a3257508373ffffffffffffffffffffffffffffffffffffffff16611a1a84610977565b73ffffffffffffffffffffffffffffffffffffffff16145b80611a435750611a4281856114a4565b5b91505092915050565b8273ffffffffffffffffffffffffffffffffffffffff16611a6c82610cf1565b73ffffffffffffffffffffffffffffffffffffffff1614611ac2576040517f08c379a0000000000000000000000000000000000000000000000000000000008152600401611ab9906152ae565b60405180910390fd5b600073ffffffffffffffffffffffffffffffffffffffff168273ffffffffffffffffffffffffffffffffffffffff161415611b32576040517f08c379a0000000000000000000000000000000000000000000000000000000008152600401611b299061518e565b60405180910390fd5b611b3d838383612707565b611b486000826118b5565b6001600360008573ffffffffffffffffffffffffffffffffffffffff1673ffffffffffffffffffffffffffffffffffffffff1681526020019081526020016000206000828254611b98919061552f565b925050819055506001600360008473ffffffffffffffffffffffffffffffffffffffff1673ffffffffffffffffffffffffffffffffffffffff1681526020019081526020016000206000828254611bef91906154a8565b92505081905550816002600083815260200190815260200160002060006101000a81548173ffffffffffffffffffffffffffffffffffffffff021916908373ffffffffffffffffffffffffffffffffffffffff160217905550808273ffffffffffffffffffffffffffffffffffffffff168473ffffffffffffffffffffffffffffffffffffffff167fddf252ad1be2c89b69c2b068fc378daa952ba7f163c4a11628f55a4df523b3ef60405160405180910390a4505050565b600061dead73ffffffffffffffffffffffffffffffffffffffff16611ccc83610cf1565b73ffffffffffffffffffffffffffffffffffffffff161415611d23576040517f08c379a0000000000000000000000000000000000000000000000000000000008152600401611d1a906152ee565b60405180910390fd5b6000600c8381548110611d5f577f4e487b7100000000000000000000000000000000000000000000000000000000600052603260045260246000fd5b906000526020600020906006020160040160009054906101000a9004600f0b90506000600c8481548110611dbc577f4e487b7100000000000000000000000000000000000000000000000000000000600052603260045260246000fd5b90600052602060002090600602016001015490506000600c8581548110611e0c577f4e487b7100000000000000000000000000000000000000000000000000000000600052603260045260246000fd5b906000526020600020906006020160030154905080611e29611f73565b1115611e3e57611e3885612717565b50611e4a565b611e488383612767565b505b611e573061dead87610b35565b600e600086815260200190815260200160002060009054906101000a900460ff1615611ea157600e600086815260200190815260200160002060006101000a81549060ff02191690555b60019350505050919050565b6000600660009054906101000a900473ffffffffffffffffffffffffffffffffffffffff16905081600660006101000a81548173ffffffffffffffffffffffffffffffffffffffff021916908373ffffffffffffffffffffffffffffffffffffffff1602179055508173ffffffffffffffffffffffffffffffffffffffff168173ffffffffffffffffffffffffffffffffffffffff167f8be0079c531659141344cd1fd0a4f28419497f9722a3daafe3b4186f6b6457e060405160405180910390a35050565b600042905090565b6000611fc3611fb4611faf611f99611f9461016d612798565b6127bb565b611faa611fa587612874565b61289a565b6129be565b612a29565b611fbe6001612798565b613629565b9050919050565b600080821415611fdd576000905061207f565b600083600f0b1215611fee57600080fd5b600060406fffffffffffffffffffffffffffffffff841685600f0b02901c90506000608084901c85600f0b02905077ffffffffffffffffffffffffffffffffffffffffffffffff81111561204157600080fd5b604081901b9050817fffffffffffffffffffffffffffffffffffffffffffffffffffffffffffffffff0381111561207757600080fd5b818101925050505b92915050565b60008183612093919061552f565b905092915050565b600081836120a991906154a8565b905092915050565b6120bc848484611a4c565b6120c884848484613690565b612107576040517f08c379a00000000000000000000000000000000000000000000000000000000081526004016120fe9061512e565b60405180910390fd5b50505050565b606060405180602001604052806000815250905090565b6060600082141561216c576040518060400160405280600181526020017f300000000000000000000000000000000000000000000000000000000000000081525090506122cc565b600082905060005b6000821461219e57808061218790615658565b915050600a8261219791906154fe565b9150612174565b60008167ffffffffffffffff8111156121e0577f4e487b7100000000000000000000000000000000000000000000000000000000600052604160045260246000fd5b6040519080825280601f01601f1916602001820160405280156122125781602001600182028036833780820191505090505b5090505b600085146122c55760018261222b919061552f565b9150600a8561223a91906156e1565b603061224691906154a8565b60f81b818381518110612282577f4e487b7100000000000000000000000000000000000000000000000000000000600052603260045260246000fd5b60200101907effffffffffffffffffffffffffffffffffffffffffffffffffffffffffffff1916908160001a905350600a856122be91906154fe565b9450612216565b8093505050505b919050565b6000600c829080600181540180825580915050600190039060005260206000209060060201600090919091909150600082015181600001908051906020019061231b9291906140b1565b5060208201518160010155604082015181600201556060820151816003015560808201518160040160006101000a8154816fffffffffffffffffffffffffffffffff0219169083600f0b6fffffffffffffffffffffffffffffffff16021790555060a08201518160040160106101000a8154816fffffffffffffffffffffffffffffffff0219169083600f0b6fffffffffffffffffffffffffffffffff16021790555060c08201518160050160006101000a81548173ffffffffffffffffffffffffffffffffffffffff021916908373ffffffffffffffffffffffffffffffffffffffff160217905550505060006001600c8054905061241b919061552f565b905080915050919050565b600073ffffffffffffffffffffffffffffffffffffffff168273ffffffffffffffffffffffffffffffffffffffff161415612496576040517f08c379a000000000000000000000000000000000000000000000000000000000815260040161248d9061524e565b60405180910390fd5b61249f81611841565b156124df576040517f08c379a00000000000000000000000000000000000000000000000000000000081526004016124d69061516e565b60405180910390fd5b6124eb60008383612707565b6001600360008473ffffffffffffffffffffffffffffffffffffffff1673ffffffffffffffffffffffffffffffffffffffff168152602001908152602001600020600082825461253b91906154a8565b92505081905550816002600083815260200190815260200160002060006101000a81548173ffffffffffffffffffffffffffffffffffffffff021916908373ffffffffffffffffffffffffffffffffffffffff160217905550808273ffffffffffffffffffffffffffffffffffffffff16600073ffffffffffffffffffffffffffffffffffffffff167fddf252ad1be2c89b69c2b068fc378daa952ba7f163c4a11628f55a4df523b3ef60405160405180910390a45050565b60008061260961260385611f7b565b84611fca565b9050612617600b548261209b565b600b81905591505092915050565b60007f80ac58cd000000000000000000000000000000000000000000000000000000007bffffffffffffffffffffffffffffffffffffffffffffffffffffffff1916827bffffffffffffffffffffffffffffffffffffffffffffffffffffffff191614806126f057507f5b5e139f000000000000000000000000000000000000000000000000000000007bffffffffffffffffffffffffffffffffffffffffffffffffffffffff1916827bffffffffffffffffffffffffffffffffffffffffffffffffffffffff1916145b8061270057506126ff82613827565b5b9050919050565b612712838383613891565b505050565b600080612723836105ba565b5095505050505050600061274761273983611f7b565b670de0b6b3a7640000611fca565b9050612755600b5482612085565b600b81905550600b5492505050919050565b60008061277c61277685611f7b565b84611fca565b905061278a600b5482612085565b600b81905591505092915050565b6000677fffffffffffffff8211156127af57600080fd5b604082901b9050919050565b60008082600f0b14156127cd57600080fd5b600082600f0b70010000000000000000000000000000000081612819577f4e487b7100000000000000000000000000000000000000000000000000000000600052601260045260246000fd5b0590507fffffffffffffffffffffffffffffffff80000000000000000000000000000000600f0b811215801561286257506f7fffffffffffffffffffffffffffffff600f0b8113155b61286b57600080fd5b80915050919050565b600061289361288c6128866001612798565b846139a5565b600c613a0c565b9050919050565b60008082600f0b136128ab57600080fd5b60008083600f0b90506801000000000000000081126128d257604081901d90506040820191505b64010000000081126128ec57602081901d90506020820191505b62010000811261290457601081901d90506010820191505b610100811261291b57600881901d90506008820191505b6010811261293157600481901d90506004820191505b6004811261294757600281901d90506002820191505b60028112612956576001820191505b60006040808403901b9050600083607f0386600f0b901b9050600067800000000000000090505b60008113156129b1578182029150600060ff83901c905080607f0183901c92508082028401935050600181901d905061297d565b5081945050505050919050565b600080604083600f0b85600f0b02901d90507fffffffffffffffffffffffffffffffff80000000000000000000000000000000600f0b8112158015612a1657506f7fffffffffffffffffffffffffffffff600f0b8113155b612a1f57600080fd5b8091505092915050565b60006840000000000000000082600f0b12612a4357600080fd5b7fffffffffffffffffffffffffffffffffffffffffffffffc0000000000000000082600f0b1215612a775760009050613624565b60006f80000000000000000000000000000000905060006780000000000000008416600f0b1315612abd57608070016a09e667f3bcc908b2fb1366ea957d3e8202901c90505b60006740000000000000008416600f0b1315612aee5760807001306fe0a31b7152de8d5a46305c85edec8202901c90505b60006720000000000000008416600f0b1315612b1f5760807001172b83c7d517adcdf7c8c50eb14a791f8202901c90505b60006710000000000000008416600f0b1315612b5057608070010b5586cf9890f6298b92b71842a983638202901c90505b60006708000000000000008416600f0b1315612b815760807001059b0d31585743ae7c548eb68ca417fd8202901c90505b60006704000000000000008416600f0b1315612bb2576080700102c9a3e778060ee6f7caca4f7a29bde88202901c90505b60006702000000000000008416600f0b1315612be357608070010163da9fb33356d84a66ae336dcdfa3f8202901c90505b60006701000000000000008416600f0b1315612c14576080700100b1afa5abcbed6129ab13ec11dc95438202901c90505b600066800000000000008416600f0b1315612c4457608070010058c86da1c09ea1ff19d294cf2f679b8202901c90505b600066400000000000008416600f0b1315612c745760807001002c605e2e8cec506d21bfc89a23a00f8202901c90505b600066200000000000008416600f0b1315612ca4576080700100162f3904051fa128bca9c55c31e5df8202901c90505b600066100000000000008416600f0b1315612cd45760807001000b175effdc76ba38e31671ca9397258202901c90505b600066080000000000008416600f0b1315612d04576080700100058ba01fb9f96d6cacd4b180917c3d8202901c90505b600066040000000000008416600f0b1315612d3457608070010002c5cc37da9491d0985c348c68e7b38202901c90505b600066020000000000008416600f0b1315612d645760807001000162e525ee054754457d59952920268202901c90505b600066010000000000008416600f0b1315612d9457608070010000b17255775c040618bf4a4ade83fc8202901c90505b6000658000000000008416600f0b1315612dc35760807001000058b91b5bc9ae2eed81e9b7d4cfab8202901c90505b6000654000000000008416600f0b1315612df2576080700100002c5c89d5ec6ca4d7c8acc017b7c98202901c90505b6000652000000000008416600f0b1315612e2157608070010000162e43f4f831060e02d839a9d16d8202901c90505b6000651000000000008416600f0b1315612e50576080700100000b1721bcfc99d9f890ea069117638202901c90505b6000650800000000008416600f0b1315612e7f57608070010000058b90cf1e6d97f9ca14dbcc16288202901c90505b6000650400000000008416600f0b1315612eae5760807001000002c5c863b73f016468f6bac5ca2b8202901c90505b6000650200000000008416600f0b1315612edd576080700100000162e430e5a18f6119e3c02282a58202901c90505b6000650100000000008416600f0b1315612f0c5760807001000000b1721835514b86e6d96efd1bfe8202901c90505b60006480000000008416600f0b1315612f3a576080700100000058b90c0b48c6be5df846c5b2ef8202901c90505b60006440000000008416600f0b1315612f6857608070010000002c5c8601cc6b9e94213c72737a8202901c90505b60006420000000008416600f0b1315612f965760807001000000162e42fff037df38aa2b219f068202901c90505b60006410000000008416600f0b1315612fc457608070010000000b17217fba9c739aa5819f44f98202901c90505b60006408000000008416600f0b1315612ff25760807001000000058b90bfcdee5acd3c1cedc8238202901c90505b60006404000000008416600f0b1315613020576080700100000002c5c85fe31f35a6a30da1be508202901c90505b60006402000000008416600f0b131561304e57608070010000000162e42ff0999ce3541b9fffcf8202901c90505b60006401000000008416600f0b131561307c576080700100000000b17217f80f4ef5aadda455548202901c90505b600063800000008416600f0b13156130a957608070010000000058b90bfbf8479bd5a81b51ad8202901c90505b600063400000008416600f0b13156130d65760807001000000002c5c85fdf84bd62ae30a74cc8202901c90505b600063200000008416600f0b1315613103576080700100000000162e42fefb2fed257559bdaa8202901c90505b600063100000008416600f0b13156131305760807001000000000b17217f7d5a7716bba4a9ae8202901c90505b600063080000008416600f0b131561315d576080700100000000058b90bfbe9ddbac5e109cce8202901c90505b600063040000008416600f0b131561318a57608070010000000002c5c85fdf4b15de6f17eb0d8202901c90505b600063020000008416600f0b13156131b75760807001000000000162e42fefa494f1478fde058202901c90505b600063010000008416600f0b13156131e457608070010000000000b17217f7d20cf927c8e94c8202901c90505b6000628000008416600f0b13156132105760807001000000000058b90bfbe8f71cb4e4b33d8202901c90505b6000624000008416600f0b131561323c576080700100000000002c5c85fdf477b662b269458202901c90505b6000622000008416600f0b131561326857608070010000000000162e42fefa3ae53369388c8202901c90505b6000621000008416600f0b1315613294576080700100000000000b17217f7d1d351a389d408202901c90505b6000620800008416600f0b13156132c057608070010000000000058b90bfbe8e8b2d3d4ede8202901c90505b6000620400008416600f0b13156132ec5760807001000000000002c5c85fdf4741bea6e77e8202901c90505b6000620200008416600f0b1315613318576080700100000000000162e42fefa39fe95583c28202901c90505b6000620100008416600f0b13156133445760807001000000000000b17217f7d1cfb72b45e18202901c90505b60006180008416600f0b131561336f576080700100000000000058b90bfbe8e7cc35c3f08202901c90505b60006140008416600f0b131561339a57608070010000000000002c5c85fdf473e242ea388202901c90505b60006120008416600f0b13156133c55760807001000000000000162e42fefa39f02b772c8202901c90505b60006110008416600f0b13156133f057608070010000000000000b17217f7d1cf7d83c1a8202901c90505b60006108008416600f0b131561341b5760807001000000000000058b90bfbe8e7bdcbe2e8202901c90505b60006104008416600f0b1315613446576080700100000000000002c5c85fdf473dea871f8202901c90505b60006102008416600f0b131561347157608070010000000000000162e42fefa39ef44d918202901c90505b60006101008416600f0b131561349c576080700100000000000000b17217f7d1cf79e9498202901c90505b600060808416600f0b13156134c657608070010000000000000058b90bfbe8e7bce5448202901c90505b600060408416600f0b13156134f05760807001000000000000002c5c85fdf473de6eca8202901c90505b600060208416600f0b131561351a576080700100000000000000162e42fefa39ef366f8202901c90505b600060108416600f0b13156135445760807001000000000000000b17217f7d1cf79afa8202901c90505b600060088416600f0b131561356e576080700100000000000000058b90bfbe8e7bcd6d8202901c90505b600060048416600f0b131561359857608070010000000000000002c5c85fdf473de6b28202901c90505b600060028416600f0b13156135c25760807001000000000000000162e42fefa39ef3588202901c90505b600060018416600f0b13156135ec57608070010000000000000000b17217f7d1cf79ab8202901c90505b604083600f0b901d603f03600f0b81901c90506f7fffffffffffffffffffffffffffffff600f0b81111561361f57600080fd5b809150505b919050565b60008082600f0b84600f0b0390507fffffffffffffffffffffffffffffffff80000000000000000000000000000000600f0b811215801561367d57506f7fffffffffffffffffffffffffffffff600f0b8113155b61368657600080fd5b8091505092915050565b60006136b18473ffffffffffffffffffffffffffffffffffffffff16613d21565b1561381a578373ffffffffffffffffffffffffffffffffffffffff1663150b7a026136da6118ad565b8786866040518563ffffffff1660e01b81526004016136fc9493929190614ff4565b602060405180830381600087803b15801561371657600080fd5b505af192505050801561374757506040513d601f19601f82011682018060405250810190613744919061453a565b60015b6137ca573d8060008114613777576040519150601f19603f3d011682016040523d82523d6000602084013e61377c565b606091505b506000815114156137c2576040517f08c379a00000000000000000000000000000000000000000000000000000000081526004016137b99061512e565b60405180910390fd5b805181602001fd5b63150b7a0260e01b7bffffffffffffffffffffffffffffffffffffffffffffffffffffffff1916817bffffffffffffffffffffffffffffffffffffffffffffffffffffffff19161491505061381f565b600190505b949350505050565b60007f01ffc9a7000000000000000000000000000000000000000000000000000000007bffffffffffffffffffffffffffffffffffffffffffffffffffffffff1916827bffffffffffffffffffffffffffffffffffffffffffffffffffffffff1916149050919050565b61389c838383613d34565b600073ffffffffffffffffffffffffffffffffffffffff168373ffffffffffffffffffffffffffffffffffffffff1614156138df576138da81613d39565b61391e565b8173ffffffffffffffffffffffffffffffffffffffff168373ffffffffffffffffffffffffffffffffffffffff161461391d5761391c8382613d82565b5b5b600073ffffffffffffffffffffffffffffffffffffffff168273ffffffffffffffffffffffffffffffffffffffff1614156139615761395c81613eef565b6139a0565b8273ffffffffffffffffffffffffffffffffffffffff168273ffffffffffffffffffffffffffffffffffffffff161461399f5761399e8282614032565b5b5b505050565b60008082600f0b84600f0b0190507fffffffffffffffffffffffffffffffff80000000000000000000000000000000600f0b81121580156139f957506f7fffffffffffffffffffffffffffffff600f0b8113155b613a0257600080fd5b8091505092915050565b600080600084600f0b128015613a2457506001808416145b905060008085600f0b12613a385784613a3d565b846000035b6fffffffffffffffffffffffffffffffff16905060007001000000000000000000000000000000009050680100000000000000008211613b1757603f82901b91505b60008514613b0b5760006001861614613a9c57607f828202901c90505b607f828302901c915060006002861614613aba57607f828202901c90505b607f828302901c915060006004861614613ad857607f828202901c90505b607f828302901c915060006008861614613af657607f828202901c90505b607f828302901c9150600485901c9450613a7f565b604081901c9050613cb1565b6000603f90506c01000000000000000000000000831015613b4057602083901b92506020810390505b6e010000000000000000000000000000831015613b6557601083901b92506010810390505b6f01000000000000000000000000000000831015613b8b57600883901b92506008810390505b6f10000000000000000000000000000000831015613bb157600483901b92506004810390505b6f40000000000000000000000000000000831015613bd757600283901b92506002810390505b6f80000000000000000000000000000000831015613bfd57600183901b92506001810390505b60005b60008714613c985760408210613c1557600080fd5b60006001881614613c5657607f848402901c92508181019050700100000000000000000000000000000000831115613c5557600183901c92506001810190505b5b607f848502901c9350600182901b91507001000000000000000000000000000000008410613c8c57600184901c93506001820191505b600187901c9650613c00565b60408110613ca557600080fd5b8060400383901c925050505b600083613cbe5781613cc3565b816000035b90507fffffffffffffffffffffffffffffffff80000000000000000000000000000000600f0b8112158015613d0b57506f7fffffffffffffffffffffffffffffff600f0b8113155b613d1457600080fd5b8094505050505092915050565b600080823b905060008111915050919050565b505050565b600980549050600a600083815260200190815260200160002081905550600981908060018154018082558091505060019003906000526020600020016000909190919091505550565b60006001613d8f84610e07565b613d99919061552f565b9050600060086000848152602001908152602001600020549050818114613e7e576000600760008673ffffffffffffffffffffffffffffffffffffffff1673ffffffffffffffffffffffffffffffffffffffff168152602001908152602001600020600084815260200190815260200160002054905080600760008773ffffffffffffffffffffffffffffffffffffffff1673ffffffffffffffffffffffffffffffffffffffff168152602001908152602001600020600084815260200190815260200160002081905550816008600083815260200190815260200160002081905550505b6008600084815260200190815260200160002060009055600760008573ffffffffffffffffffffffffffffffffffffffff1673ffffffffffffffffffffffffffffffffffffffff16815260200190815260200160002060008381526020019081526020016000206000905550505050565b60006001600980549050613f03919061552f565b90506000600a6000848152602001908152602001600020549050600060098381548110613f59577f4e487b7100000000000000000000000000000000000000000000000000000000600052603260045260246000fd5b906000526020600020015490508060098381548110613fa1577f4e487b7100000000000000000000000000000000000000000000000000000000600052603260045260246000fd5b906000526020600020018190555081600a600083815260200190815260200160002081905550600a6000858152602001908152602001600020600090556009805480614016577f4e487b7100000000000000000000000000000000000000000000000000000000600052603160045260246000fd5b6001900381819060005260206000200160009055905550505050565b600061403d83610e07565b905081600760008573ffffffffffffffffffffffffffffffffffffffff1673ffffffffffffffffffffffffffffffffffffffff168152602001908152602001600020600083815260200190815260200160002081905550806008600084815260200190815260200160002081905550505050565b8280546140bd90615626565b90600052602060002090601f0160209004810192826140df5760008555614126565b82601f106140f857805160ff1916838001178555614126565b82800160010185558215614126579182015b8281111561412557825182559160200191906001019061410a565b5b5090506141339190614137565b5090565b5b80821115614150576000816000905550600101614138565b5090565b6000614167614162846153fa565b6153c9565b90508281526020810184848401111561417f57600080fd5b61418a8482856155e4565b509392505050565b60006141a56141a08461542a565b6153c9565b9050828152602081018484840111156141bd57600080fd5b6141c88482856155f3565b509392505050565b6000813590506141df816157f9565b92915050565b6000813590506141f481615810565b92915050565b60008135905061420981615827565b92915050565b60008151905061421e81615827565b92915050565b600082601f83011261423557600080fd5b8135614245848260208601614154565b91505092915050565b60008135905061425d8161583e565b92915050565b600082601f83011261427457600080fd5b8151614284848260208601614192565b91505092915050565b600060e0828403121561429f57600080fd5b6142a960e06153c9565b9050600082013567ffffffffffffffff8111156142c557600080fd5b6142d184828501614224565b60008301525060206142e584828501614355565b60208301525060406142f984828501614355565b604083015250606061430d84828501614355565b60608301525060806143218482850161424e565b60808301525060a06143358482850161424e565b60a08301525060c0614349848285016141d0565b60c08301525092915050565b60008135905061436481615855565b92915050565b60006020828403121561437c57600080fd5b600061438a848285016141d0565b91505092915050565b600080604083850312156143a657600080fd5b60006143b4858286016141d0565b92505060206143c5858286016141d0565b9150509250929050565b6000806000606084860312156143e457600080fd5b60006143f2868287016141d0565b9350506020614403868287016141d0565b925050604061441486828701614355565b9150509250925092565b6000806000806080858703121561443457600080fd5b6000614442878288016141d0565b9450506020614453878288016141d0565b935050604061446487828801614355565b925050606085013567ffffffffffffffff81111561448157600080fd5b61448d87828801614224565b91505092959194509250565b600080604083850312156144ac57600080fd5b60006144ba858286016141d0565b92505060206144cb858286016141e5565b9150509250929050565b600080604083850312156144e857600080fd5b60006144f6858286016141d0565b925050602061450785828601614355565b9150509250929050565b60006020828403121561452357600080fd5b6000614531848285016141fa565b91505092915050565b60006020828403121561454c57600080fd5b600061455a8482850161420f565b91505092915050565b60006020828403121561457557600080fd5b600082015167ffffffffffffffff81111561458f57600080fd5b61459b84828501614263565b91505092915050565b6000602082840312156145b657600080fd5b600082013567ffffffffffffffff8111156145d057600080fd5b6145dc8482850161428d565b91505092915050565b6000602082840312156145f757600080fd5b600061460584828501614355565b91505092915050565b61461781615563565b82525050565b61462e61462982615563565b6156a1565b82525050565b61463d81615575565b82525050565b61464c81615581565b82525050565b600061465d8261545a565b6146678185615470565b93506146778185602086016155f3565b614680816157ce565b840191505092915050565b60006146968261545a565b6146a08185615481565b93506146b08185602086016155f3565b80840191505092915050565b6146c5816155ad565b82525050565b6146dc6146d7826155ad565b6156b3565b82525050565b60006146ed82615465565b6146f7818561548c565b93506147078185602086016155f3565b614710816157ce565b840191505092915050565b600061472682615465565b614730818561549d565b93506147408185602086016155f3565b80840191505092915050565b6000614759602b8361548c565b91507f455243373231456e756d657261626c653a206f776e657220696e646578206f7560008301527f74206f6620626f756e64730000000000000000000000000000000000000000006020830152604082019050919050565b60006147bf60328361548c565b91507f4552433732313a207472616e7366657220746f206e6f6e20455243373231526560008301527f63656976657220696d706c656d656e74657200000000000000000000000000006020830152604082019050919050565b600061482560268361548c565b91507f4f776e61626c653a206e6577206f776e657220697320746865207a65726f206160008301527f64647265737300000000000000000000000000000000000000000000000000006020830152604082019050919050565b600061488b601c8361548c565b91507f4552433732313a20746f6b656e20616c7265616479206d696e746564000000006000830152602082019050919050565b60006148cb60248361548c565b91507f4552433732313a207472616e7366657220746f20746865207a65726f2061646460008301527f72657373000000000000000000000000000000000000000000000000000000006020830152604082019050919050565b600061493160198361548c565b91507f4552433732313a20617070726f766520746f2063616c6c6572000000000000006000830152602082019050919050565b6000614971602c8361548c565b91507f4552433732313a206f70657261746f7220717565727920666f72206e6f6e657860008301527f697374656e7420746f6b656e00000000000000000000000000000000000000006020830152604082019050919050565b60006149d760388361548c565b91507f4552433732313a20617070726f76652063616c6c6572206973206e6f74206f7760008301527f6e6572206e6f7220617070726f76656420666f7220616c6c00000000000000006020830152604082019050919050565b6000614a3d602a8361548c565b91507f4552433732313a2062616c616e636520717565727920666f7220746865207a6560008301527f726f2061646472657373000000000000000000000000000000000000000000006020830152604082019050919050565b6000614aa360298361548c565b91507f4552433732313a206f776e657220717565727920666f72206e6f6e657869737460008301527f656e7420746f6b656e00000000000000000000000000000000000000000000006020830152604082019050919050565b6000614b0960208361548c565b91507f4552433732313a206d696e7420746f20746865207a65726f20616464726573736000830152602082019050919050565b6000614b49602c8361548c565b91507f4552433732313a20617070726f76656420717565727920666f72206e6f6e657860008301527f697374656e7420746f6b656e00000000000000000000000000000000000000006020830152604082019050919050565b6000614baf60208361548c565b91507f4f776e61626c653a2063616c6c6572206973206e6f7420746865206f776e65726000830152602082019050919050565b6000614bef60298361548c565b91507f4552433732313a207472616e73666572206f6620746f6b656e2074686174206960008301527f73206e6f74206f776e00000000000000000000000000000000000000000000006020830152604082019050919050565b6000614c55602f8361548c565b91507f4552433732314d657461646174613a2055524920717565727920666f72206e6f60008301527f6e6578697374656e7420746f6b656e00000000000000000000000000000000006020830152604082019050919050565b6000614cbb60218361548c565b91507f4e46545f466163746f72793a20546f6b656e20616c7265616479206275726e6560008301527f64000000000000000000000000000000000000000000000000000000000000006020830152604082019050919050565b6000614d2160218361548c565b91507f4552433732313a20617070726f76616c20746f2063757272656e74206f776e6560008301527f72000000000000000000000000000000000000000000000000000000000000006020830152604082019050919050565b6000614d8760318361548c565b91507f4552433732313a207472616e736665722063616c6c6572206973206e6f74206f60008301527f776e6572206e6f7220617070726f7665640000000000000000000000000000006020830152604082019050919050565b6000614ded602c8361548c565b91507f455243373231456e756d657261626c653a20676c6f62616c20696e646578206f60008301527f7574206f6620626f756e647300000000000000000000000000000000000000006020830152604082019050919050565b6000614e5360248361548c565b91507f4e46545f466163746f72793a2054686973206861736820657869737420616c7260008301527f65616479000000000000000000000000000000000000000000000000000000006020830152604082019050919050565b6000614eb960358361548c565b91507f4e46545f466163746f72793a20546f6b656e20616c726561647920616464656460008301527f20746f206461696c79496e7465726573745255534400000000000000000000006020830152604082019050919050565b614f1b816155da565b82525050565b614f32614f2d826155da565b6156d7565b82525050565b6000614f44828a61468b565b9150614f508289614f21565b602082019150614f608288614f21565b602082019150614f708287614f21565b602082019150614f8082866146cb565b601082019150614f9082856146cb565b601082019150614fa0828461461d565b60148201915081905098975050505050505050565b6000614fc1828561471b565b9150614fcd828461471b565b91508190509392505050565b6000602082019050614fee600083018461460e565b92915050565b6000608082019050615009600083018761460e565b615016602083018661460e565b6150236040830185614f12565b81810360608301526150358184614652565b905095945050505050565b60006020820190506150556000830184614634565b92915050565b60006020820190506150706000830184614643565b92915050565b6000602082019050818103600083015261509081846146e2565b905092915050565b600060e08201905081810360008301526150b2818a6146e2565b90506150c16020830189614f12565b6150ce6040830188614f12565b6150db6060830187614f12565b6150e860808301866146bc565b6150f560a08301856146bc565b61510260c083018461460e565b98975050505050505050565b600060208201905081810360008301526151278161474c565b9050919050565b60006020820190508181036000830152615147816147b2565b9050919050565b6000602082019050818103600083015261516781614818565b9050919050565b600060208201905081810360008301526151878161487e565b9050919050565b600060208201905081810360008301526151a7816148be565b9050919050565b600060208201905081810360008301526151c781614924565b9050919050565b600060208201905081810360008301526151e781614964565b9050919050565b60006020820190508181036000830152615207816149ca565b9050919050565b6000602082019050818103600083015261522781614a30565b9050919050565b6000602082019050818103600083015261524781614a96565b9050919050565b6000602082019050818103600083015261526781614afc565b9050919050565b6000602082019050818103600083015261528781614b3c565b9050919050565b600060208201905081810360008301526152a781614ba2565b9050919050565b600060208201905081810360008301526152c781614be2565b9050919050565b600060208201905081810360008301526152e781614c48565b9050919050565b6000602082019050818103600083015261530781614cae565b9050919050565b6000602082019050818103600083015261532781614d14565b9050919050565b6000602082019050818103600083015261534781614d7a565b9050919050565b6000602082019050818103600083015261536781614de0565b9050919050565b6000602082019050818103600083015261538781614e46565b9050919050565b600060208201905081810360008301526153a781614eac565b9050919050565b60006020820190506153c36000830184614f12565b92915050565b6000604051905081810181811067ffffffffffffffff821117156153f0576153ef61579f565b5b8060405250919050565b600067ffffffffffffffff8211156154155761541461579f565b5b601f19601f8301169050602081019050919050565b600067ffffffffffffffff8211156154455761544461579f565b5b601f19601f8301169050602081019050919050565b600081519050919050565b600081519050919050565b600082825260208201905092915050565b600081905092915050565b600082825260208201905092915050565b600081905092915050565b60006154b3826155da565b91506154be836155da565b9250827fffffffffffffffffffffffffffffffffffffffffffffffffffffffffffffffff038211156154f3576154f2615712565b5b828201905092915050565b6000615509826155da565b9150615514836155da565b92508261552457615523615741565b5b828204905092915050565b600061553a826155da565b9150615545836155da565b92508282101561555857615557615712565b5b828203905092915050565b600061556e826155ba565b9050919050565b60008115159050919050565b60007fffffffff0000000000000000000000000000000000000000000000000000000082169050919050565b600081600f0b9050919050565b600073ffffffffffffffffffffffffffffffffffffffff82169050919050565b6000819050919050565b82818337600083830152505050565b60005b838110156156115780820151818401526020810190506155f6565b83811115615620576000848401525b50505050565b6000600282049050600182168061563e57607f821691505b6020821081141561565257615651615770565b5b50919050565b6000615663826155da565b91507fffffffffffffffffffffffffffffffffffffffffffffffffffffffffffffffff82141561569657615695615712565b5b600182019050919050565b60006156ac826156c5565b9050919050565b60006156be826157df565b9050919050565b60006156d0826157ec565b9050919050565b6000819050919050565b60006156ec826155da565b91506156f7836155da565b92508261570757615706615741565b5b828206905092915050565b7f4e487b7100000000000000000000000000000000000000000000000000000000600052601160045260246000fd5b7f4e487b7100000000000000000000000000000000000000000000000000000000600052601260045260246000fd5b7f4e487b7100000000000000000000000000000000000000000000000000000000600052602260045260246000fd5b7f4e487b7100000000000000000000000000000000000000000000000000000000600052604160045260246000fd5b6000601f19601f8301169050919050565b60008160801b9050919050565b60008160601b9050919050565b61580281615563565b811461580d57600080fd5b50565b61581981615575565b811461582457600080fd5b50565b61583081615581565b811461583b57600080fd5b50565b615847816155ad565b811461585257600080fd5b50565b61585e816155da565b811461586957600080fd5b5056fea2646970667358221220811ab119f8633b4b9875c307cf1361bf33908b5cf1b64668b35390eda1586c3064736f6c63430008000033",
  "immutableReferences": {},
  "source": "// SPDX-License-Identifier: MIT\npragma solidity ^0.8.0;\n\n/** @title NFT_FACTORY\n    @author Pedro Yuris Machado Leiva\n    @notice Smart Contract to mint NFTs that represent a real factoring invoices \n    @custom:company Reserva Food System\n    @custom:addressMumbai 0x5673a930Da6dB358E86B532d9d1B3941c5F64Aa3\n*/\n\nimport \"@openzeppelin/contracts/token/ERC721/ERC721.sol\";\nimport \"@openzeppelin/contracts/token/ERC721/extensions/ERC721Enumerable.sol\";\nimport \"@openzeppelin/contracts/token/ERC721/IERC721Receiver.sol\";\nimport \"@openzeppelin/contracts/access/Ownable.sol\";\nimport \"@openzeppelin/contracts/utils/math/SafeMath.sol\";\nimport \"./ABDKMath64x64.sol\";\n\n\ncontract NFT_FACTORY is ERC721, Ownable, ERC721Enumerable, IERC721Receiver {\n    uint public dailyInterestRUSD;\n    address constant public burnAddress = 0x000000000000000000000000000000000000dEaD;\n    \n\n\n\n/// @dev NFT's properties and validation system for each NFT minted. \n\n    struct DATA_INVOICE {\n        bytes dataCustumer;\n        uint256 valueOfNFT;\n        uint256 balanceAdvance;\n        uint256 dateOverDue;\n        int128 interestRate;\n        int128 interestRateOverDue;\n        address seller;\n    }\n\n    \n    DATA_INVOICE[] private _dataInvoices;\n    \n    mapping (bytes32 => bool) private _hashExist;\n    mapping (uint => bool) private _tokenOverDues;\n\n    event RATIOCHANGED(int128 indexed newRatio);\n\n    constructor() ERC721(\"Decentralized Invoice Factoring\", \"DIF\") { }\n\n/// @dev The following functions are overrides required by Solidity.\n\n    function _beforeTokenTransfer(address from, address to, uint256 tokenId)\n        internal\n        override(ERC721, ERC721Enumerable)\n    {\n        super._beforeTokenTransfer(from, to, tokenId);\n    }\n\n\n    function supportsInterface(bytes4 interfaceId)\n        public\n        view\n        override(ERC721, ERC721Enumerable)\n        returns (bool)\n    {\n        return super.supportsInterface(interfaceId);\n    }\n    \n    function onERC721Received(address, address, uint256, bytes memory) public virtual override returns (bytes4) {\n        return this.onERC721Received.selector;\n    }\n\n/// @dev Mint a new NFT to recipient\n\n    function createInvoice(DATA_INVOICE memory _invoice) external onlyOwner returns (bool) {            \n            bytes32 invoiceHash = keccak256(abi.encodePacked(_invoice.dataCustumer,\n            _invoice.valueOfNFT, _invoice.balanceAdvance, _invoice.dateOverDue,\n            _invoice.interestRate, _invoice.interestRateOverDue, _invoice.seller )); \n            require(! _hashExist[invoiceHash], \"NFT_Factory: This hash exist already\");\n            _hashExist[invoiceHash] = true;\n            uint256 newItemId = _assemble(_invoice);\n            _mint(_invoice.seller, newItemId);\n            _interestToMint(_invoice.interestRate, _invoice.valueOfNFT);\n            return true;\n        }\n\n    function payNFT(uint tokenId) external returns(bool) {\n        require(tokenId != 0 && ownerOf(tokenId) != burnAddress);\n        //split amount to different parts\n        _destroyNFT(tokenId);\n        return true;\n    }\n\n    function interestToMintOverDue(uint tokenId) public onlyOwner returns(uint) {\n        require(! _tokenOverDues[tokenId], \"NFT_Factory: Token already added to dailyInterestRUSD\" );\n        _tokenOverDues[tokenId] = true;\n        ( , , , uint dateOverDue, int128 _mir, int128 _odmir,) = getData(tokenId);\n        if (dateOverDue > _now() && ownerOf(tokenId) != burnAddress) {\n            uint dir = ABDKMath64x64.mulu(_dir(_mir), 1*10**18);\n            uint oddir = ABDKMath64x64.mulu(_dir(_odmir), 1*10**18);\n            uint df = SafeMath.sub(oddir, dir);\n            dailyInterestRUSD = SafeMath.add(dailyInterestRUSD, df);\n        }\n        return dailyInterestRUSD;\n    }\n\n\n/// @dev Insert tokenId @param and the function @return all data attached at this token\n\n    function getData(uint256 tokenId) public view returns (string memory dataCustumer, uint valueOfNFT, uint balanceAdvance, uint dateOverDue, int128 interestRate, int128 interestRateOverDue, address seller) {\n        bytes memory data = _dataInvoices[tokenId].dataCustumer;\n        string memory _dataCustumer = abi.decode(data, (string));\n        dataCustumer = _dataCustumer;\n        valueOfNFT = _dataInvoices[tokenId].valueOfNFT;\n        balanceAdvance = _dataInvoices[tokenId].balanceAdvance;\n        dateOverDue = _dataInvoices[tokenId].dateOverDue;\n        interestRate = _dataInvoices[tokenId].interestRate;\n        interestRateOverDue = _dataInvoices[tokenId].interestRateOverDue;\n        seller = _dataInvoices[tokenId].seller;\n    }\n\n    function get_tokenOverDue(uint tokenId) public view returns(bool) {\n        return _tokenOverDues[tokenId];\n    }  \n\n/// @dev Private function to assemble one NFT and @return a single id for each token minted.\n\n\n    //@dev Burn one NFT when is paid and reduce of Fund's dailyInterest \n    \n    function _destroyNFT(uint tokenId) private returns(bool) {\n        require(ownerOf(tokenId) != burnAddress, \"NFT_Factory: Token already burned\");\n        int128 mir = _dataInvoices[tokenId].interestRate;\n        uint amount = _dataInvoices[tokenId].valueOfNFT;\n        uint dateOverDue = _dataInvoices[tokenId].dateOverDue;\n        if (_now() > dateOverDue) {\n            _interestToBurnOverDue(tokenId);\n        }\n        else {\n            _interestToBurn(mir, amount);\n        }\n        transferFrom(address(this), burnAddress, tokenId);\n        if (_tokenOverDues[tokenId]) {delete _tokenOverDues[tokenId];}\n        return true;\n    }\n\n    function _assemble( DATA_INVOICE memory _invoice) private returns(uint256) {\n        _dataInvoices.push(_invoice);\n        uint256 id = _dataInvoices.length - 1;\n        return id;\n        }\n\n    function _interestToBurnOverDue(uint tokenId) private returns(uint) {\n        ( , , , , , int128 _odmir,) = getData(tokenId);\n        uint oddir = ABDKMath64x64.mulu(_dir(_odmir), 1*10**18);\n        dailyInterestRUSD = SafeMath.sub(dailyInterestRUSD, oddir);\n        return dailyInterestRUSD;\n    } \n \n    function _interestToMint(int128 _mir, uint _amount) private returns (uint){\n        uint newInterestToMint = ABDKMath64x64.mulu(_dir(_mir), _amount);\n        return dailyInterestRUSD = SafeMath.add(dailyInterestRUSD, newInterestToMint) ;\n    }\n\n    function _interestToBurn(int128 _mir, uint _amount) private returns (uint) {\n        uint newInterestToBurn = ABDKMath64x64.mulu(_dir(_mir), _amount);\n        return dailyInterestRUSD = SafeMath.sub(dailyInterestRUSD, newInterestToBurn);\n    }\n\n    function _dir(int128 mir) pure private returns (int128) {\n      return ABDKMath64x64.sub(ABDKMath64x64.exp_2(ABDKMath64x64.mul(ABDKMath64x64.inv(ABDKMath64x64.fromUInt(365)), ABDKMath64x64.log_2(_air(mir)))), ABDKMath64x64.fromUInt(1));\n    }\n\n    function _air(int128 mir) pure private returns (int128) {\n        return ABDKMath64x64.pow(ABDKMath64x64.add(ABDKMath64x64.fromUInt(1), mir), 12);\n    }\n\n    function _now() private view returns(uint) {\n        return block.timestamp;\n    }\n    \n \n}",
  "sourcePath": "/home/peter/Documents/Reserva/0-Reservafs/Proyectos/DIF_PROJECT/Code/DIFonBlockchain_Enumerable/contracts/NFT_FACTORY.sol",
  "compiler": {
    "name": "solc",
    "version": "0.8.0+commit.c7dfd78e.Emscripten.clang"
  },
  "schemaVersion": "3.4.3",
  "updatedAt": "2021-12-08T22:53:14.014Z",
  "devdoc": {
    "kind": "dev",
    "methods": {
      "approve(address,uint256)": {
        "details": "See {IERC721-approve}."
      },
      "balanceOf(address)": {
        "details": "See {IERC721-balanceOf}."
      },
      "createInvoice((bytes,uint256,uint256,uint256,int128,int128,address))": {
        "details": "Mint a new NFT to recipient"
      },
      "getApproved(uint256)": {
        "details": "See {IERC721-getApproved}."
      },
      "getData(uint256)": {
        "details": "Insert tokenId @param and the function @return all data attached at this token"
      },
      "isApprovedForAll(address,address)": {
        "details": "See {IERC721-isApprovedForAll}."
      },
      "name()": {
        "details": "See {IERC721Metadata-name}."
      },
      "owner()": {
        "details": "Returns the address of the current owner."
      },
      "ownerOf(uint256)": {
        "details": "See {IERC721-ownerOf}."
      },
      "renounceOwnership()": {
        "details": "Leaves the contract without owner. It will not be possible to call `onlyOwner` functions anymore. Can only be called by the current owner. NOTE: Renouncing ownership will leave the contract without an owner, thereby removing any functionality that is only available to the owner."
      },
      "safeTransferFrom(address,address,uint256)": {
        "details": "See {IERC721-safeTransferFrom}."
      },
      "safeTransferFrom(address,address,uint256,bytes)": {
        "details": "See {IERC721-safeTransferFrom}."
      },
      "setApprovalForAll(address,bool)": {
        "details": "See {IERC721-setApprovalForAll}."
      },
      "symbol()": {
        "details": "See {IERC721Metadata-symbol}."
      },
      "tokenByIndex(uint256)": {
        "details": "See {IERC721Enumerable-tokenByIndex}."
      },
      "tokenOfOwnerByIndex(address,uint256)": {
        "details": "See {IERC721Enumerable-tokenOfOwnerByIndex}."
      },
      "tokenURI(uint256)": {
        "details": "See {IERC721Metadata-tokenURI}."
      },
      "totalSupply()": {
        "details": "See {IERC721Enumerable-totalSupply}."
      },
      "transferFrom(address,address,uint256)": {
        "details": "See {IERC721-transferFrom}."
      },
      "transferOwnership(address)": {
        "details": "Transfers ownership of the contract to a new account (`newOwner`). Can only be called by the current owner."
      }
    },
    "version": 1
  },
  "userdoc": {
    "kind": "user",
    "methods": {},
    "version": 1
  }
}