{
  "contractName": "Pool",
  "abi": [
    {
      "inputs": [
        {
          "internalType": "address",
          "name": "addressCurrency",
          "type": "address"
        },
        {
          "internalType": "address",
          "name": "addressNFT",
          "type": "address"
        },
        {
          "internalType": "uint256",
          "name": "MinInvesting",
          "type": "uint256"
        },
        {
          "internalType": "uint256",
          "name": "MarginInvestment",
          "type": "uint256"
        }
      ],
      "stateMutability": "nonpayable",
      "type": "constructor"
    },
    {
      "anonymous": false,
      "inputs": [
        {
          "indexed": true,
          "internalType": "address",
          "name": "newMp",
          "type": "address"
        },
        {
          "indexed": true,
          "internalType": "uint256",
          "name": "time",
          "type": "uint256"
        }
      ],
      "name": "ChangedDebtLiquidator",
      "type": "event"
    },
    {
      "anonymous": false,
      "inputs": [
        {
          "indexed": true,
          "internalType": "address",
          "name": "investor",
          "type": "address"
        },
        {
          "indexed": true,
          "internalType": "uint256",
          "name": "date",
          "type": "uint256"
        },
        {
          "indexed": true,
          "internalType": "uint256",
          "name": "amount",
          "type": "uint256"
        }
      ],
      "name": "Deposit",
      "type": "event"
    },
    {
      "anonymous": false,
      "inputs": [
        {
          "indexed": true,
          "internalType": "uint256",
          "name": "tokenId",
          "type": "uint256"
        },
        {
          "indexed": true,
          "internalType": "address",
          "name": "ownerOfNFT",
          "type": "address"
        },
        {
          "indexed": false,
          "internalType": "uint256",
          "name": "amountFounding",
          "type": "uint256"
        }
      ],
      "name": "Funding",
      "type": "event"
    },
    {
      "anonymous": false,
      "inputs": [
        {
          "indexed": true,
          "internalType": "address",
          "name": "previousOwner",
          "type": "address"
        },
        {
          "indexed": true,
          "internalType": "address",
          "name": "newOwner",
          "type": "address"
        }
      ],
      "name": "OwnershipTransferred",
      "type": "event"
    },
    {
      "inputs": [],
      "name": "_numberOfInvestment",
      "outputs": [
        {
          "internalType": "uint256",
          "name": "_value",
          "type": "uint256"
        }
      ],
      "stateMutability": "view",
      "type": "function"
    },
    {
      "inputs": [],
      "name": "_numberOfInvestors",
      "outputs": [
        {
          "internalType": "uint256",
          "name": "_value",
          "type": "uint256"
        }
      ],
      "stateMutability": "view",
      "type": "function"
    },
    {
      "inputs": [],
      "name": "interest",
      "outputs": [
        {
          "internalType": "uint256",
          "name": "",
          "type": "uint256"
        }
      ],
      "stateMutability": "view",
      "type": "function"
    },
    {
      "inputs": [],
      "name": "marginInvestment",
      "outputs": [
        {
          "internalType": "uint256",
          "name": "",
          "type": "uint256"
        }
      ],
      "stateMutability": "view",
      "type": "function"
    },
    {
      "inputs": [],
      "name": "minInvesting",
      "outputs": [
        {
          "internalType": "uint256",
          "name": "",
          "type": "uint256"
        }
      ],
      "stateMutability": "view",
      "type": "function"
    },
    {
      "inputs": [],
      "name": "owner",
      "outputs": [
        {
          "internalType": "address",
          "name": "",
          "type": "address"
        }
      ],
      "stateMutability": "view",
      "type": "function"
    },
    {
      "inputs": [],
      "name": "renounceOwnership",
      "outputs": [],
      "stateMutability": "nonpayable",
      "type": "function"
    },
    {
      "inputs": [],
      "name": "stakingDays",
      "outputs": [
        {
          "internalType": "uint256",
          "name": "",
          "type": "uint256"
        }
      ],
      "stateMutability": "view",
      "type": "function"
    },
    {
      "inputs": [
        {
          "internalType": "address",
          "name": "newOwner",
          "type": "address"
        }
      ],
      "name": "transferOwnership",
      "outputs": [],
      "stateMutability": "nonpayable",
      "type": "function"
    },
    {
      "inputs": [
        {
          "internalType": "bytes4",
          "name": "interfaceId",
          "type": "bytes4"
        }
      ],
      "name": "supportsInterface",
      "outputs": [
        {
          "internalType": "bool",
          "name": "",
          "type": "bool"
        }
      ],
      "stateMutability": "view",
      "type": "function"
    },
    {
      "inputs": [
        {
          "internalType": "address",
          "name": "",
          "type": "address"
        },
        {
          "internalType": "address",
          "name": "",
          "type": "address"
        },
        {
          "internalType": "uint256",
          "name": "",
          "type": "uint256"
        },
        {
          "internalType": "bytes",
          "name": "",
          "type": "bytes"
        }
      ],
      "name": "onERC721Received",
      "outputs": [
        {
          "internalType": "bytes4",
          "name": "",
          "type": "bytes4"
        }
      ],
      "stateMutability": "nonpayable",
      "type": "function"
    },
    {
      "inputs": [
        {
          "internalType": "address",
          "name": "investor",
          "type": "address"
        }
      ],
      "name": "investmentOf",
      "outputs": [
        {
          "internalType": "uint256",
          "name": "totalInvested",
          "type": "uint256"
        }
      ],
      "stateMutability": "view",
      "type": "function"
    },
    {
      "inputs": [],
      "name": "_liquidity",
      "outputs": [
        {
          "internalType": "uint256",
          "name": "liquidity",
          "type": "uint256"
        }
      ],
      "stateMutability": "view",
      "type": "function"
    },
    {
      "inputs": [
        {
          "internalType": "uint256",
          "name": "newMinInvesting",
          "type": "uint256"
        }
      ],
      "name": "_minInvesting",
      "outputs": [
        {
          "internalType": "uint256",
          "name": "",
          "type": "uint256"
        }
      ],
      "stateMutability": "nonpayable",
      "type": "function"
    },
    {
      "inputs": [
        {
          "internalType": "uint256",
          "name": "newMarginInvestmment",
          "type": "uint256"
        }
      ],
      "name": "_marginInvestment",
      "outputs": [
        {
          "internalType": "uint256",
          "name": "",
          "type": "uint256"
        }
      ],
      "stateMutability": "nonpayable",
      "type": "function"
    },
    {
      "inputs": [
        {
          "internalType": "address",
          "name": "investor",
          "type": "address"
        },
        {
          "internalType": "uint256",
          "name": "indexOfdate",
          "type": "uint256"
        }
      ],
      "name": "remainingTimeToWithdraw",
      "outputs": [
        {
          "internalType": "uint256",
          "name": "",
          "type": "uint256"
        }
      ],
      "stateMutability": "view",
      "type": "function"
    },
    {
      "inputs": [
        {
          "internalType": "address",
          "name": "dl",
          "type": "address"
        }
      ],
      "name": "_swapDebtLiquidator",
      "outputs": [],
      "stateMutability": "nonpayable",
      "type": "function"
    },
    {
      "inputs": [
        {
          "internalType": "uint256",
          "name": "_amount",
          "type": "uint256"
        }
      ],
      "name": "deposit",
      "outputs": [],
      "stateMutability": "nonpayable",
      "type": "function"
    },
    {
      "inputs": [
        {
          "internalType": "uint256",
          "name": "_valueWithdrawal",
          "type": "uint256"
        },
        {
          "internalType": "uint256",
          "name": "indexOfdate",
          "type": "uint256"
        }
      ],
      "name": "withdraw",
      "outputs": [],
      "stateMutability": "nonpayable",
      "type": "function"
    },
    {
      "inputs": [
        {
          "internalType": "uint256",
          "name": "_tokenId",
          "type": "uint256"
        },
        {
          "internalType": "uint256",
          "name": "_amount",
          "type": "uint256"
        }
      ],
      "name": "funding",
      "outputs": [],
      "stateMutability": "nonpayable",
      "type": "function"
    }
  ],
  "bytecode": "0x60806040523480156200001157600080fd5b5060405162002a0738038062002a078339818101604052810190620000379190620001eb565b620000576200004b620000f160201b60201c565b620000f960201b60201c565b8160018190555083600560006101000a81548173ffffffffffffffffffffffffffffffffffffffff021916908373ffffffffffffffffffffffffffffffffffffffff16021790555082600660006101000a81548173ffffffffffffffffffffffffffffffffffffffff021916908373ffffffffffffffffffffffffffffffffffffffff1602179055508060028190555050505050620002c9565b600033905090565b60008060009054906101000a900473ffffffffffffffffffffffffffffffffffffffff169050816000806101000a81548173ffffffffffffffffffffffffffffffffffffffff021916908373ffffffffffffffffffffffffffffffffffffffff1602179055508173ffffffffffffffffffffffffffffffffffffffff168173ffffffffffffffffffffffffffffffffffffffff167f8be0079c531659141344cd1fd0a4f28419497f9722a3daafe3b4186f6b6457e060405160405180910390a35050565b600081519050620001ce8162000295565b92915050565b600081519050620001e581620002af565b92915050565b600080600080608085870312156200020257600080fd5b60006200021287828801620001bd565b94505060206200022587828801620001bd565b93505060406200023887828801620001d4565b92505060606200024b87828801620001d4565b91505092959194509250565b600062000264826200026b565b9050919050565b600073ffffffffffffffffffffffffffffffffffffffff82169050919050565b6000819050919050565b620002a08162000257565b8114620002ac57600080fd5b50565b620002ba816200028b565b8114620002c657600080fd5b50565b61272e80620002d96000396000f3fe608060405234801561001057600080fd5b506004361061012c5760003560e01c8063a1ba346d116100ad578063d23595f011610071578063d23595f01461031f578063d8cae6971461033d578063e120d6b21461036d578063f2fde38b1461038b578063fb4db895146103a75761012c565b8063a1ba346d14610279578063b6b55f25146102a9578063c392f766146102c5578063c72ade2a146102e3578063cfbd01e3146103015761012c565b8063711241bc116100f4578063711241bc146101e7578063715018a6146102055780638da5cb5b1461020f57806395c08f921461022d5780639f5e994d1461025d5761012c565b806301ffc9a714610131578063150b7a021461016157806318ce9f5814610191578063441a3e70146101ad578063491d0a56146101c9575b600080fd5b61014b60048036038101906101469190611bf9565b6103d7565b6040516101589190612211565b60405180910390f35b61017b60048036038101906101769190611b19565b610511565b604051610188919061222c565b60405180910390f35b6101ab60048036038101906101a69190611ac7565b610525565b005b6101c760048036038101906101c29190611d45565b6107a5565b005b6101d1610c2e565b6040516101de9190612387565b60405180910390f35b6101ef610ce0565b6040516101fc9190612387565b60405180910390f35b61020d610ce6565b005b610217610d6e565b604051610224919061216d565b60405180910390f35b61024760048036038101906102429190611ac7565b610d97565b6040516102549190612387565b60405180910390f35b61027760048036038101906102729190611d45565b610de3565b005b610293600480360381019061028e9190611b94565b6111ff565b6040516102a09190612387565b60405180910390f35b6102c360048036038101906102be9190611cf3565b6112a5565b005b6102cd611627565b6040516102da9190612387565b60405180910390f35b6102eb61162c565b6040516102f89190612387565b60405180910390f35b610309611631565b6040516103169190612387565b60405180910390f35b610327611637565b6040516103349190612387565b60405180910390f35b61035760048036038101906103529190611cf3565b611643565b6040516103649190612387565b60405180910390f35b6103756116ce565b6040516103829190612387565b60405180910390f35b6103a560048036038101906103a09190611ac7565b6116da565b005b6103c160048036038101906103bc9190611cf3565b6117d2565b6040516103ce9190612387565b60405180910390f35b60007f0178fe3f000000000000000000000000000000000000000000000000000000007bffffffffffffffffffffffffffffffffffffffffffffffffffffffff1916827bffffffffffffffffffffffffffffffffffffffffffffffffffffffff191614806104a257507f36372b07000000000000000000000000000000000000000000000000000000007bffffffffffffffffffffffffffffffffffffffffffffffffffffffff1916827bffffffffffffffffffffffffffffffffffffffffffffffffffffffff1916145b8061050a57507f150b7a02000000000000000000000000000000000000000000000000000000007bffffffffffffffffffffffffffffffffffffffffffffffffffffffff1916827bffffffffffffffffffffffffffffffffffffffffffffffffffffffff1916145b9050919050565b600063150b7a0260e01b9050949350505050565b61052d61185d565b73ffffffffffffffffffffffffffffffffffffffff1661054b610d6e565b73ffffffffffffffffffffffffffffffffffffffff16146105a1576040517f08c379a0000000000000000000000000000000000000000000000000000000008152600401610598906122c7565b60405180910390fd5b6105c08173ffffffffffffffffffffffffffffffffffffffff16611865565b6105ff576040517f08c379a00000000000000000000000000000000000000000000000000000000081526004016105f690612347565b60405180910390fd5b8073ffffffffffffffffffffffffffffffffffffffff166301ffc9a76318ce9f5860e01b6040518263ffffffff1660e01b815260040161063f919061222c565b60206040518083038186803b15801561065757600080fd5b505afa15801561066b573d6000803e3d6000fd5b505050506040513d601f19601f8201168201806040525081019061068f9190611bd0565b6106ce576040517f08c379a00000000000000000000000000000000000000000000000000000000081526004016106c5906122e7565b60405180910390fd5b600660009054906101000a900473ffffffffffffffffffffffffffffffffffffffff1673ffffffffffffffffffffffffffffffffffffffff1663a22cb4658260016040518363ffffffff1660e01b815260040161072c9291906121bf565b600060405180830381600087803b15801561074657600080fd5b505af115801561075a573d6000803e3d6000fd5b50505050428173ffffffffffffffffffffffffffffffffffffffff167f92fd9c14944c16b424fcdd05ff924d79f82255601510fad9d1617f1baa49960660405160405180910390a350565b600860006107b161185d565b73ffffffffffffffffffffffffffffffffffffffff1673ffffffffffffffffffffffffffffffffffffffff16815260200190815260200160002060009054906101000a900460ff16610838576040517f08c379a000000000000000000000000000000000000000000000000000000000815260040161082f90612307565b60405180910390fd5b600061084b61084561185d565b836111ff565b90506000601e8261085c919061249a565b9050600181101561086c57600080fd5b60006007600061087a61185d565b73ffffffffffffffffffffffffffffffffffffffff1673ffffffffffffffffffffffffffffffffffffffff16815260200190815260200160002060020184815481106108ef577f4e487b7100000000000000000000000000000000000000000000000000000000600052603260045260246000fd5b90600052602060002001549050600061096e60018461090e91906124cb565b6007600061091a61185d565b73ffffffffffffffffffffffffffffffffffffffff1673ffffffffffffffffffffffffffffffffffffffff168152602001908152602001600020600101600085815260200190815260200160002054611878565b6007600061097a61185d565b73ffffffffffffffffffffffffffffffffffffffff1673ffffffffffffffffffffffffffffffffffffffff168152602001908152602001600020600101600084815260200190815260200160002060008282546109d79190612444565b925050819055905080861115610a22576040517f08c379a0000000000000000000000000000000000000000000000000000000008152600401610a1990612327565b60405180910390fd5b600560009054906101000a900473ffffffffffffffffffffffffffffffffffffffff1673ffffffffffffffffffffffffffffffffffffffff1663a9059cbb610a6861185d565b886040518363ffffffff1660e01b8152600401610a869291906121e8565b602060405180830381600087803b158015610aa057600080fd5b505af1158015610ab4573d6000803e3d6000fd5b505050506040513d601f19601f82011682018060405250810190610ad89190611bd0565b508560076000610ae661185d565b73ffffffffffffffffffffffffffffffffffffffff1673ffffffffffffffffffffffffffffffffffffffff16815260200190815260200160002060010160008481526020019081526020016000206000828254610b439190612525565b925050819055504260076000610b5761185d565b73ffffffffffffffffffffffffffffffffffffffff1673ffffffffffffffffffffffffffffffffffffffff1681526020019081526020016000206002018681548110610bcc577f4e487b7100000000000000000000000000000000000000000000000000000000600052603260045260246000fd5b90600052602060002001819055508542610be461185d565b73ffffffffffffffffffffffffffffffffffffffff167f90890809c654f11d6e72a28fa60149770a0d11ec6c92319d6ceb2bb0a4ea1a1560405160405180910390a4505050505050565b6000600560009054906101000a900473ffffffffffffffffffffffffffffffffffffffff1673ffffffffffffffffffffffffffffffffffffffff166370a08231306040518263ffffffff1660e01b8152600401610c8b919061216d565b60206040518083038186803b158015610ca357600080fd5b505afa158015610cb7573d6000803e3d6000fd5b505050506040513d601f19601f82011682018060405250810190610cdb9190611d1c565b905090565b60025481565b610cee61185d565b73ffffffffffffffffffffffffffffffffffffffff16610d0c610d6e565b73ffffffffffffffffffffffffffffffffffffffff1614610d62576040517f08c379a0000000000000000000000000000000000000000000000000000000008152600401610d59906122c7565b60405180910390fd5b610d6c600061189f565b565b60008060009054906101000a900473ffffffffffffffffffffffffffffffffffffffff16905090565b6000600760008373ffffffffffffffffffffffffffffffffffffffff1673ffffffffffffffffffffffffffffffffffffffff168152602001908152602001600020600001549050919050565b610deb61185d565b73ffffffffffffffffffffffffffffffffffffffff16610e09610d6e565b73ffffffffffffffffffffffffffffffffffffffff1614610e5f576040517f08c379a0000000000000000000000000000000000000000000000000000000008152600401610e56906122c7565b60405180910390fd5b60025481610e6b610c2e565b610e759190612525565b11610eb5576040517f08c379a0000000000000000000000000000000000000000000000000000000008152600401610eac90612267565b60405180910390fd5b6000600660009054906101000a900473ffffffffffffffffffffffffffffffffffffffff1673ffffffffffffffffffffffffffffffffffffffff16630178fe3f846040518263ffffffff1660e01b8152600401610f129190612387565b60006040518083038186803b158015610f2a57600080fd5b505afa158015610f3e573d6000803e3d6000fd5b505050506040513d6000823e3d601f19601f82011682018060405250810190610f679190611c22565b50945050505050808214610fb0576040517f08c379a0000000000000000000000000000000000000000000000000000000008152600401610fa7906122a7565b60405180910390fd5b6000600660009054906101000a900473ffffffffffffffffffffffffffffffffffffffff1673ffffffffffffffffffffffffffffffffffffffff16636352211e856040518263ffffffff1660e01b815260040161100d9190612387565b60206040518083038186803b15801561102557600080fd5b505afa158015611039573d6000803e3d6000fd5b505050506040513d601f19601f8201168201806040525081019061105d9190611af0565b9050600560009054906101000a900473ffffffffffffffffffffffffffffffffffffffff1673ffffffffffffffffffffffffffffffffffffffff1663a9059cbb82856040518363ffffffff1660e01b81526004016110bc9291906121e8565b602060405180830381600087803b1580156110d657600080fd5b505af11580156110ea573d6000803e3d6000fd5b505050506040513d601f19601f8201168201806040525081019061110e9190611bd0565b50600660009054906101000a900473ffffffffffffffffffffffffffffffffffffffff1673ffffffffffffffffffffffffffffffffffffffff166342842e0e8230876040518463ffffffff1660e01b815260040161116e93929190612188565b600060405180830381600087803b15801561118857600080fd5b505af115801561119c573d6000803e3d6000fd5b505050506111aa6003611963565b8073ffffffffffffffffffffffffffffffffffffffff16847fef1243131cc4d5c6fd57f61177739b68f2fe5a7ffedb8fc74a856cd8aeb592a3856040516111f19190612387565b60405180910390a350505050565b6000603c600760008573ffffffffffffffffffffffffffffffffffffffff1673ffffffffffffffffffffffffffffffffffffffff168152602001908152602001600020600201838154811061127d577f4e487b7100000000000000000000000000000000000000000000000000000000600052603260045260246000fd5b9060005260206000200154426112939190612525565b61129d919061249a565b905092915050565b60008114156112e9576040517f08c379a00000000000000000000000000000000000000000000000000000000081526004016112e090612247565b60405180910390fd5b60015481101561132e576040517f08c379a000000000000000000000000000000000000000000000000000000000815260040161132590612367565b60405180910390fd5b6008600061133a61185d565b73ffffffffffffffffffffffffffffffffffffffff1673ffffffffffffffffffffffffffffffffffffffff16815260200190815260200160002060009054906101000a900460ff16611391576113906004611963565b5b600560009054906101000a900473ffffffffffffffffffffffffffffffffffffffff1673ffffffffffffffffffffffffffffffffffffffff166323b872dd6113d761185d565b30846040518463ffffffff1660e01b81526004016113f793929190612188565b602060405180830381600087803b15801561141157600080fd5b505af1158015611425573d6000803e3d6000fd5b505050506040513d601f19601f820116820180604052508101906114499190611bd0565b50806007600061145761185d565b73ffffffffffffffffffffffffffffffffffffffff1673ffffffffffffffffffffffffffffffffffffffff16815260200190815260200160002060000160008282546114a39190612444565b9250508190555080600760006114b761185d565b73ffffffffffffffffffffffffffffffffffffffff1673ffffffffffffffffffffffffffffffffffffffff1681526020019081526020016000206001016000428152602001908152602001600020819055506007600061151561185d565b73ffffffffffffffffffffffffffffffffffffffff1673ffffffffffffffffffffffffffffffffffffffff16815260200190815260200160002060020142908060018154018082558091505060019003906000526020600020016000909190919091505560016008600061158761185d565b73ffffffffffffffffffffffffffffffffffffffff1673ffffffffffffffffffffffffffffffffffffffff16815260200190815260200160002060006101000a81548160ff02191690831515021790555080426115e261185d565b73ffffffffffffffffffffffffffffffffffffffff167f90890809c654f11d6e72a28fa60149770a0d11ec6c92319d6ceb2bb0a4ea1a1560405160405180910390a450565b600181565b601e81565b60015481565b60048060000154905081565b600061164d61185d565b73ffffffffffffffffffffffffffffffffffffffff1661166b610d6e565b73ffffffffffffffffffffffffffffffffffffffff16146116c1576040517f08c379a00000000000000000000000000000000000000000000000000000000081526004016116b8906122c7565b60405180910390fd5b8160028190559050919050565b60038060000154905081565b6116e261185d565b73ffffffffffffffffffffffffffffffffffffffff16611700610d6e565b73ffffffffffffffffffffffffffffffffffffffff1614611756576040517f08c379a000000000000000000000000000000000000000000000000000000000815260040161174d906122c7565b60405180910390fd5b600073ffffffffffffffffffffffffffffffffffffffff168173ffffffffffffffffffffffffffffffffffffffff1614156117c6576040517f08c379a00000000000000000000000000000000000000000000000000000000081526004016117bd90612287565b60405180910390fd5b6117cf8161189f565b50565b60006117dc61185d565b73ffffffffffffffffffffffffffffffffffffffff166117fa610d6e565b73ffffffffffffffffffffffffffffffffffffffff1614611850576040517f08c379a0000000000000000000000000000000000000000000000000000000008152600401611847906122c7565b60405180910390fd5b8160018190559050919050565b600033905090565b600080823b905060008111915050919050565b6000806064838561188991906124cb565b611893919061249a565b90508091505092915050565b60008060009054906101000a900473ffffffffffffffffffffffffffffffffffffffff169050816000806101000a81548173ffffffffffffffffffffffffffffffffffffffff021916908373ffffffffffffffffffffffffffffffffffffffff1602179055508173ffffffffffffffffffffffffffffffffffffffff168173ffffffffffffffffffffffffffffffffffffffff167f8be0079c531659141344cd1fd0a4f28419497f9722a3daafe3b4186f6b6457e060405160405180910390a35050565b6001816000016000828254019250508190555050565b600061198c611987846123d3565b6123a2565b9050828152602081018484840111156119a457600080fd5b6119af8482856125cd565b509392505050565b60006119ca6119c584612403565b6123a2565b9050828152602081018484840111156119e257600080fd5b6119ed8482856125dc565b509392505050565b600081359050611a048161269c565b92915050565b600081519050611a198161269c565b92915050565b600081519050611a2e816126b3565b92915050565b600081359050611a43816126ca565b92915050565b600082601f830112611a5a57600080fd5b8135611a6a848260208601611979565b91505092915050565b600082601f830112611a8457600080fd5b8151611a948482602086016119b7565b91505092915050565b600081359050611aac816126e1565b92915050565b600081519050611ac1816126e1565b92915050565b600060208284031215611ad957600080fd5b6000611ae7848285016119f5565b91505092915050565b600060208284031215611b0257600080fd5b6000611b1084828501611a0a565b91505092915050565b60008060008060808587031215611b2f57600080fd5b6000611b3d878288016119f5565b9450506020611b4e878288016119f5565b9350506040611b5f87828801611a9d565b925050606085013567ffffffffffffffff811115611b7c57600080fd5b611b8887828801611a49565b91505092959194509250565b60008060408385031215611ba757600080fd5b6000611bb5858286016119f5565b9250506020611bc685828601611a9d565b9150509250929050565b600060208284031215611be257600080fd5b6000611bf084828501611a1f565b91505092915050565b600060208284031215611c0b57600080fd5b6000611c1984828501611a34565b91505092915050565b60008060008060008060c08789031215611c3b57600080fd5b600087015167ffffffffffffffff811115611c5557600080fd5b611c6189828a01611a73565b965050602087015167ffffffffffffffff811115611c7e57600080fd5b611c8a89828a01611a73565b955050604087015167ffffffffffffffff811115611ca757600080fd5b611cb389828a01611a73565b9450506060611cc489828a01611ab2565b9350506080611cd589828a01611ab2565b92505060a0611ce689828a01611a0a565b9150509295509295509295565b600060208284031215611d0557600080fd5b6000611d1384828501611a9d565b91505092915050565b600060208284031215611d2e57600080fd5b6000611d3c84828501611ab2565b91505092915050565b60008060408385031215611d5857600080fd5b6000611d6685828601611a9d565b9250506020611d7785828601611a9d565b9150509250929050565b611d8a81612559565b82525050565b611d998161256b565b82525050565b611da881612577565b82525050565b6000611dbb601b83612433565b91507f504f4f4c3a2054686520616d6f756e742063616e2774206265203000000000006000830152602082019050919050565b6000611dfb603483612433565b91507f504f4f4c3a2054686520616d6f756e74206c656573207468616e20746865206d60008301527f617267696e67206f6620696e76657374696e672e0000000000000000000000006020830152604082019050919050565b6000611e61602683612433565b91507f4f776e61626c653a206e6577206f776e657220697320746865207a65726f206160008301527f64647265737300000000000000000000000000000000000000000000000000006020830152604082019050919050565b6000611ec7603583612433565b91507f504f4f4c3a2054686520616d6f756e74206e6f74206d6174636820776974682060008301527f746f6b656e2773207072696365206f662073656c6c00000000000000000000006020830152604082019050919050565b6000611f2d602083612433565b91507f4f776e61626c653a2063616c6c6572206973206e6f7420746865206f776e65726000830152602082019050919050565b6000611f6d602483612433565b91507f506f6f6c3a2054686520636f6e7472616374206973206e6f7420636f6d70617460008301527f69626c65000000000000000000000000000000000000000000000000000000006020830152604082019050919050565b6000611fd3602a83612433565b91507f504f4f4c3a20596f757220617265206e6f7420616e20696e766573746f72207260008301527f6567697374657265642e000000000000000000000000000000000000000000006020830152604082019050919050565b6000612039602383612433565b91507f596f7520646f6e27742068617665207468617420616d6f756e74206f66206d6f60008301527f6e657900000000000000000000000000000000000000000000000000000000006020830152604082019050919050565b600061209f603483612433565b91507f506f6f6c3a20546865206164647265737320696e736572746564206973206e6f60008301527f74206120636f6e747261637420616464726573730000000000000000000000006020830152604082019050919050565b6000612105602783612433565b91507f504f4f4c3a204d696e20696e76657374696e672065786365656473207468652060008301527f616d6f756e742e000000000000000000000000000000000000000000000000006020830152604082019050919050565b612167816125c3565b82525050565b60006020820190506121826000830184611d81565b92915050565b600060608201905061219d6000830186611d81565b6121aa6020830185611d81565b6121b7604083018461215e565b949350505050565b60006040820190506121d46000830185611d81565b6121e16020830184611d90565b9392505050565b60006040820190506121fd6000830185611d81565b61220a602083018461215e565b9392505050565b60006020820190506122266000830184611d90565b92915050565b60006020820190506122416000830184611d9f565b92915050565b6000602082019050818103600083015261226081611dae565b9050919050565b6000602082019050818103600083015261228081611dee565b9050919050565b600060208201905081810360008301526122a081611e54565b9050919050565b600060208201905081810360008301526122c081611eba565b9050919050565b600060208201905081810360008301526122e081611f20565b9050919050565b6000602082019050818103600083015261230081611f60565b9050919050565b6000602082019050818103600083015261232081611fc6565b9050919050565b600060208201905081810360008301526123408161202c565b9050919050565b6000602082019050818103600083015261236081612092565b9050919050565b60006020820190508181036000830152612380816120f8565b9050919050565b600060208201905061239c600083018461215e565b92915050565b6000604051905081810181811067ffffffffffffffff821117156123c9576123c861266d565b5b8060405250919050565b600067ffffffffffffffff8211156123ee576123ed61266d565b5b601f19601f8301169050602081019050919050565b600067ffffffffffffffff82111561241e5761241d61266d565b5b601f19601f8301169050602081019050919050565b600082825260208201905092915050565b600061244f826125c3565b915061245a836125c3565b9250827fffffffffffffffffffffffffffffffffffffffffffffffffffffffffffffffff0382111561248f5761248e61260f565b5b828201905092915050565b60006124a5826125c3565b91506124b0836125c3565b9250826124c0576124bf61263e565b5b828204905092915050565b60006124d6826125c3565b91506124e1836125c3565b9250817fffffffffffffffffffffffffffffffffffffffffffffffffffffffffffffffff048311821515161561251a5761251961260f565b5b828202905092915050565b6000612530826125c3565b915061253b836125c3565b92508282101561254e5761254d61260f565b5b828203905092915050565b6000612564826125a3565b9050919050565b60008115159050919050565b60007fffffffff0000000000000000000000000000000000000000000000000000000082169050919050565b600073ffffffffffffffffffffffffffffffffffffffff82169050919050565b6000819050919050565b82818337600083830152505050565b60005b838110156125fa5780820151818401526020810190506125df565b83811115612609576000848401525b50505050565b7f4e487b7100000000000000000000000000000000000000000000000000000000600052601160045260246000fd5b7f4e487b7100000000000000000000000000000000000000000000000000000000600052601260045260246000fd5b7f4e487b7100000000000000000000000000000000000000000000000000000000600052604160045260246000fd5b6126a581612559565b81146126b057600080fd5b50565b6126bc8161256b565b81146126c757600080fd5b50565b6126d381612577565b81146126de57600080fd5b50565b6126ea816125c3565b81146126f557600080fd5b5056fea2646970667358221220b910ee0c9d1a55a831de0161f3b1d376b263cc9b7ef2f8b8bfb8d1b94d2f176864736f6c63430008000033",
  "immutableReferences": {},
  "source": "// SPDX-License-Identifier: MIT\npragma solidity >=0.8.0 <0.9.0;\n\nimport \"@openzeppelin/contracts/token/ERC20/IERC20.sol\";\nimport \"@openzeppelin/contracts/token/ERC721/IERC721Receiver.sol\";\nimport \"@openzeppelin/contracts/utils/Counters.sol\";\nimport \"@openzeppelin/contracts/utils/Address.sol\";\nimport \"@openzeppelin/contracts/access/Ownable.sol\";\nimport \"@openzeppelin/contracts/utils/introspection/IERC165.sol\";\nimport \"./INFT_FACTORY.sol\";\n\ncontract Pool is Ownable, IERC721Receiver, IERC165 {\n  using Counters for Counters.Counter;\n  using Address for address;\n  uint256 public constant interest = 1;\n  uint256 public constant stakingDays = 30;\n  uint256 public minInvesting;\n  uint256 public marginInvestment;\n  Counters.Counter public _numberOfInvestment;\n  Counters.Counter public _numberOfInvestors;\n  IERC20 currency;\n  INFT_FACTORY nft;\n\n  struct Investor {\n    uint256 totalInvested;\n    mapping(uint256 => uint256) _investments;\n    uint256[] _indexOfDate;\n  }\n\n  mapping (address => Investor) private _investors;\n  mapping (address => bool) private _isExist;\n\n  event Deposit(address indexed investor, uint256 indexed date, uint256 indexed amount);\n  event Funding(uint256 indexed tokenId, address indexed ownerOfNFT, uint256 amountFounding);\n  event ChangedDebtLiquidator(address indexed newMp, uint256 indexed time);\n\n  constructor(\n    address addressCurrency,\n    address addressNFT, \n    uint256 MinInvesting, uint256 MarginInvestment) {\n      minInvesting = MinInvesting;\n      currency = IERC20(addressCurrency);\n      nft = INFT_FACTORY(addressNFT);\n      marginInvestment = MarginInvestment;\n  }\n\n  function supportsInterface(bytes4 interfaceId) public view virtual override returns (bool) {\n    return interfaceId == type(INFT_FACTORY).interfaceId \n        || interfaceId == type(IERC20).interfaceId \n        || interfaceId == type(IERC721Receiver).interfaceId; \n  }\n\n  function onERC721Received(address, address, uint256, bytes memory) public virtual override returns (bytes4) {\n        return this.onERC721Received.selector;\n  }\n   \n  function investmentOf(address investor) external view returns(uint256 totalInvested) {\n      totalInvested = _investors[investor].totalInvested;\n  }\n\n  function _liquidity() public view returns(uint256 liquidity) {\n    liquidity = currency.balanceOf(address(this));\n  }\n\n  /*\n  function _stakingDays(uint256 newStakingDays) external onlyOwner(_msgSender()) returns(bool) {\n    stakingDays = newStakingDays;\n    return true;\n  }\n  */\n\n  function _minInvesting(uint256 newMinInvesting) external onlyOwner() returns(uint256) {\n    return minInvesting = newMinInvesting;\n  }\n\n  function _marginInvestment(uint256 newMarginInvestmment) external onlyOwner() returns(uint256){\n    return marginInvestment = newMarginInvestmment;\n  }\n\n  function remainingTimeToWithdraw(address investor, uint256 indexOfdate) public view returns(uint256) {\n    return (block.timestamp - _investors[investor]._indexOfDate[indexOfdate] ) / 1 minutes;\n  } \n\n  function _swapDebtLiquidator(address dl) external onlyOwner() {\n    require(dl.isContract(), \"Pool: The address inserted is not a contract address\");\n    require(IERC165(dl).supportsInterface(this._swapDebtLiquidator.selector), \"Pool: The contract is not compatible\");\n    nft.setApprovalForAll(dl, true);\n    emit ChangedDebtLiquidator(dl, block.timestamp);\n  }\n\n  function deposit(uint256 _amount) external {\n    require(_amount != 0, \"POOL: The amount can't be 0\");\n    require(_amount >= minInvesting, \"POOL: Min investing exceeds the amount.\");\n    if (! _isExist[_msgSender()]) {_numberOfInvestors.increment();}\n    //use approve function from web3 to allow the transaction\n    currency.transferFrom(_msgSender(), address(this), _amount);\n    _investors[_msgSender()].totalInvested += _amount;  \n    _investors[_msgSender()]._investments[block.timestamp] = _amount;\n    _investors[_msgSender()]._indexOfDate.push(block.timestamp);\n    _isExist[_msgSender()] = true;\n    emit Deposit(_msgSender(),block.timestamp, _amount);\n  }\n\n  function withdraw(uint256 _valueWithdrawal, uint256 indexOfdate) external {\n    require(_isExist[_msgSender()], \"POOL: Your are not an investor registered.\");\n    uint256 daysPassed = remainingTimeToWithdraw(_msgSender(), indexOfdate);\n    uint256 count = daysPassed/stakingDays;\n    require(count >= 1);\n    uint256 dateOf = _investors[_msgSender()]._indexOfDate[indexOfdate];\n    uint256 totalAmountToWithdraw =_investors[_msgSender()]._investments[dateOf] += _profit(count * interest, _investors[_msgSender()]._investments[dateOf]);\n    require(_valueWithdrawal <= totalAmountToWithdraw, \"You don't have that amount of money\");\n    currency.transfer(_msgSender(), _valueWithdrawal);\n    _investors[_msgSender()]._investments[dateOf] -= _valueWithdrawal;\n    _investors[_msgSender()]._indexOfDate[indexOfdate] = block.timestamp;\n    emit Deposit(_msgSender(), block.timestamp, _valueWithdrawal);\n  }  \n\n  function funding(uint256 _tokenId, uint256 _amount) external onlyOwner() {\n    require(_liquidity() - _amount > marginInvestment, \"POOL: The amount lees than the marging of investing.\");\n    (, , , , uint256 balanceAdvance, ) = nft.getData(_tokenId);\n    require(_amount == balanceAdvance, \"POOL: The amount not match with token's price of sell\");\n    address ownerOfNFT = nft.ownerOf(_tokenId);\n    currency.transfer(ownerOfNFT, _amount);\n    nft.safeTransferFrom(ownerOfNFT, address(this), _tokenId);\n    _numberOfInvestment.increment();\n    emit Funding(_tokenId, ownerOfNFT, _amount);\n  }\n\n  function _profit(uint256 _interestInPorcentage, uint256 _amount) private pure returns(uint256) {\n     uint256 value = (_interestInPorcentage * _amount) / (100);\n     return value;\n  }\n\n}\n\n",
  "sourcePath": "/home/peter/Documents/Reserva/0-Reservafs/Proyectos/DIF_PROJECT/Code/DIFonBlockchain_Enumerable/contracts/Pool.sol",
  "compiler": {
    "name": "solc",
    "version": "0.8.0+commit.c7dfd78e.Emscripten.clang"
  },
  "schemaVersion": "3.4.3",
  "updatedAt": "2021-10-18T02:47:40.409Z",
  "devdoc": {
    "kind": "dev",
    "methods": {
      "owner()": {
        "details": "Returns the address of the current owner."
      },
      "renounceOwnership()": {
        "details": "Leaves the contract without owner. It will not be possible to call `onlyOwner` functions anymore. Can only be called by the current owner. NOTE: Renouncing ownership will leave the contract without an owner, thereby removing any functionality that is only available to the owner."
      },
      "supportsInterface(bytes4)": {
        "details": "Returns true if this contract implements the interface defined by `interfaceId`. See the corresponding https://eips.ethereum.org/EIPS/eip-165#how-interfaces-are-identified[EIP section] to learn more about how these ids are created. This function call must use less than 30 000 gas."
      },
      "transferOwnership(address)": {
        "details": "Transfers ownership of the contract to a new account (`newOwner`). Can only be called by the current owner."
      }
    },
    "version": 1
  },
  "userdoc": {
    "kind": "user",
    "methods": {},
    "version": 1
  }
}