{
  "contractName": "RUSD",
  "abi": [
    {
      "inputs": [
        {
          "internalType": "uint256",
          "name": "_minimumInvesting",
          "type": "uint256"
        },
        {
          "internalType": "address",
          "name": "_nftFactoryAddress",
          "type": "address"
        },
        {
          "internalType": "address",
          "name": "_usdtAddress",
          "type": "address"
        },
        {
          "internalType": "address",
          "name": "_vaultNFTAddress",
          "type": "address"
        }
      ],
      "stateMutability": "nonpayable",
      "type": "constructor"
    },
    {
      "anonymous": false,
      "inputs": [
        {
          "indexed": true,
          "internalType": "address",
          "name": "owner",
          "type": "address"
        },
        {
          "indexed": true,
          "internalType": "address",
          "name": "spender",
          "type": "address"
        },
        {
          "indexed": false,
          "internalType": "uint256",
          "name": "value",
          "type": "uint256"
        }
      ],
      "name": "Approval",
      "type": "event"
    },
    {
      "anonymous": false,
      "inputs": [
        {
          "indexed": true,
          "internalType": "address",
          "name": "recipient",
          "type": "address"
        },
        {
          "indexed": false,
          "internalType": "uint256",
          "name": "amount",
          "type": "uint256"
        }
      ],
      "name": "NEWDEPOSIT",
      "type": "event"
    },
    {
      "anonymous": false,
      "inputs": [
        {
          "indexed": true,
          "internalType": "address",
          "name": "previousOwner",
          "type": "address"
        },
        {
          "indexed": true,
          "internalType": "address",
          "name": "newOwner",
          "type": "address"
        }
      ],
      "name": "OwnershipTransferred",
      "type": "event"
    },
    {
      "anonymous": false,
      "inputs": [
        {
          "indexed": true,
          "internalType": "address",
          "name": "from",
          "type": "address"
        },
        {
          "indexed": true,
          "internalType": "address",
          "name": "to",
          "type": "address"
        },
        {
          "indexed": false,
          "internalType": "uint256",
          "name": "value",
          "type": "uint256"
        }
      ],
      "name": "Transfer",
      "type": "event"
    },
    {
      "inputs": [
        {
          "internalType": "address",
          "name": "owner",
          "type": "address"
        },
        {
          "internalType": "address",
          "name": "spender",
          "type": "address"
        }
      ],
      "name": "allowance",
      "outputs": [
        {
          "internalType": "uint256",
          "name": "",
          "type": "uint256"
        }
      ],
      "stateMutability": "view",
      "type": "function"
    },
    {
      "inputs": [
        {
          "internalType": "address",
          "name": "spender",
          "type": "address"
        },
        {
          "internalType": "uint256",
          "name": "amount",
          "type": "uint256"
        }
      ],
      "name": "approve",
      "outputs": [
        {
          "internalType": "bool",
          "name": "",
          "type": "bool"
        }
      ],
      "stateMutability": "nonpayable",
      "type": "function"
    },
    {
      "inputs": [
        {
          "internalType": "address",
          "name": "account",
          "type": "address"
        }
      ],
      "name": "balanceOf",
      "outputs": [
        {
          "internalType": "uint256",
          "name": "",
          "type": "uint256"
        }
      ],
      "stateMutability": "view",
      "type": "function"
    },
    {
      "inputs": [],
      "name": "decimals",
      "outputs": [
        {
          "internalType": "uint8",
          "name": "",
          "type": "uint8"
        }
      ],
      "stateMutability": "view",
      "type": "function"
    },
    {
      "inputs": [
        {
          "internalType": "address",
          "name": "spender",
          "type": "address"
        },
        {
          "internalType": "uint256",
          "name": "subtractedValue",
          "type": "uint256"
        }
      ],
      "name": "decreaseAllowance",
      "outputs": [
        {
          "internalType": "bool",
          "name": "",
          "type": "bool"
        }
      ],
      "stateMutability": "nonpayable",
      "type": "function"
    },
    {
      "inputs": [
        {
          "internalType": "address",
          "name": "spender",
          "type": "address"
        },
        {
          "internalType": "uint256",
          "name": "addedValue",
          "type": "uint256"
        }
      ],
      "name": "increaseAllowance",
      "outputs": [
        {
          "internalType": "bool",
          "name": "",
          "type": "bool"
        }
      ],
      "stateMutability": "nonpayable",
      "type": "function"
    },
    {
      "inputs": [],
      "name": "name",
      "outputs": [
        {
          "internalType": "string",
          "name": "",
          "type": "string"
        }
      ],
      "stateMutability": "view",
      "type": "function"
    },
    {
      "inputs": [],
      "name": "owner",
      "outputs": [
        {
          "internalType": "address",
          "name": "",
          "type": "address"
        }
      ],
      "stateMutability": "view",
      "type": "function"
    },
    {
      "inputs": [],
      "name": "renounceOwnership",
      "outputs": [],
      "stateMutability": "nonpayable",
      "type": "function"
    },
    {
      "inputs": [],
      "name": "symbol",
      "outputs": [
        {
          "internalType": "string",
          "name": "",
          "type": "string"
        }
      ],
      "stateMutability": "view",
      "type": "function"
    },
    {
      "inputs": [],
      "name": "totalSupply",
      "outputs": [
        {
          "internalType": "uint256",
          "name": "",
          "type": "uint256"
        }
      ],
      "stateMutability": "view",
      "type": "function"
    },
    {
      "inputs": [
        {
          "internalType": "address",
          "name": "sender",
          "type": "address"
        },
        {
          "internalType": "address",
          "name": "recipient",
          "type": "address"
        },
        {
          "internalType": "uint256",
          "name": "amount",
          "type": "uint256"
        }
      ],
      "name": "transferFrom",
      "outputs": [
        {
          "internalType": "bool",
          "name": "",
          "type": "bool"
        }
      ],
      "stateMutability": "nonpayable",
      "type": "function"
    },
    {
      "inputs": [
        {
          "internalType": "address",
          "name": "newOwner",
          "type": "address"
        }
      ],
      "name": "transferOwnership",
      "outputs": [],
      "stateMutability": "nonpayable",
      "type": "function"
    },
    {
      "inputs": [
        {
          "internalType": "address",
          "name": "_recipient",
          "type": "address"
        },
        {
          "internalType": "uint256",
          "name": "_amount",
          "type": "uint256"
        }
      ],
      "name": "deposit",
      "outputs": [
        {
          "internalType": "bool",
          "name": "",
          "type": "bool"
        }
      ],
      "stateMutability": "nonpayable",
      "type": "function"
    },
    {
      "inputs": [
        {
          "internalType": "uint256",
          "name": "tokenId",
          "type": "uint256"
        }
      ],
      "name": "fundingNFT",
      "outputs": [
        {
          "internalType": "bool",
          "name": "",
          "type": "bool"
        }
      ],
      "stateMutability": "nonpayable",
      "type": "function"
    },
    {
      "inputs": [
        {
          "internalType": "address",
          "name": "recipient",
          "type": "address"
        },
        {
          "internalType": "uint256",
          "name": "amount",
          "type": "uint256"
        }
      ],
      "name": "transfer",
      "outputs": [
        {
          "internalType": "bool",
          "name": "",
          "type": "bool"
        }
      ],
      "stateMutability": "nonpayable",
      "type": "function"
    },
    {
      "inputs": [
        {
          "internalType": "address",
          "name": "investor",
          "type": "address"
        }
      ],
      "name": "stakeOf",
      "outputs": [
        {
          "internalType": "bool",
          "name": "",
          "type": "bool"
        }
      ],
      "stateMutability": "nonpayable",
      "type": "function"
    }
  ],
  "bytecode": "0x60e06040523480156200001157600080fd5b50604051620030c5380380620030c5833981810160405281019062000037919062000564565b6040518060400160405280600b81526020017f52455345525641205553440000000000000000000000000000000000000000008152506040518060400160405280600481526020017f52555344000000000000000000000000000000000000000000000000000000008152508160039080519060200190620000bb92919062000486565b508060049080519060200190620000d492919062000486565b505050620000f7620000eb620003a560201b60201c565b620003ad60201b60201c565b620001238373ffffffffffffffffffffffffffffffffffffffff166200047360201b620013c31760201c565b80156200015d5750600073ffffffffffffffffffffffffffffffffffffffff168373ffffffffffffffffffffffffffffffffffffffff1614155b6200019f576040517f08c379a0000000000000000000000000000000000000000000000000000000008152600401620001969062000612565b60405180910390fd5b620001cb8273ffffffffffffffffffffffffffffffffffffffff166200047360201b620013c31760201c565b8015620002055750600073ffffffffffffffffffffffffffffffffffffffff168273ffffffffffffffffffffffffffffffffffffffff1614155b62000247576040517f08c379a00000000000000000000000000000000000000000000000000000000081526004016200023e9062000612565b60405180910390fd5b620002738173ffffffffffffffffffffffffffffffffffffffff166200047360201b620013c31760201c565b8015620002ad5750600073ffffffffffffffffffffffffffffffffffffffff168173ffffffffffffffffffffffffffffffffffffffff1614155b620002ef576040517f08c379a0000000000000000000000000000000000000000000000000000000008152600401620002e69062000612565b60405180910390fd5b8273ffffffffffffffffffffffffffffffffffffffff1660808173ffffffffffffffffffffffffffffffffffffffff1660601b815250508173ffffffffffffffffffffffffffffffffffffffff1660c08173ffffffffffffffffffffffffffffffffffffffff1660601b815250508073ffffffffffffffffffffffffffffffffffffffff1660a08173ffffffffffffffffffffffffffffffffffffffff1660601b8152505083600881905550505050506200071c565b600033905090565b6000600560009054906101000a900473ffffffffffffffffffffffffffffffffffffffff16905081600560006101000a81548173ffffffffffffffffffffffffffffffffffffffff021916908373ffffffffffffffffffffffffffffffffffffffff1602179055508173ffffffffffffffffffffffffffffffffffffffff168173ffffffffffffffffffffffffffffffffffffffff167f8be0079c531659141344cd1fd0a4f28419497f9722a3daafe3b4186f6b6457e060405160405180910390a35050565b600080823b905060008111915050919050565b828054620004949062000683565b90600052602060002090601f016020900481019282620004b8576000855562000504565b82601f10620004d357805160ff191683800117855562000504565b8280016001018555821562000504579182015b8281111562000503578251825591602001919060010190620004e6565b5b50905062000513919062000517565b5090565b5b808211156200053257600081600090555060010162000518565b5090565b6000815190506200054781620006e8565b92915050565b6000815190506200055e8162000702565b92915050565b600080600080608085870312156200057b57600080fd5b60006200058b878288016200054d565b94505060206200059e8782880162000536565b9350506040620005b18782880162000536565b9250506060620005c48782880162000536565b91505092959194509250565b6000620005df600b8362000634565b91507f504f4f4c3a204572726f720000000000000000000000000000000000000000006000830152602082019050919050565b600060208201905081810360008301526200062d81620005d0565b9050919050565b600082825260208201905092915050565b6000620006528262000659565b9050919050565b600073ffffffffffffffffffffffffffffffffffffffff82169050919050565b6000819050919050565b600060028204905060018216806200069c57607f821691505b60208210811415620006b357620006b2620006b9565b5b50919050565b7f4e487b7100000000000000000000000000000000000000000000000000000000600052602260045260246000fd5b620006f38162000645565b8114620006ff57600080fd5b50565b6200070d8162000679565b81146200071957600080fd5b50565b60805160601c60a05160601c60c05160601c61295b6200076a6000396000818161048d0152610bed0152600061069001526000818161042c01528181610b860152610bb6015261295b6000f3fe608060405234801561001057600080fd5b506004361061010b5760003560e01c806347e7ef24116100a257806395d89b411161007157806395d89b41146102e2578063a457c2d714610300578063a9059cbb14610330578063dd62ed3e14610360578063f2fde38b146103905761010b565b806347e7ef241461025a57806370a082311461028a578063715018a6146102ba5780638da5cb5b146102c45761010b565b806323b872dd116100de57806323b872dd146101ac578063313ce567146101dc57806339509351146101fa578063426233601461022a5761010b565b806306a6213c1461011057806306fdde0314610140578063095ea7b31461015e57806318160ddd1461018e575b600080fd5b61012a60048036038101906101259190611ecf565b6103ac565b604051610137919061247e565b60405180910390f35b610148610864565b6040516101559190612499565b60405180910390f35b61017860048036038101906101739190611dc9565b6108f6565b604051610185919061247e565b60405180910390f35b610196610914565b6040516101a3919061265b565b60405180910390f35b6101c660048036038101906101c19190611d7a565b61091e565b6040516101d3919061247e565b60405180910390f35b6101e4610a16565b6040516101f19190612676565b60405180910390f35b610214600480360381019061020f9190611dc9565b610a1f565b604051610221919061247e565b60405180910390f35b610244600480360381019061023f9190611cec565b610acb565b604051610251919061247e565b60405180910390f35b610274600480360381019061026f9190611dc9565b610be9565b604051610281919061247e565b60405180910390f35b6102a4600480360381019061029f9190611cec565b610f26565b6040516102b1919061265b565b60405180910390f35b6102c2610f6e565b005b6102cc610ff6565b6040516102d99190612403565b60405180910390f35b6102ea611020565b6040516102f79190612499565b60405180910390f35b61031a60048036038101906103159190611dc9565b6110b2565b604051610327919061247e565b60405180910390f35b61034a60048036038101906103459190611dc9565b61119d565b604051610357919061247e565b60405180910390f35b61037a60048036038101906103759190611d3e565b611244565b604051610387919061265b565b60405180910390f35b6103aa60048036038101906103a59190611cec565b6112cb565b005b60006103b66113d6565b73ffffffffffffffffffffffffffffffffffffffff166103d4610ff6565b73ffffffffffffffffffffffffffffffffffffffff161461042a576040517f08c379a0000000000000000000000000000000000000000000000000000000008152600401610421906125bb565b60405180910390fd5b7f0000000000000000000000000000000000000000000000000000000000000000600660006101000a81548173ffffffffffffffffffffffffffffffffffffffff021916908373ffffffffffffffffffffffffffffffffffffffff1602179055507f0000000000000000000000000000000000000000000000000000000000000000600760006101000a81548173ffffffffffffffffffffffffffffffffffffffff021916908373ffffffffffffffffffffffffffffffffffffffff1602179055506000600660009054906101000a900473ffffffffffffffffffffffffffffffffffffffff1673ffffffffffffffffffffffffffffffffffffffff16630178fe3f846040518263ffffffff1660e01b8152600401610549919061265b565b60006040518083038186803b15801561056157600080fd5b505afa158015610575573d6000803e3d6000fd5b505050506040513d6000823e3d601f19601f8201168201806040525081019061059e9190611e2e565b50505092505050600660009054906101000a900473ffffffffffffffffffffffffffffffffffffffff1673ffffffffffffffffffffffffffffffffffffffff166342842e0e600660009054906101000a900473ffffffffffffffffffffffffffffffffffffffff1673ffffffffffffffffffffffffffffffffffffffff16636352211e866040518263ffffffff1660e01b815260040161063e919061265b565b60206040518083038186803b15801561065657600080fd5b505afa15801561066a573d6000803e3d6000fd5b505050506040513d601f19601f8201168201806040525081019061068e9190611d15565b7f0000000000000000000000000000000000000000000000000000000000000000866040518463ffffffff1660e01b81526004016106ce9392919061241e565b600060405180830381600087803b1580156106e857600080fd5b505af11580156106fc573d6000803e3d6000fd5b50505050600760009054906101000a900473ffffffffffffffffffffffffffffffffffffffff1673ffffffffffffffffffffffffffffffffffffffff1663a9059cbb600660009054906101000a900473ffffffffffffffffffffffffffffffffffffffff1673ffffffffffffffffffffffffffffffffffffffff16636352211e866040518263ffffffff1660e01b8152600401610799919061265b565b60206040518083038186803b1580156107b157600080fd5b505afa1580156107c5573d6000803e3d6000fd5b505050506040513d601f19601f820116820180604052508101906107e99190611d15565b836040518363ffffffff1660e01b8152600401610807929190612455565b602060405180830381600087803b15801561082157600080fd5b505af1158015610835573d6000803e3d6000fd5b505050506040513d601f19601f820116820180604052508101906108599190611e05565b506001915050919050565b606060038054610873906127f9565b80601f016020809104026020016040519081016040528092919081815260200182805461089f906127f9565b80156108ec5780601f106108c1576101008083540402835291602001916108ec565b820191906000526020600020905b8154815290600101906020018083116108cf57829003601f168201915b5050505050905090565b600061090a6109036113d6565b84846113de565b6001905092915050565b6000600254905090565b600061092b8484846115a9565b6000600160008673ffffffffffffffffffffffffffffffffffffffff1673ffffffffffffffffffffffffffffffffffffffff16815260200190815260200160002060006109766113d6565b73ffffffffffffffffffffffffffffffffffffffff1673ffffffffffffffffffffffffffffffffffffffff168152602001908152602001600020549050828110156109f6576040517f08c379a00000000000000000000000000000000000000000000000000000000081526004016109ed9061259b565b60405180910390fd5b610a0a85610a026113d6565b8584036113de565b60019150509392505050565b60006012905090565b6000610ac1610a2c6113d6565b848460016000610a3a6113d6565b73ffffffffffffffffffffffffffffffffffffffff1673ffffffffffffffffffffffffffffffffffffffff16815260200190815260200160002060008873ffffffffffffffffffffffffffffffffffffffff1673ffffffffffffffffffffffffffffffffffffffff16815260200190815260200160002054610abc919061270e565b6113de565b6001905092915050565b6000610ad56113d6565b73ffffffffffffffffffffffffffffffffffffffff16610af3610ff6565b73ffffffffffffffffffffffffffffffffffffffff1614610b49576040517f08c379a0000000000000000000000000000000000000000000000000000000008152600401610b40906125bb565b60405180910390fd5b6000610b5483610f26565b90506000610b79610b648361182a565b610b74610b6f610914565b61182a565b61184d565b90506000610baf82610baa7f0000000000000000000000000000000000000000000000000000000000000000610f26565b6118fd565b9050610bdc7f0000000000000000000000000000000000000000000000000000000000000000868361091e565b5060019350505050919050565b60007f0000000000000000000000000000000000000000000000000000000000000000600760006101000a81548173ffffffffffffffffffffffffffffffffffffffff021916908373ffffffffffffffffffffffffffffffffffffffff160217905550610c6b8373ffffffffffffffffffffffffffffffffffffffff166113c3565b158015610ca55750600073ffffffffffffffffffffffffffffffffffffffff168373ffffffffffffffffffffffffffffffffffffffff1614155b610ce4576040517f08c379a0000000000000000000000000000000000000000000000000000000008152600401610cdb9061255b565b60405180910390fd5b6008548214610d28576040517f08c379a0000000000000000000000000000000000000000000000000000000008152600401610d1f906124db565b60405180910390fd5b600760009054906101000a900473ffffffffffffffffffffffffffffffffffffffff1673ffffffffffffffffffffffffffffffffffffffff166323b872dd8430856040518463ffffffff1660e01b8152600401610d879392919061241e565b602060405180830381600087803b158015610da157600080fd5b505af1158015610db5573d6000803e3d6000fd5b505050506040513d601f19601f82011682018060405250810190610dd99190611e05565b50610de483836119b8565b42600960008573ffffffffffffffffffffffffffffffffffffffff1673ffffffffffffffffffffffffffffffffffffffff168152602001908152602001600020600001819055506000600960008573ffffffffffffffffffffffffffffffffffffffff1673ffffffffffffffffffffffffffffffffffffffff168152602001908152602001600020600101819055506001600960008573ffffffffffffffffffffffffffffffffffffffff1673ffffffffffffffffffffffffffffffffffffffff16815260200190815260200160002060020160006101000a81548160ff0219169083151502179055508273ffffffffffffffffffffffffffffffffffffffff167fe10a6bdf0489ec1f7493f091bb7e79a4691ed8c3cb5c90c8572ba2a58b295b5583604051610f14919061265b565b60405180910390a26001905092915050565b60008060008373ffffffffffffffffffffffffffffffffffffffff1673ffffffffffffffffffffffffffffffffffffffff168152602001908152602001600020549050919050565b610f766113d6565b73ffffffffffffffffffffffffffffffffffffffff16610f94610ff6565b73ffffffffffffffffffffffffffffffffffffffff1614610fea576040517f08c379a0000000000000000000000000000000000000000000000000000000008152600401610fe1906125bb565b60405180910390fd5b610ff46000611b18565b565b6000600560009054906101000a900473ffffffffffffffffffffffffffffffffffffffff16905090565b60606004805461102f906127f9565b80601f016020809104026020016040519081016040528092919081815260200182805461105b906127f9565b80156110a85780601f1061107d576101008083540402835291602001916110a8565b820191906000526020600020905b81548152906001019060200180831161108b57829003601f168201915b5050505050905090565b600080600160006110c16113d6565b73ffffffffffffffffffffffffffffffffffffffff1673ffffffffffffffffffffffffffffffffffffffff16815260200190815260200160002060008573ffffffffffffffffffffffffffffffffffffffff1673ffffffffffffffffffffffffffffffffffffffff1681526020019081526020016000205490508281101561117e576040517f08c379a00000000000000000000000000000000000000000000000000000000081526004016111759061261b565b60405180910390fd5b6111926111896113d6565b858584036113de565b600191505092915050565b6000600960008473ffffffffffffffffffffffffffffffffffffffff1673ffffffffffffffffffffffffffffffffffffffff16815260200190815260200160002060020160009054906101000a900460ff161561122f576040517f08c379a00000000000000000000000000000000000000000000000000000000081526004016112269061257b565b60405180910390fd5b6112398383611bde565b506001905092915050565b6000600160008473ffffffffffffffffffffffffffffffffffffffff1673ffffffffffffffffffffffffffffffffffffffff16815260200190815260200160002060008373ffffffffffffffffffffffffffffffffffffffff1673ffffffffffffffffffffffffffffffffffffffff16815260200190815260200160002054905092915050565b6112d36113d6565b73ffffffffffffffffffffffffffffffffffffffff166112f1610ff6565b73ffffffffffffffffffffffffffffffffffffffff1614611347576040517f08c379a000000000000000000000000000000000000000000000000000000000815260040161133e906125bb565b60405180910390fd5b600073ffffffffffffffffffffffffffffffffffffffff168173ffffffffffffffffffffffffffffffffffffffff1614156113b7576040517f08c379a00000000000000000000000000000000000000000000000000000000081526004016113ae906124fb565b60405180910390fd5b6113c081611b18565b50565b600080823b905060008111915050919050565b600033905090565b600073ffffffffffffffffffffffffffffffffffffffff168373ffffffffffffffffffffffffffffffffffffffff16141561144e576040517f08c379a0000000000000000000000000000000000000000000000000000000008152600401611445906125fb565b60405180910390fd5b600073ffffffffffffffffffffffffffffffffffffffff168273ffffffffffffffffffffffffffffffffffffffff1614156114be576040517f08c379a00000000000000000000000000000000000000000000000000000000081526004016114b59061251b565b60405180910390fd5b80600160008573ffffffffffffffffffffffffffffffffffffffff1673ffffffffffffffffffffffffffffffffffffffff16815260200190815260200160002060008473ffffffffffffffffffffffffffffffffffffffff1673ffffffffffffffffffffffffffffffffffffffff168152602001908152602001600020819055508173ffffffffffffffffffffffffffffffffffffffff168373ffffffffffffffffffffffffffffffffffffffff167f8c5be1e5ebec7d5bd14f71427d1e84f3dd0314c0f7b2291e5b200ac8c7c3b9258360405161159c919061265b565b60405180910390a3505050565b600073ffffffffffffffffffffffffffffffffffffffff168373ffffffffffffffffffffffffffffffffffffffff161415611619576040517f08c379a0000000000000000000000000000000000000000000000000000000008152600401611610906125db565b60405180910390fd5b600073ffffffffffffffffffffffffffffffffffffffff168273ffffffffffffffffffffffffffffffffffffffff161415611689576040517f08c379a0000000000000000000000000000000000000000000000000000000008152600401611680906124bb565b60405180910390fd5b611694838383611bfc565b60008060008573ffffffffffffffffffffffffffffffffffffffff1673ffffffffffffffffffffffffffffffffffffffff1681526020019081526020016000205490508181101561171a576040517f08c379a00000000000000000000000000000000000000000000000000000000081526004016117119061253b565b60405180910390fd5b8181036000808673ffffffffffffffffffffffffffffffffffffffff1673ffffffffffffffffffffffffffffffffffffffff16815260200190815260200160002081905550816000808573ffffffffffffffffffffffffffffffffffffffff1673ffffffffffffffffffffffffffffffffffffffff16815260200190815260200160002060008282546117ad919061270e565b925050819055508273ffffffffffffffffffffffffffffffffffffffff168473ffffffffffffffffffffffffffffffffffffffff167fddf252ad1be2c89b69c2b068fc378daa952ba7f163c4a11628f55a4df523b3ef84604051611811919061265b565b60405180910390a3611824848484611c01565b50505050565b6000677fffffffffffffff82111561184157600080fd5b604082901b9050919050565b60008082600f0b141561185f57600080fd5b600082600f0b604085600f0b901b816118a1577f4e487b7100000000000000000000000000000000000000000000000000000000600052601260045260246000fd5b0590507fffffffffffffffffffffffffffffffff80000000000000000000000000000000600f0b81121580156118ea57506f7fffffffffffffffffffffffffffffff600f0b8113155b6118f357600080fd5b8091505092915050565b60008082141561191057600090506119b2565b600083600f0b121561192157600080fd5b600060406fffffffffffffffffffffffffffffffff841685600f0b02901c90506000608084901c85600f0b02905077ffffffffffffffffffffffffffffffffffffffffffffffff81111561197457600080fd5b604081901b9050817fffffffffffffffffffffffffffffffffffffffffffffffffffffffffffffffff038111156119aa57600080fd5b818101925050505b92915050565b600073ffffffffffffffffffffffffffffffffffffffff168273ffffffffffffffffffffffffffffffffffffffff161415611a28576040517f08c379a0000000000000000000000000000000000000000000000000000000008152600401611a1f9061263b565b60405180910390fd5b611a3460008383611bfc565b8060026000828254611a46919061270e565b92505081905550806000808473ffffffffffffffffffffffffffffffffffffffff1673ffffffffffffffffffffffffffffffffffffffff1681526020019081526020016000206000828254611a9b919061270e565b925050819055508173ffffffffffffffffffffffffffffffffffffffff16600073ffffffffffffffffffffffffffffffffffffffff167fddf252ad1be2c89b69c2b068fc378daa952ba7f163c4a11628f55a4df523b3ef83604051611b00919061265b565b60405180910390a3611b1460008383611c01565b5050565b6000600560009054906101000a900473ffffffffffffffffffffffffffffffffffffffff16905081600560006101000a81548173ffffffffffffffffffffffffffffffffffffffff021916908373ffffffffffffffffffffffffffffffffffffffff1602179055508173ffffffffffffffffffffffffffffffffffffffff168173ffffffffffffffffffffffffffffffffffffffff167f8be0079c531659141344cd1fd0a4f28419497f9722a3daafe3b4186f6b6457e060405160405180910390a35050565b6000611bf2611beb6113d6565b84846115a9565b6001905092915050565b505050565b505050565b6000611c19611c14846126c2565b612691565b905082815260208101848484011115611c3157600080fd5b611c3c8482856127c6565b509392505050565b600081359050611c53816128c9565b92915050565b600081519050611c68816128c9565b92915050565b600081519050611c7d816128e0565b92915050565b600081519050611c92816128f7565b92915050565b600082601f830112611ca957600080fd5b8151611cb9848260208601611c06565b91505092915050565b600081359050611cd18161290e565b92915050565b600081519050611ce68161290e565b92915050565b600060208284031215611cfe57600080fd5b6000611d0c84828501611c44565b91505092915050565b600060208284031215611d2757600080fd5b6000611d3584828501611c59565b91505092915050565b60008060408385031215611d5157600080fd5b6000611d5f85828601611c44565b9250506020611d7085828601611c44565b9150509250929050565b600080600060608486031215611d8f57600080fd5b6000611d9d86828701611c44565b9350506020611dae86828701611c44565b9250506040611dbf86828701611cc2565b9150509250925092565b60008060408385031215611ddc57600080fd5b6000611dea85828601611c44565b9250506020611dfb85828601611cc2565b9150509250929050565b600060208284031215611e1757600080fd5b6000611e2584828501611c6e565b91505092915050565b60008060008060008060c08789031215611e4757600080fd5b600087015167ffffffffffffffff811115611e6157600080fd5b611e6d89828a01611c98565b9650506020611e7e89828a01611cd7565b9550506040611e8f89828a01611cd7565b9450506060611ea089828a01611c83565b9350506080611eb189828a01611c83565b92505060a0611ec289828a01611c59565b9150509295509295509295565b600060208284031215611ee157600080fd5b6000611eef84828501611cc2565b91505092915050565b611f0181612764565b82525050565b611f1081612776565b82525050565b6000611f21826126f2565b611f2b81856126fd565b9350611f3b8185602086016127c6565b611f44816128b8565b840191505092915050565b6000611f5c6023836126fd565b91507f45524332303a207472616e7366657220746f20746865207a65726f206164647260008301527f65737300000000000000000000000000000000000000000000000000000000006020830152604082019050919050565b6000611fc26030836126fd565b91507f506f6f6c3a20546865206d696e696d756d206f6620696e76657374696e67206560008301527f78636565642074686520616d6f756e74000000000000000000000000000000006020830152604082019050919050565b60006120286026836126fd565b91507f4f776e61626c653a206e6577206f776e657220697320746865207a65726f206160008301527f64647265737300000000000000000000000000000000000000000000000000006020830152604082019050919050565b600061208e6022836126fd565b91507f45524332303a20617070726f766520746f20746865207a65726f20616464726560008301527f73730000000000000000000000000000000000000000000000000000000000006020830152604082019050919050565b60006120f46026836126fd565b91507f45524332303a207472616e7366657220616d6f756e742065786365656473206260008301527f616c616e636500000000000000000000000000000000000000000000000000006020830152604082019050919050565b600061215a600b836126fd565b91507f504f4f4c3a204572726f720000000000000000000000000000000000000000006000830152602082019050919050565b600061219a601d836126fd565b91507f504f4f4c3a20596f7572207472616e73666572206973206c6f636b65640000006000830152602082019050919050565b60006121da6028836126fd565b91507f45524332303a207472616e7366657220616d6f756e742065786365656473206160008301527f6c6c6f77616e63650000000000000000000000000000000000000000000000006020830152604082019050919050565b60006122406020836126fd565b91507f4f776e61626c653a2063616c6c6572206973206e6f7420746865206f776e65726000830152602082019050919050565b60006122806025836126fd565b91507f45524332303a207472616e736665722066726f6d20746865207a65726f20616460008301527f64726573730000000000000000000000000000000000000000000000000000006020830152604082019050919050565b60006122e66024836126fd565b91507f45524332303a20617070726f76652066726f6d20746865207a65726f2061646460008301527f72657373000000000000000000000000000000000000000000000000000000006020830152604082019050919050565b600061234c6025836126fd565b91507f45524332303a2064656372656173656420616c6c6f77616e63652062656c6f7760008301527f207a65726f0000000000000000000000000000000000000000000000000000006020830152604082019050919050565b60006123b2601f836126fd565b91507f45524332303a206d696e7420746f20746865207a65726f2061646472657373006000830152602082019050919050565b6123ee816127af565b82525050565b6123fd816127b9565b82525050565b60006020820190506124186000830184611ef8565b92915050565b60006060820190506124336000830186611ef8565b6124406020830185611ef8565b61244d60408301846123e5565b949350505050565b600060408201905061246a6000830185611ef8565b61247760208301846123e5565b9392505050565b60006020820190506124936000830184611f07565b92915050565b600060208201905081810360008301526124b38184611f16565b905092915050565b600060208201905081810360008301526124d481611f4f565b9050919050565b600060208201905081810360008301526124f481611fb5565b9050919050565b600060208201905081810360008301526125148161201b565b9050919050565b6000602082019050818103600083015261253481612081565b9050919050565b60006020820190508181036000830152612554816120e7565b9050919050565b600060208201905081810360008301526125748161214d565b9050919050565b600060208201905081810360008301526125948161218d565b9050919050565b600060208201905081810360008301526125b4816121cd565b9050919050565b600060208201905081810360008301526125d481612233565b9050919050565b600060208201905081810360008301526125f481612273565b9050919050565b60006020820190508181036000830152612614816122d9565b9050919050565b600060208201905081810360008301526126348161233f565b9050919050565b60006020820190508181036000830152612654816123a5565b9050919050565b600060208201905061267060008301846123e5565b92915050565b600060208201905061268b60008301846123f4565b92915050565b6000604051905081810181811067ffffffffffffffff821117156126b8576126b7612889565b5b8060405250919050565b600067ffffffffffffffff8211156126dd576126dc612889565b5b601f19601f8301169050602081019050919050565b600081519050919050565b600082825260208201905092915050565b6000612719826127af565b9150612724836127af565b9250827fffffffffffffffffffffffffffffffffffffffffffffffffffffffffffffffff038211156127595761275861282b565b5b828201905092915050565b600061276f8261278f565b9050919050565b60008115159050919050565b600081600f0b9050919050565b600073ffffffffffffffffffffffffffffffffffffffff82169050919050565b6000819050919050565b600060ff82169050919050565b60005b838110156127e45780820151818401526020810190506127c9565b838111156127f3576000848401525b50505050565b6000600282049050600182168061281157607f821691505b602082108114156128255761282461285a565b5b50919050565b7f4e487b7100000000000000000000000000000000000000000000000000000000600052601160045260246000fd5b7f4e487b7100000000000000000000000000000000000000000000000000000000600052602260045260246000fd5b7f4e487b7100000000000000000000000000000000000000000000000000000000600052604160045260246000fd5b6000601f19601f8301169050919050565b6128d281612764565b81146128dd57600080fd5b50565b6128e981612776565b81146128f457600080fd5b50565b61290081612782565b811461290b57600080fd5b50565b612917816127af565b811461292257600080fd5b5056fea26469706673582212202f73ac0b9bea653bad4f9a4385e3cebdee439198aabd8c9a1cb5a5e9018fdbd764736f6c63430008000033",
  "immutableReferences": {
    "6030": [
      {
        "length": 32,
        "start": 1068
      },
      {
        "length": 32,
        "start": 2950
      },
      {
        "length": 32,
        "start": 2998
      }
    ],
    "6032": [
      {
        "length": 32,
        "start": 1680
      }
    ],
    "6034": [
      {
        "length": 32,
        "start": 1165
      },
      {
        "length": 32,
        "start": 3053
      }
    ]
  },
  "source": "// SPDX-License-Identifier: MIT\npragma solidity >=0.8.0 <0.9.0;\n\n/**\n  @author Pedro Machado\n  @title POOL USDT/RUSD\n  @notice The present Smart Contract <SC> receives USDT as a strong currency \n  and mint the same amount from deposit function of RUSD. From this SC is where the PRTOCOL DIF \n  get money to funding of all INVOICE NFT that were minted by request from one tenant.    \n */\n\nimport \"@openzeppelin/contracts/token/ERC20/ERC20.sol\";\nimport \"@openzeppelin/contracts/access/Ownable.sol\";\nimport \"@openzeppelin/contracts/utils/Address.sol\";\nimport \"@openzeppelin/contracts/utils/math/SafeMath.sol\";\nimport \"@openzeppelin/contracts/token/ERC20/IERC20.sol\";\nimport \"./ABDKMath64x64.sol\";\nimport \"./INFT_FACTORY.sol\";\n\n\ncontract RUSD is ERC20, Ownable{\n  using Address for address;\n\n  address immutable nftFactoryAddress;\n  address immutable vaultNFTAddress;\n  address immutable usdtAddress; \n  \n  INFT_FACTORY NFT;\n  IERC20 USDT;\n\n  uint minimumInvesting;\n\n  struct CUSTUMER {\n    uint intitialDate;\n    uint endDate;\n    bool locked;\n    bool isWithdrawal;\n  }\n\n  mapping (address => CUSTUMER) custumers;\n\n  event NEWDEPOSIT (address indexed recipient, uint amount);\n\n  constructor (uint _minimumInvesting, address _nftFactoryAddress, address _usdtAddress, address _vaultNFTAddress) ERC20(\"RESERVA USD\", \"RUSD\"){\n    require(_nftFactoryAddress.isContract() && _nftFactoryAddress != address(0), \"POOL: Error\");\n    require(_usdtAddress.isContract() && _usdtAddress != address(0), \"POOL: Error\");\n    require(_vaultNFTAddress.isContract() && _vaultNFTAddress != address(0), \"POOL: Error\");\n    nftFactoryAddress = _nftFactoryAddress;\n    usdtAddress = _usdtAddress;\n    vaultNFTAddress = _vaultNFTAddress;\n    minimumInvesting =  _minimumInvesting;\n  }\n  /// @dev Before someone call this function, the investor had to approve the current SC\n  /// to manage his USDT amount. Important trigger approve function before this\n  /// current function will be called.\n  function deposit (address _recipient, uint _amount) external returns (bool) {\n    USDT = IERC20(usdtAddress);\n    require(! _recipient.isContract() && _recipient != address(0), \"POOL: Error\");\n    require(_amount == minimumInvesting, \"Pool: The minimum of investing exceed the amount\");\n    USDT.transferFrom(_recipient, address(this), _amount);\n    _mint(_recipient, _amount);\n    custumers[_recipient].intitialDate = block.timestamp;\n    custumers[_recipient].endDate = 0;\n    custumers[_recipient].locked = true;\n    emit NEWDEPOSIT(_recipient, _amount);\n    return true;\n  }\n\n  function fundingNFT(uint tokenId) public onlyOwner returns (bool) {\n    NFT = INFT_FACTORY(nftFactoryAddress);\n    USDT = IERC20(usdtAddress);\n    ( , ,uint balanceAdvance, , ,) = NFT.getData(tokenId);\n    NFT.safeTransferFrom(NFT.ownerOf(tokenId), vaultNFTAddress, tokenId);\n    USDT.transfer(NFT.ownerOf(tokenId), balanceAdvance);\n    return true;\n  }\n\n  function transfer(address recipient, uint256 amount) public override returns (bool) {\n    require(! custumers[recipient].locked, \"POOL: Your transfer is locked\");\n    super.transfer(recipient, amount);\n    return true;\n  }\n\n\n  /// @dev return true if is transfered succesfully investor's benefits\n  function stakeOf(address investor) public onlyOwner returns(bool) {\n    uint balanceInvestor = balanceOf(investor);\n    int128 ratioOf = ABDKMath64x64.div(ABDKMath64x64.fromUInt(balanceInvestor), ABDKMath64x64.fromUInt(totalSupply()));\n    uint valueToSend = ABDKMath64x64.mulu(ratioOf, balanceOf(nftFactoryAddress));\n    transferFrom(nftFactoryAddress, investor, valueToSend);\n    return true;\n  }\n\n  /// @dev return true if mint process is executed successfully\n  function mintRewards() private returns(bool) {\n    uint amount = INFT_FACTORY(nftFactoryAddress).dailyInterestRUSD();\n    _mint(nftFactoryAddress, amount);\n    return true;\n  }\n\n  function _calculateStakingRange(uint _endDate, uint _startDate, uint ref) pure private returns (uint stakePeriod) {\n        require(_endDate != 0 && _startDate != 0 && ref != 0, \"Error\");\n        uint stampTime = SafeMath.div( SafeMath.sub(_endDate, _startDate), 1 days);\n        require(stampTime >= ref, \"Pool: You have to need complete at least one stake period.\");\n        uint r = stampTime % ref;\n        if (r != 0) {\n            stakePeriod = stampTime + (ref - r);\n        }\n        else {\n            stakePeriod = stampTime;\n        }   \n        return stakePeriod;\n    }\n\n  \n}\n",
  "sourcePath": "/home/peter/Documents/Reserva/0-Reservafs/Proyectos/DIF_PROJECT/Code/DIFonBlockchain_Enumerable/contracts/RUSD.sol",
  "compiler": {
    "name": "solc",
    "version": "0.8.0+commit.c7dfd78e.Emscripten.clang"
  },
  "schemaVersion": "3.4.3",
  "updatedAt": "2021-11-26T06:43:21.885Z",
  "devdoc": {
    "kind": "dev",
    "methods": {
      "allowance(address,address)": {
        "details": "See {IERC20-allowance}."
      },
      "approve(address,uint256)": {
        "details": "See {IERC20-approve}. Requirements: - `spender` cannot be the zero address."
      },
      "balanceOf(address)": {
        "details": "See {IERC20-balanceOf}."
      },
      "decimals()": {
        "details": "Returns the number of decimals used to get its user representation. For example, if `decimals` equals `2`, a balance of `505` tokens should be displayed to a user as `5.05` (`505 / 10 ** 2`). Tokens usually opt for a value of 18, imitating the relationship between Ether and Wei. This is the value {ERC20} uses, unless this function is overridden; NOTE: This information is only used for _display_ purposes: it in no way affects any of the arithmetic of the contract, including {IERC20-balanceOf} and {IERC20-transfer}."
      },
      "decreaseAllowance(address,uint256)": {
        "details": "Atomically decreases the allowance granted to `spender` by the caller. This is an alternative to {approve} that can be used as a mitigation for problems described in {IERC20-approve}. Emits an {Approval} event indicating the updated allowance. Requirements: - `spender` cannot be the zero address. - `spender` must have allowance for the caller of at least `subtractedValue`."
      },
      "deposit(address,uint256)": {
        "details": "Before someone call this function, the investor had to approve the current SC to manage his USDT amount. Important trigger approve function before this current function will be called."
      },
      "increaseAllowance(address,uint256)": {
        "details": "Atomically increases the allowance granted to `spender` by the caller. This is an alternative to {approve} that can be used as a mitigation for problems described in {IERC20-approve}. Emits an {Approval} event indicating the updated allowance. Requirements: - `spender` cannot be the zero address."
      },
      "name()": {
        "details": "Returns the name of the token."
      },
      "owner()": {
        "details": "Returns the address of the current owner."
      },
      "renounceOwnership()": {
        "details": "Leaves the contract without owner. It will not be possible to call `onlyOwner` functions anymore. Can only be called by the current owner. NOTE: Renouncing ownership will leave the contract without an owner, thereby removing any functionality that is only available to the owner."
      },
      "stakeOf(address)": {
        "details": "return true if is transfered succesfully investor's benefits"
      },
      "symbol()": {
        "details": "Returns the symbol of the token, usually a shorter version of the name."
      },
      "totalSupply()": {
        "details": "See {IERC20-totalSupply}."
      },
      "transfer(address,uint256)": {
        "details": "See {IERC20-transfer}. Requirements: - `recipient` cannot be the zero address. - the caller must have a balance of at least `amount`."
      },
      "transferFrom(address,address,uint256)": {
        "details": "See {IERC20-transferFrom}. Emits an {Approval} event indicating the updated allowance. This is not required by the EIP. See the note at the beginning of {ERC20}. Requirements: - `sender` and `recipient` cannot be the zero address. - `sender` must have a balance of at least `amount`. - the caller must have allowance for ``sender``'s tokens of at least `amount`."
      },
      "transferOwnership(address)": {
        "details": "Transfers ownership of the contract to a new account (`newOwner`). Can only be called by the current owner."
      }
    },
    "version": 1
  },
  "userdoc": {
    "kind": "user",
    "methods": {},
    "version": 1
  }
}