{
  "contractName": "RUSD",
  "abi": [
    {
      "inputs": [
        {
          "internalType": "uint256",
          "name": "_minimumInvesting",
          "type": "uint256"
        },
        {
          "internalType": "address",
          "name": "_nftFactoryAddress",
          "type": "address"
        },
        {
          "internalType": "address",
          "name": "_usdtAddress",
          "type": "address"
        }
      ],
      "stateMutability": "nonpayable",
      "type": "constructor"
    },
    {
      "anonymous": false,
      "inputs": [
        {
          "indexed": true,
          "internalType": "address",
          "name": "owner",
          "type": "address"
        },
        {
          "indexed": true,
          "internalType": "address",
          "name": "spender",
          "type": "address"
        },
        {
          "indexed": false,
          "internalType": "uint256",
          "name": "value",
          "type": "uint256"
        }
      ],
      "name": "Approval",
      "type": "event"
    },
    {
      "anonymous": false,
      "inputs": [
        {
          "indexed": true,
          "internalType": "address",
          "name": "recipient",
          "type": "address"
        },
        {
          "indexed": false,
          "internalType": "uint256",
          "name": "amount",
          "type": "uint256"
        }
      ],
      "name": "NEWDEPOSIT",
      "type": "event"
    },
    {
      "anonymous": false,
      "inputs": [
        {
          "indexed": true,
          "internalType": "address",
          "name": "previousOwner",
          "type": "address"
        },
        {
          "indexed": true,
          "internalType": "address",
          "name": "newOwner",
          "type": "address"
        }
      ],
      "name": "OwnershipTransferred",
      "type": "event"
    },
    {
      "anonymous": false,
      "inputs": [
        {
          "indexed": true,
          "internalType": "address",
          "name": "from",
          "type": "address"
        },
        {
          "indexed": true,
          "internalType": "address",
          "name": "to",
          "type": "address"
        },
        {
          "indexed": false,
          "internalType": "uint256",
          "name": "value",
          "type": "uint256"
        }
      ],
      "name": "Transfer",
      "type": "event"
    },
    {
      "inputs": [
        {
          "internalType": "address",
          "name": "owner",
          "type": "address"
        },
        {
          "internalType": "address",
          "name": "spender",
          "type": "address"
        }
      ],
      "name": "allowance",
      "outputs": [
        {
          "internalType": "uint256",
          "name": "",
          "type": "uint256"
        }
      ],
      "stateMutability": "view",
      "type": "function"
    },
    {
      "inputs": [
        {
          "internalType": "address",
          "name": "spender",
          "type": "address"
        },
        {
          "internalType": "uint256",
          "name": "amount",
          "type": "uint256"
        }
      ],
      "name": "approve",
      "outputs": [
        {
          "internalType": "bool",
          "name": "",
          "type": "bool"
        }
      ],
      "stateMutability": "nonpayable",
      "type": "function"
    },
    {
      "inputs": [
        {
          "internalType": "address",
          "name": "account",
          "type": "address"
        }
      ],
      "name": "balanceOf",
      "outputs": [
        {
          "internalType": "uint256",
          "name": "",
          "type": "uint256"
        }
      ],
      "stateMutability": "view",
      "type": "function"
    },
    {
      "inputs": [
        {
          "internalType": "address",
          "name": "",
          "type": "address"
        }
      ],
      "name": "custumers",
      "outputs": [
        {
          "internalType": "uint256",
          "name": "intitialDate",
          "type": "uint256"
        },
        {
          "internalType": "uint256",
          "name": "requestDate",
          "type": "uint256"
        },
        {
          "internalType": "uint256",
          "name": "returnDate",
          "type": "uint256"
        },
        {
          "internalType": "uint256",
          "name": "stakePeriod",
          "type": "uint256"
        },
        {
          "internalType": "uint256",
          "name": "pendingWithdraw",
          "type": "uint256"
        },
        {
          "internalType": "bool",
          "name": "locked",
          "type": "bool"
        },
        {
          "internalType": "bool",
          "name": "isWithdrawal",
          "type": "bool"
        }
      ],
      "stateMutability": "view",
      "type": "function"
    },
    {
      "inputs": [],
      "name": "decimals",
      "outputs": [
        {
          "internalType": "uint8",
          "name": "",
          "type": "uint8"
        }
      ],
      "stateMutability": "view",
      "type": "function"
    },
    {
      "inputs": [
        {
          "internalType": "address",
          "name": "spender",
          "type": "address"
        },
        {
          "internalType": "uint256",
          "name": "subtractedValue",
          "type": "uint256"
        }
      ],
      "name": "decreaseAllowance",
      "outputs": [
        {
          "internalType": "bool",
          "name": "",
          "type": "bool"
        }
      ],
      "stateMutability": "nonpayable",
      "type": "function"
    },
    {
      "inputs": [
        {
          "internalType": "address",
          "name": "spender",
          "type": "address"
        },
        {
          "internalType": "uint256",
          "name": "addedValue",
          "type": "uint256"
        }
      ],
      "name": "increaseAllowance",
      "outputs": [
        {
          "internalType": "bool",
          "name": "",
          "type": "bool"
        }
      ],
      "stateMutability": "nonpayable",
      "type": "function"
    },
    {
      "inputs": [],
      "name": "name",
      "outputs": [
        {
          "internalType": "string",
          "name": "",
          "type": "string"
        }
      ],
      "stateMutability": "view",
      "type": "function"
    },
    {
      "inputs": [
        {
          "internalType": "uint32",
          "name": "",
          "type": "uint32"
        }
      ],
      "name": "numberList",
      "outputs": [
        {
          "internalType": "uint256",
          "name": "",
          "type": "uint256"
        }
      ],
      "stateMutability": "view",
      "type": "function"
    },
    {
      "inputs": [],
      "name": "owner",
      "outputs": [
        {
          "internalType": "address",
          "name": "",
          "type": "address"
        }
      ],
      "stateMutability": "view",
      "type": "function"
    },
    {
      "inputs": [],
      "name": "renounceOwnership",
      "outputs": [],
      "stateMutability": "nonpayable",
      "type": "function"
    },
    {
      "inputs": [],
      "name": "symbol",
      "outputs": [
        {
          "internalType": "string",
          "name": "",
          "type": "string"
        }
      ],
      "stateMutability": "view",
      "type": "function"
    },
    {
      "inputs": [],
      "name": "totalSupply",
      "outputs": [
        {
          "internalType": "uint256",
          "name": "",
          "type": "uint256"
        }
      ],
      "stateMutability": "view",
      "type": "function"
    },
    {
      "inputs": [
        {
          "internalType": "address",
          "name": "recipient",
          "type": "address"
        },
        {
          "internalType": "uint256",
          "name": "amount",
          "type": "uint256"
        }
      ],
      "name": "transfer",
      "outputs": [
        {
          "internalType": "bool",
          "name": "",
          "type": "bool"
        }
      ],
      "stateMutability": "nonpayable",
      "type": "function"
    },
    {
      "inputs": [
        {
          "internalType": "address",
          "name": "sender",
          "type": "address"
        },
        {
          "internalType": "address",
          "name": "recipient",
          "type": "address"
        },
        {
          "internalType": "uint256",
          "name": "amount",
          "type": "uint256"
        }
      ],
      "name": "transferFrom",
      "outputs": [
        {
          "internalType": "bool",
          "name": "",
          "type": "bool"
        }
      ],
      "stateMutability": "nonpayable",
      "type": "function"
    },
    {
      "inputs": [
        {
          "internalType": "address",
          "name": "newOwner",
          "type": "address"
        }
      ],
      "name": "transferOwnership",
      "outputs": [],
      "stateMutability": "nonpayable",
      "type": "function"
    },
    {
      "inputs": [
        {
          "internalType": "address",
          "name": "_investor",
          "type": "address"
        },
        {
          "internalType": "uint256",
          "name": "_amount",
          "type": "uint256"
        }
      ],
      "name": "deposit",
      "outputs": [
        {
          "internalType": "bool",
          "name": "",
          "type": "bool"
        }
      ],
      "stateMutability": "nonpayable",
      "type": "function"
    },
    {
      "inputs": [
        {
          "internalType": "uint256",
          "name": "tokenId",
          "type": "uint256"
        }
      ],
      "name": "fundingNFT",
      "outputs": [
        {
          "internalType": "bool",
          "name": "",
          "type": "bool"
        }
      ],
      "stateMutability": "nonpayable",
      "type": "function"
    },
    {
      "inputs": [
        {
          "internalType": "address",
          "name": "investor",
          "type": "address"
        }
      ],
      "name": "transferFunds",
      "outputs": [
        {
          "internalType": "bool",
          "name": "",
          "type": "bool"
        }
      ],
      "stateMutability": "nonpayable",
      "type": "function"
    },
    {
      "inputs": [
        {
          "internalType": "address",
          "name": "investor",
          "type": "address"
        },
        {
          "internalType": "uint256",
          "name": "amount",
          "type": "uint256"
        }
      ],
      "name": "requestWithdraw",
      "outputs": [
        {
          "internalType": "bool",
          "name": "",
          "type": "bool"
        }
      ],
      "stateMutability": "nonpayable",
      "type": "function"
    },
    {
      "inputs": [
        {
          "internalType": "address",
          "name": "investor",
          "type": "address"
        }
      ],
      "name": "stakeOf",
      "outputs": [
        {
          "internalType": "bool",
          "name": "",
          "type": "bool"
        }
      ],
      "stateMutability": "nonpayable",
      "type": "function"
    },
    {
      "inputs": [],
      "name": "mintRewards",
      "outputs": [
        {
          "internalType": "bool",
          "name": "",
          "type": "bool"
        }
      ],
      "stateMutability": "nonpayable",
      "type": "function"
    },
    {
      "inputs": [],
      "name": "_now",
      "outputs": [
        {
          "internalType": "uint256",
          "name": "",
          "type": "uint256"
        }
      ],
      "stateMutability": "view",
      "type": "function"
    }
  ],
  "bytecode": "0x60c06040523480156200001157600080fd5b5060405162003ab138038062003ab1833981810160405281019062000037919062000484565b6040518060400160405280600b81526020017f52455345525641205553440000000000000000000000000000000000000000008152506040518060400160405280600481526020017f52555344000000000000000000000000000000000000000000000000000000008152508160039080519060200190620000bb929190620003a6565b508060049080519060200190620000d4929190620003a6565b505050620000f7620000eb620002c560201b60201c565b620002cd60201b60201c565b620001238273ffffffffffffffffffffffffffffffffffffffff166200039360201b6200181a1760201c565b80156200015d5750600073ffffffffffffffffffffffffffffffffffffffff168273ffffffffffffffffffffffffffffffffffffffff1614155b6200019f576040517f08c379a0000000000000000000000000000000000000000000000000000000008152600401620001969062000580565b60405180910390fd5b620001cb8173ffffffffffffffffffffffffffffffffffffffff166200039360201b6200181a1760201c565b8015620002055750600073ffffffffffffffffffffffffffffffffffffffff168173ffffffffffffffffffffffffffffffffffffffff1614155b62000247576040517f08c379a00000000000000000000000000000000000000000000000000000000081526004016200023e906200055e565b60405180910390fd5b8173ffffffffffffffffffffffffffffffffffffffff1660808173ffffffffffffffffffffffffffffffffffffffff1660601b815250508073ffffffffffffffffffffffffffffffffffffffff1660a08173ffffffffffffffffffffffffffffffffffffffff1660601b81525050826006819055505050506200068a565b600033905090565b6000600560009054906101000a900473ffffffffffffffffffffffffffffffffffffffff16905081600560006101000a81548173ffffffffffffffffffffffffffffffffffffffff021916908373ffffffffffffffffffffffffffffffffffffffff1602179055508173ffffffffffffffffffffffffffffffffffffffff168173ffffffffffffffffffffffffffffffffffffffff167f8be0079c531659141344cd1fd0a4f28419497f9722a3daafe3b4186f6b6457e060405160405180910390a35050565b600080823b905060008111915050919050565b828054620003b490620005f1565b90600052602060002090601f016020900481019282620003d8576000855562000424565b82601f10620003f357805160ff191683800117855562000424565b8280016001018555821562000424579182015b828111156200042357825182559160200191906001019062000406565b5b50905062000433919062000437565b5090565b5b808211156200045257600081600090555060010162000438565b5090565b600081519050620004678162000656565b92915050565b6000815190506200047e8162000670565b92915050565b6000806000606084860312156200049a57600080fd5b6000620004aa868287016200046d565b9350506020620004bd8682870162000456565b9250506040620004d08682870162000456565b9150509250925092565b6000620004e9600d83620005a2565b91507f504f4f4c3a204572726f722031000000000000000000000000000000000000006000830152602082019050919050565b60006200052b600d83620005a2565b91507f504f4f4c3a204572726f722030000000000000000000000000000000000000006000830152602082019050919050565b600060208201905081810360008301526200057981620004da565b9050919050565b600060208201905081810360008301526200059b816200051c565b9050919050565b600082825260208201905092915050565b6000620005c082620005c7565b9050919050565b600073ffffffffffffffffffffffffffffffffffffffff82169050919050565b6000819050919050565b600060028204905060018216806200060a57607f821691505b6020821081141562000621576200062062000627565b5b50919050565b7f4e487b7100000000000000000000000000000000000000000000000000000000600052602260045260246000fd5b6200066181620005b3565b81146200066d57600080fd5b50565b6200067b81620005e7565b81146200068757600080fd5b50565b60805160601c60a05160601c6133e6620006cb600039600081816105d1015261106a015260008181610570015281816107d50152610b4101526133e66000f3fe608060405234801561001057600080fd5b506004361061014d5760003560e01c806347e7ef24116100c3578063a9059cbb1161007c578063a9059cbb146103f6578063b3bb8cd414610426578063cab7dd8114610444578063dd62ed3e14610474578063e39ff19f146104a4578063f2fde38b146104d45761014d565b806347e7ef241461032057806370a0823114610350578063715018a6146103805780638da5cb5b1461038a57806395d89b41146103a8578063a457c2d7146103c65761014d565b8063234cb05111610115578063234cb0511461022457806323b872dd14610242578063313ce567146102725780633950935114610290578063397a1b28146102c057806342623360146102f05761014d565b806306a6213c1461015257806306fdde0314610182578063095ea7b3146101a057806318160ddd146101d05780631ae0b2c3146101ee575b600080fd5b61016c60048036038101906101679190612667565b6104f0565b6040516101799190612d34565b60405180910390f35b61018a6109a9565b6040516101979190612d4f565b60405180910390f35b6101ba60048036038101906101b5919061254c565b610a3b565b6040516101c79190612d34565b60405180910390f35b6101d8610a59565b6040516101e59190612f51565b60405180910390f35b6102086004803603810190610203919061246f565b610a63565b60405161021b9796959493929190612f6c565b60405180910390f35b61022c610abf565b6040516102399190612d34565b60405180910390f35b61025c600480360381019061025791906124fd565b610bf1565b6040516102699190612d34565b60405180910390f35b61027a610ce9565b6040516102879190612fdb565b60405180910390f35b6102aa60048036038101906102a5919061254c565b610cf2565b6040516102b79190612d34565b60405180910390f35b6102da60048036038101906102d5919061254c565b610d9e565b6040516102e79190612d34565b60405180910390f35b61030a6004803603810190610305919061246f565b610f9f565b6040516103179190612d34565b60405180910390f35b61033a6004803603810190610335919061254c565b611066565b6040516103479190612d34565b60405180910390f35b61036a6004803603810190610365919061246f565b611363565b6040516103779190612f51565b60405180910390f35b6103886113ab565b005b610392611433565b60405161039f9190612cb9565b60405180910390f35b6103b061145d565b6040516103bd9190612d4f565b60405180910390f35b6103e060048036038101906103db919061254c565b6114ef565b6040516103ed9190612d34565b60405180910390f35b610410600480360381019061040b919061254c565b6115da565b60405161041d9190612d34565b60405180910390f35b61042e6115f8565b60405161043b9190612f51565b60405180910390f35b61045e600480360381019061045991906126b9565b611600565b60405161046b9190612f51565b60405180910390f35b61048e600480360381019061048991906124c1565b611618565b60405161049b9190612f51565b60405180910390f35b6104be60048036038101906104b9919061246f565b61169f565b6040516104cb9190612d34565b60405180910390f35b6104ee60048036038101906104e9919061246f565b611722565b005b60006104fa61182d565b73ffffffffffffffffffffffffffffffffffffffff16610518611433565b73ffffffffffffffffffffffffffffffffffffffff161461056e576040517f08c379a000000000000000000000000000000000000000000000000000000000815260040161056590612e51565b60405180910390fd5b7f0000000000000000000000000000000000000000000000000000000000000000600760046101000a81548173ffffffffffffffffffffffffffffffffffffffff021916908373ffffffffffffffffffffffffffffffffffffffff1602179055507f0000000000000000000000000000000000000000000000000000000000000000600860006101000a81548173ffffffffffffffffffffffffffffffffffffffff021916908373ffffffffffffffffffffffffffffffffffffffff1602179055506000600760049054906101000a900473ffffffffffffffffffffffffffffffffffffffff1673ffffffffffffffffffffffffffffffffffffffff16630178fe3f846040518263ffffffff1660e01b815260040161068d9190612f51565b60006040518083038186803b1580156106a557600080fd5b505afa1580156106b9573d6000803e3d6000fd5b505050506040513d6000823e3d601f19601f820116820180604052508101906106e291906125b1565b5050505092505050600760049054906101000a900473ffffffffffffffffffffffffffffffffffffffff1673ffffffffffffffffffffffffffffffffffffffff166342842e0e600760049054906101000a900473ffffffffffffffffffffffffffffffffffffffff1673ffffffffffffffffffffffffffffffffffffffff16636352211e866040518263ffffffff1660e01b81526004016107839190612f51565b60206040518083038186803b15801561079b57600080fd5b505afa1580156107af573d6000803e3d6000fd5b505050506040513d601f19601f820116820180604052508101906107d39190612498565b7f0000000000000000000000000000000000000000000000000000000000000000866040518463ffffffff1660e01b815260040161081393929190612cd4565b600060405180830381600087803b15801561082d57600080fd5b505af1158015610841573d6000803e3d6000fd5b50505050600860009054906101000a900473ffffffffffffffffffffffffffffffffffffffff1673ffffffffffffffffffffffffffffffffffffffff1663a9059cbb600760049054906101000a900473ffffffffffffffffffffffffffffffffffffffff1673ffffffffffffffffffffffffffffffffffffffff16636352211e866040518263ffffffff1660e01b81526004016108de9190612f51565b60206040518083038186803b1580156108f657600080fd5b505afa15801561090a573d6000803e3d6000fd5b505050506040513d601f19601f8201168201806040525081019061092e9190612498565b836040518363ffffffff1660e01b815260040161094c929190612d0b565b602060405180830381600087803b15801561096657600080fd5b505af115801561097a573d6000803e3d6000fd5b505050506040513d601f19601f8201168201806040525081019061099e9190612588565b506001915050919050565b6060600380546109b89061320d565b80601f01602080910402602001604051908101604052809291908181526020018280546109e49061320d565b8015610a315780601f10610a0657610100808354040283529160200191610a31565b820191906000526020600020905b815481529060010190602001808311610a1457829003601f168201915b5050505050905090565b6000610a4f610a4861182d565b8484611835565b6001905092915050565b6000600254905090565b60096020528060005260406000206000915090508060000154908060010154908060020154908060030154908060040154908060050160009054906101000a900460ff16908060050160019054906101000a900460ff16905087565b6000610ac961182d565b73ffffffffffffffffffffffffffffffffffffffff16610ae7611433565b73ffffffffffffffffffffffffffffffffffffffff1614610b3d576040517f08c379a0000000000000000000000000000000000000000000000000000000008152600401610b3490612e51565b60405180910390fd5b60007f000000000000000000000000000000000000000000000000000000000000000073ffffffffffffffffffffffffffffffffffffffff1663dd036e636040518163ffffffff1660e01b815260040160206040518083038186803b158015610ba557600080fd5b505afa158015610bb9573d6000803e3d6000fd5b505050506040513d601f19601f82011682018060405250810190610bdd9190612690565b9050610be93082611a00565b600191505090565b6000610bfe848484611b60565b6000600160008673ffffffffffffffffffffffffffffffffffffffff1673ffffffffffffffffffffffffffffffffffffffff1681526020019081526020016000206000610c4961182d565b73ffffffffffffffffffffffffffffffffffffffff1673ffffffffffffffffffffffffffffffffffffffff16815260200190815260200160002054905082811015610cc9576040517f08c379a0000000000000000000000000000000000000000000000000000000008152600401610cc090612e31565b60405180910390fd5b610cdd85610cd561182d565b858403611835565b60019150509392505050565b60006012905090565b6000610d94610cff61182d565b848460016000610d0d61182d565b73ffffffffffffffffffffffffffffffffffffffff1673ffffffffffffffffffffffffffffffffffffffff16815260200190815260200160002060008873ffffffffffffffffffffffffffffffffffffffff1673ffffffffffffffffffffffffffffffffffffffff16815260200190815260200160002054610d8f9190613073565b611835565b6001905092915050565b6000610da983611363565b821115610deb576040517f08c379a0000000000000000000000000000000000000000000000000000000008152600401610de290612e71565b60405180910390fd5b6000610e42610df86115f8565b600960008773ffffffffffffffffffffffffffffffffffffffff1673ffffffffffffffffffffffffffffffffffffffff16815260200190815260200160002060000154601e611de1565b90506001600760008282829054906101000a900463ffffffff16610e6691906130c9565b92506101000a81548163ffffffff021916908363ffffffff160217905550610e8c6115f8565b600a6000600760009054906101000a900463ffffffff1663ffffffff1663ffffffff168152602001908152602001600020819055600960008673ffffffffffffffffffffffffffffffffffffffff1673ffffffffffffffffffffffffffffffffffffffff1681526020019081526020016000206001018190555080600960008673ffffffffffffffffffffffffffffffffffffffff1673ffffffffffffffffffffffffffffffffffffffff1681526020019081526020016000206003018190555082600960008673ffffffffffffffffffffffffffffffffffffffff1673ffffffffffffffffffffffffffffffffffffffff16815260200190815260200160002060040181905550600191505092915050565b6000610fa961182d565b73ffffffffffffffffffffffffffffffffffffffff16610fc7611433565b73ffffffffffffffffffffffffffffffffffffffff161461101d576040517f08c379a000000000000000000000000000000000000000000000000000000000815260040161101490612e51565b60405180910390fd5b600061103861102b84611363565b611033610a59565b611ee0565b9050600061104e8261104930611363565b611f48565b905061105a84826115da565b50600192505050919050565b60007f0000000000000000000000000000000000000000000000000000000000000000600860006101000a81548173ffffffffffffffffffffffffffffffffffffffff021916908373ffffffffffffffffffffffffffffffffffffffff1602179055506110e88373ffffffffffffffffffffffffffffffffffffffff1661181a565b1580156111225750600073ffffffffffffffffffffffffffffffffffffffff168373ffffffffffffffffffffffffffffffffffffffff1614155b611161576040517f08c379a000000000000000000000000000000000000000000000000000000000815260040161115890612e11565b60405180910390fd5b6006548210156111a6576040517f08c379a000000000000000000000000000000000000000000000000000000000815260040161119d90612d91565b60405180910390fd5b600860009054906101000a900473ffffffffffffffffffffffffffffffffffffffff1673ffffffffffffffffffffffffffffffffffffffff166323b872dd8430856040518463ffffffff1660e01b815260040161120593929190612cd4565b602060405180830381600087803b15801561121f57600080fd5b505af1158015611233573d6000803e3d6000fd5b505050506040513d601f19601f820116820180604052508101906112579190612588565b506112628383611a00565b61126a6115f8565b600960008573ffffffffffffffffffffffffffffffffffffffff1673ffffffffffffffffffffffffffffffffffffffff168152602001908152602001600020600001819055506001600960008573ffffffffffffffffffffffffffffffffffffffff1673ffffffffffffffffffffffffffffffffffffffff16815260200190815260200160002060050160006101000a81548160ff0219169083151502179055508273ffffffffffffffffffffffffffffffffffffffff167fe10a6bdf0489ec1f7493f091bb7e79a4691ed8c3cb5c90c8572ba2a58b295b55836040516113519190612f51565b60405180910390a26001905092915050565b60008060008373ffffffffffffffffffffffffffffffffffffffff1673ffffffffffffffffffffffffffffffffffffffff168152602001908152602001600020549050919050565b6113b361182d565b73ffffffffffffffffffffffffffffffffffffffff166113d1611433565b73ffffffffffffffffffffffffffffffffffffffff1614611427576040517f08c379a000000000000000000000000000000000000000000000000000000000815260040161141e90612e51565b60405180910390fd5b6114316000612003565b565b6000600560009054906101000a900473ffffffffffffffffffffffffffffffffffffffff16905090565b60606004805461146c9061320d565b80601f01602080910402602001604051908101604052809291908181526020018280546114989061320d565b80156114e55780601f106114ba576101008083540402835291602001916114e5565b820191906000526020600020905b8154815290600101906020018083116114c857829003601f168201915b5050505050905090565b600080600160006114fe61182d565b73ffffffffffffffffffffffffffffffffffffffff1673ffffffffffffffffffffffffffffffffffffffff16815260200190815260200160002060008573ffffffffffffffffffffffffffffffffffffffff1673ffffffffffffffffffffffffffffffffffffffff168152602001908152602001600020549050828110156115bb576040517f08c379a00000000000000000000000000000000000000000000000000000000081526004016115b290612f11565b60405180910390fd5b6115cf6115c661182d565b85858403611835565b600191505092915050565b60006115ee6115e761182d565b8484611b60565b6001905092915050565b600042905090565b600a6020528060005260406000206000915090505481565b6000600160008473ffffffffffffffffffffffffffffffffffffffff1673ffffffffffffffffffffffffffffffffffffffff16815260200190815260200160002060008373ffffffffffffffffffffffffffffffffffffffff1673ffffffffffffffffffffffffffffffffffffffff16815260200190815260200160002054905092915050565b60006116a961182d565b73ffffffffffffffffffffffffffffffffffffffff166116c7611433565b73ffffffffffffffffffffffffffffffffffffffff161461171d576040517f08c379a000000000000000000000000000000000000000000000000000000000815260040161171490612e51565b60405180910390fd5b919050565b61172a61182d565b73ffffffffffffffffffffffffffffffffffffffff16611748611433565b73ffffffffffffffffffffffffffffffffffffffff161461179e576040517f08c379a000000000000000000000000000000000000000000000000000000000815260040161179590612e51565b60405180910390fd5b600073ffffffffffffffffffffffffffffffffffffffff168173ffffffffffffffffffffffffffffffffffffffff16141561180e576040517f08c379a000000000000000000000000000000000000000000000000000000000815260040161180590612db1565b60405180910390fd5b61181781612003565b50565b600080823b905060008111915050919050565b600033905090565b600073ffffffffffffffffffffffffffffffffffffffff168373ffffffffffffffffffffffffffffffffffffffff1614156118a5576040517f08c379a000000000000000000000000000000000000000000000000000000000815260040161189c90612eb1565b60405180910390fd5b600073ffffffffffffffffffffffffffffffffffffffff168273ffffffffffffffffffffffffffffffffffffffff161415611915576040517f08c379a000000000000000000000000000000000000000000000000000000000815260040161190c90612dd1565b60405180910390fd5b80600160008573ffffffffffffffffffffffffffffffffffffffff1673ffffffffffffffffffffffffffffffffffffffff16815260200190815260200160002060008473ffffffffffffffffffffffffffffffffffffffff1673ffffffffffffffffffffffffffffffffffffffff168152602001908152602001600020819055508173ffffffffffffffffffffffffffffffffffffffff168373ffffffffffffffffffffffffffffffffffffffff167f8c5be1e5ebec7d5bd14f71427d1e84f3dd0314c0f7b2291e5b200ac8c7c3b925836040516119f39190612f51565b60405180910390a3505050565b600073ffffffffffffffffffffffffffffffffffffffff168273ffffffffffffffffffffffffffffffffffffffff161415611a70576040517f08c379a0000000000000000000000000000000000000000000000000000000008152600401611a6790612f31565b60405180910390fd5b611a7c600083836120c9565b8060026000828254611a8e9190613073565b92505081905550806000808473ffffffffffffffffffffffffffffffffffffffff1673ffffffffffffffffffffffffffffffffffffffff1681526020019081526020016000206000828254611ae39190613073565b925050819055508173ffffffffffffffffffffffffffffffffffffffff16600073ffffffffffffffffffffffffffffffffffffffff167fddf252ad1be2c89b69c2b068fc378daa952ba7f163c4a11628f55a4df523b3ef83604051611b489190612f51565b60405180910390a3611b5c600083836120ce565b5050565b600073ffffffffffffffffffffffffffffffffffffffff168373ffffffffffffffffffffffffffffffffffffffff161415611bd0576040517f08c379a0000000000000000000000000000000000000000000000000000000008152600401611bc790612e91565b60405180910390fd5b600073ffffffffffffffffffffffffffffffffffffffff168273ffffffffffffffffffffffffffffffffffffffff161415611c40576040517f08c379a0000000000000000000000000000000000000000000000000000000008152600401611c3790612d71565b60405180910390fd5b611c4b8383836120c9565b60008060008573ffffffffffffffffffffffffffffffffffffffff1673ffffffffffffffffffffffffffffffffffffffff16815260200190815260200160002054905081811015611cd1576040517f08c379a0000000000000000000000000000000000000000000000000000000008152600401611cc890612df1565b60405180910390fd5b8181036000808673ffffffffffffffffffffffffffffffffffffffff1673ffffffffffffffffffffffffffffffffffffffff16815260200190815260200160002081905550816000808573ffffffffffffffffffffffffffffffffffffffff1673ffffffffffffffffffffffffffffffffffffffff1681526020019081526020016000206000828254611d649190613073565b925050819055508273ffffffffffffffffffffffffffffffffffffffff168473ffffffffffffffffffffffffffffffffffffffff167fddf252ad1be2c89b69c2b068fc378daa952ba7f163c4a11628f55a4df523b3ef84604051611dc89190612f51565b60405180910390a3611ddb8484846120ce565b50505050565b6000808414158015611df4575060008314155b8015611e01575060008214155b611e40576040517f08c379a0000000000000000000000000000000000000000000000000000000008152600401611e3790612ed1565b60405180910390fd5b6000611e58611e4f86866120d3565b620151806120e9565b905082811015611e9d576040517f08c379a0000000000000000000000000000000000000000000000000000000008152600401611e9490612ef1565b60405180910390fd5b60008382611eab919061323f565b905060008114611ed3578084611ec19190613134565b82611ecc9190613073565b9250611ed7565b8192505b50509392505050565b600080821415611eef57600080fd5b6000611efb84846120ff565b90506f7fffffffffffffffffffffffffffffff6fffffffffffffffffffffffffffffffff16816fffffffffffffffffffffffffffffffff161115611f3e57600080fd5b8091505092915050565b600080821415611f5b5760009050611ffd565b600083600f0b1215611f6c57600080fd5b600060406fffffffffffffffffffffffffffffffff841685600f0b02901c90506000608084901c85600f0b02905077ffffffffffffffffffffffffffffffffffffffffffffffff811115611fbf57600080fd5b604081901b9050817fffffffffffffffffffffffffffffffffffffffffffffffffffffffffffffffff03811115611ff557600080fd5b818101925050505b92915050565b6000600560009054906101000a900473ffffffffffffffffffffffffffffffffffffffff16905081600560006101000a81548173ffffffffffffffffffffffffffffffffffffffff021916908373ffffffffffffffffffffffffffffffffffffffff1602179055508173ffffffffffffffffffffffffffffffffffffffff168173ffffffffffffffffffffffffffffffffffffffff167f8be0079c531659141344cd1fd0a4f28419497f9722a3daafe3b4186f6b6457e060405160405180910390a35050565b505050565b505050565b600081836120e19190613134565b905092915050565b600081836120f79190613103565b905092915050565b60008082141561210e57600080fd5b600077ffffffffffffffffffffffffffffffffffffffffffffffff84116121715782604085901b81612169577f4e487b7100000000000000000000000000000000000000000000000000000000600052601260045260246000fd5b04905061234d565b600060c09050600060c086901c9050640100000000811061219a57602081901c90506020820191505b6201000081106121b257601081901c90506010820191505b61010081106121c957600881901c90506008820191505b601081106121df57600481901c90506004820191505b600481106121f557600281901c90506002820191505b60028110612204576001820191505b600160bf830360018703901c018260ff0387901b8161224c577f4e487b7100000000000000000000000000000000000000000000000000000000600052601260045260246000fd5b0492506fffffffffffffffffffffffffffffffff83111561226c57600080fd5b6000608086901c8402905060006fffffffffffffffffffffffffffffffff871685029050600060c089901c9050600060408a901b9050828110156122b1576001820391505b8281039050608084901b9250828110156122cc576001820391505b8281039050608084901c821461230b577f4e487b7100000000000000000000000000000000000000000000000000000000600052600160045260246000fd5b888181612341577f4e487b7100000000000000000000000000000000000000000000000000000000600052601260045260246000fd5b04870196505050505050505b6fffffffffffffffffffffffffffffffff81111561236a57600080fd5b8091505092915050565b600061238761238284613027565b612ff6565b90508281526020810184848401111561239f57600080fd5b6123aa8482856131da565b509392505050565b6000813590506123c18161333d565b92915050565b6000815190506123d68161333d565b92915050565b6000815190506123eb81613354565b92915050565b6000815190506124008161336b565b92915050565b600082601f83011261241757600080fd5b8151612427848260208601612374565b91505092915050565b60008135905061243f81613382565b92915050565b60008151905061245481613382565b92915050565b60008135905061246981613399565b92915050565b60006020828403121561248157600080fd5b600061248f848285016123b2565b91505092915050565b6000602082840312156124aa57600080fd5b60006124b8848285016123c7565b91505092915050565b600080604083850312156124d457600080fd5b60006124e2858286016123b2565b92505060206124f3858286016123b2565b9150509250929050565b60008060006060848603121561251257600080fd5b6000612520868287016123b2565b9350506020612531868287016123b2565b925050604061254286828701612430565b9150509250925092565b6000806040838503121561255f57600080fd5b600061256d858286016123b2565b925050602061257e85828601612430565b9150509250929050565b60006020828403121561259a57600080fd5b60006125a8848285016123dc565b91505092915050565b600080600080600080600060e0888a0312156125cc57600080fd5b600088015167ffffffffffffffff8111156125e657600080fd5b6125f28a828b01612406565b97505060206126038a828b01612445565b96505060406126148a828b01612445565b95505060606126258a828b01612445565b94505060806126368a828b016123f1565b93505060a06126478a828b016123f1565b92505060c06126588a828b016123c7565b91505092959891949750929550565b60006020828403121561267957600080fd5b600061268784828501612430565b91505092915050565b6000602082840312156126a257600080fd5b60006126b084828501612445565b91505092915050565b6000602082840312156126cb57600080fd5b60006126d98482850161245a565b91505092915050565b6126eb81613168565b82525050565b6126fa8161317a565b82525050565b600061270b82613057565b6127158185613062565b93506127258185602086016131da565b61272e8161332c565b840191505092915050565b6000612746602383613062565b91507f45524332303a207472616e7366657220746f20746865207a65726f206164647260008301527f65737300000000000000000000000000000000000000000000000000000000006020830152604082019050919050565b60006127ac603083613062565b91507f506f6f6c3a20546865206d696e696d756d206f6620696e76657374696e67206560008301527f78636565642074686520616d6f756e74000000000000000000000000000000006020830152604082019050919050565b6000612812602683613062565b91507f4f776e61626c653a206e6577206f776e657220697320746865207a65726f206160008301527f64647265737300000000000000000000000000000000000000000000000000006020830152604082019050919050565b6000612878602283613062565b91507f45524332303a20617070726f766520746f20746865207a65726f20616464726560008301527f73730000000000000000000000000000000000000000000000000000000000006020830152604082019050919050565b60006128de602683613062565b91507f45524332303a207472616e7366657220616d6f756e742065786365656473206260008301527f616c616e636500000000000000000000000000000000000000000000000000006020830152604082019050919050565b6000612944600b83613062565b91507f504f4f4c3a204572726f720000000000000000000000000000000000000000006000830152602082019050919050565b6000612984602883613062565b91507f45524332303a207472616e7366657220616d6f756e742065786365656473206160008301527f6c6c6f77616e63650000000000000000000000000000000000000000000000006020830152604082019050919050565b60006129ea602083613062565b91507f4f776e61626c653a2063616c6c6572206973206e6f7420746865206f776e65726000830152602082019050919050565b6000612a2a603c83613062565b91507f504f4f4c3a2054686520616d6f756e74207468617420796f752074727920746f60008301527f20726571756573742065786365656420796f75722062616c616e6365000000006020830152604082019050919050565b6000612a90602583613062565b91507f45524332303a207472616e736665722066726f6d20746865207a65726f20616460008301527f64726573730000000000000000000000000000000000000000000000000000006020830152604082019050919050565b6000612af6602483613062565b91507f45524332303a20617070726f76652066726f6d20746865207a65726f2061646460008301527f72657373000000000000000000000000000000000000000000000000000000006020830152604082019050919050565b6000612b5c600583613062565b91507f4572726f720000000000000000000000000000000000000000000000000000006000830152602082019050919050565b6000612b9c603a83613062565b91507f506f6f6c3a20596f75206861766520746f206e65656420636f6d706c6574652060008301527f6174206c65617374206f6e65207374616b6520706572696f642e0000000000006020830152604082019050919050565b6000612c02602583613062565b91507f45524332303a2064656372656173656420616c6c6f77616e63652062656c6f7760008301527f207a65726f0000000000000000000000000000000000000000000000000000006020830152604082019050919050565b6000612c68601f83613062565b91507f45524332303a206d696e7420746f20746865207a65726f2061646472657373006000830152602082019050919050565b612ca4816131b3565b82525050565b612cb3816131cd565b82525050565b6000602082019050612cce60008301846126e2565b92915050565b6000606082019050612ce960008301866126e2565b612cf660208301856126e2565b612d036040830184612c9b565b949350505050565b6000604082019050612d2060008301856126e2565b612d2d6020830184612c9b565b9392505050565b6000602082019050612d4960008301846126f1565b92915050565b60006020820190508181036000830152612d698184612700565b905092915050565b60006020820190508181036000830152612d8a81612739565b9050919050565b60006020820190508181036000830152612daa8161279f565b9050919050565b60006020820190508181036000830152612dca81612805565b9050919050565b60006020820190508181036000830152612dea8161286b565b9050919050565b60006020820190508181036000830152612e0a816128d1565b9050919050565b60006020820190508181036000830152612e2a81612937565b9050919050565b60006020820190508181036000830152612e4a81612977565b9050919050565b60006020820190508181036000830152612e6a816129dd565b9050919050565b60006020820190508181036000830152612e8a81612a1d565b9050919050565b60006020820190508181036000830152612eaa81612a83565b9050919050565b60006020820190508181036000830152612eca81612ae9565b9050919050565b60006020820190508181036000830152612eea81612b4f565b9050919050565b60006020820190508181036000830152612f0a81612b8f565b9050919050565b60006020820190508181036000830152612f2a81612bf5565b9050919050565b60006020820190508181036000830152612f4a81612c5b565b9050919050565b6000602082019050612f666000830184612c9b565b92915050565b600060e082019050612f81600083018a612c9b565b612f8e6020830189612c9b565b612f9b6040830188612c9b565b612fa86060830187612c9b565b612fb56080830186612c9b565b612fc260a08301856126f1565b612fcf60c08301846126f1565b98975050505050505050565b6000602082019050612ff06000830184612caa565b92915050565b6000604051905081810181811067ffffffffffffffff8211171561301d5761301c6132fd565b5b8060405250919050565b600067ffffffffffffffff821115613042576130416132fd565b5b601f19601f8301169050602081019050919050565b600081519050919050565b600082825260208201905092915050565b600061307e826131b3565b9150613089836131b3565b9250827fffffffffffffffffffffffffffffffffffffffffffffffffffffffffffffffff038211156130be576130bd613270565b5b828201905092915050565b60006130d4826131bd565b91506130df836131bd565b92508263ffffffff038211156130f8576130f7613270565b5b828201905092915050565b600061310e826131b3565b9150613119836131b3565b9250826131295761312861329f565b5b828204905092915050565b600061313f826131b3565b915061314a836131b3565b92508282101561315d5761315c613270565b5b828203905092915050565b600061317382613193565b9050919050565b60008115159050919050565b600081600f0b9050919050565b600073ffffffffffffffffffffffffffffffffffffffff82169050919050565b6000819050919050565b600063ffffffff82169050919050565b600060ff82169050919050565b60005b838110156131f85780820151818401526020810190506131dd565b83811115613207576000848401525b50505050565b6000600282049050600182168061322557607f821691505b60208210811415613239576132386132ce565b5b50919050565b600061324a826131b3565b9150613255836131b3565b9250826132655761326461329f565b5b828206905092915050565b7f4e487b7100000000000000000000000000000000000000000000000000000000600052601160045260246000fd5b7f4e487b7100000000000000000000000000000000000000000000000000000000600052601260045260246000fd5b7f4e487b7100000000000000000000000000000000000000000000000000000000600052602260045260246000fd5b7f4e487b7100000000000000000000000000000000000000000000000000000000600052604160045260246000fd5b6000601f19601f8301169050919050565b61334681613168565b811461335157600080fd5b50565b61335d8161317a565b811461336857600080fd5b50565b61337481613186565b811461337f57600080fd5b50565b61338b816131b3565b811461339657600080fd5b50565b6133a2816131bd565b81146133ad57600080fd5b5056fea264697066735822122091143bae4729ef7a714895d27274f1506841e9c860b81b5e202f8dff48e1adce64736f6c63430008000033",
  "immutableReferences": {
    "6042": [
      {
        "length": 32,
        "start": 1392
      },
      {
        "length": 32,
        "start": 2005
      },
      {
        "length": 32,
        "start": 2881
      }
    ],
    "6044": [
      {
        "length": 32,
        "start": 1489
      },
      {
        "length": 32,
        "start": 4202
      }
    ]
  },
  "source": "// SPDX-License-Identifier: MIT\npragma solidity >=0.8.0 <0.9.0;\n\n/**\n  @author Pedro Machado\n  @title POOL USDT/RUSD\n  @notice The present Smart Contract <SC> receives USDT as a strong currency \n  and mint the same amount from deposit function of RUSD. From this SC is where the PRTOCOL DIF \n  get money to funding of all INVOICE NFT that were minted by request from one tenant.    \n */\n\nimport \"@openzeppelin/contracts/token/ERC20/ERC20.sol\";\nimport \"@openzeppelin/contracts/access/Ownable.sol\";\nimport \"@openzeppelin/contracts/utils/Address.sol\";\nimport \"@openzeppelin/contracts/utils/math/SafeMath.sol\";\nimport \"@openzeppelin/contracts/token/ERC20/IERC20.sol\";\nimport \"./ABDKMath64x64.sol\";\nimport \"./INFT_FACTORY.sol\";\n\n\ncontract RUSD is ERC20, Ownable{\n  using Address for address;\n  \n  uint constant referencePeriod = 30; \n  uint minimumInvesting;\n  address immutable nftFactoryAddress;\n  address immutable usdtAddress; \n  uint32 lenghtListOut;\n\n  INFT_FACTORY NFT;\n  IERC20 USDT;\n\n  struct CUSTUMER {\n    uint intitialDate;\n    uint requestDate;\n    uint returnDate;\n    uint stakePeriod;\n    uint pendingWithdraw;\n    bool locked;\n    bool isWithdrawal;\n  }\n\n  mapping (address => CUSTUMER) public custumers;\n  // key is investor's numberList and value is requestDate \n  mapping (uint32 => uint) public numberList;\n\n  event NEWDEPOSIT (address indexed recipient, uint amount);\n\n  constructor (uint _minimumInvesting, address _nftFactoryAddress, address _usdtAddress) ERC20(\"RESERVA USD\", \"RUSD\"){\n    require(_nftFactoryAddress.isContract() && _nftFactoryAddress != address(0), \"POOL: Error 0\");\n    require(_usdtAddress.isContract() && _usdtAddress != address(0), \"POOL: Error 1\");\n    nftFactoryAddress = _nftFactoryAddress;\n    usdtAddress = _usdtAddress;\n    minimumInvesting =  _minimumInvesting;\n  }\n  /// @dev Before someone call this function, the investor had to approve the current SC\n  /// to manage his USDT amount. Important trigger approve function before this\n  /// current function will be called.\n  function deposit (address _investor, uint _amount) external returns (bool) {\n    USDT = IERC20(usdtAddress);\n    require(! _investor.isContract() && _investor != address(0), \"POOL: Error\");\n    require(_amount >= minimumInvesting, \"Pool: The minimum of investing exceed the amount\");\n    USDT.transferFrom(_investor, address(this), _amount);\n    _mint(_investor, _amount);\n    custumers[_investor].intitialDate = _now();\n    custumers[_investor].locked = true;\n    emit NEWDEPOSIT(_investor, _amount);\n    return true;\n  }\n\n  function fundingNFT(uint tokenId) public onlyOwner returns (bool) {\n    NFT = INFT_FACTORY(nftFactoryAddress);\n    USDT = IERC20(usdtAddress);\n    ( , ,uint balanceAdvance, , , ,) = NFT.getData(tokenId);\n    NFT.safeTransferFrom(NFT.ownerOf(tokenId), nftFactoryAddress, tokenId);\n    USDT.transfer(NFT.ownerOf(tokenId), balanceAdvance);\n    return true;\n  }\n\n\n  function transferFunds(address investor) public onlyOwner returns(bool) {\n\n\n  }\n\n  function requestWithdraw(address investor, uint amount) public returns(bool) {\n    require(amount <= balanceOf(investor), \"POOL: The amount that you try to request exceed your balance\");\n    uint stakePeriod = _computeStakePeriod(_now(), custumers[investor].intitialDate, referencePeriod);\n    lenghtListOut  += 1;\n    custumers[investor].requestDate = numberList[lenghtListOut] = _now();\n    custumers[investor].stakePeriod = stakePeriod;\n    custumers[investor].pendingWithdraw = amount;\n    return true;\n  }\n\n\n  /// @dev return true if it is transfered succesfully investor's benefits. \n  /// This function is called once by day after mintRewars().\n  function stakeOf(address investor) public onlyOwner returns(bool) {\n    int128 _ratioOf = ABDKMath64x64.divu(balanceOf(investor), totalSupply()); \n    uint valueToSend = ABDKMath64x64.mulu(_ratioOf, balanceOf(address(this)));\n    transfer(investor, valueToSend);\n    return true;\n  }\n\n  /// @dev return true if it mint process is executed successfully\n  /// This function is called once by day, before that stakeOf(address investor)\n  function mintRewards() public onlyOwner returns(bool) {\n    uint amount = INFT_FACTORY(nftFactoryAddress).dailyInterestRUSD();\n    _mint(address(this), amount);\n    return true;\n  }\n\n  function _now() public view returns(uint) {\n      return block.timestamp;\n    }\n\n    \n  function _computeStakePeriod(uint _endDate, uint _startDate, uint ref) pure private returns (uint stakePeriod) {\n        require(_endDate != 0 && _startDate != 0 && ref != 0, \"Error\");\n        uint stampTime = SafeMath.div( SafeMath.sub(_endDate, _startDate), 1 days);\n        require(stampTime >= ref, \"Pool: You have to need complete at least one stake period.\");\n        uint r = stampTime % ref;\n        if (r != 0) {\n            stakePeriod = stampTime + (ref - r);\n        }\n        else {\n            stakePeriod = stampTime;\n        }   \n        return stakePeriod;\n    }\n\n  \n}\n",
  "sourcePath": "/home/peter/Documents/Reserva/0-Reservafs/Proyectos/DIF_PROJECT/Code/DIFonBlockchain_Enumerable/contracts/RUSD.sol",
  "compiler": {
    "name": "solc",
    "version": "0.8.0+commit.c7dfd78e.Emscripten.clang"
  },
  "schemaVersion": "3.4.3",
  "updatedAt": "2021-12-08T22:54:02.561Z",
  "devdoc": {
    "kind": "dev",
    "methods": {
      "allowance(address,address)": {
        "details": "See {IERC20-allowance}."
      },
      "approve(address,uint256)": {
        "details": "See {IERC20-approve}. Requirements: - `spender` cannot be the zero address."
      },
      "balanceOf(address)": {
        "details": "See {IERC20-balanceOf}."
      },
      "decimals()": {
        "details": "Returns the number of decimals used to get its user representation. For example, if `decimals` equals `2`, a balance of `505` tokens should be displayed to a user as `5.05` (`505 / 10 ** 2`). Tokens usually opt for a value of 18, imitating the relationship between Ether and Wei. This is the value {ERC20} uses, unless this function is overridden; NOTE: This information is only used for _display_ purposes: it in no way affects any of the arithmetic of the contract, including {IERC20-balanceOf} and {IERC20-transfer}."
      },
      "decreaseAllowance(address,uint256)": {
        "details": "Atomically decreases the allowance granted to `spender` by the caller. This is an alternative to {approve} that can be used as a mitigation for problems described in {IERC20-approve}. Emits an {Approval} event indicating the updated allowance. Requirements: - `spender` cannot be the zero address. - `spender` must have allowance for the caller of at least `subtractedValue`."
      },
      "deposit(address,uint256)": {
        "details": "Before someone call this function, the investor had to approve the current SC to manage his USDT amount. Important trigger approve function before this current function will be called."
      },
      "increaseAllowance(address,uint256)": {
        "details": "Atomically increases the allowance granted to `spender` by the caller. This is an alternative to {approve} that can be used as a mitigation for problems described in {IERC20-approve}. Emits an {Approval} event indicating the updated allowance. Requirements: - `spender` cannot be the zero address."
      },
      "mintRewards()": {
        "details": "return true if it mint process is executed successfully This function is called once by day, before that stakeOf(address investor)"
      },
      "name()": {
        "details": "Returns the name of the token."
      },
      "owner()": {
        "details": "Returns the address of the current owner."
      },
      "renounceOwnership()": {
        "details": "Leaves the contract without owner. It will not be possible to call `onlyOwner` functions anymore. Can only be called by the current owner. NOTE: Renouncing ownership will leave the contract without an owner, thereby removing any functionality that is only available to the owner."
      },
      "stakeOf(address)": {
        "details": "return true if it is transfered succesfully investor's benefits.  This function is called once by day after mintRewars()."
      },
      "symbol()": {
        "details": "Returns the symbol of the token, usually a shorter version of the name."
      },
      "totalSupply()": {
        "details": "See {IERC20-totalSupply}."
      },
      "transfer(address,uint256)": {
        "details": "See {IERC20-transfer}. Requirements: - `recipient` cannot be the zero address. - the caller must have a balance of at least `amount`."
      },
      "transferFrom(address,address,uint256)": {
        "details": "See {IERC20-transferFrom}. Emits an {Approval} event indicating the updated allowance. This is not required by the EIP. See the note at the beginning of {ERC20}. Requirements: - `sender` and `recipient` cannot be the zero address. - `sender` must have a balance of at least `amount`. - the caller must have allowance for ``sender``'s tokens of at least `amount`."
      },
      "transferOwnership(address)": {
        "details": "Transfers ownership of the contract to a new account (`newOwner`). Can only be called by the current owner."
      }
    },
    "version": 1
  },
  "userdoc": {
    "kind": "user",
    "methods": {},
    "version": 1
  }
}