{
  "contractName": "RUSD",
  "abi": [
    {
      "inputs": [
        {
          "internalType": "uint256",
          "name": "_minimumInvesting",
          "type": "uint256"
        },
        {
          "internalType": "address",
          "name": "_nftFactoryAddress",
          "type": "address"
        },
        {
          "internalType": "address",
          "name": "_usdtAddress",
          "type": "address"
        }
      ],
      "stateMutability": "nonpayable",
      "type": "constructor"
    },
    {
      "anonymous": false,
      "inputs": [
        {
          "indexed": true,
          "internalType": "address",
          "name": "owner",
          "type": "address"
        },
        {
          "indexed": true,
          "internalType": "address",
          "name": "spender",
          "type": "address"
        },
        {
          "indexed": false,
          "internalType": "uint256",
          "name": "value",
          "type": "uint256"
        }
      ],
      "name": "Approval",
      "type": "event"
    },
    {
      "anonymous": false,
      "inputs": [
        {
          "indexed": true,
          "internalType": "address",
          "name": "recipient",
          "type": "address"
        },
        {
          "indexed": false,
          "internalType": "uint256",
          "name": "amount",
          "type": "uint256"
        }
      ],
      "name": "NEWDEPOSIT",
      "type": "event"
    },
    {
      "anonymous": false,
      "inputs": [
        {
          "indexed": true,
          "internalType": "address",
          "name": "previousOwner",
          "type": "address"
        },
        {
          "indexed": true,
          "internalType": "address",
          "name": "newOwner",
          "type": "address"
        }
      ],
      "name": "OwnershipTransferred",
      "type": "event"
    },
    {
      "anonymous": false,
      "inputs": [
        {
          "indexed": true,
          "internalType": "address",
          "name": "from",
          "type": "address"
        },
        {
          "indexed": true,
          "internalType": "address",
          "name": "to",
          "type": "address"
        },
        {
          "indexed": false,
          "internalType": "uint256",
          "name": "value",
          "type": "uint256"
        }
      ],
      "name": "Transfer",
      "type": "event"
    },
    {
      "inputs": [
        {
          "internalType": "address",
          "name": "owner",
          "type": "address"
        },
        {
          "internalType": "address",
          "name": "spender",
          "type": "address"
        }
      ],
      "name": "allowance",
      "outputs": [
        {
          "internalType": "uint256",
          "name": "",
          "type": "uint256"
        }
      ],
      "stateMutability": "view",
      "type": "function"
    },
    {
      "inputs": [
        {
          "internalType": "address",
          "name": "spender",
          "type": "address"
        },
        {
          "internalType": "uint256",
          "name": "amount",
          "type": "uint256"
        }
      ],
      "name": "approve",
      "outputs": [
        {
          "internalType": "bool",
          "name": "",
          "type": "bool"
        }
      ],
      "stateMutability": "nonpayable",
      "type": "function"
    },
    {
      "inputs": [
        {
          "internalType": "address",
          "name": "account",
          "type": "address"
        }
      ],
      "name": "balanceOf",
      "outputs": [
        {
          "internalType": "uint256",
          "name": "",
          "type": "uint256"
        }
      ],
      "stateMutability": "view",
      "type": "function"
    },
    {
      "inputs": [
        {
          "internalType": "address",
          "name": "",
          "type": "address"
        }
      ],
      "name": "custumers",
      "outputs": [
        {
          "internalType": "uint256",
          "name": "intitialDate",
          "type": "uint256"
        },
        {
          "internalType": "uint256",
          "name": "requestDate",
          "type": "uint256"
        },
        {
          "internalType": "uint256",
          "name": "returnDate",
          "type": "uint256"
        },
        {
          "internalType": "uint256",
          "name": "stakePeriod",
          "type": "uint256"
        },
        {
          "internalType": "bool",
          "name": "isWithdrawal",
          "type": "bool"
        }
      ],
      "stateMutability": "view",
      "type": "function"
    },
    {
      "inputs": [],
      "name": "decimals",
      "outputs": [
        {
          "internalType": "uint8",
          "name": "",
          "type": "uint8"
        }
      ],
      "stateMutability": "view",
      "type": "function"
    },
    {
      "inputs": [
        {
          "internalType": "address",
          "name": "spender",
          "type": "address"
        },
        {
          "internalType": "uint256",
          "name": "subtractedValue",
          "type": "uint256"
        }
      ],
      "name": "decreaseAllowance",
      "outputs": [
        {
          "internalType": "bool",
          "name": "",
          "type": "bool"
        }
      ],
      "stateMutability": "nonpayable",
      "type": "function"
    },
    {
      "inputs": [
        {
          "internalType": "address",
          "name": "spender",
          "type": "address"
        },
        {
          "internalType": "uint256",
          "name": "addedValue",
          "type": "uint256"
        }
      ],
      "name": "increaseAllowance",
      "outputs": [
        {
          "internalType": "bool",
          "name": "",
          "type": "bool"
        }
      ],
      "stateMutability": "nonpayable",
      "type": "function"
    },
    {
      "inputs": [],
      "name": "name",
      "outputs": [
        {
          "internalType": "string",
          "name": "",
          "type": "string"
        }
      ],
      "stateMutability": "view",
      "type": "function"
    },
    {
      "inputs": [],
      "name": "owner",
      "outputs": [
        {
          "internalType": "address",
          "name": "",
          "type": "address"
        }
      ],
      "stateMutability": "view",
      "type": "function"
    },
    {
      "inputs": [],
      "name": "renounceOwnership",
      "outputs": [],
      "stateMutability": "nonpayable",
      "type": "function"
    },
    {
      "inputs": [],
      "name": "symbol",
      "outputs": [
        {
          "internalType": "string",
          "name": "",
          "type": "string"
        }
      ],
      "stateMutability": "view",
      "type": "function"
    },
    {
      "inputs": [],
      "name": "totalSupply",
      "outputs": [
        {
          "internalType": "uint256",
          "name": "",
          "type": "uint256"
        }
      ],
      "stateMutability": "view",
      "type": "function"
    },
    {
      "inputs": [
        {
          "internalType": "address",
          "name": "recipient",
          "type": "address"
        },
        {
          "internalType": "uint256",
          "name": "amount",
          "type": "uint256"
        }
      ],
      "name": "transfer",
      "outputs": [
        {
          "internalType": "bool",
          "name": "",
          "type": "bool"
        }
      ],
      "stateMutability": "nonpayable",
      "type": "function"
    },
    {
      "inputs": [
        {
          "internalType": "address",
          "name": "sender",
          "type": "address"
        },
        {
          "internalType": "address",
          "name": "recipient",
          "type": "address"
        },
        {
          "internalType": "uint256",
          "name": "amount",
          "type": "uint256"
        }
      ],
      "name": "transferFrom",
      "outputs": [
        {
          "internalType": "bool",
          "name": "",
          "type": "bool"
        }
      ],
      "stateMutability": "nonpayable",
      "type": "function"
    },
    {
      "inputs": [
        {
          "internalType": "address",
          "name": "newOwner",
          "type": "address"
        }
      ],
      "name": "transferOwnership",
      "outputs": [],
      "stateMutability": "nonpayable",
      "type": "function"
    },
    {
      "inputs": [
        {
          "internalType": "address",
          "name": "_investor",
          "type": "address"
        },
        {
          "internalType": "uint256",
          "name": "_amount",
          "type": "uint256"
        }
      ],
      "name": "deposit",
      "outputs": [
        {
          "internalType": "bool",
          "name": "",
          "type": "bool"
        }
      ],
      "stateMutability": "nonpayable",
      "type": "function"
    },
    {
      "inputs": [
        {
          "internalType": "uint256",
          "name": "tokenId",
          "type": "uint256"
        }
      ],
      "name": "fundingNFT",
      "outputs": [
        {
          "internalType": "bool",
          "name": "",
          "type": "bool"
        }
      ],
      "stateMutability": "nonpayable",
      "type": "function"
    },
    {
      "inputs": [
        {
          "internalType": "address",
          "name": "investor",
          "type": "address"
        },
        {
          "internalType": "uint256",
          "name": "amount",
          "type": "uint256"
        }
      ],
      "name": "transferFunds",
      "outputs": [
        {
          "internalType": "bool",
          "name": "",
          "type": "bool"
        }
      ],
      "stateMutability": "nonpayable",
      "type": "function"
    },
    {
      "inputs": [
        {
          "internalType": "address",
          "name": "investor",
          "type": "address"
        },
        {
          "internalType": "uint256",
          "name": "amount",
          "type": "uint256"
        }
      ],
      "name": "requestWithdraw",
      "outputs": [
        {
          "internalType": "bool",
          "name": "",
          "type": "bool"
        }
      ],
      "stateMutability": "nonpayable",
      "type": "function"
    },
    {
      "inputs": [
        {
          "internalType": "address",
          "name": "investor",
          "type": "address"
        }
      ],
      "name": "stakeOf",
      "outputs": [
        {
          "internalType": "bool",
          "name": "",
          "type": "bool"
        }
      ],
      "stateMutability": "nonpayable",
      "type": "function"
    },
    {
      "inputs": [],
      "name": "mintRewards",
      "outputs": [
        {
          "internalType": "bool",
          "name": "",
          "type": "bool"
        }
      ],
      "stateMutability": "nonpayable",
      "type": "function"
    },
    {
      "inputs": [],
      "name": "_now",
      "outputs": [
        {
          "internalType": "uint256",
          "name": "",
          "type": "uint256"
        }
      ],
      "stateMutability": "view",
      "type": "function"
    }
  ],
  "bytecode": "0x60c06040523480156200001157600080fd5b5060405162003eb038038062003eb0833981810160405281019062000037919062000484565b6040518060400160405280600b81526020017f52455345525641205553440000000000000000000000000000000000000000008152506040518060400160405280600481526020017f52555344000000000000000000000000000000000000000000000000000000008152508160039080519060200190620000bb929190620003a6565b508060049080519060200190620000d4929190620003a6565b505050620000f7620000eb620002c560201b60201c565b620002cd60201b60201c565b620001238273ffffffffffffffffffffffffffffffffffffffff166200039360201b62001af91760201c565b80156200015d5750600073ffffffffffffffffffffffffffffffffffffffff168273ffffffffffffffffffffffffffffffffffffffff1614155b6200019f576040517f08c379a0000000000000000000000000000000000000000000000000000000008152600401620001969062000580565b60405180910390fd5b620001cb8173ffffffffffffffffffffffffffffffffffffffff166200039360201b62001af91760201c565b8015620002055750600073ffffffffffffffffffffffffffffffffffffffff168173ffffffffffffffffffffffffffffffffffffffff1614155b62000247576040517f08c379a00000000000000000000000000000000000000000000000000000000081526004016200023e906200055e565b60405180910390fd5b8173ffffffffffffffffffffffffffffffffffffffff1660808173ffffffffffffffffffffffffffffffffffffffff1660601b815250508073ffffffffffffffffffffffffffffffffffffffff1660a08173ffffffffffffffffffffffffffffffffffffffff1660601b81525050826006819055505050506200068a565b600033905090565b6000600560009054906101000a900473ffffffffffffffffffffffffffffffffffffffff16905081600560006101000a81548173ffffffffffffffffffffffffffffffffffffffff021916908373ffffffffffffffffffffffffffffffffffffffff1602179055508173ffffffffffffffffffffffffffffffffffffffff168173ffffffffffffffffffffffffffffffffffffffff167f8be0079c531659141344cd1fd0a4f28419497f9722a3daafe3b4186f6b6457e060405160405180910390a35050565b600080823b905060008111915050919050565b828054620003b490620005f1565b90600052602060002090601f016020900481019282620003d8576000855562000424565b82601f10620003f357805160ff191683800117855562000424565b8280016001018555821562000424579182015b828111156200042357825182559160200191906001019062000406565b5b50905062000433919062000437565b5090565b5b808211156200045257600081600090555060010162000438565b5090565b600081519050620004678162000656565b92915050565b6000815190506200047e8162000670565b92915050565b6000806000606084860312156200049a57600080fd5b6000620004aa868287016200046d565b9350506020620004bd8682870162000456565b9250506040620004d08682870162000456565b9150509250925092565b6000620004e9600d83620005a2565b91507f504f4f4c3a204572726f722031000000000000000000000000000000000000006000830152602082019050919050565b60006200052b600d83620005a2565b91507f504f4f4c3a204572726f722030000000000000000000000000000000000000006000830152602082019050919050565b600060208201905081810360008301526200057981620004da565b9050919050565b600060208201905081810360008301526200059b816200051c565b9050919050565b600082825260208201905092915050565b6000620005c082620005c7565b9050919050565b600073ffffffffffffffffffffffffffffffffffffffff82169050919050565b6000819050919050565b600060028204905060018216806200060a57607f821691505b6020821081141562000621576200062062000627565b5b50919050565b7f4e487b7100000000000000000000000000000000000000000000000000000000600052602260045260246000fd5b6200066181620005b3565b81146200066d57600080fd5b50565b6200067b81620005e7565b81146200068757600080fd5b50565b60805160601c60a05160601c6137de620006d26000396000818161059401528181610e1b01526112c5015260008181610533015281816107980152610aeb01526137de6000f3fe608060405234801561001057600080fd5b50600436106101425760003560e01c806347e7ef24116100b8578063990dc9db1161007c578063990dc9db146103b9578063a457c2d7146103e9578063a9059cbb14610419578063b3bb8cd414610449578063dd62ed3e14610467578063f2fde38b1461049757610142565b806347e7ef241461031357806370a0823114610343578063715018a6146103735780638da5cb5b1461037d57806395d89b411461039b57610142565b8063234cb0511161010a578063234cb0511461021757806323b872dd14610235578063313ce567146102655780633950935114610283578063397a1b28146102b357806342623360146102e357610142565b806306a6213c1461014757806306fdde0314610177578063095ea7b31461019557806318160ddd146101c55780631ae0b2c3146101e3575b600080fd5b610161600480360381019061015c91906129dd565b6104b3565b60405161016e9190613167565b60405180910390f35b61017f61096c565b60405161018c9190613182565b60405180910390f35b6101af60048036038101906101aa91906128c2565b6109fe565b6040516101bc9190613167565b60405180910390f35b6101cd610a1c565b6040516101da91906133e4565b60405180910390f35b6101fd60048036038101906101f891906127e5565b610a26565b60405161020e9594939291906133ff565b60405180910390f35b61021f610a69565b60405161022c9190613167565b60405180910390f35b61024f600480360381019061024a9190612873565b610b9b565b60405161025c9190613167565b60405180910390f35b61026d610c93565b60405161027a9190613452565b60405180910390f35b61029d600480360381019061029891906128c2565b610c9c565b6040516102aa9190613167565b60405180910390f35b6102cd60048036038101906102c891906128c2565b610d48565b6040516102da9190613167565b60405180910390f35b6102fd60048036038101906102f891906127e5565b610d50565b60405161030a9190613167565b60405180910390f35b61032d600480360381019061032891906128c2565b610e17565b60405161033a9190613167565b60405180910390f35b61035d600480360381019061035891906127e5565b6110b9565b60405161036a91906133e4565b60405180910390f35b61037b611101565b005b610385611189565b60405161039291906130ec565b60405180910390f35b6103a36111b3565b6040516103b09190613182565b60405180910390f35b6103d360048036038101906103ce91906128c2565b611245565b6040516103e09190613167565b60405180910390f35b61040360048036038101906103fe91906128c2565b611869565b6040516104109190613167565b60405180910390f35b610433600480360381019061042e91906128c2565b611954565b6040516104409190613167565b60405180910390f35b610451611972565b60405161045e91906133e4565b60405180910390f35b610481600480360381019061047c9190612837565b61197a565b60405161048e91906133e4565b60405180910390f35b6104b160048036038101906104ac91906127e5565b611a01565b005b60006104bd611b0c565b73ffffffffffffffffffffffffffffffffffffffff166104db611189565b73ffffffffffffffffffffffffffffffffffffffff1614610531576040517f08c379a0000000000000000000000000000000000000000000000000000000008152600401610528906132c4565b60405180910390fd5b7f0000000000000000000000000000000000000000000000000000000000000000600760046101000a81548173ffffffffffffffffffffffffffffffffffffffff021916908373ffffffffffffffffffffffffffffffffffffffff1602179055507f0000000000000000000000000000000000000000000000000000000000000000600860006101000a81548173ffffffffffffffffffffffffffffffffffffffff021916908373ffffffffffffffffffffffffffffffffffffffff1602179055506000600760049054906101000a900473ffffffffffffffffffffffffffffffffffffffff1673ffffffffffffffffffffffffffffffffffffffff16630178fe3f846040518263ffffffff1660e01b815260040161065091906133e4565b60006040518083038186803b15801561066857600080fd5b505afa15801561067c573d6000803e3d6000fd5b505050506040513d6000823e3d601f19601f820116820180604052508101906106a59190612927565b5050505092505050600760049054906101000a900473ffffffffffffffffffffffffffffffffffffffff1673ffffffffffffffffffffffffffffffffffffffff166342842e0e600760049054906101000a900473ffffffffffffffffffffffffffffffffffffffff1673ffffffffffffffffffffffffffffffffffffffff16636352211e866040518263ffffffff1660e01b815260040161074691906133e4565b60206040518083038186803b15801561075e57600080fd5b505afa158015610772573d6000803e3d6000fd5b505050506040513d601f19601f82011682018060405250810190610796919061280e565b7f0000000000000000000000000000000000000000000000000000000000000000866040518463ffffffff1660e01b81526004016107d693929190613107565b600060405180830381600087803b1580156107f057600080fd5b505af1158015610804573d6000803e3d6000fd5b50505050600860009054906101000a900473ffffffffffffffffffffffffffffffffffffffff1673ffffffffffffffffffffffffffffffffffffffff1663a9059cbb600760049054906101000a900473ffffffffffffffffffffffffffffffffffffffff1673ffffffffffffffffffffffffffffffffffffffff16636352211e866040518263ffffffff1660e01b81526004016108a191906133e4565b60206040518083038186803b1580156108b957600080fd5b505afa1580156108cd573d6000803e3d6000fd5b505050506040513d601f19601f820116820180604052508101906108f1919061280e565b836040518363ffffffff1660e01b815260040161090f92919061313e565b602060405180830381600087803b15801561092957600080fd5b505af115801561093d573d6000803e3d6000fd5b505050506040513d601f19601f8201168201806040525081019061096191906128fe565b506001915050919050565b60606003805461097b90613633565b80601f01602080910402602001604051908101604052809291908181526020018280546109a790613633565b80156109f45780601f106109c9576101008083540402835291602001916109f4565b820191906000526020600020905b8154815290600101906020018083116109d757829003601f168201915b5050505050905090565b6000610a12610a0b611b0c565b8484611b14565b6001905092915050565b6000600254905090565b60096020528060005260406000206000915090508060000154908060010154908060020154908060030154908060040160009054906101000a900460ff16905085565b6000610a73611b0c565b73ffffffffffffffffffffffffffffffffffffffff16610a91611189565b73ffffffffffffffffffffffffffffffffffffffff1614610ae7576040517f08c379a0000000000000000000000000000000000000000000000000000000008152600401610ade906132c4565b60405180910390fd5b60007f000000000000000000000000000000000000000000000000000000000000000073ffffffffffffffffffffffffffffffffffffffff1663dd036e636040518163ffffffff1660e01b815260040160206040518083038186803b158015610b4f57600080fd5b505afa158015610b63573d6000803e3d6000fd5b505050506040513d601f19601f82011682018060405250810190610b879190612a06565b9050610b933082611cdf565b600191505090565b6000610ba8848484611e3f565b6000600160008673ffffffffffffffffffffffffffffffffffffffff1673ffffffffffffffffffffffffffffffffffffffff1681526020019081526020016000206000610bf3611b0c565b73ffffffffffffffffffffffffffffffffffffffff1673ffffffffffffffffffffffffffffffffffffffff16815260200190815260200160002054905082811015610c73576040517f08c379a0000000000000000000000000000000000000000000000000000000008152600401610c6a906132a4565b60405180910390fd5b610c8785610c7f611b0c565b858403611b14565b60019150509392505050565b60006012905090565b6000610d3e610ca9611b0c565b848460016000610cb7611b0c565b73ffffffffffffffffffffffffffffffffffffffff1673ffffffffffffffffffffffffffffffffffffffff16815260200190815260200160002060008873ffffffffffffffffffffffffffffffffffffffff1673ffffffffffffffffffffffffffffffffffffffff16815260200190815260200160002054610d3991906134ea565b611b14565b6001905092915050565b600092915050565b6000610d5a611b0c565b73ffffffffffffffffffffffffffffffffffffffff16610d78611189565b73ffffffffffffffffffffffffffffffffffffffff1614610dce576040517f08c379a0000000000000000000000000000000000000000000000000000000008152600401610dc5906132c4565b60405180910390fd5b6000610de9610ddc846110b9565b610de4610a1c565b6120c0565b90506000610dff82610dfa306110b9565b612128565b9050610e0b8482611954565b50600192505050919050565b60007f0000000000000000000000000000000000000000000000000000000000000000600860006101000a81548173ffffffffffffffffffffffffffffffffffffffff021916908373ffffffffffffffffffffffffffffffffffffffff160217905550610e998373ffffffffffffffffffffffffffffffffffffffff16611af9565b158015610ed35750600073ffffffffffffffffffffffffffffffffffffffff168373ffffffffffffffffffffffffffffffffffffffff1614155b610f12576040517f08c379a0000000000000000000000000000000000000000000000000000000008152600401610f0990613284565b60405180910390fd5b600654821015610f57576040517f08c379a0000000000000000000000000000000000000000000000000000000008152600401610f4e906131e4565b60405180910390fd5b600860009054906101000a900473ffffffffffffffffffffffffffffffffffffffff1673ffffffffffffffffffffffffffffffffffffffff166323b872dd8430856040518463ffffffff1660e01b8152600401610fb693929190613107565b602060405180830381600087803b158015610fd057600080fd5b505af1158015610fe4573d6000803e3d6000fd5b505050506040513d601f19601f8201168201806040525081019061100891906128fe565b506110138383611cdf565b61101b611972565b600960008573ffffffffffffffffffffffffffffffffffffffff1673ffffffffffffffffffffffffffffffffffffffff168152602001908152602001600020600001819055508273ffffffffffffffffffffffffffffffffffffffff167fe10a6bdf0489ec1f7493f091bb7e79a4691ed8c3cb5c90c8572ba2a58b295b55836040516110a791906133e4565b60405180910390a26001905092915050565b60008060008373ffffffffffffffffffffffffffffffffffffffff1673ffffffffffffffffffffffffffffffffffffffff168152602001908152602001600020549050919050565b611109611b0c565b73ffffffffffffffffffffffffffffffffffffffff16611127611189565b73ffffffffffffffffffffffffffffffffffffffff161461117d576040517f08c379a0000000000000000000000000000000000000000000000000000000008152600401611174906132c4565b60405180910390fd5b61118760006121e3565b565b6000600560009054906101000a900473ffffffffffffffffffffffffffffffffffffffff16905090565b6060600480546111c290613633565b80601f01602080910402602001604051908101604052809291908181526020018280546111ee90613633565b801561123b5780601f106112105761010080835404028352916020019161123b565b820191906000526020600020905b81548152906001019060200180831161121e57829003601f168201915b5050505050905090565b600061124f611b0c565b73ffffffffffffffffffffffffffffffffffffffff1661126d611189565b73ffffffffffffffffffffffffffffffffffffffff16146112c3576040517f08c379a00000000000000000000000000000000000000000000000000000000081526004016112ba906132c4565b60405180910390fd5b7f0000000000000000000000000000000000000000000000000000000000000000600860006101000a81548173ffffffffffffffffffffffffffffffffffffffff021916908373ffffffffffffffffffffffffffffffffffffffff160217905550600073ffffffffffffffffffffffffffffffffffffffff16600a600060648110611377577f4e487b7100000000000000000000000000000000000000000000000000000000600052603260045260246000fd5b0160009054906101000a900473ffffffffffffffffffffffffffffffffffffffff1673ffffffffffffffffffffffffffffffffffffffff1614156113f0576040517f08c379a00000000000000000000000000000000000000000000000000000000081526004016113e790613324565b60405180910390fd5b8273ffffffffffffffffffffffffffffffffffffffff16600a600060648110611442577f4e487b7100000000000000000000000000000000000000000000000000000000600052603260045260246000fd5b0160009054906101000a900473ffffffffffffffffffffffffffffffffffffffff1673ffffffffffffffffffffffffffffffffffffffff16146114ba576040517f08c379a00000000000000000000000000000000000000000000000000000000081526004016114b190613264565b60405180910390fd5b816114c4846110b9565b1015611505576040517f08c379a00000000000000000000000000000000000000000000000000000000081526004016114fc90613364565b60405180910390fd5b81600860009054906101000a900473ffffffffffffffffffffffffffffffffffffffff1673ffffffffffffffffffffffffffffffffffffffff166370a08231306040518263ffffffff1660e01b815260040161156191906130ec565b60206040518083038186803b15801561157957600080fd5b505afa15801561158d573d6000803e3d6000fd5b505050506040513d601f19601f820116820180604052508101906115b19190612a06565b10156115f2576040517f08c379a00000000000000000000000000000000000000000000000000000000081526004016115e990613384565b60405180910390fd5b60005b600073ffffffffffffffffffffffffffffffffffffffff16600a8260648110611647577f4e487b7100000000000000000000000000000000000000000000000000000000600052603260045260246000fd5b0160009054906101000a900473ffffffffffffffffffffffffffffffffffffffff1673ffffffffffffffffffffffffffffffffffffffff161461169757808061168f90613665565b9150506115f5565b60005b8181116117a357600a6001826116b091906134ea565b606481106116e7577f4e487b7100000000000000000000000000000000000000000000000000000000600052603260045260246000fd5b0160009054906101000a900473ffffffffffffffffffffffffffffffffffffffff16600a8260648110611743577f4e487b7100000000000000000000000000000000000000000000000000000000600052603260045260246000fd5b0160006101000a81548173ffffffffffffffffffffffffffffffffffffffff021916908373ffffffffffffffffffffffffffffffffffffffff160217905550818061178d90613609565b925050808061179b90613665565b91505061169a565b50600860009054906101000a900473ffffffffffffffffffffffffffffffffffffffff1673ffffffffffffffffffffffffffffffffffffffff1663a9059cbb85856040518363ffffffff1660e01b815260040161180192919061313e565b602060405180830381600087803b15801561181b57600080fd5b505af115801561182f573d6000803e3d6000fd5b505050506040513d601f19601f8201168201806040525081019061185391906128fe565b5061185e84846122a9565b600191505092915050565b60008060016000611878611b0c565b73ffffffffffffffffffffffffffffffffffffffff1673ffffffffffffffffffffffffffffffffffffffff16815260200190815260200160002060008573ffffffffffffffffffffffffffffffffffffffff1673ffffffffffffffffffffffffffffffffffffffff16815260200190815260200160002054905082811015611935576040517f08c379a000000000000000000000000000000000000000000000000000000000815260040161192c906133a4565b60405180910390fd5b611949611940611b0c565b85858403611b14565b600191505092915050565b6000611968611961611b0c565b8484611e3f565b6001905092915050565b600042905090565b6000600160008473ffffffffffffffffffffffffffffffffffffffff1673ffffffffffffffffffffffffffffffffffffffff16815260200190815260200160002060008373ffffffffffffffffffffffffffffffffffffffff1673ffffffffffffffffffffffffffffffffffffffff16815260200190815260200160002054905092915050565b611a09611b0c565b73ffffffffffffffffffffffffffffffffffffffff16611a27611189565b73ffffffffffffffffffffffffffffffffffffffff1614611a7d576040517f08c379a0000000000000000000000000000000000000000000000000000000008152600401611a74906132c4565b60405180910390fd5b600073ffffffffffffffffffffffffffffffffffffffff168173ffffffffffffffffffffffffffffffffffffffff161415611aed576040517f08c379a0000000000000000000000000000000000000000000000000000000008152600401611ae490613204565b60405180910390fd5b611af6816121e3565b50565b600080823b905060008111915050919050565b600033905090565b600073ffffffffffffffffffffffffffffffffffffffff168373ffffffffffffffffffffffffffffffffffffffff161415611b84576040517f08c379a0000000000000000000000000000000000000000000000000000000008152600401611b7b90613344565b60405180910390fd5b600073ffffffffffffffffffffffffffffffffffffffff168273ffffffffffffffffffffffffffffffffffffffff161415611bf4576040517f08c379a0000000000000000000000000000000000000000000000000000000008152600401611beb90613224565b60405180910390fd5b80600160008573ffffffffffffffffffffffffffffffffffffffff1673ffffffffffffffffffffffffffffffffffffffff16815260200190815260200160002060008473ffffffffffffffffffffffffffffffffffffffff1673ffffffffffffffffffffffffffffffffffffffff168152602001908152602001600020819055508173ffffffffffffffffffffffffffffffffffffffff168373ffffffffffffffffffffffffffffffffffffffff167f8c5be1e5ebec7d5bd14f71427d1e84f3dd0314c0f7b2291e5b200ac8c7c3b92583604051611cd291906133e4565b60405180910390a3505050565b600073ffffffffffffffffffffffffffffffffffffffff168273ffffffffffffffffffffffffffffffffffffffff161415611d4f576040517f08c379a0000000000000000000000000000000000000000000000000000000008152600401611d46906133c4565b60405180910390fd5b611d5b60008383612480565b8060026000828254611d6d91906134ea565b92505081905550806000808473ffffffffffffffffffffffffffffffffffffffff1673ffffffffffffffffffffffffffffffffffffffff1681526020019081526020016000206000828254611dc291906134ea565b925050819055508173ffffffffffffffffffffffffffffffffffffffff16600073ffffffffffffffffffffffffffffffffffffffff167fddf252ad1be2c89b69c2b068fc378daa952ba7f163c4a11628f55a4df523b3ef83604051611e2791906133e4565b60405180910390a3611e3b60008383612485565b5050565b600073ffffffffffffffffffffffffffffffffffffffff168373ffffffffffffffffffffffffffffffffffffffff161415611eaf576040517f08c379a0000000000000000000000000000000000000000000000000000000008152600401611ea690613304565b60405180910390fd5b600073ffffffffffffffffffffffffffffffffffffffff168273ffffffffffffffffffffffffffffffffffffffff161415611f1f576040517f08c379a0000000000000000000000000000000000000000000000000000000008152600401611f16906131a4565b60405180910390fd5b611f2a838383612480565b60008060008573ffffffffffffffffffffffffffffffffffffffff1673ffffffffffffffffffffffffffffffffffffffff16815260200190815260200160002054905081811015611fb0576040517f08c379a0000000000000000000000000000000000000000000000000000000008152600401611fa790613244565b60405180910390fd5b8181036000808673ffffffffffffffffffffffffffffffffffffffff1673ffffffffffffffffffffffffffffffffffffffff16815260200190815260200160002081905550816000808573ffffffffffffffffffffffffffffffffffffffff1673ffffffffffffffffffffffffffffffffffffffff168152602001908152602001600020600082825461204391906134ea565b925050819055508273ffffffffffffffffffffffffffffffffffffffff168473ffffffffffffffffffffffffffffffffffffffff167fddf252ad1be2c89b69c2b068fc378daa952ba7f163c4a11628f55a4df523b3ef846040516120a791906133e4565b60405180910390a36120ba848484612485565b50505050565b6000808214156120cf57600080fd5b60006120db848461248a565b90506f7fffffffffffffffffffffffffffffff6fffffffffffffffffffffffffffffffff16816fffffffffffffffffffffffffffffffff16111561211e57600080fd5b8091505092915050565b60008082141561213b57600090506121dd565b600083600f0b121561214c57600080fd5b600060406fffffffffffffffffffffffffffffffff841685600f0b02901c90506000608084901c85600f0b02905077ffffffffffffffffffffffffffffffffffffffffffffffff81111561219f57600080fd5b604081901b9050817fffffffffffffffffffffffffffffffffffffffffffffffffffffffffffffffff038111156121d557600080fd5b818101925050505b92915050565b6000600560009054906101000a900473ffffffffffffffffffffffffffffffffffffffff16905081600560006101000a81548173ffffffffffffffffffffffffffffffffffffffff021916908373ffffffffffffffffffffffffffffffffffffffff1602179055508173ffffffffffffffffffffffffffffffffffffffff168173ffffffffffffffffffffffffffffffffffffffff167f8be0079c531659141344cd1fd0a4f28419497f9722a3daafe3b4186f6b6457e060405160405180910390a35050565b600073ffffffffffffffffffffffffffffffffffffffff168273ffffffffffffffffffffffffffffffffffffffff161415612319576040517f08c379a0000000000000000000000000000000000000000000000000000000008152600401612310906132e4565b60405180910390fd5b61232582600083612480565b60008060008473ffffffffffffffffffffffffffffffffffffffff1673ffffffffffffffffffffffffffffffffffffffff168152602001908152602001600020549050818110156123ab576040517f08c379a00000000000000000000000000000000000000000000000000000000081526004016123a2906131c4565b60405180910390fd5b8181036000808573ffffffffffffffffffffffffffffffffffffffff1673ffffffffffffffffffffffffffffffffffffffff1681526020019081526020016000208190555081600260008282546124029190613540565b92505081905550600073ffffffffffffffffffffffffffffffffffffffff168373ffffffffffffffffffffffffffffffffffffffff167fddf252ad1be2c89b69c2b068fc378daa952ba7f163c4a11628f55a4df523b3ef8460405161246791906133e4565b60405180910390a361247b83600084612485565b505050565b505050565b505050565b60008082141561249957600080fd5b600077ffffffffffffffffffffffffffffffffffffffffffffffff84116124fc5782604085901b816124f4577f4e487b7100000000000000000000000000000000000000000000000000000000600052601260045260246000fd5b0490506126d8565b600060c09050600060c086901c9050640100000000811061252557602081901c90506020820191505b62010000811061253d57601081901c90506010820191505b610100811061255457600881901c90506008820191505b6010811061256a57600481901c90506004820191505b6004811061258057600281901c90506002820191505b6002811061258f576001820191505b600160bf830360018703901c018260ff0387901b816125d7577f4e487b7100000000000000000000000000000000000000000000000000000000600052601260045260246000fd5b0492506fffffffffffffffffffffffffffffffff8311156125f757600080fd5b6000608086901c8402905060006fffffffffffffffffffffffffffffffff871685029050600060c089901c9050600060408a901b90508281101561263c576001820391505b8281039050608084901b925082811015612657576001820391505b8281039050608084901c8214612696577f4e487b7100000000000000000000000000000000000000000000000000000000600052600160045260246000fd5b8881816126cc577f4e487b7100000000000000000000000000000000000000000000000000000000600052601260045260246000fd5b04870196505050505050505b6fffffffffffffffffffffffffffffffff8111156126f557600080fd5b8091505092915050565b600061271261270d8461349e565b61346d565b90508281526020810184848401111561272a57600080fd5b6127358482856135d6565b509392505050565b60008135905061274c8161374c565b92915050565b6000815190506127618161374c565b92915050565b60008151905061277681613763565b92915050565b60008151905061278b8161377a565b92915050565b600082601f8301126127a257600080fd5b81516127b28482602086016126ff565b91505092915050565b6000813590506127ca81613791565b92915050565b6000815190506127df81613791565b92915050565b6000602082840312156127f757600080fd5b60006128058482850161273d565b91505092915050565b60006020828403121561282057600080fd5b600061282e84828501612752565b91505092915050565b6000806040838503121561284a57600080fd5b60006128588582860161273d565b92505060206128698582860161273d565b9150509250929050565b60008060006060848603121561288857600080fd5b60006128968682870161273d565b93505060206128a78682870161273d565b92505060406128b8868287016127bb565b9150509250925092565b600080604083850312156128d557600080fd5b60006128e38582860161273d565b92505060206128f4858286016127bb565b9150509250929050565b60006020828403121561291057600080fd5b600061291e84828501612767565b91505092915050565b600080600080600080600060e0888a03121561294257600080fd5b600088015167ffffffffffffffff81111561295c57600080fd5b6129688a828b01612791565b97505060206129798a828b016127d0565b965050604061298a8a828b016127d0565b955050606061299b8a828b016127d0565b94505060806129ac8a828b0161277c565b93505060a06129bd8a828b0161277c565b92505060c06129ce8a828b01612752565b91505092959891949750929550565b6000602082840312156129ef57600080fd5b60006129fd848285016127bb565b91505092915050565b600060208284031215612a1857600080fd5b6000612a26848285016127d0565b91505092915050565b612a3881613574565b82525050565b612a4781613586565b82525050565b6000612a58826134ce565b612a6281856134d9565b9350612a728185602086016135d6565b612a7b8161373b565b840191505092915050565b6000612a936023836134d9565b91507f45524332303a207472616e7366657220746f20746865207a65726f206164647260008301527f65737300000000000000000000000000000000000000000000000000000000006020830152604082019050919050565b6000612af96022836134d9565b91507f45524332303a206275726e20616d6f756e7420657863656564732062616c616e60008301527f63650000000000000000000000000000000000000000000000000000000000006020830152604082019050919050565b6000612b5f6030836134d9565b91507f506f6f6c3a20546865206d696e696d756d206f6620696e76657374696e67206560008301527f78636565642074686520616d6f756e74000000000000000000000000000000006020830152604082019050919050565b6000612bc56026836134d9565b91507f4f776e61626c653a206e6577206f776e657220697320746865207a65726f206160008301527f64647265737300000000000000000000000000000000000000000000000000006020830152604082019050919050565b6000612c2b6022836134d9565b91507f45524332303a20617070726f766520746f20746865207a65726f20616464726560008301527f73730000000000000000000000000000000000000000000000000000000000006020830152604082019050919050565b6000612c916026836134d9565b91507f45524332303a207472616e7366657220616d6f756e742065786365656473206260008301527f616c616e636500000000000000000000000000000000000000000000000000006020830152604082019050919050565b6000612cf76030836134d9565b91507f504f4f4c3a205468697320696e766573746f72206973206e6f7420746865206660008301527f6972737420696e20746865206c697374000000000000000000000000000000006020830152604082019050919050565b6000612d5d600b836134d9565b91507f504f4f4c3a204572726f720000000000000000000000000000000000000000006000830152602082019050919050565b6000612d9d6028836134d9565b91507f45524332303a207472616e7366657220616d6f756e742065786365656473206160008301527f6c6c6f77616e63650000000000000000000000000000000000000000000000006020830152604082019050919050565b6000612e036020836134d9565b91507f4f776e61626c653a2063616c6c6572206973206e6f7420746865206f776e65726000830152602082019050919050565b6000612e436021836134d9565b91507f45524332303a206275726e2066726f6d20746865207a65726f2061646472657360008301527f73000000000000000000000000000000000000000000000000000000000000006020830152604082019050919050565b6000612ea96025836134d9565b91507f45524332303a207472616e736665722066726f6d20746865207a65726f20616460008301527f64726573730000000000000000000000000000000000000000000000000000006020830152604082019050919050565b6000612f0f6011836134d9565b91507f504f4f4c3a204c697374206973206f75740000000000000000000000000000006000830152602082019050919050565b6000612f4f6024836134d9565b91507f45524332303a20617070726f76652066726f6d20746865207a65726f2061646460008301527f72657373000000000000000000000000000000000000000000000000000000006020830152604082019050919050565b6000612fb5601c836134d9565b91507f596f7520646f6e2774206861766520656e6f7567682066756e64732e000000006000830152602082019050919050565b6000612ff5601d836134d9565b91507f504f4f4c3a2054686572652773206e6f2066756e647320656e6f7567680000006000830152602082019050919050565b60006130356025836134d9565b91507f45524332303a2064656372656173656420616c6c6f77616e63652062656c6f7760008301527f207a65726f0000000000000000000000000000000000000000000000000000006020830152604082019050919050565b600061309b601f836134d9565b91507f45524332303a206d696e7420746f20746865207a65726f2061646472657373006000830152602082019050919050565b6130d7816135bf565b82525050565b6130e6816135c9565b82525050565b60006020820190506131016000830184612a2f565b92915050565b600060608201905061311c6000830186612a2f565b6131296020830185612a2f565b61313660408301846130ce565b949350505050565b60006040820190506131536000830185612a2f565b61316060208301846130ce565b9392505050565b600060208201905061317c6000830184612a3e565b92915050565b6000602082019050818103600083015261319c8184612a4d565b905092915050565b600060208201905081810360008301526131bd81612a86565b9050919050565b600060208201905081810360008301526131dd81612aec565b9050919050565b600060208201905081810360008301526131fd81612b52565b9050919050565b6000602082019050818103600083015261321d81612bb8565b9050919050565b6000602082019050818103600083015261323d81612c1e565b9050919050565b6000602082019050818103600083015261325d81612c84565b9050919050565b6000602082019050818103600083015261327d81612cea565b9050919050565b6000602082019050818103600083015261329d81612d50565b9050919050565b600060208201905081810360008301526132bd81612d90565b9050919050565b600060208201905081810360008301526132dd81612df6565b9050919050565b600060208201905081810360008301526132fd81612e36565b9050919050565b6000602082019050818103600083015261331d81612e9c565b9050919050565b6000602082019050818103600083015261333d81612f02565b9050919050565b6000602082019050818103600083015261335d81612f42565b9050919050565b6000602082019050818103600083015261337d81612fa8565b9050919050565b6000602082019050818103600083015261339d81612fe8565b9050919050565b600060208201905081810360008301526133bd81613028565b9050919050565b600060208201905081810360008301526133dd8161308e565b9050919050565b60006020820190506133f960008301846130ce565b92915050565b600060a08201905061341460008301886130ce565b61342160208301876130ce565b61342e60408301866130ce565b61343b60608301856130ce565b6134486080830184612a3e565b9695505050505050565b600060208201905061346760008301846130dd565b92915050565b6000604051905081810181811067ffffffffffffffff821117156134945761349361370c565b5b8060405250919050565b600067ffffffffffffffff8211156134b9576134b861370c565b5b601f19601f8301169050602081019050919050565b600081519050919050565b600082825260208201905092915050565b60006134f5826135bf565b9150613500836135bf565b9250827fffffffffffffffffffffffffffffffffffffffffffffffffffffffffffffffff03821115613535576135346136ae565b5b828201905092915050565b600061354b826135bf565b9150613556836135bf565b925082821015613569576135686136ae565b5b828203905092915050565b600061357f8261359f565b9050919050565b60008115159050919050565b600081600f0b9050919050565b600073ffffffffffffffffffffffffffffffffffffffff82169050919050565b6000819050919050565b600060ff82169050919050565b60005b838110156135f45780820151818401526020810190506135d9565b83811115613603576000848401525b50505050565b6000613614826135bf565b91506000821415613628576136276136ae565b5b600182039050919050565b6000600282049050600182168061364b57607f821691505b6020821081141561365f5761365e6136dd565b5b50919050565b6000613670826135bf565b91507fffffffffffffffffffffffffffffffffffffffffffffffffffffffffffffffff8214156136a3576136a26136ae565b5b600182019050919050565b7f4e487b7100000000000000000000000000000000000000000000000000000000600052601160045260246000fd5b7f4e487b7100000000000000000000000000000000000000000000000000000000600052602260045260246000fd5b7f4e487b7100000000000000000000000000000000000000000000000000000000600052604160045260246000fd5b6000601f19601f8301169050919050565b61375581613574565b811461376057600080fd5b50565b61376c81613586565b811461377757600080fd5b50565b61378381613592565b811461378e57600080fd5b50565b61379a816135bf565b81146137a557600080fd5b5056fea26469706673582212204dbdb18d34a26c4a77a281dc72f0e1837a975071900f5183fecd284af1a0d4e264736f6c63430008000033",
  "immutableReferences": {
    "6042": [
      {
        "length": 32,
        "start": 1331
      },
      {
        "length": 32,
        "start": 1944
      },
      {
        "length": 32,
        "start": 2795
      }
    ],
    "6044": [
      {
        "length": 32,
        "start": 1428
      },
      {
        "length": 32,
        "start": 3611
      },
      {
        "length": 32,
        "start": 4805
      }
    ]
  },
  "source": "// SPDX-License-Identifier: MIT\npragma solidity >=0.8.0 <0.9.0;\n\n/**\n  @author Pedro Machado\n  @title POOL USDT/RUSD\n  @notice The present Smart Contract <SC> receives USDT as a strong currency \n  and mint the same amount from deposit function of RUSD. From this SC is where the PRTOCOL DIF \n  get money to funding of all INVOICE NFT that were minted by request from one tenant.    \n */\n\nimport \"@openzeppelin/contracts/token/ERC20/ERC20.sol\";\nimport \"@openzeppelin/contracts/access/Ownable.sol\";\nimport \"@openzeppelin/contracts/utils/Address.sol\";\nimport \"@openzeppelin/contracts/utils/math/SafeMath.sol\";\nimport \"@openzeppelin/contracts/token/ERC20/IERC20.sol\";\nimport \"./ABDKMath64x64.sol\";\nimport \"./INFT_FACTORY.sol\";\n\n\ncontract RUSD is ERC20, Ownable{\n  using Address for address;\n  \n  uint constant referencePeriod = 30; \n  uint minimumInvesting;\n  address immutable nftFactoryAddress;\n  address immutable usdtAddress; \n  uint32 lenghtListOut;\n\n  INFT_FACTORY NFT;\n  IERC20 USDT;\n\n  struct CUSTUMER {\n    uint intitialDate;\n    uint requestDate;\n    uint returnDate;\n    uint stakePeriod;\n    bool isWithdrawal;\n  }\n\n  mapping (address => CUSTUMER) public custumers;\n  // key is investor's numberList and value is requestDate \n  address[100] numberList;\n  mapping (uint => uint) private _dateOuts;\n  \n  mapping (uint => bool) private _existRquest;\n\n  event NEWDEPOSIT (address indexed recipient, uint amount);\n\n  constructor (uint _minimumInvesting, address _nftFactoryAddress, address _usdtAddress) ERC20(\"RESERVA USD\", \"RUSD\"){\n    require(_nftFactoryAddress.isContract() && _nftFactoryAddress != address(0), \"POOL: Error 0\");\n    require(_usdtAddress.isContract() && _usdtAddress != address(0), \"POOL: Error 1\");\n    nftFactoryAddress = _nftFactoryAddress;\n    usdtAddress = _usdtAddress;\n    minimumInvesting =  _minimumInvesting;\n  }\n  /// @dev Before someone call this function, the investor had to approve the current SC\n  /// to manage his USDT amount. Important trigger approve function before this\n  /// current function will be called.\n  function deposit (address _investor, uint _amount) external returns (bool) {\n    USDT = IERC20(usdtAddress);\n    require(! _investor.isContract() && _investor != address(0), \"POOL: Error\");\n    require(_amount >= minimumInvesting, \"Pool: The minimum of investing exceed the amount\");\n    USDT.transferFrom(_investor, address(this), _amount);\n    _mint(_investor, _amount);\n    custumers[_investor].intitialDate = _now();\n    emit NEWDEPOSIT(_investor, _amount);\n    return true;\n  }\n\n  function fundingNFT(uint tokenId) public onlyOwner returns (bool) {\n    NFT = INFT_FACTORY(nftFactoryAddress);\n    USDT = IERC20(usdtAddress);\n    ( , ,uint balanceAdvance, , , ,) = NFT.getData(tokenId);\n    NFT.safeTransferFrom(NFT.ownerOf(tokenId), nftFactoryAddress, tokenId);\n    USDT.transfer(NFT.ownerOf(tokenId), balanceAdvance);\n    return true;\n  }\n\n\n  function transferFunds(address investor, uint amount) public onlyOwner returns(bool) {\n    USDT = IERC20(usdtAddress);\n    require(numberList[0] != address(0), \"POOL: List is out\");\n    require(numberList[0] == investor, \"POOL: This investor is not the first in the list\");\n    require(balanceOf(investor) >= amount, \"You don't have enough funds.\");\n    require(USDT.balanceOf(address(this)) >= amount, \"POOL: There's no funds enough\");\n    uint range = 0;\n    while (numberList[range] != address(0)) {\n      range++;\n    }\n\n    for (uint i = 0; i <= range; i++) {\n      numberList[i] = numberList[i+1];\n      range--;\n    }\n\n    USDT.transfer(investor, amount);\n    _burn(investor, amount);\n    return true;\n  }\n\n  function requestWithdraw(address investor, uint amount) public returns(bool) {\n    \n  }\n\n\n  /// @dev return true if it is transfered succesfully investor's benefits. \n  /// This function is called once by day after mintRewars().\n  function stakeOf(address investor) public onlyOwner returns(bool) {\n    int128 _ratioOf = ABDKMath64x64.divu(balanceOf(investor), totalSupply()); \n    uint valueToSend = ABDKMath64x64.mulu(_ratioOf, balanceOf(address(this)));\n    transfer(investor, valueToSend);\n    return true;\n  }\n\n  /// @dev return true if it mint process is executed successfully\n  /// This function is called once by day, before that stakeOf(address investor)\n  function mintRewards() public onlyOwner returns(bool) {\n    uint amount = INFT_FACTORY(nftFactoryAddress).dailyInterestRUSD();\n    _mint(address(this), amount);\n    return true;\n  }\n\n  function _now() public view returns(uint) {\n      return block.timestamp;\n    }\n\n    \n  function _computeStakePeriod(uint _endDate, uint _startDate, uint ref) pure private returns (uint stakePeriod, uint remainingTime) {\n        require(_endDate != 0 && _startDate != 0 && ref != 0, \"Error\");\n        uint stampTime = SafeMath.div( SafeMath.sub(_endDate, _startDate), 1 days);\n        require(stampTime >= ref, \"Pool: You have to need complete at least one stake period.\");\n        uint r = stampTime % ref;\n        if (r != 0) {\n            stakePeriod = stampTime + (ref - r);\n        }\n        else {\n            stakePeriod = stampTime;\n        }   \n        return (stakePeriod, ref - r);\n    }\n\n    \n\n  \n}\n",
  "sourcePath": "/home/peter/Documents/Reserva/0-Reservafs/Proyectos/DIF_PROJECT/Code/DIFonBlockchain_Enumerable/contracts/RUSD.sol",
  "compiler": {
    "name": "solc",
    "version": "0.8.0+commit.c7dfd78e.Emscripten.clang"
  },
  "schemaVersion": "3.4.3",
  "updatedAt": "2021-12-16T05:43:48.461Z",
  "devdoc": {
    "kind": "dev",
    "methods": {
      "allowance(address,address)": {
        "details": "See {IERC20-allowance}."
      },
      "approve(address,uint256)": {
        "details": "See {IERC20-approve}. Requirements: - `spender` cannot be the zero address."
      },
      "balanceOf(address)": {
        "details": "See {IERC20-balanceOf}."
      },
      "decimals()": {
        "details": "Returns the number of decimals used to get its user representation. For example, if `decimals` equals `2`, a balance of `505` tokens should be displayed to a user as `5.05` (`505 / 10 ** 2`). Tokens usually opt for a value of 18, imitating the relationship between Ether and Wei. This is the value {ERC20} uses, unless this function is overridden; NOTE: This information is only used for _display_ purposes: it in no way affects any of the arithmetic of the contract, including {IERC20-balanceOf} and {IERC20-transfer}."
      },
      "decreaseAllowance(address,uint256)": {
        "details": "Atomically decreases the allowance granted to `spender` by the caller. This is an alternative to {approve} that can be used as a mitigation for problems described in {IERC20-approve}. Emits an {Approval} event indicating the updated allowance. Requirements: - `spender` cannot be the zero address. - `spender` must have allowance for the caller of at least `subtractedValue`."
      },
      "deposit(address,uint256)": {
        "details": "Before someone call this function, the investor had to approve the current SC to manage his USDT amount. Important trigger approve function before this current function will be called."
      },
      "increaseAllowance(address,uint256)": {
        "details": "Atomically increases the allowance granted to `spender` by the caller. This is an alternative to {approve} that can be used as a mitigation for problems described in {IERC20-approve}. Emits an {Approval} event indicating the updated allowance. Requirements: - `spender` cannot be the zero address."
      },
      "mintRewards()": {
        "details": "return true if it mint process is executed successfully This function is called once by day, before that stakeOf(address investor)"
      },
      "name()": {
        "details": "Returns the name of the token."
      },
      "owner()": {
        "details": "Returns the address of the current owner."
      },
      "renounceOwnership()": {
        "details": "Leaves the contract without owner. It will not be possible to call `onlyOwner` functions anymore. Can only be called by the current owner. NOTE: Renouncing ownership will leave the contract without an owner, thereby removing any functionality that is only available to the owner."
      },
      "stakeOf(address)": {
        "details": "return true if it is transfered succesfully investor's benefits.  This function is called once by day after mintRewars()."
      },
      "symbol()": {
        "details": "Returns the symbol of the token, usually a shorter version of the name."
      },
      "totalSupply()": {
        "details": "See {IERC20-totalSupply}."
      },
      "transfer(address,uint256)": {
        "details": "See {IERC20-transfer}. Requirements: - `recipient` cannot be the zero address. - the caller must have a balance of at least `amount`."
      },
      "transferFrom(address,address,uint256)": {
        "details": "See {IERC20-transferFrom}. Emits an {Approval} event indicating the updated allowance. This is not required by the EIP. See the note at the beginning of {ERC20}. Requirements: - `sender` and `recipient` cannot be the zero address. - `sender` must have a balance of at least `amount`. - the caller must have allowance for ``sender``'s tokens of at least `amount`."
      },
      "transferOwnership(address)": {
        "details": "Transfers ownership of the contract to a new account (`newOwner`). Can only be called by the current owner."
      }
    },
    "version": 1
  },
  "userdoc": {
    "kind": "user",
    "methods": {},
    "version": 1
  }
}