{
  "contractName": "RUSD",
  "abi": [
    {
      "inputs": [
        {
          "internalType": "uint256",
          "name": "_minimumInvesting",
          "type": "uint256"
        },
        {
          "internalType": "address",
          "name": "_nftFactoryAddress",
          "type": "address"
        },
        {
          "internalType": "address",
          "name": "_usdtAddress",
          "type": "address"
        }
      ],
      "stateMutability": "nonpayable",
      "type": "constructor"
    },
    {
      "anonymous": false,
      "inputs": [
        {
          "indexed": true,
          "internalType": "address",
          "name": "owner",
          "type": "address"
        },
        {
          "indexed": true,
          "internalType": "address",
          "name": "spender",
          "type": "address"
        },
        {
          "indexed": false,
          "internalType": "uint256",
          "name": "value",
          "type": "uint256"
        }
      ],
      "name": "Approval",
      "type": "event"
    },
    {
      "anonymous": false,
      "inputs": [
        {
          "indexed": true,
          "internalType": "address",
          "name": "recipient",
          "type": "address"
        },
        {
          "indexed": false,
          "internalType": "uint256",
          "name": "amount",
          "type": "uint256"
        }
      ],
      "name": "NEWDEPOSIT",
      "type": "event"
    },
    {
      "anonymous": false,
      "inputs": [
        {
          "indexed": true,
          "internalType": "address",
          "name": "previousOwner",
          "type": "address"
        },
        {
          "indexed": true,
          "internalType": "address",
          "name": "newOwner",
          "type": "address"
        }
      ],
      "name": "OwnershipTransferred",
      "type": "event"
    },
    {
      "anonymous": false,
      "inputs": [
        {
          "indexed": true,
          "internalType": "address",
          "name": "from",
          "type": "address"
        },
        {
          "indexed": true,
          "internalType": "address",
          "name": "to",
          "type": "address"
        },
        {
          "indexed": false,
          "internalType": "uint256",
          "name": "value",
          "type": "uint256"
        }
      ],
      "name": "Transfer",
      "type": "event"
    },
    {
      "inputs": [
        {
          "internalType": "address",
          "name": "owner",
          "type": "address"
        },
        {
          "internalType": "address",
          "name": "spender",
          "type": "address"
        }
      ],
      "name": "allowance",
      "outputs": [
        {
          "internalType": "uint256",
          "name": "",
          "type": "uint256"
        }
      ],
      "stateMutability": "view",
      "type": "function"
    },
    {
      "inputs": [
        {
          "internalType": "address",
          "name": "spender",
          "type": "address"
        },
        {
          "internalType": "uint256",
          "name": "amount",
          "type": "uint256"
        }
      ],
      "name": "approve",
      "outputs": [
        {
          "internalType": "bool",
          "name": "",
          "type": "bool"
        }
      ],
      "stateMutability": "nonpayable",
      "type": "function"
    },
    {
      "inputs": [
        {
          "internalType": "address",
          "name": "account",
          "type": "address"
        }
      ],
      "name": "balanceOf",
      "outputs": [
        {
          "internalType": "uint256",
          "name": "",
          "type": "uint256"
        }
      ],
      "stateMutability": "view",
      "type": "function"
    },
    {
      "inputs": [
        {
          "internalType": "address",
          "name": "",
          "type": "address"
        }
      ],
      "name": "custumers",
      "outputs": [
        {
          "internalType": "uint256",
          "name": "intitialDate",
          "type": "uint256"
        },
        {
          "internalType": "uint256",
          "name": "requestDate",
          "type": "uint256"
        },
        {
          "internalType": "uint256",
          "name": "returnDate",
          "type": "uint256"
        },
        {
          "internalType": "uint256",
          "name": "stakePeriod",
          "type": "uint256"
        },
        {
          "internalType": "uint256",
          "name": "pendingWithdraw",
          "type": "uint256"
        },
        {
          "internalType": "bool",
          "name": "locked",
          "type": "bool"
        },
        {
          "internalType": "bool",
          "name": "isWithdrawal",
          "type": "bool"
        }
      ],
      "stateMutability": "view",
      "type": "function"
    },
    {
      "inputs": [],
      "name": "decimals",
      "outputs": [
        {
          "internalType": "uint8",
          "name": "",
          "type": "uint8"
        }
      ],
      "stateMutability": "view",
      "type": "function"
    },
    {
      "inputs": [
        {
          "internalType": "address",
          "name": "spender",
          "type": "address"
        },
        {
          "internalType": "uint256",
          "name": "subtractedValue",
          "type": "uint256"
        }
      ],
      "name": "decreaseAllowance",
      "outputs": [
        {
          "internalType": "bool",
          "name": "",
          "type": "bool"
        }
      ],
      "stateMutability": "nonpayable",
      "type": "function"
    },
    {
      "inputs": [
        {
          "internalType": "address",
          "name": "spender",
          "type": "address"
        },
        {
          "internalType": "uint256",
          "name": "addedValue",
          "type": "uint256"
        }
      ],
      "name": "increaseAllowance",
      "outputs": [
        {
          "internalType": "bool",
          "name": "",
          "type": "bool"
        }
      ],
      "stateMutability": "nonpayable",
      "type": "function"
    },
    {
      "inputs": [],
      "name": "name",
      "outputs": [
        {
          "internalType": "string",
          "name": "",
          "type": "string"
        }
      ],
      "stateMutability": "view",
      "type": "function"
    },
    {
      "inputs": [
        {
          "internalType": "uint32",
          "name": "",
          "type": "uint32"
        }
      ],
      "name": "numberList",
      "outputs": [
        {
          "internalType": "uint256",
          "name": "",
          "type": "uint256"
        }
      ],
      "stateMutability": "view",
      "type": "function"
    },
    {
      "inputs": [],
      "name": "owner",
      "outputs": [
        {
          "internalType": "address",
          "name": "",
          "type": "address"
        }
      ],
      "stateMutability": "view",
      "type": "function"
    },
    {
      "inputs": [],
      "name": "renounceOwnership",
      "outputs": [],
      "stateMutability": "nonpayable",
      "type": "function"
    },
    {
      "inputs": [],
      "name": "symbol",
      "outputs": [
        {
          "internalType": "string",
          "name": "",
          "type": "string"
        }
      ],
      "stateMutability": "view",
      "type": "function"
    },
    {
      "inputs": [],
      "name": "totalSupply",
      "outputs": [
        {
          "internalType": "uint256",
          "name": "",
          "type": "uint256"
        }
      ],
      "stateMutability": "view",
      "type": "function"
    },
    {
      "inputs": [
        {
          "internalType": "address",
          "name": "recipient",
          "type": "address"
        },
        {
          "internalType": "uint256",
          "name": "amount",
          "type": "uint256"
        }
      ],
      "name": "transfer",
      "outputs": [
        {
          "internalType": "bool",
          "name": "",
          "type": "bool"
        }
      ],
      "stateMutability": "nonpayable",
      "type": "function"
    },
    {
      "inputs": [
        {
          "internalType": "address",
          "name": "sender",
          "type": "address"
        },
        {
          "internalType": "address",
          "name": "recipient",
          "type": "address"
        },
        {
          "internalType": "uint256",
          "name": "amount",
          "type": "uint256"
        }
      ],
      "name": "transferFrom",
      "outputs": [
        {
          "internalType": "bool",
          "name": "",
          "type": "bool"
        }
      ],
      "stateMutability": "nonpayable",
      "type": "function"
    },
    {
      "inputs": [
        {
          "internalType": "address",
          "name": "newOwner",
          "type": "address"
        }
      ],
      "name": "transferOwnership",
      "outputs": [],
      "stateMutability": "nonpayable",
      "type": "function"
    },
    {
      "inputs": [
        {
          "internalType": "address",
          "name": "_investor",
          "type": "address"
        },
        {
          "internalType": "uint256",
          "name": "_amount",
          "type": "uint256"
        }
      ],
      "name": "deposit",
      "outputs": [
        {
          "internalType": "bool",
          "name": "",
          "type": "bool"
        }
      ],
      "stateMutability": "nonpayable",
      "type": "function"
    },
    {
      "inputs": [
        {
          "internalType": "uint256",
          "name": "tokenId",
          "type": "uint256"
        }
      ],
      "name": "fundingNFT",
      "outputs": [
        {
          "internalType": "bool",
          "name": "",
          "type": "bool"
        }
      ],
      "stateMutability": "nonpayable",
      "type": "function"
    },
    {
      "inputs": [
        {
          "internalType": "address",
          "name": "investor",
          "type": "address"
        }
      ],
      "name": "transferFunds",
      "outputs": [
        {
          "internalType": "bool",
          "name": "",
          "type": "bool"
        }
      ],
      "stateMutability": "nonpayable",
      "type": "function"
    },
    {
      "inputs": [
        {
          "internalType": "address",
          "name": "investor",
          "type": "address"
        },
        {
          "internalType": "uint256",
          "name": "amount",
          "type": "uint256"
        }
      ],
      "name": "requestWithdraw",
      "outputs": [
        {
          "internalType": "bool",
          "name": "",
          "type": "bool"
        }
      ],
      "stateMutability": "nonpayable",
      "type": "function"
    },
    {
      "inputs": [
        {
          "internalType": "address",
          "name": "investor",
          "type": "address"
        }
      ],
      "name": "stakeOf",
      "outputs": [
        {
          "internalType": "bool",
          "name": "",
          "type": "bool"
        }
      ],
      "stateMutability": "nonpayable",
      "type": "function"
    },
    {
      "inputs": [],
      "name": "mintRewards",
      "outputs": [
        {
          "internalType": "bool",
          "name": "",
          "type": "bool"
        }
      ],
      "stateMutability": "nonpayable",
      "type": "function"
    },
    {
      "inputs": [],
      "name": "_now",
      "outputs": [
        {
          "internalType": "uint256",
          "name": "",
          "type": "uint256"
        }
      ],
      "stateMutability": "view",
      "type": "function"
    }
  ],
  "bytecode": "0x60c06040523480156200001157600080fd5b506040516200352238038062003522833981810160405281019062000037919062000484565b6040518060400160405280600b81526020017f52455345525641205553440000000000000000000000000000000000000000008152506040518060400160405280600481526020017f52555344000000000000000000000000000000000000000000000000000000008152508160039080519060200190620000bb929190620003a6565b508060049080519060200190620000d4929190620003a6565b505050620000f7620000eb620002c560201b60201c565b620002cd60201b60201c565b620001238273ffffffffffffffffffffffffffffffffffffffff166200039360201b620016211760201c565b80156200015d5750600073ffffffffffffffffffffffffffffffffffffffff168273ffffffffffffffffffffffffffffffffffffffff1614155b6200019f576040517f08c379a0000000000000000000000000000000000000000000000000000000008152600401620001969062000580565b60405180910390fd5b620001cb8173ffffffffffffffffffffffffffffffffffffffff166200039360201b620016211760201c565b8015620002055750600073ffffffffffffffffffffffffffffffffffffffff168173ffffffffffffffffffffffffffffffffffffffff1614155b62000247576040517f08c379a00000000000000000000000000000000000000000000000000000000081526004016200023e906200055e565b60405180910390fd5b8173ffffffffffffffffffffffffffffffffffffffff1660808173ffffffffffffffffffffffffffffffffffffffff1660601b815250508073ffffffffffffffffffffffffffffffffffffffff1660a08173ffffffffffffffffffffffffffffffffffffffff1660601b81525050826006819055505050506200068a565b600033905090565b6000600560009054906101000a900473ffffffffffffffffffffffffffffffffffffffff16905081600560006101000a81548173ffffffffffffffffffffffffffffffffffffffff021916908373ffffffffffffffffffffffffffffffffffffffff1602179055508173ffffffffffffffffffffffffffffffffffffffff168173ffffffffffffffffffffffffffffffffffffffff167f8be0079c531659141344cd1fd0a4f28419497f9722a3daafe3b4186f6b6457e060405160405180910390a35050565b600080823b905060008111915050919050565b828054620003b490620005f1565b90600052602060002090601f016020900481019282620003d8576000855562000424565b82601f10620003f357805160ff191683800117855562000424565b8280016001018555821562000424579182015b828111156200042357825182559160200191906001019062000406565b5b50905062000433919062000437565b5090565b5b808211156200045257600081600090555060010162000438565b5090565b600081519050620004678162000656565b92915050565b6000815190506200047e8162000670565b92915050565b6000806000606084860312156200049a57600080fd5b6000620004aa868287016200046d565b9350506020620004bd8682870162000456565b9250506040620004d08682870162000456565b9150509250925092565b6000620004e9600d83620005a2565b91507f504f4f4c3a204572726f722031000000000000000000000000000000000000006000830152602082019050919050565b60006200052b600d83620005a2565b91507f504f4f4c3a204572726f722030000000000000000000000000000000000000006000830152602082019050919050565b600060208201905081810360008301526200057981620004da565b9050919050565b600060208201905081810360008301526200059b816200051c565b9050919050565b600082825260208201905092915050565b6000620005c082620005c7565b9050919050565b600073ffffffffffffffffffffffffffffffffffffffff82169050919050565b6000819050919050565b600060028204905060018216806200060a57607f821691505b6020821081141562000621576200062062000627565b5b50919050565b7f4e487b7100000000000000000000000000000000000000000000000000000000600052602260045260246000fd5b6200066181620005b3565b81146200066d57600080fd5b50565b6200067b81620005e7565b81146200068757600080fd5b50565b60805160601c60a05160601c612e57620006cb600039600081816105d10152610e71015260008181610570015281816107d50152610b410152612e576000f3fe608060405234801561001057600080fd5b506004361061014d5760003560e01c806347e7ef24116100c3578063a9059cbb1161007c578063a9059cbb146103f6578063b3bb8cd414610426578063cab7dd8114610444578063dd62ed3e14610474578063e39ff19f146104a4578063f2fde38b146104d45761014d565b806347e7ef241461032057806370a0823114610350578063715018a6146103805780638da5cb5b1461038a57806395d89b41146103a8578063a457c2d7146103c65761014d565b8063234cb05111610115578063234cb0511461022457806323b872dd14610242578063313ce567146102725780633950935114610290578063397a1b28146102c057806342623360146102f05761014d565b806306a6213c1461015257806306fdde0314610182578063095ea7b3146101a057806318160ddd146101d05780631ae0b2c3146101ee575b600080fd5b61016c60048036038101906101679190612343565b6104f0565b6040516101799190612904565b60405180910390f35b61018a6109a9565b604051610197919061291f565b60405180910390f35b6101ba60048036038101906101b59190612228565b610a3b565b6040516101c79190612904565b60405180910390f35b6101d8610a59565b6040516101e59190612ac1565b60405180910390f35b6102086004803603810190610203919061214b565b610a63565b60405161021b9796959493929190612adc565b60405180910390f35b61022c610abf565b6040516102399190612904565b60405180910390f35b61025c600480360381019061025791906121d9565b610bf1565b6040516102699190612904565b60405180910390f35b61027a610ce9565b6040516102879190612b4b565b60405180910390f35b6102aa60048036038101906102a59190612228565b610cf2565b6040516102b79190612904565b60405180910390f35b6102da60048036038101906102d59190612228565b610d9e565b6040516102e79190612904565b60405180910390f35b61030a6004803603810190610305919061214b565b610da6565b6040516103179190612904565b60405180910390f35b61033a60048036038101906103359190612228565b610e6d565b6040516103479190612904565b60405180910390f35b61036a6004803603810190610365919061214b565b61116a565b6040516103779190612ac1565b60405180910390f35b6103886111b2565b005b61039261123a565b60405161039f9190612889565b60405180910390f35b6103b0611264565b6040516103bd919061291f565b60405180910390f35b6103e060048036038101906103db9190612228565b6112f6565b6040516103ed9190612904565b60405180910390f35b610410600480360381019061040b9190612228565b6113e1565b60405161041d9190612904565b60405180910390f35b61042e6113ff565b60405161043b9190612ac1565b60405180910390f35b61045e60048036038101906104599190612395565b611407565b60405161046b9190612ac1565b60405180910390f35b61048e6004803603810190610489919061219d565b61141f565b60405161049b9190612ac1565b60405180910390f35b6104be60048036038101906104b9919061214b565b6114a6565b6040516104cb9190612904565b60405180910390f35b6104ee60048036038101906104e9919061214b565b611529565b005b60006104fa611634565b73ffffffffffffffffffffffffffffffffffffffff1661051861123a565b73ffffffffffffffffffffffffffffffffffffffff161461056e576040517f08c379a000000000000000000000000000000000000000000000000000000000815260040161056590612a21565b60405180910390fd5b7f0000000000000000000000000000000000000000000000000000000000000000600760046101000a81548173ffffffffffffffffffffffffffffffffffffffff021916908373ffffffffffffffffffffffffffffffffffffffff1602179055507f0000000000000000000000000000000000000000000000000000000000000000600860006101000a81548173ffffffffffffffffffffffffffffffffffffffff021916908373ffffffffffffffffffffffffffffffffffffffff1602179055506000600760049054906101000a900473ffffffffffffffffffffffffffffffffffffffff1673ffffffffffffffffffffffffffffffffffffffff16630178fe3f846040518263ffffffff1660e01b815260040161068d9190612ac1565b60006040518083038186803b1580156106a557600080fd5b505afa1580156106b9573d6000803e3d6000fd5b505050506040513d6000823e3d601f19601f820116820180604052508101906106e2919061228d565b5050505092505050600760049054906101000a900473ffffffffffffffffffffffffffffffffffffffff1673ffffffffffffffffffffffffffffffffffffffff166342842e0e600760049054906101000a900473ffffffffffffffffffffffffffffffffffffffff1673ffffffffffffffffffffffffffffffffffffffff16636352211e866040518263ffffffff1660e01b81526004016107839190612ac1565b60206040518083038186803b15801561079b57600080fd5b505afa1580156107af573d6000803e3d6000fd5b505050506040513d601f19601f820116820180604052508101906107d39190612174565b7f0000000000000000000000000000000000000000000000000000000000000000866040518463ffffffff1660e01b8152600401610813939291906128a4565b600060405180830381600087803b15801561082d57600080fd5b505af1158015610841573d6000803e3d6000fd5b50505050600860009054906101000a900473ffffffffffffffffffffffffffffffffffffffff1673ffffffffffffffffffffffffffffffffffffffff1663a9059cbb600760049054906101000a900473ffffffffffffffffffffffffffffffffffffffff1673ffffffffffffffffffffffffffffffffffffffff16636352211e866040518263ffffffff1660e01b81526004016108de9190612ac1565b60206040518083038186803b1580156108f657600080fd5b505afa15801561090a573d6000803e3d6000fd5b505050506040513d601f19601f8201168201806040525081019061092e9190612174565b836040518363ffffffff1660e01b815260040161094c9291906128db565b602060405180830381600087803b15801561096657600080fd5b505af115801561097a573d6000803e3d6000fd5b505050506040513d601f19601f8201168201806040525081019061099e9190612264565b506001915050919050565b6060600380546109b890612cde565b80601f01602080910402602001604051908101604052809291908181526020018280546109e490612cde565b8015610a315780601f10610a0657610100808354040283529160200191610a31565b820191906000526020600020905b815481529060010190602001808311610a1457829003601f168201915b5050505050905090565b6000610a4f610a48611634565b848461163c565b6001905092915050565b6000600254905090565b60096020528060005260406000206000915090508060000154908060010154908060020154908060030154908060040154908060050160009054906101000a900460ff16908060050160019054906101000a900460ff16905087565b6000610ac9611634565b73ffffffffffffffffffffffffffffffffffffffff16610ae761123a565b73ffffffffffffffffffffffffffffffffffffffff1614610b3d576040517f08c379a0000000000000000000000000000000000000000000000000000000008152600401610b3490612a21565b60405180910390fd5b60007f000000000000000000000000000000000000000000000000000000000000000073ffffffffffffffffffffffffffffffffffffffff1663dd036e636040518163ffffffff1660e01b815260040160206040518083038186803b158015610ba557600080fd5b505afa158015610bb9573d6000803e3d6000fd5b505050506040513d601f19601f82011682018060405250810190610bdd919061236c565b9050610be93082611807565b600191505090565b6000610bfe848484611967565b6000600160008673ffffffffffffffffffffffffffffffffffffffff1673ffffffffffffffffffffffffffffffffffffffff1681526020019081526020016000206000610c49611634565b73ffffffffffffffffffffffffffffffffffffffff1673ffffffffffffffffffffffffffffffffffffffff16815260200190815260200160002054905082811015610cc9576040517f08c379a0000000000000000000000000000000000000000000000000000000008152600401610cc090612a01565b60405180910390fd5b610cdd85610cd5611634565b85840361163c565b60019150509392505050565b60006012905090565b6000610d94610cff611634565b848460016000610d0d611634565b73ffffffffffffffffffffffffffffffffffffffff1673ffffffffffffffffffffffffffffffffffffffff16815260200190815260200160002060008873ffffffffffffffffffffffffffffffffffffffff1673ffffffffffffffffffffffffffffffffffffffff16815260200190815260200160002054610d8f9190612be3565b61163c565b6001905092915050565b600092915050565b6000610db0611634565b73ffffffffffffffffffffffffffffffffffffffff16610dce61123a565b73ffffffffffffffffffffffffffffffffffffffff1614610e24576040517f08c379a0000000000000000000000000000000000000000000000000000000008152600401610e1b90612a21565b60405180910390fd5b6000610e3f610e328461116a565b610e3a610a59565b611be8565b90506000610e5582610e503061116a565b611c50565b9050610e6184826113e1565b50600192505050919050565b60007f0000000000000000000000000000000000000000000000000000000000000000600860006101000a81548173ffffffffffffffffffffffffffffffffffffffff021916908373ffffffffffffffffffffffffffffffffffffffff160217905550610eef8373ffffffffffffffffffffffffffffffffffffffff16611621565b158015610f295750600073ffffffffffffffffffffffffffffffffffffffff168373ffffffffffffffffffffffffffffffffffffffff1614155b610f68576040517f08c379a0000000000000000000000000000000000000000000000000000000008152600401610f5f906129e1565b60405180910390fd5b600654821015610fad576040517f08c379a0000000000000000000000000000000000000000000000000000000008152600401610fa490612961565b60405180910390fd5b600860009054906101000a900473ffffffffffffffffffffffffffffffffffffffff1673ffffffffffffffffffffffffffffffffffffffff166323b872dd8430856040518463ffffffff1660e01b815260040161100c939291906128a4565b602060405180830381600087803b15801561102657600080fd5b505af115801561103a573d6000803e3d6000fd5b505050506040513d601f19601f8201168201806040525081019061105e9190612264565b506110698383611807565b6110716113ff565b600960008573ffffffffffffffffffffffffffffffffffffffff1673ffffffffffffffffffffffffffffffffffffffff168152602001908152602001600020600001819055506001600960008573ffffffffffffffffffffffffffffffffffffffff1673ffffffffffffffffffffffffffffffffffffffff16815260200190815260200160002060050160006101000a81548160ff0219169083151502179055508273ffffffffffffffffffffffffffffffffffffffff167fe10a6bdf0489ec1f7493f091bb7e79a4691ed8c3cb5c90c8572ba2a58b295b55836040516111589190612ac1565b60405180910390a26001905092915050565b60008060008373ffffffffffffffffffffffffffffffffffffffff1673ffffffffffffffffffffffffffffffffffffffff168152602001908152602001600020549050919050565b6111ba611634565b73ffffffffffffffffffffffffffffffffffffffff166111d861123a565b73ffffffffffffffffffffffffffffffffffffffff161461122e576040517f08c379a000000000000000000000000000000000000000000000000000000000815260040161122590612a21565b60405180910390fd5b6112386000611d0b565b565b6000600560009054906101000a900473ffffffffffffffffffffffffffffffffffffffff16905090565b60606004805461127390612cde565b80601f016020809104026020016040519081016040528092919081815260200182805461129f90612cde565b80156112ec5780601f106112c1576101008083540402835291602001916112ec565b820191906000526020600020905b8154815290600101906020018083116112cf57829003601f168201915b5050505050905090565b60008060016000611305611634565b73ffffffffffffffffffffffffffffffffffffffff1673ffffffffffffffffffffffffffffffffffffffff16815260200190815260200160002060008573ffffffffffffffffffffffffffffffffffffffff1673ffffffffffffffffffffffffffffffffffffffff168152602001908152602001600020549050828110156113c2576040517f08c379a00000000000000000000000000000000000000000000000000000000081526004016113b990612a81565b60405180910390fd5b6113d66113cd611634565b8585840361163c565b600191505092915050565b60006113f56113ee611634565b8484611967565b6001905092915050565b600042905090565b600a6020528060005260406000206000915090505481565b6000600160008473ffffffffffffffffffffffffffffffffffffffff1673ffffffffffffffffffffffffffffffffffffffff16815260200190815260200160002060008373ffffffffffffffffffffffffffffffffffffffff1673ffffffffffffffffffffffffffffffffffffffff16815260200190815260200160002054905092915050565b60006114b0611634565b73ffffffffffffffffffffffffffffffffffffffff166114ce61123a565b73ffffffffffffffffffffffffffffffffffffffff1614611524576040517f08c379a000000000000000000000000000000000000000000000000000000000815260040161151b90612a21565b60405180910390fd5b919050565b611531611634565b73ffffffffffffffffffffffffffffffffffffffff1661154f61123a565b73ffffffffffffffffffffffffffffffffffffffff16146115a5576040517f08c379a000000000000000000000000000000000000000000000000000000000815260040161159c90612a21565b60405180910390fd5b600073ffffffffffffffffffffffffffffffffffffffff168173ffffffffffffffffffffffffffffffffffffffff161415611615576040517f08c379a000000000000000000000000000000000000000000000000000000000815260040161160c90612981565b60405180910390fd5b61161e81611d0b565b50565b600080823b905060008111915050919050565b600033905090565b600073ffffffffffffffffffffffffffffffffffffffff168373ffffffffffffffffffffffffffffffffffffffff1614156116ac576040517f08c379a00000000000000000000000000000000000000000000000000000000081526004016116a390612a61565b60405180910390fd5b600073ffffffffffffffffffffffffffffffffffffffff168273ffffffffffffffffffffffffffffffffffffffff16141561171c576040517f08c379a0000000000000000000000000000000000000000000000000000000008152600401611713906129a1565b60405180910390fd5b80600160008573ffffffffffffffffffffffffffffffffffffffff1673ffffffffffffffffffffffffffffffffffffffff16815260200190815260200160002060008473ffffffffffffffffffffffffffffffffffffffff1673ffffffffffffffffffffffffffffffffffffffff168152602001908152602001600020819055508173ffffffffffffffffffffffffffffffffffffffff168373ffffffffffffffffffffffffffffffffffffffff167f8c5be1e5ebec7d5bd14f71427d1e84f3dd0314c0f7b2291e5b200ac8c7c3b925836040516117fa9190612ac1565b60405180910390a3505050565b600073ffffffffffffffffffffffffffffffffffffffff168273ffffffffffffffffffffffffffffffffffffffff161415611877576040517f08c379a000000000000000000000000000000000000000000000000000000000815260040161186e90612aa1565b60405180910390fd5b61188360008383611dd1565b80600260008282546118959190612be3565b92505081905550806000808473ffffffffffffffffffffffffffffffffffffffff1673ffffffffffffffffffffffffffffffffffffffff16815260200190815260200160002060008282546118ea9190612be3565b925050819055508173ffffffffffffffffffffffffffffffffffffffff16600073ffffffffffffffffffffffffffffffffffffffff167fddf252ad1be2c89b69c2b068fc378daa952ba7f163c4a11628f55a4df523b3ef8360405161194f9190612ac1565b60405180910390a361196360008383611dd6565b5050565b600073ffffffffffffffffffffffffffffffffffffffff168373ffffffffffffffffffffffffffffffffffffffff1614156119d7576040517f08c379a00000000000000000000000000000000000000000000000000000000081526004016119ce90612a41565b60405180910390fd5b600073ffffffffffffffffffffffffffffffffffffffff168273ffffffffffffffffffffffffffffffffffffffff161415611a47576040517f08c379a0000000000000000000000000000000000000000000000000000000008152600401611a3e90612941565b60405180910390fd5b611a52838383611dd1565b60008060008573ffffffffffffffffffffffffffffffffffffffff1673ffffffffffffffffffffffffffffffffffffffff16815260200190815260200160002054905081811015611ad8576040517f08c379a0000000000000000000000000000000000000000000000000000000008152600401611acf906129c1565b60405180910390fd5b8181036000808673ffffffffffffffffffffffffffffffffffffffff1673ffffffffffffffffffffffffffffffffffffffff16815260200190815260200160002081905550816000808573ffffffffffffffffffffffffffffffffffffffff1673ffffffffffffffffffffffffffffffffffffffff1681526020019081526020016000206000828254611b6b9190612be3565b925050819055508273ffffffffffffffffffffffffffffffffffffffff168473ffffffffffffffffffffffffffffffffffffffff167fddf252ad1be2c89b69c2b068fc378daa952ba7f163c4a11628f55a4df523b3ef84604051611bcf9190612ac1565b60405180910390a3611be2848484611dd6565b50505050565b600080821415611bf757600080fd5b6000611c038484611ddb565b90506f7fffffffffffffffffffffffffffffff6fffffffffffffffffffffffffffffffff16816fffffffffffffffffffffffffffffffff161115611c4657600080fd5b8091505092915050565b600080821415611c635760009050611d05565b600083600f0b1215611c7457600080fd5b600060406fffffffffffffffffffffffffffffffff841685600f0b02901c90506000608084901c85600f0b02905077ffffffffffffffffffffffffffffffffffffffffffffffff811115611cc757600080fd5b604081901b9050817fffffffffffffffffffffffffffffffffffffffffffffffffffffffffffffffff03811115611cfd57600080fd5b818101925050505b92915050565b6000600560009054906101000a900473ffffffffffffffffffffffffffffffffffffffff16905081600560006101000a81548173ffffffffffffffffffffffffffffffffffffffff021916908373ffffffffffffffffffffffffffffffffffffffff1602179055508173ffffffffffffffffffffffffffffffffffffffff168173ffffffffffffffffffffffffffffffffffffffff167f8be0079c531659141344cd1fd0a4f28419497f9722a3daafe3b4186f6b6457e060405160405180910390a35050565b505050565b505050565b600080821415611dea57600080fd5b600077ffffffffffffffffffffffffffffffffffffffffffffffff8411611e4d5782604085901b81611e45577f4e487b7100000000000000000000000000000000000000000000000000000000600052601260045260246000fd5b049050612029565b600060c09050600060c086901c90506401000000008110611e7657602081901c90506020820191505b620100008110611e8e57601081901c90506010820191505b6101008110611ea557600881901c90506008820191505b60108110611ebb57600481901c90506004820191505b60048110611ed157600281901c90506002820191505b60028110611ee0576001820191505b600160bf830360018703901c018260ff0387901b81611f28577f4e487b7100000000000000000000000000000000000000000000000000000000600052601260045260246000fd5b0492506fffffffffffffffffffffffffffffffff831115611f4857600080fd5b6000608086901c8402905060006fffffffffffffffffffffffffffffffff871685029050600060c089901c9050600060408a901b905082811015611f8d576001820391505b8281039050608084901b925082811015611fa8576001820391505b8281039050608084901c8214611fe7577f4e487b7100000000000000000000000000000000000000000000000000000000600052600160045260246000fd5b88818161201d577f4e487b7100000000000000000000000000000000000000000000000000000000600052601260045260246000fd5b04870196505050505050505b6fffffffffffffffffffffffffffffffff81111561204657600080fd5b8091505092915050565b600061206361205e84612b97565b612b66565b90508281526020810184848401111561207b57600080fd5b612086848285612cab565b509392505050565b60008135905061209d81612dae565b92915050565b6000815190506120b281612dae565b92915050565b6000815190506120c781612dc5565b92915050565b6000815190506120dc81612ddc565b92915050565b600082601f8301126120f357600080fd5b8151612103848260208601612050565b91505092915050565b60008135905061211b81612df3565b92915050565b60008151905061213081612df3565b92915050565b60008135905061214581612e0a565b92915050565b60006020828403121561215d57600080fd5b600061216b8482850161208e565b91505092915050565b60006020828403121561218657600080fd5b6000612194848285016120a3565b91505092915050565b600080604083850312156121b057600080fd5b60006121be8582860161208e565b92505060206121cf8582860161208e565b9150509250929050565b6000806000606084860312156121ee57600080fd5b60006121fc8682870161208e565b935050602061220d8682870161208e565b925050604061221e8682870161210c565b9150509250925092565b6000806040838503121561223b57600080fd5b60006122498582860161208e565b925050602061225a8582860161210c565b9150509250929050565b60006020828403121561227657600080fd5b6000612284848285016120b8565b91505092915050565b600080600080600080600060e0888a0312156122a857600080fd5b600088015167ffffffffffffffff8111156122c257600080fd5b6122ce8a828b016120e2565b97505060206122df8a828b01612121565b96505060406122f08a828b01612121565b95505060606123018a828b01612121565b94505060806123128a828b016120cd565b93505060a06123238a828b016120cd565b92505060c06123348a828b016120a3565b91505092959891949750929550565b60006020828403121561235557600080fd5b60006123638482850161210c565b91505092915050565b60006020828403121561237e57600080fd5b600061238c84828501612121565b91505092915050565b6000602082840312156123a757600080fd5b60006123b584828501612136565b91505092915050565b6123c781612c39565b82525050565b6123d681612c4b565b82525050565b60006123e782612bc7565b6123f18185612bd2565b9350612401818560208601612cab565b61240a81612d9d565b840191505092915050565b6000612422602383612bd2565b91507f45524332303a207472616e7366657220746f20746865207a65726f206164647260008301527f65737300000000000000000000000000000000000000000000000000000000006020830152604082019050919050565b6000612488603083612bd2565b91507f506f6f6c3a20546865206d696e696d756d206f6620696e76657374696e67206560008301527f78636565642074686520616d6f756e74000000000000000000000000000000006020830152604082019050919050565b60006124ee602683612bd2565b91507f4f776e61626c653a206e6577206f776e657220697320746865207a65726f206160008301527f64647265737300000000000000000000000000000000000000000000000000006020830152604082019050919050565b6000612554602283612bd2565b91507f45524332303a20617070726f766520746f20746865207a65726f20616464726560008301527f73730000000000000000000000000000000000000000000000000000000000006020830152604082019050919050565b60006125ba602683612bd2565b91507f45524332303a207472616e7366657220616d6f756e742065786365656473206260008301527f616c616e636500000000000000000000000000000000000000000000000000006020830152604082019050919050565b6000612620600b83612bd2565b91507f504f4f4c3a204572726f720000000000000000000000000000000000000000006000830152602082019050919050565b6000612660602883612bd2565b91507f45524332303a207472616e7366657220616d6f756e742065786365656473206160008301527f6c6c6f77616e63650000000000000000000000000000000000000000000000006020830152604082019050919050565b60006126c6602083612bd2565b91507f4f776e61626c653a2063616c6c6572206973206e6f7420746865206f776e65726000830152602082019050919050565b6000612706602583612bd2565b91507f45524332303a207472616e736665722066726f6d20746865207a65726f20616460008301527f64726573730000000000000000000000000000000000000000000000000000006020830152604082019050919050565b600061276c602483612bd2565b91507f45524332303a20617070726f76652066726f6d20746865207a65726f2061646460008301527f72657373000000000000000000000000000000000000000000000000000000006020830152604082019050919050565b60006127d2602583612bd2565b91507f45524332303a2064656372656173656420616c6c6f77616e63652062656c6f7760008301527f207a65726f0000000000000000000000000000000000000000000000000000006020830152604082019050919050565b6000612838601f83612bd2565b91507f45524332303a206d696e7420746f20746865207a65726f2061646472657373006000830152602082019050919050565b61287481612c84565b82525050565b61288381612c9e565b82525050565b600060208201905061289e60008301846123be565b92915050565b60006060820190506128b960008301866123be565b6128c660208301856123be565b6128d3604083018461286b565b949350505050565b60006040820190506128f060008301856123be565b6128fd602083018461286b565b9392505050565b600060208201905061291960008301846123cd565b92915050565b6000602082019050818103600083015261293981846123dc565b905092915050565b6000602082019050818103600083015261295a81612415565b9050919050565b6000602082019050818103600083015261297a8161247b565b9050919050565b6000602082019050818103600083015261299a816124e1565b9050919050565b600060208201905081810360008301526129ba81612547565b9050919050565b600060208201905081810360008301526129da816125ad565b9050919050565b600060208201905081810360008301526129fa81612613565b9050919050565b60006020820190508181036000830152612a1a81612653565b9050919050565b60006020820190508181036000830152612a3a816126b9565b9050919050565b60006020820190508181036000830152612a5a816126f9565b9050919050565b60006020820190508181036000830152612a7a8161275f565b9050919050565b60006020820190508181036000830152612a9a816127c5565b9050919050565b60006020820190508181036000830152612aba8161282b565b9050919050565b6000602082019050612ad6600083018461286b565b92915050565b600060e082019050612af1600083018a61286b565b612afe602083018961286b565b612b0b604083018861286b565b612b18606083018761286b565b612b25608083018661286b565b612b3260a08301856123cd565b612b3f60c08301846123cd565b98975050505050505050565b6000602082019050612b60600083018461287a565b92915050565b6000604051905081810181811067ffffffffffffffff82111715612b8d57612b8c612d6e565b5b8060405250919050565b600067ffffffffffffffff821115612bb257612bb1612d6e565b5b601f19601f8301169050602081019050919050565b600081519050919050565b600082825260208201905092915050565b6000612bee82612c84565b9150612bf983612c84565b9250827fffffffffffffffffffffffffffffffffffffffffffffffffffffffffffffffff03821115612c2e57612c2d612d10565b5b828201905092915050565b6000612c4482612c64565b9050919050565b60008115159050919050565b600081600f0b9050919050565b600073ffffffffffffffffffffffffffffffffffffffff82169050919050565b6000819050919050565b600063ffffffff82169050919050565b600060ff82169050919050565b60005b83811015612cc9578082015181840152602081019050612cae565b83811115612cd8576000848401525b50505050565b60006002820490506001821680612cf657607f821691505b60208210811415612d0a57612d09612d3f565b5b50919050565b7f4e487b7100000000000000000000000000000000000000000000000000000000600052601160045260246000fd5b7f4e487b7100000000000000000000000000000000000000000000000000000000600052602260045260246000fd5b7f4e487b7100000000000000000000000000000000000000000000000000000000600052604160045260246000fd5b6000601f19601f8301169050919050565b612db781612c39565b8114612dc257600080fd5b50565b612dce81612c4b565b8114612dd957600080fd5b50565b612de581612c57565b8114612df057600080fd5b50565b612dfc81612c84565b8114612e0757600080fd5b50565b612e1381612c8e565b8114612e1e57600080fd5b5056fea26469706673582212202c752b22e1088a6245fbed6aea74de42253e32da09977ee308f74436489f247f64736f6c63430008000033",
  "immutableReferences": {
    "6768": [
      {
        "length": 32,
        "start": 1392
      },
      {
        "length": 32,
        "start": 2005
      },
      {
        "length": 32,
        "start": 2881
      }
    ],
    "6770": [
      {
        "length": 32,
        "start": 1489
      },
      {
        "length": 32,
        "start": 3697
      }
    ]
  },
  "source": "// SPDX-License-Identifier: MIT\npragma solidity >=0.8.0 <0.9.0;\n\n/**\n  @author Pedro Machado\n  @title POOL USDT/RUSD\n  @notice The present Smart Contract <SC> receives USDT as a strong currency \n  and mint the same amount from deposit function of RUSD. From this SC is where the PRTOCOL DIF \n  get money to funding of all INVOICE NFT that were minted by request from one tenant.    \n */\n\nimport \"@openzeppelin/contracts/token/ERC20/ERC20.sol\";\nimport \"@openzeppelin/contracts/access/Ownable.sol\";\nimport \"@openzeppelin/contracts/utils/Address.sol\";\nimport \"@openzeppelin/contracts/utils/math/SafeMath.sol\";\nimport \"@openzeppelin/contracts/token/ERC20/IERC20.sol\";\nimport \"./ABDKMath64x64.sol\";\nimport \"./INFT_FACTORY.sol\";\n\n\ncontract RUSD is ERC20, Ownable{\n  using Address for address;\n  \n  uint constant referencePeriod = 30; \n  uint minimumInvesting;\n  address immutable nftFactoryAddress;\n  address immutable usdtAddress; \n  uint32 lenghtListOut;\n\n  INFT_FACTORY NFT;\n  IERC20 USDT;\n\n  struct CUSTUMER {\n    uint intitialDate;\n    uint requestDate;\n    uint returnDate;\n    uint stakePeriod;\n    uint pendingWithdraw;\n    bool locked;\n    bool isWithdrawal;\n  }\n\n  mapping (address => CUSTUMER) public custumers;\n  // key is investor's numberList and value is requestDate \n  mapping (uint32 => uint) public numberList;\n  mapping (uint => bool) private _existRquest;\n\n  event NEWDEPOSIT (address indexed recipient, uint amount);\n\n  constructor (uint _minimumInvesting, address _nftFactoryAddress, address _usdtAddress) ERC20(\"RESERVA USD\", \"RUSD\"){\n    require(_nftFactoryAddress.isContract() && _nftFactoryAddress != address(0), \"POOL: Error 0\");\n    require(_usdtAddress.isContract() && _usdtAddress != address(0), \"POOL: Error 1\");\n    nftFactoryAddress = _nftFactoryAddress;\n    usdtAddress = _usdtAddress;\n    minimumInvesting =  _minimumInvesting;\n  }\n  /// @dev Before someone call this function, the investor had to approve the current SC\n  /// to manage his USDT amount. Important trigger approve function before this\n  /// current function will be called.\n  function deposit (address _investor, uint _amount) external returns (bool) {\n    USDT = IERC20(usdtAddress);\n    require(! _investor.isContract() && _investor != address(0), \"POOL: Error\");\n    require(_amount >= minimumInvesting, \"Pool: The minimum of investing exceed the amount\");\n    USDT.transferFrom(_investor, address(this), _amount);\n    _mint(_investor, _amount);\n    custumers[_investor].intitialDate = _now();\n    custumers[_investor].locked = true;\n    emit NEWDEPOSIT(_investor, _amount);\n    return true;\n  }\n\n  function fundingNFT(uint tokenId) public onlyOwner returns (bool) {\n    NFT = INFT_FACTORY(nftFactoryAddress);\n    USDT = IERC20(usdtAddress);\n    ( , ,uint balanceAdvance, , , ,) = NFT.getData(tokenId);\n    NFT.safeTransferFrom(NFT.ownerOf(tokenId), nftFactoryAddress, tokenId);\n    USDT.transfer(NFT.ownerOf(tokenId), balanceAdvance);\n    return true;\n  }\n\n\n  function transferFunds(address investor) public onlyOwner returns(bool) {\n\n\n  }\n\n  function requestWithdraw(address investor, uint amount) public returns(bool) {\n    \n  }\n\n\n  /// @dev return true if it is transfered succesfully investor's benefits. \n  /// This function is called once by day after mintRewars().\n  function stakeOf(address investor) public onlyOwner returns(bool) {\n    int128 _ratioOf = ABDKMath64x64.divu(balanceOf(investor), totalSupply()); \n    uint valueToSend = ABDKMath64x64.mulu(_ratioOf, balanceOf(address(this)));\n    transfer(investor, valueToSend);\n    return true;\n  }\n\n  /// @dev return true if it mint process is executed successfully\n  /// This function is called once by day, before that stakeOf(address investor)\n  function mintRewards() public onlyOwner returns(bool) {\n    uint amount = INFT_FACTORY(nftFactoryAddress).dailyInterestRUSD();\n    _mint(address(this), amount);\n    return true;\n  }\n\n  function _now() public view returns(uint) {\n      return block.timestamp;\n    }\n\n    \n  function _computeStakePeriod(uint _endDate, uint _startDate, uint ref) pure private returns (uint stakePeriod, uint remainingTime) {\n        require(_endDate != 0 && _startDate != 0 && ref != 0, \"Error\");\n        uint stampTime = SafeMath.div( SafeMath.sub(_endDate, _startDate), 1 days);\n        require(stampTime >= ref, \"Pool: You have to need complete at least one stake period.\");\n        uint r = stampTime % ref;\n        if (r != 0) {\n            stakePeriod = stampTime + (ref - r);\n        }\n        else {\n            stakePeriod = stampTime;\n        }   \n        return (stakePeriod, ref - r);\n    }\n\n    \n\n  \n}\n",
  "sourcePath": "/home/peter/Documents/Reserva/0-Reservafs/Proyectos/DIF_PROJECT/Code/DIFonBlockchain_Enumerable/contracts/RUSD.sol",
  "compiler": {
    "name": "solc",
    "version": "0.8.0+commit.c7dfd78e.Emscripten.clang"
  },
  "schemaVersion": "3.4.3",
  "updatedAt": "2021-12-15T23:24:15.536Z",
  "devdoc": {
    "kind": "dev",
    "methods": {
      "allowance(address,address)": {
        "details": "See {IERC20-allowance}."
      },
      "approve(address,uint256)": {
        "details": "See {IERC20-approve}. Requirements: - `spender` cannot be the zero address."
      },
      "balanceOf(address)": {
        "details": "See {IERC20-balanceOf}."
      },
      "decimals()": {
        "details": "Returns the number of decimals used to get its user representation. For example, if `decimals` equals `2`, a balance of `505` tokens should be displayed to a user as `5.05` (`505 / 10 ** 2`). Tokens usually opt for a value of 18, imitating the relationship between Ether and Wei. This is the value {ERC20} uses, unless this function is overridden; NOTE: This information is only used for _display_ purposes: it in no way affects any of the arithmetic of the contract, including {IERC20-balanceOf} and {IERC20-transfer}."
      },
      "decreaseAllowance(address,uint256)": {
        "details": "Atomically decreases the allowance granted to `spender` by the caller. This is an alternative to {approve} that can be used as a mitigation for problems described in {IERC20-approve}. Emits an {Approval} event indicating the updated allowance. Requirements: - `spender` cannot be the zero address. - `spender` must have allowance for the caller of at least `subtractedValue`."
      },
      "deposit(address,uint256)": {
        "details": "Before someone call this function, the investor had to approve the current SC to manage his USDT amount. Important trigger approve function before this current function will be called."
      },
      "increaseAllowance(address,uint256)": {
        "details": "Atomically increases the allowance granted to `spender` by the caller. This is an alternative to {approve} that can be used as a mitigation for problems described in {IERC20-approve}. Emits an {Approval} event indicating the updated allowance. Requirements: - `spender` cannot be the zero address."
      },
      "mintRewards()": {
        "details": "return true if it mint process is executed successfully This function is called once by day, before that stakeOf(address investor)"
      },
      "name()": {
        "details": "Returns the name of the token."
      },
      "owner()": {
        "details": "Returns the address of the current owner."
      },
      "renounceOwnership()": {
        "details": "Leaves the contract without owner. It will not be possible to call `onlyOwner` functions anymore. Can only be called by the current owner. NOTE: Renouncing ownership will leave the contract without an owner, thereby removing any functionality that is only available to the owner."
      },
      "stakeOf(address)": {
        "details": "return true if it is transfered succesfully investor's benefits.  This function is called once by day after mintRewars()."
      },
      "symbol()": {
        "details": "Returns the symbol of the token, usually a shorter version of the name."
      },
      "totalSupply()": {
        "details": "See {IERC20-totalSupply}."
      },
      "transfer(address,uint256)": {
        "details": "See {IERC20-transfer}. Requirements: - `recipient` cannot be the zero address. - the caller must have a balance of at least `amount`."
      },
      "transferFrom(address,address,uint256)": {
        "details": "See {IERC20-transferFrom}. Emits an {Approval} event indicating the updated allowance. This is not required by the EIP. See the note at the beginning of {ERC20}. Requirements: - `sender` and `recipient` cannot be the zero address. - `sender` must have a balance of at least `amount`. - the caller must have allowance for ``sender``'s tokens of at least `amount`."
      },
      "transferOwnership(address)": {
        "details": "Transfers ownership of the contract to a new account (`newOwner`). Can only be called by the current owner."
      }
    },
    "version": 1
  },
  "userdoc": {
    "kind": "user",
    "methods": {},
    "version": 1
  }
}